{"abi":[{"type":"constructor","inputs":[],"stateMutability":"nonpayable"},{"type":"function","name":"DOMAIN_SEPARATOR","inputs":[],"outputs":[{"name":"","type":"bytes32","internalType":"bytes32"}],"stateMutability":"view"},{"type":"function","name":"allowance","inputs":[{"name":"_owner","type":"address","internalType":"address"},{"name":"_spender","type":"address","internalType":"address"}],"outputs":[{"name":"","type":"uint256","internalType":"uint256"}],"stateMutability":"view"},{"type":"function","name":"approve","inputs":[{"name":"_spender","type":"address","internalType":"address"},{"name":"_amount","type":"uint256","internalType":"uint256"}],"outputs":[{"name":"","type":"bool","internalType":"bool"}],"stateMutability":"nonpayable"},{"type":"function","name":"avatar","inputs":[],"outputs":[{"name":"","type":"address","internalType":"address"}],"stateMutability":"view"},{"type":"function","name":"balanceOf","inputs":[{"name":"_account","type":"address","internalType":"address"}],"outputs":[{"name":"","type":"uint256","internalType":"uint256"}],"stateMutability":"view"},{"type":"function","name":"balanceOfOnDay","inputs":[{"name":"_account","type":"address","internalType":"address"},{"name":"_day","type":"uint64","internalType":"uint64"}],"outputs":[{"name":"balanceOnDay_","type":"uint256","internalType":"uint256"},{"name":"discountCost_","type":"uint256","internalType":"uint256"}],"stateMutability":"view"},{"type":"function","name":"circlesIdentifier","inputs":[],"outputs":[{"name":"","type":"uint256","internalType":"uint256"}],"stateMutability":"view"},{"type":"function","name":"convertBatchDemurrageToInflationaryValues","inputs":[{"name":"_demurrageValues","type":"uint256[]","internalType":"uint256[]"},{"name":"_dayUpdated","type":"uint64","internalType":"uint64"}],"outputs":[{"name":"","type":"uint256[]","internalType":"uint256[]"}],"stateMutability":"pure"},{"type":"function","name":"convertBatchInflationaryToDemurrageValues","inputs":[{"name":"_inflationaryValues","type":"uint256[]","internalType":"uint256[]"},{"name":"_day","type":"uint64","internalType":"uint64"}],"outputs":[{"name":"","type":"uint256[]","internalType":"uint256[]"}],"stateMutability":"pure"},{"type":"function","name":"convertDemurrageToInflationaryValue","inputs":[{"name":"_demurrageValue","type":"uint256","internalType":"uint256"},{"name":"_dayUpdated","type":"uint64","internalType":"uint64"}],"outputs":[{"name":"","type":"uint256","internalType":"uint256"}],"stateMutability":"pure"},{"type":"function","name":"convertInflationaryToDemurrageValue","inputs":[{"name":"_inflationaryValue","type":"uint256","internalType":"uint256"},{"name":"_day","type":"uint64","internalType":"uint64"}],"outputs":[{"name":"","type":"uint256","internalType":"uint256"}],"stateMutability":"pure"},{"type":"function","name":"day","inputs":[{"name":"_timestamp","type":"uint256","internalType":"uint256"}],"outputs":[{"name":"","type":"uint64","internalType":"uint64"}],"stateMutability":"view"},{"type":"function","name":"decimals","inputs":[],"outputs":[{"name":"","type":"uint8","internalType":"uint8"}],"stateMutability":"pure"},{"type":"function","name":"decreaseAllowance","inputs":[{"name":"_spender","type":"address","internalType":"address"},{"name":"_subtractedValue","type":"uint256","internalType":"uint256"}],"outputs":[{"name":"","type":"bool","internalType":"bool"}],"stateMutability":"nonpayable"},{"type":"function","name":"discountedBalances","inputs":[{"name":"","type":"address","internalType":"address"}],"outputs":[{"name":"balance","type":"uint192","internalType":"uint192"},{"name":"lastUpdatedDay","type":"uint64","internalType":"uint64"}],"stateMutability":"view"},{"type":"function","name":"eip712Domain","inputs":[],"outputs":[{"name":"fields","type":"bytes1","internalType":"bytes1"},{"name":"name","type":"string","internalType":"string"},{"name":"version","type":"string","internalType":"string"},{"name":"chainId","type":"uint256","internalType":"uint256"},{"name":"verifyingContract","type":"address","internalType":"address"},{"name":"salt","type":"bytes32","internalType":"bytes32"},{"name":"extensions","type":"uint256[]","internalType":"uint256[]"}],"stateMutability":"view"},{"type":"function","name":"hub","inputs":[],"outputs":[{"name":"","type":"address","internalType":"contract IHubV2"}],"stateMutability":"view"},{"type":"function","name":"increaseAllowance","inputs":[{"name":"_spender","type":"address","internalType":"address"},{"name":"_addedValue","type":"uint256","internalType":"uint256"}],"outputs":[{"name":"","type":"bool","internalType":"bool"}],"stateMutability":"nonpayable"},{"type":"function","name":"inflationDayZero","inputs":[],"outputs":[{"name":"","type":"uint256","internalType":"uint256"}],"stateMutability":"view"},{"type":"function","name":"name","inputs":[],"outputs":[{"name":"","type":"string","internalType":"string"}],"stateMutability":"view"},{"type":"function","name":"nameRegistry","inputs":[],"outputs":[{"name":"","type":"address","internalType":"contract INameRegistry"}],"stateMutability":"view"},{"type":"function","name":"nonces","inputs":[{"name":"_owner","type":"address","internalType":"address"}],"outputs":[{"name":"","type":"uint256","internalType":"uint256"}],"stateMutability":"view"},{"type":"function","name":"onERC1155BatchReceived","inputs":[{"name":"","type":"address","internalType":"address"},{"name":"","type":"address","internalType":"address"},{"name":"","type":"uint256[]","internalType":"uint256[]"},{"name":"","type":"uint256[]","internalType":"uint256[]"},{"name":"","type":"bytes","internalType":"bytes"}],"outputs":[{"name":"","type":"bytes4","internalType":"bytes4"}],"stateMutability":"view"},{"type":"function","name":"onERC1155Received","inputs":[{"name":"","type":"address","internalType":"address"},{"name":"_from","type":"address","internalType":"address"},{"name":"_id","type":"uint256","internalType":"uint256"},{"name":"_amount","type":"uint256","internalType":"uint256"},{"name":"","type":"bytes","internalType":"bytes"}],"outputs":[{"name":"","type":"bytes4","internalType":"bytes4"}],"stateMutability":"nonpayable"},{"type":"function","name":"permit","inputs":[{"name":"_owner","type":"address","internalType":"address"},{"name":"_spender","type":"address","internalType":"address"},{"name":"_value","type":"uint256","internalType":"uint256"},{"name":"_deadline","type":"uint256","internalType":"uint256"},{"name":"_v","type":"uint8","internalType":"uint8"},{"name":"_r","type":"bytes32","internalType":"bytes32"},{"name":"_s","type":"bytes32","internalType":"bytes32"}],"outputs":[],"stateMutability":"nonpayable"},{"type":"function","name":"setup","inputs":[{"name":"_hub","type":"address","internalType":"address"},{"name":"_nameRegistry","type":"address","internalType":"address"},{"name":"_avatar","type":"address","internalType":"address"}],"outputs":[],"stateMutability":"nonpayable"},{"type":"function","name":"supportsInterface","inputs":[{"name":"interfaceId","type":"bytes4","internalType":"bytes4"}],"outputs":[{"name":"","type":"bool","internalType":"bool"}],"stateMutability":"view"},{"type":"function","name":"symbol","inputs":[],"outputs":[{"name":"","type":"string","internalType":"string"}],"stateMutability":"view"},{"type":"function","name":"toTokenId","inputs":[{"name":"_avatar","type":"address","internalType":"address"}],"outputs":[{"name":"","type":"uint256","internalType":"uint256"}],"stateMutability":"pure"},{"type":"function","name":"totalSupply","inputs":[],"outputs":[{"name":"","type":"uint256","internalType":"uint256"}],"stateMutability":"view"},{"type":"function","name":"transfer","inputs":[{"name":"_to","type":"address","internalType":"address"},{"name":"_amount","type":"uint256","internalType":"uint256"}],"outputs":[{"name":"","type":"bool","internalType":"bool"}],"stateMutability":"nonpayable"},{"type":"function","name":"transferFrom","inputs":[{"name":"_from","type":"address","internalType":"address"},{"name":"_to","type":"address","internalType":"address"},{"name":"_amount","type":"uint256","internalType":"uint256"}],"outputs":[{"name":"","type":"bool","internalType":"bool"}],"stateMutability":"nonpayable"},{"type":"function","name":"unwrap","inputs":[{"name":"_amount","type":"uint256","internalType":"uint256"}],"outputs":[],"stateMutability":"nonpayable"},{"type":"event","name":"Approval","inputs":[{"name":"owner","type":"address","indexed":true,"internalType":"address"},{"name":"spender","type":"address","indexed":true,"internalType":"address"},{"name":"value","type":"uint256","indexed":false,"internalType":"uint256"}],"anonymous":false},{"type":"event","name":"DepositDemurraged","inputs":[{"name":"account","type":"address","indexed":true,"internalType":"address"},{"name":"amount","type":"uint256","indexed":false,"internalType":"uint256"},{"name":"inflationaryAmount","type":"uint256","indexed":false,"internalType":"uint256"}],"anonymous":false},{"type":"event","name":"DiscountCost","inputs":[{"name":"account","type":"address","indexed":true,"internalType":"address"},{"name":"discountCost","type":"uint256","indexed":false,"internalType":"uint256"}],"anonymous":false},{"type":"event","name":"EIP712DomainChanged","inputs":[],"anonymous":false},{"type":"event","name":"Transfer","inputs":[{"name":"from","type":"address","indexed":true,"internalType":"address"},{"name":"to","type":"address","indexed":true,"internalType":"address"},{"name":"value","type":"uint256","indexed":false,"internalType":"uint256"}],"anonymous":false},{"type":"event","name":"WithdrawDemurraged","inputs":[{"name":"account","type":"address","indexed":true,"internalType":"address"},{"name":"amount","type":"uint256","indexed":false,"internalType":"uint256"},{"name":"inflationaryAmount","type":"uint256","indexed":false,"internalType":"uint256"}],"anonymous":false},{"type":"error","name":"CirclesAmountOverflow","inputs":[{"name":"amount","type":"uint256","internalType":"uint256"},{"name":"code","type":"uint8","internalType":"uint8"}]},{"type":"error","name":"CirclesERC1155CannotReceiveBatch","inputs":[{"name":"code","type":"uint8","internalType":"uint8"}]},{"type":"error","name":"CirclesErrorAddressUintArgs","inputs":[{"name":"","type":"address","internalType":"address"},{"name":"","type":"uint256","internalType":"uint256"},{"name":"","type":"uint8","internalType":"uint8"}]},{"type":"error","name":"CirclesErrorNoArgs","inputs":[{"name":"","type":"uint8","internalType":"uint8"}]},{"type":"error","name":"CirclesErrorOneAddressArg","inputs":[{"name":"","type":"address","internalType":"address"},{"name":"","type":"uint8","internalType":"uint8"}]},{"type":"error","name":"CirclesIdMustBeDerivedFromAddress","inputs":[{"name":"providedId","type":"uint256","internalType":"uint256"},{"name":"code","type":"uint8","internalType":"uint8"}]},{"type":"error","name":"CirclesInvalidCirclesId","inputs":[{"name":"id","type":"uint256","internalType":"uint256"},{"name":"code","type":"uint8","internalType":"uint8"}]},{"type":"error","name":"CirclesInvalidParameter","inputs":[{"name":"parameter","type":"uint256","internalType":"uint256"},{"name":"code","type":"uint8","internalType":"uint8"}]},{"type":"error","name":"CirclesProxyAlreadyInitialized","inputs":[]},{"type":"error","name":"CirclesReentrancyGuard","inputs":[{"name":"code","type":"uint8","internalType":"uint8"}]},{"type":"error","name":"ECDSAInvalidSignature","inputs":[]},{"type":"error","name":"ECDSAInvalidSignatureLength","inputs":[{"name":"length","type":"uint256","internalType":"uint256"}]},{"type":"error","name":"ECDSAInvalidSignatureS","inputs":[{"name":"s","type":"bytes32","internalType":"bytes32"}]},{"type":"error","name":"ERC20InsufficientAllowance","inputs":[{"name":"spender","type":"address","internalType":"address"},{"name":"allowance","type":"uint256","internalType":"uint256"},{"name":"needed","type":"uint256","internalType":"uint256"}]},{"type":"error","name":"ERC20InsufficientBalance","inputs":[{"name":"sender","type":"address","internalType":"address"},{"name":"balance","type":"uint256","internalType":"uint256"},{"name":"needed","type":"uint256","internalType":"uint256"}]},{"type":"error","name":"ERC20InvalidApprover","inputs":[{"name":"approver","type":"address","internalType":"address"}]},{"type":"error","name":"ERC20InvalidReceiver","inputs":[{"name":"receiver","type":"address","internalType":"address"}]},{"type":"error","name":"ERC20InvalidSender","inputs":[{"name":"sender","type":"address","internalType":"address"}]},{"type":"error","name":"ERC20InvalidSpender","inputs":[{"name":"spender","type":"address","internalType":"address"}]},{"type":"error","name":"ERC2612ExpiredSignature","inputs":[{"name":"deadline","type":"uint256","internalType":"uint256"}]},{"type":"error","name":"ERC2612InvalidSigner","inputs":[{"name":"signer","type":"address","internalType":"address"},{"name":"owner","type":"address","internalType":"address"}]},{"type":"error","name":"InvalidAccountNonce","inputs":[{"name":"account","type":"address","internalType":"address"},{"name":"currentNonce","type":"uint256","internalType":"uint256"}]},{"type":"error","name":"InvalidShortString","inputs":[]},{"type":"error","name":"StringTooLong","inputs":[{"name":"str","type":"string","internalType":"string"}]}],"bytecode":{"object":"0x610260604052681800000000000000006080908152682ffec785b3614dbacc60a0526847fc56a0fe9220851660c052685ff8ad61c531c51ed460e0526877f3cbd7ea10a8394961010052688fedb2134f3060fc826101205268a7e66023d5c3bb8c4e6101405268bfddd6195e2ec38ca76101605268d7d41403c806cea59c6101805268efc919f2f2128706a76101a052690107bce7f6ba49f5e9836101c05269011faf7e1efdd68e14726101e052690137a0dc7b9913365c016102005269014f91031c678c54243d610220526901677ff21143ffd5e163610240526100e890600d90600f6103b1565b503480156100f4575f80fd5b505f5b600e60ff8216116101725761011767fff2fae779633d1e60ff831661018b565b60158260ff16600f811061012d5761012d61046c565b600291828204019190066010026101000a8154816001600160801b030219169083600f0b6001600160801b03160217905550808061016a90610480565b9150506100f7565b50601f80546001600160a01b03191660011790556104aa565b5f805f84600f0b1280156101a25750826001166001145b90505f8085600f0b126101b557846101b9565b845f035b6001600160801b03169050600160801b68010000000000000000821161025357603f82901b91505b841561024b5760018516156101f6578102607f1c5b908002607f1c90600285161561020c578102607f1c5b908002607f1c906004851615610222578102607f1c5b908002607f1c906008851615610238578102607f1c5b60049490941c93908002607f1c906101e1565b60401c61036e565b603f6c010000000000000000000000008310156102765760209290921b91601f19015b600160701b83101561028e5760109290921b91600f19015b600160781b8310156102a65760089290921b91600719015b6001607c1b8310156102be5760049290921b91600319015b6001607e1b8310156102d65760029290921b91600119015b6001607f1b8310156102ed5760019290921b915f19015b5f5b86156103585760408210610301575f80fd5b600187161561032757918302607f1c918101600160801b83111561032757600192831c92015b928002607f1c9260019190911b90600160801b841061034c57600193841c9391909101905b600187901c96506102ef565b60408110610364575f80fd5b6040039190911c90505b5f8361037a578161037e565b815f035b905060016001607f1b0319811280159061039f575060016001607f1b038113155b6103a7575f80fd5b9695505050505050565b600883019183908215610448579160200282015f5b8382111561041357835183826101000a8154816001600160801b030219169083600f0b6001600160801b031602179055509260200192601001602081600f010492830192600103026103c6565b80156104465782816101000a8154906001600160801b030219169055601001602081600f01049283019260010302610413565b505b50610454929150610458565b5090565b5b80821115610454575f8155600101610459565b634e487b7160e01b5f52603260045260245ffd5b5f60ff821660ff81036104a157634e487b7160e01b5f52601160045260245ffd5b60010192915050565b6126ee806104b75f395ff3fe608060405234801561000f575f80fd5b50600436106101f2575f3560e01c80637cf637cd11610114578063a457c2d7116100a9578063dd62ed3e11610079578063dd62ed3e146104b3578063de0e9a3e146104eb578063e8c6f909146104fe578063f23a6e6114610511578063f39f6d0114610524575f80fd5b8063a457c2d71461044e578063a9059cbb14610461578063bc197c8114610474578063d505accf146104a0575f80fd5b80639411becd116100e45780639411becd146103c157806395d89b411461042257806396ef14441461042a57806399342aa31461043b575f80fd5b80637cf637cd1461034e5780637ecebe001461036857806384b0196e1461037b5780638ff12b6d14610396575f80fd5b8063365a86fc1161018a57806370a082311161015a57806370a08231146102fd5780637421c1d71461031057806377b8b1c7146103305780637c234d0114610345575f80fd5b8063365a86fc1461029957806339509351146102c45780634eb7221a146102d75780635aef7de6146102ea575f80fd5b806323b872dd116101c557806323b872dd1461025c578063253dd0b51461026f578063313ce567146102825780633644e51514610291575f80fd5b806301ffc9a7146101f657806306fdde031461021e578063095ea7b31461023357806318160ddd14610246575b5f80fd5b610209610204366004611e52565b61054c565b60405190151581526020015b60405180910390f35b610226610582565b6040516102159190611eae565b610209610241366004611edb565b61061a565b61024e61062f565b604051908152602001610215565b61020961026a366004611f03565b6106bb565b61024e61027d366004611f52565b6106dc565b60405160128152602001610215565b61024e61070e565b601f546102ac906001600160a01b031681565b6040516001600160a01b039091168152602001610215565b6102096102d2366004611edb565b610717565b6020546102ac906001600160a01b031681565b601d546102ac906001600160a01b031681565b61024e61030b366004611f7c565b610750565b61032361031e366004612055565b610767565b60405161021591906120d0565b61034361033e3660046120e2565b610829565b005b61024e600c5481565b61024e61035c366004611f7c565b6001600160a01b031690565b61024e610376366004611f7c565b61097a565b610383610997565b6040516102159796959493929190612122565b6103a96103a4366004612191565b6109d9565b6040516001600160401b039091168152602001610215565b6103fb6103cf366004611f7c565b601e6020525f90815260409020546001600160c01b03811690600160c01b90046001600160401b031682565b604080516001600160c01b0390931683526001600160401b03909116602083015201610215565b6102266109f6565b601d546001600160a01b031661024e565b61024e610449366004611f52565b610a6b565b61020961045c366004611edb565b610a88565b61020961046f366004611edb565b610acf565b610487610482366004612220565b610adb565b6040516001600160e01b03199091168152602001610215565b6103436104ae3660046122c2565b610b30565b61024e6104c136600461232f565b6001600160a01b039182165f908152600b6020908152604080832093909416825291909152205490565b6103436104f9366004612191565b610c66565b61032361050c366004612055565b610d44565b61048761051f366004612357565b610df1565b6105376105323660046123b6565b610ed2565b60408051928352602083019190915201610215565b5f6001600160e01b03198216630271189760e51b148061057c57506301ffc9a760e01b6001600160e01b03198316145b92915050565b602054601d5460405162cc244960e11b81526001600160a01b03918216600482015260609291909116906301984892906024015f60405180830381865afa1580156105cf573d5f803e3d5ffd5b505050506040513d5f823e601f3d908101601f191682016040526105f691908101906123de565b6040516020016106069190612452565b604051602081830303815290604052905090565b5f610626338484610fb9565b50600192915050565b601f54601d545f916001600160a01b039081169162fdd58e913091166040516001600160e01b031960e085901b1681526001600160a01b0390921660048301526024820152604401602060405180830381865afa158015610692573d5f803e3d5ffd5b505050506040513d601f19601f820116820180604052508101906106b69190612474565b905090565b5f6106c784338461106b565b6106d28484846110e5565b5060019392505050565b5f806106fa6801000d05c213d3f237846001600160401b031661120c565b9050610706818561143b565b949350505050565b5f6106b661149f565b335f818152600b602090815260408083206001600160a01b038716845290915281205490916106d2908561074b868561249f565b610fb9565b5f8061075f83610532426109d9565b509392505050565b60605f61078567fff2fae779633d1e846001600160401b031661120c565b90505f84516001600160401b038111156107a1576107a1611f95565b6040519080825280602002602001820160405280156107ca578160200160208202803683370190505b5090505f5b8551811015610820576107fb838783815181106107ee576107ee6124b2565b602002602001015161143b565b82828151811061080d5761080d6124b2565b60209081029190910101526001016107cf565b50949350505050565b601f546001600160a01b03161561085357604051635bbc3edf60e01b815260040160405180910390fd5b6001600160a01b0383166108815760405163d82c8fc960e01b81526004818101526024015b60405180910390fd5b6001600160a01b0382166108ab5760405163d82c8fc960e01b815260056004820152602401610878565b6001600160a01b0381166108d55760405163d82c8fc960e01b815260066004820152602401610878565b601f80546001600160a01b038086166001600160a01b03199283168117909355601d8054858316908416179055602080549186169190921617815560408051637c234d0160e01b81529051637c234d01926004808401939192918290030181865afa158015610946573d5f803e3d5ffd5b505050506040513d601f19601f8201168201806040525081019061096a9190612474565b600c556109756114d0565b505050565b6001600160a01b0381165f908152600a602052604081205461057c565b5f6060805f805f60606109a8611515565b6109b0611526565b604080515f80825260208201909252600f60f81b9b939a50919850469750309650945092509050565b5f62015180600c54836109ec91906124c6565b61057c91906124d9565b602054601d546040516354371abb60e11b81526001600160a01b039182166004820152606092919091169063a86e3576906024015f60405180830381865afa158015610a44573d5f803e3d5ffd5b505050506040513d5f823e601f3d908101601f191682016040526106b691908101906123de565b5f806106fa67fff2fae779633d1e846001600160401b031661120c565b335f908152600b602090815260408083206001600160a01b0386168452909152812054808310610ac257610abd33855f610fb9565b6106d2565b6106d23385858403610fb9565b5f6106263384846110e5565b601f545f9060e2906001600160a01b03163314610b155760405162c14c0760e81b815233600482015260ff82166024820152604401610878565b60405163435c329f60e11b81525f6004820152602401610878565b83421115610b545760405163313c898160e11b815260048101859052602401610878565b5f7f6e71edae12b1b97f4d1f60370fef10105fa2faae0126114a169c64845d6126c9888888610b9f8c6001600160a01b03165f908152600a6020526040902080546001810190915590565b6040805160208101969096526001600160a01b0394851690860152929091166060840152608083015260a082015260c0810186905260e0016040516020818303038152906040528051906020012090505f610bf982611537565b90505f610c0882878787611563565b9050896001600160a01b0316816001600160a01b031614610c4f576040516325c0072360e11b81526001600160a01b0380831660048301528b166024820152604401610878565b610c5a8a8a8a610fb9565b50505050505050505050565b610c70338261158f565b601f54601d5460408051637921219560e11b81523060048201523360248201526001600160a01b0392831660448201526064810185905260a060848201525f60a482018190529151929093169263f242432a9260c4808301939282900301818387803b158015610cde575f80fd5b505af1158015610cf0573d5f803e3d5ffd5b505050505f610d028261027d426109d9565b604080518481526020810183905291925033917f977900bc666a7494a55ab2dca1964c91540668d0d2fc28fc400aa24309d65524910160405180910390a25050565b60605f610d636801000d05c213d3f237846001600160401b031661120c565b90505f84516001600160401b03811115610d7f57610d7f611f95565b604051908082528060200260200182016040528015610da8578160200160208202803683370190505b5090505f5b855181101561082057610dcc838783815181106107ee576107ee6124b2565b828281518110610dde57610dde6124b2565b6020908102919091010152600101610dad565b601f545f9060e1906001600160a01b03163314610e2b5760405162c14c0760e81b815233600482015260ff82166024820152604401610878565b601d546001600160a01b03168514610e5f576040516363b25d3160e01b8152600481018690525f6024820152604401610878565b610e69868561169d565b5f610e778561027d426109d9565b60408051878152602081018390529192506001600160a01b038916917f83b6033bf67f391ebd3c21882b979c86ac2cc1914e7c82a4dccfc96b0370d871910160405180910390a25063f23a6e6160e01b979650505050505050565b6001600160a01b0382165f908152601e602090815260408083208151808301909252546001600160c01b03811682526001600160401b03600160c01b909104811692820183905283929085161015610f64576020810151604051632f20c6dd60e11b81526001600160a01b03871660048201526001600160401b03909116602482015260a26044820152606401610878565b602081015181516001600160401b038287031691610f9e916001600160c01b031690610f9090886124f8565b6001600160401b03166116e1565b9151919350506001600160c01b031682900390509250929050565b6001600160a01b038316610fe25760405163e602df0560e01b81525f6004820152602401610878565b6001600160a01b03821661100b57604051634a1406b160e11b81525f6004820152602401610878565b6001600160a01b038381165f818152600b602090815260408083209487168084529482529182902085905590518481527f8c5be1e5ebec7d5bd14f71427d1e84f3dd0314c0f7b2291e5b200ac8c7c3b925910160405180910390a3505050565b6001600160a01b038084165f908152600b60209081526040808320938616835292905220545f1981146110df57818110156110d257604051637dc7a0d960e11b81526001600160a01b03841660048201526024810182905260448101839052606401610878565b6110df8484848403610fb9565b50505050565b5f6110ef426109d9565b90505f806110fd8684610ed2565b915091508382101561113b5760405163391434e360e21b81526001600160a01b03871660048201526024810183905260448101859052606401610878565b80156111b2576040518181525f906001600160a01b038816905f805160206126998339815191529060200160405180910390a3856001600160a01b03167f88c534820da076ee2c194c97925f86f89c7c88bd537ee3e36a07ef4dbead2bbc826040516111a991815260200190565b60405180910390a25b6111bf86858403856116fa565b6111ca85858561179b565b846001600160a01b0316866001600160a01b03165f80516020612699833981519152866040516111fc91815260200190565b60405180910390a3505050505050565b5f805f84600f0b1280156112235750826001166001145b90505f8085600f0b12611236578461123a565b845f035b6001600160801b03169050600160801b6801000000000000000082116112d457603f82901b91505b84156112cc576001851615611277578102607f1c5b908002607f1c90600285161561128d578102607f1c5b908002607f1c9060048516156112a3578102607f1c5b908002607f1c9060088516156112b9578102607f1c5b60049490941c93908002607f1c90611262565b60401c6113e6565b603f600160601b8310156112ee5760209290921b91601f19015b600160701b8310156113065760109290921b91600f19015b600160781b83101561131e5760089290921b91600719015b6001607c1b8310156113365760049290921b91600319015b6001607e1b83101561134e5760029290921b91600119015b6001607f1b8310156113655760019290921b915f19015b5f5b86156113d05760408210611379575f80fd5b600187161561139f57918302607f1c918101600160801b83111561139f57600192831c92015b928002607f1c9260019190911b90600160801b84106113c457600193841c9391909101905b600187901c9650611367565b604081106113dc575f80fd5b6040039190911c90505b5f836113f257816113f6565b815f035b90506f7fffffffffffffffffffffffffffffff19811280159061142957506f7fffffffffffffffffffffffffffffff8113155b611431575f80fd5b9695505050505050565b5f815f0361144a57505f61057c565b5f83600f0b1215611459575f80fd5b600f83900b6001600160801b038316810260401c90608084901c026001600160c01b03811115611487575f80fd5b60401b8119811115611497575f80fd5b019392505050565b6003545f906001600160a01b0316301480156114bc575060025446145b156114c8575060015490565b6106b6611987565b61151360405180604001604052806007815260200166436972636c657360c81b815250604051806040016040528060028152602001613b1960f11b8152506119ef565b565b6006546060906106b6906008611a47565b6007546060906106b6906009611a47565b5f61057c61154361149f565b8360405161190160f01b8152600281019290925260228201526042902090565b5f805f8061157388888888611af0565b9250925092506115838282611bb8565b50909695505050505050565b5f611599426109d9565b90505f806115a78584610ed2565b91509150838210156115e55760405163391434e360e21b81526001600160a01b03861660048201526024810183905260448101859052606401610878565b801561165c576040518181525f906001600160a01b038716905f805160206126998339815191529060200160405180910390a3846001600160a01b03167f88c534820da076ee2c194c97925f86f89c7c88bd537ee3e36a07ef4dbead2bbc8260405161165391815260200190565b60405180910390a25b61166985858403856116fa565b6040518481525f906001600160a01b038716905f805160206126998339815191529060200160405180910390a35050505050565b6116b082826116ab426109d9565b61179b565b6040518181526001600160a01b038316905f905f805160206126998339815191529060200160405180910390a35050565b5f815f036116f057508161057c565b5f6106fa83611c74565b6001600160c01b0382111561174057601d54604051632f20c6dd60e11b81526001600160a01b038086166004830152909116602482015260836044820152606401610878565b6001600160a01b039092165f818152601e6020818152604080842081518083019092526001600160c01b0396871682526001600160401b0397881682840190815295909452919052519151909316600160c01b029116179055565b6001600160a01b0383165f908152601e60209081526040918290208251808401909352546001600160c01b03811683526001600160401b03600160c01b90910481169183018290528316101561182b576020810151604051632f20c6dd60e11b81526001600160a01b03861660048201526001600160401b03909116602482015260a36044820152606401610878565b5f816020015183036001600160401b031690505f611855835f01516001600160c01b031683611ccd565b83519091506001600160c01b03168181039082146118de576040518181525f906001600160a01b038916905f805160206126998339815191529060200160405180910390a3866001600160a01b03167f88c534820da076ee2c194c97925f86f89c7c88bd537ee3e36a07ef4dbead2bbc826040516118d591815260200190565b60405180910390a25b505f6118ea868361249f565b90506001600160c01b0381111561193257601d54604051632f20c6dd60e11b81526001600160a01b03808a166004830152909116602482015260846044820152606401610878565b6001600160c01b0390811684526001600160401b0394851660208086019182526001600160a01b039098165f908152601e909852604090972093519651909416600160c01b0295909316949094179055505050565b600454600554604080517f8b73c3c69bb8fe3d512ecc4cf759cc79239f7b179b0ffacaa9a75d522b39400f60208201529081019290925260608201524660808201523060a08201525f9060c00160405160208183030381529060405280519060200120905090565b6119fa826008611ce6565b600655611a08816009611ce6565b600755815160208084019190912060045581519082012060055546600255611a2e611987565b6001555050600380546001600160a01b03191630179055565b606060ff8314611a6157611a5a83611d0f565b905061057c565b818054611a6d9061251f565b80601f0160208091040260200160405190810160405280929190818152602001828054611a999061251f565b8015611ae45780601f10611abb57610100808354040283529160200191611ae4565b820191905f5260205f20905b815481529060010190602001808311611ac757829003601f168201915b5050505050905061057c565b5f80807f7fffffffffffffffffffffffffffffff5d576e7357a4501ddfe92f46681b20a0841115611b2957505f91506003905082611bae565b604080515f808252602082018084528a905260ff891692820192909252606081018790526080810186905260019060a0016020604051602081039080840390855afa158015611b7a573d5f803e3d5ffd5b5050604051601f1901519150506001600160a01b038116611ba557505f925060019150829050611bae565b92505f91508190505b9450945094915050565b5f826003811115611bcb57611bcb612557565b03611bd4575050565b6001826003811115611be857611be8612557565b03611c065760405163f645eedf60e01b815260040160405180910390fd5b6002826003811115611c1a57611c1a612557565b03611c3b5760405163fce698f760e01b815260048101829052602401610878565b6003826003811115611c4f57611c4f612557565b03611c70576040516335e2f38360e21b815260048101829052602401610878565b5050565b5f600e8211611cbb575f601583600f8110611c9157611c916124b2565b60028104919091015460019091166010026101000a9004600f0b90508015611cb95792915050565b505b61057c67fff2fae779633d1e8361120c565b5f815f03611cdc57508161057c565b5f6106fa83611d4c565b5f602083511015611cfa57611a5a83611dee565b81611d0584826125b6565b5060ff905061057c565b60605f611d1b83611e2b565b6040805160208082528183019092529192505f91906020820181803683375050509182525060208101929092525090565b5f600e8211611cbb575f601583600f8110611d6957611d696124b2565b600291828204019190066010029054906101000a9004600f0b905080600f0b5f0361057c57611da067fff2fae779633d1e8461120c565b905080601584600f8110611db657611db66124b2565b600291828204019190066010026101000a8154816001600160801b030219169083600f0b6001600160801b0316021790555092915050565b5f80829050601f81511115611e18578260405163305a27a960e01b81526004016108789190611eae565b8051611e2382612675565b179392505050565b5f60ff8216601f81111561057c57604051632cd44ac360e21b815260040160405180910390fd5b5f60208284031215611e62575f80fd5b81356001600160e01b031981168114611e79575f80fd5b9392505050565b5f81518084528060208401602086015e5f602082860101526020601f19601f83011685010191505092915050565b602081525f611e796020830184611e80565b80356001600160a01b0381168114611ed6575f80fd5b919050565b5f8060408385031215611eec575f80fd5b611ef583611ec0565b946020939093013593505050565b5f805f60608486031215611f15575f80fd5b611f1e84611ec0565b9250611f2c60208501611ec0565b9150604084013590509250925092565b80356001600160401b0381168114611ed6575f80fd5b5f8060408385031215611f63575f80fd5b82359150611f7360208401611f3c565b90509250929050565b5f60208284031215611f8c575f80fd5b611e7982611ec0565b634e487b7160e01b5f52604160045260245ffd5b604051601f8201601f191681016001600160401b0381118282101715611fd157611fd1611f95565b604052919050565b5f82601f830112611fe8575f80fd5b813560206001600160401b0382111561200357612003611f95565b8160051b612012828201611fa9565b928352848101820192828101908785111561202b575f80fd5b83870192505b8483101561204a57823582529183019190830190612031565b979650505050505050565b5f8060408385031215612066575f80fd5b82356001600160401b0381111561207b575f80fd5b61208785828601611fd9565b925050611f7360208401611f3c565b5f815180845260208085019450602084015f5b838110156120c5578151875295820195908201906001016120a9565b509495945050505050565b602081525f611e796020830184612096565b5f805f606084860312156120f4575f80fd5b6120fd84611ec0565b925061210b60208501611ec0565b915061211960408501611ec0565b90509250925092565b60ff60f81b8816815260e060208201525f61214060e0830189611e80565b82810360408401526121528189611e80565b606084018890526001600160a01b038716608085015260a0840186905283810360c085015290506121838185612096565b9a9950505050505050505050565b5f602082840312156121a1575f80fd5b5035919050565b5f6001600160401b038211156121c0576121c0611f95565b50601f01601f191660200190565b5f82601f8301126121dd575f80fd5b81356121f06121eb826121a8565b611fa9565b818152846020838601011115612204575f80fd5b816020850160208301375f918101602001919091529392505050565b5f805f805f60a08688031215612234575f80fd5b61223d86611ec0565b945061224b60208701611ec0565b935060408601356001600160401b0380821115612266575f80fd5b61227289838a01611fd9565b94506060880135915080821115612287575f80fd5b61229389838a01611fd9565b935060808801359150808211156122a8575f80fd5b506122b5888289016121ce565b9150509295509295909350565b5f805f805f805f60e0888a0312156122d8575f80fd5b6122e188611ec0565b96506122ef60208901611ec0565b95506040880135945060608801359350608088013560ff81168114612312575f80fd5b9699959850939692959460a0840135945060c09093013592915050565b5f8060408385031215612340575f80fd5b61234983611ec0565b9150611f7360208401611ec0565b5f805f805f60a0868803121561236b575f80fd5b61237486611ec0565b945061238260208701611ec0565b9350604086013592506060860135915060808601356001600160401b038111156123aa575f80fd5b6122b5888289016121ce565b5f80604083850312156123c7575f80fd5b6123d083611ec0565b9150611f7360208401611f3c565b5f602082840312156123ee575f80fd5b81516001600160401b03811115612403575f80fd5b8201601f81018413612413575f80fd5b80516124216121eb826121a8565b818152856020838501011115612435575f80fd5b8160208401602083015e5f91810160200191909152949350505050565b5f82518060208501845e6502d45524332360d41b920191825250600601919050565b5f60208284031215612484575f80fd5b5051919050565b634e487b7160e01b5f52601160045260245ffd5b8082018082111561057c5761057c61248b565b634e487b7160e01b5f52603260045260245ffd5b8181038181111561057c5761057c61248b565b5f826124f357634e487b7160e01b5f52601260045260245ffd5b500490565b6001600160401b038281168282160390808211156125185761251861248b565b5092915050565b600181811c9082168061253357607f821691505b60208210810361255157634e487b7160e01b5f52602260045260245ffd5b50919050565b634e487b7160e01b5f52602160045260245ffd5b601f82111561097557805f5260205f20601f840160051c810160208510156125905750805b601f840160051c820191505b818110156125af575f815560010161259c565b5050505050565b81516001600160401b038111156125cf576125cf611f95565b6125e3816125dd845461251f565b8461256b565b602080601f831160018114612616575f84156125ff5750858301515b5f19600386901b1c1916600185901b17855561266d565b5f85815260208120601f198616915b8281101561264457888601518255948401946001909101908401612625565b508582101561266157878501515f19600388901b60f8161c191681555b505060018460011b0185555b505050505050565b80516020808301519190811015612551575f1960209190910360031b1b1691905056feddf252ad1be2c89b69c2b068fc378daa952ba7f163c4a11628f55a4df523b3efa2646970667358221220de846c5b832b3c31428dd9bedbce6f84cd1297f7ef461bfe76c70bc16e5ba6d464736f6c63430008190033","linkReferences":{}},"methodIdentifiers":{"DOMAIN_SEPARATOR()":"3644e515","allowance(address,address)":"dd62ed3e","approve(address,uint256)":"095ea7b3","avatar()":"5aef7de6","balanceOf(address)":"70a08231","balanceOfOnDay(address,uint64)":"f39f6d01","circlesIdentifier()":"96ef1444","convertBatchDemurrageToInflationaryValues(uint256[],uint64)":"e8c6f909","convertBatchInflationaryToDemurrageValues(uint256[],uint64)":"7421c1d7","convertDemurrageToInflationaryValue(uint256,uint64)":"253dd0b5","convertInflationaryToDemurrageValue(uint256,uint64)":"99342aa3","day(uint256)":"8ff12b6d","decimals()":"313ce567","decreaseAllowance(address,uint256)":"a457c2d7","discountedBalances(address)":"9411becd","eip712Domain()":"84b0196e","hub()":"365a86fc","increaseAllowance(address,uint256)":"39509351","inflationDayZero()":"7c234d01","name()":"06fdde03","nameRegistry()":"4eb7221a","nonces(address)":"7ecebe00","onERC1155BatchReceived(address,address,uint256[],uint256[],bytes)":"bc197c81","onERC1155Received(address,address,uint256,uint256,bytes)":"f23a6e61","permit(address,address,uint256,uint256,uint8,bytes32,bytes32)":"d505accf","setup(address,address,address)":"77b8b1c7","supportsInterface(bytes4)":"01ffc9a7","symbol()":"95d89b41","toTokenId(address)":"7cf637cd","totalSupply()":"18160ddd","transfer(address,uint256)":"a9059cbb","transferFrom(address,address,uint256)":"23b872dd","unwrap(uint256)":"de0e9a3e"},"id":53}