{"abi":[{"type":"constructor","inputs":[],"stateMutability":"nonpayable"},{"type":"function","name":"DOMAIN_SEPARATOR","inputs":[],"outputs":[{"name":"","type":"bytes32","internalType":"bytes32"}],"stateMutability":"view"},{"type":"function","name":"allowance","inputs":[{"name":"_owner","type":"address","internalType":"address"},{"name":"_spender","type":"address","internalType":"address"}],"outputs":[{"name":"","type":"uint256","internalType":"uint256"}],"stateMutability":"view"},{"type":"function","name":"approve","inputs":[{"name":"_spender","type":"address","internalType":"address"},{"name":"_amount","type":"uint256","internalType":"uint256"}],"outputs":[{"name":"","type":"bool","internalType":"bool"}],"stateMutability":"nonpayable"},{"type":"function","name":"avatar","inputs":[],"outputs":[{"name":"","type":"address","internalType":"address"}],"stateMutability":"view"},{"type":"function","name":"balanceOf","inputs":[{"name":"_account","type":"address","internalType":"address"}],"outputs":[{"name":"","type":"uint256","internalType":"uint256"}],"stateMutability":"view"},{"type":"function","name":"balanceOfOnDay","inputs":[{"name":"_account","type":"address","internalType":"address"},{"name":"_day","type":"uint64","internalType":"uint64"}],"outputs":[{"name":"balanceOnDay_","type":"uint256","internalType":"uint256"},{"name":"discountCost_","type":"uint256","internalType":"uint256"}],"stateMutability":"view"},{"type":"function","name":"circlesIdentifier","inputs":[],"outputs":[{"name":"","type":"uint256","internalType":"uint256"}],"stateMutability":"view"},{"type":"function","name":"convertDemurrageToInflationaryValue","inputs":[{"name":"_demurrageValue","type":"uint256","internalType":"uint256"},{"name":"_dayUpdated","type":"uint64","internalType":"uint64"}],"outputs":[{"name":"","type":"uint256","internalType":"uint256"}],"stateMutability":"pure"},{"type":"function","name":"convertInflationaryToDemurrageValue","inputs":[{"name":"_inflationaryValue","type":"uint256","internalType":"uint256"},{"name":"_day","type":"uint64","internalType":"uint64"}],"outputs":[{"name":"","type":"uint256","internalType":"uint256"}],"stateMutability":"pure"},{"type":"function","name":"day","inputs":[{"name":"_timestamp","type":"uint256","internalType":"uint256"}],"outputs":[{"name":"","type":"uint64","internalType":"uint64"}],"stateMutability":"view"},{"type":"function","name":"decimals","inputs":[],"outputs":[{"name":"","type":"uint8","internalType":"uint8"}],"stateMutability":"pure"},{"type":"function","name":"decreaseAllowance","inputs":[{"name":"_spender","type":"address","internalType":"address"},{"name":"_subtractedValue","type":"uint256","internalType":"uint256"}],"outputs":[{"name":"","type":"bool","internalType":"bool"}],"stateMutability":"nonpayable"},{"type":"function","name":"discountedBalances","inputs":[{"name":"","type":"address","internalType":"address"}],"outputs":[{"name":"balance","type":"uint192","internalType":"uint192"},{"name":"lastUpdatedDay","type":"uint64","internalType":"uint64"}],"stateMutability":"view"},{"type":"function","name":"eip712Domain","inputs":[],"outputs":[{"name":"fields","type":"bytes1","internalType":"bytes1"},{"name":"name","type":"string","internalType":"string"},{"name":"version","type":"string","internalType":"string"},{"name":"chainId","type":"uint256","internalType":"uint256"},{"name":"verifyingContract","type":"address","internalType":"address"},{"name":"salt","type":"bytes32","internalType":"bytes32"},{"name":"extensions","type":"uint256[]","internalType":"uint256[]"}],"stateMutability":"view"},{"type":"function","name":"hub","inputs":[],"outputs":[{"name":"","type":"address","internalType":"contract IHubV2"}],"stateMutability":"view"},{"type":"function","name":"increaseAllowance","inputs":[{"name":"_spender","type":"address","internalType":"address"},{"name":"_addedValue","type":"uint256","internalType":"uint256"}],"outputs":[{"name":"","type":"bool","internalType":"bool"}],"stateMutability":"nonpayable"},{"type":"function","name":"inflationDayZero","inputs":[],"outputs":[{"name":"","type":"uint256","internalType":"uint256"}],"stateMutability":"view"},{"type":"function","name":"name","inputs":[],"outputs":[{"name":"","type":"string","internalType":"string"}],"stateMutability":"view"},{"type":"function","name":"nameRegistry","inputs":[],"outputs":[{"name":"","type":"address","internalType":"contract INameRegistry"}],"stateMutability":"view"},{"type":"function","name":"nonces","inputs":[{"name":"_owner","type":"address","internalType":"address"}],"outputs":[{"name":"","type":"uint256","internalType":"uint256"}],"stateMutability":"view"},{"type":"function","name":"onERC1155BatchReceived","inputs":[{"name":"","type":"address","internalType":"address"},{"name":"","type":"address","internalType":"address"},{"name":"","type":"uint256[]","internalType":"uint256[]"},{"name":"","type":"uint256[]","internalType":"uint256[]"},{"name":"","type":"bytes","internalType":"bytes"}],"outputs":[{"name":"","type":"bytes4","internalType":"bytes4"}],"stateMutability":"view"},{"type":"function","name":"onERC1155Received","inputs":[{"name":"","type":"address","internalType":"address"},{"name":"_from","type":"address","internalType":"address"},{"name":"_id","type":"uint256","internalType":"uint256"},{"name":"_amount","type":"uint256","internalType":"uint256"},{"name":"","type":"bytes","internalType":"bytes"}],"outputs":[{"name":"","type":"bytes4","internalType":"bytes4"}],"stateMutability":"nonpayable"},{"type":"function","name":"permit","inputs":[{"name":"_owner","type":"address","internalType":"address"},{"name":"_spender","type":"address","internalType":"address"},{"name":"_value","type":"uint256","internalType":"uint256"},{"name":"_deadline","type":"uint256","internalType":"uint256"},{"name":"_v","type":"uint8","internalType":"uint8"},{"name":"_r","type":"bytes32","internalType":"bytes32"},{"name":"_s","type":"bytes32","internalType":"bytes32"}],"outputs":[],"stateMutability":"nonpayable"},{"type":"function","name":"setup","inputs":[{"name":"_hub","type":"address","internalType":"address"},{"name":"_nameRegistry","type":"address","internalType":"address"},{"name":"_avatar","type":"address","internalType":"address"}],"outputs":[],"stateMutability":"nonpayable"},{"type":"function","name":"supportsInterface","inputs":[{"name":"interfaceId","type":"bytes4","internalType":"bytes4"}],"outputs":[{"name":"","type":"bool","internalType":"bool"}],"stateMutability":"view"},{"type":"function","name":"symbol","inputs":[],"outputs":[{"name":"","type":"string","internalType":"string"}],"stateMutability":"view"},{"type":"function","name":"toTokenId","inputs":[{"name":"_avatar","type":"address","internalType":"address"}],"outputs":[{"name":"","type":"uint256","internalType":"uint256"}],"stateMutability":"pure"},{"type":"function","name":"totalSupply","inputs":[],"outputs":[{"name":"","type":"uint256","internalType":"uint256"}],"stateMutability":"view"},{"type":"function","name":"transfer","inputs":[{"name":"_to","type":"address","internalType":"address"},{"name":"_amount","type":"uint256","internalType":"uint256"}],"outputs":[{"name":"","type":"bool","internalType":"bool"}],"stateMutability":"nonpayable"},{"type":"function","name":"transferFrom","inputs":[{"name":"_from","type":"address","internalType":"address"},{"name":"_to","type":"address","internalType":"address"},{"name":"_amount","type":"uint256","internalType":"uint256"}],"outputs":[{"name":"","type":"bool","internalType":"bool"}],"stateMutability":"nonpayable"},{"type":"function","name":"unwrap","inputs":[{"name":"_amount","type":"uint256","internalType":"uint256"}],"outputs":[],"stateMutability":"nonpayable"},{"type":"event","name":"Approval","inputs":[{"name":"owner","type":"address","indexed":true,"internalType":"address"},{"name":"spender","type":"address","indexed":true,"internalType":"address"},{"name":"value","type":"uint256","indexed":false,"internalType":"uint256"}],"anonymous":false},{"type":"event","name":"DepositDemurraged","inputs":[{"name":"account","type":"address","indexed":true,"internalType":"address"},{"name":"amount","type":"uint256","indexed":false,"internalType":"uint256"},{"name":"inflationaryAmount","type":"uint256","indexed":false,"internalType":"uint256"}],"anonymous":false},{"type":"event","name":"EIP712DomainChanged","inputs":[],"anonymous":false},{"type":"event","name":"Transfer","inputs":[{"name":"from","type":"address","indexed":true,"internalType":"address"},{"name":"to","type":"address","indexed":true,"internalType":"address"},{"name":"value","type":"uint256","indexed":false,"internalType":"uint256"}],"anonymous":false},{"type":"event","name":"WithdrawDemurraged","inputs":[{"name":"account","type":"address","indexed":true,"internalType":"address"},{"name":"amount","type":"uint256","indexed":false,"internalType":"uint256"},{"name":"inflationaryAmount","type":"uint256","indexed":false,"internalType":"uint256"}],"anonymous":false},{"type":"error","name":"CirclesAddressCannotBeZero","inputs":[{"name":"code","type":"uint8","internalType":"uint8"}]},{"type":"error","name":"CirclesAmountMustNotBeZero","inputs":[{"name":"code","type":"uint8","internalType":"uint8"}]},{"type":"error","name":"CirclesAmountOverflow","inputs":[{"name":"amount","type":"uint256","internalType":"uint256"},{"name":"code","type":"uint8","internalType":"uint8"}]},{"type":"error","name":"CirclesArrayMustNotBeEmpty","inputs":[{"name":"code","type":"uint8","internalType":"uint8"}]},{"type":"error","name":"CirclesArraysLengthMismatch","inputs":[{"name":"lengthArray1","type":"uint256","internalType":"uint256"},{"name":"lengthArray2","type":"uint256","internalType":"uint256"},{"name":"code","type":"uint8","internalType":"uint8"}]},{"type":"error","name":"CirclesAvatarMustBeRegistered","inputs":[{"name":"avatar","type":"address","internalType":"address"},{"name":"code","type":"uint8","internalType":"uint8"}]},{"type":"error","name":"CirclesDemurrageAmountExceedsMaxUint190","inputs":[{"name":"account","type":"address","internalType":"address"},{"name":"circlesId","type":"uint256","internalType":"uint256"},{"name":"amount","type":"uint256","internalType":"uint256"},{"name":"code","type":"uint8","internalType":"uint8"}]},{"type":"error","name":"CirclesDemurrageDayBeforeLastUpdatedDay","inputs":[{"name":"account","type":"address","internalType":"address"},{"name":"circlesId","type":"uint256","internalType":"uint256"},{"name":"day","type":"uint64","internalType":"uint64"},{"name":"lastUpdatedDay","type":"uint64","internalType":"uint64"},{"name":"code","type":"uint8","internalType":"uint8"}]},{"type":"error","name":"CirclesERC1155CannotReceiveBatch","inputs":[{"name":"code","type":"uint8","internalType":"uint8"}]},{"type":"error","name":"CirclesERC1155MintBlocked","inputs":[{"name":"human","type":"address","internalType":"address"},{"name":"mintV1Status","type":"address","internalType":"address"}]},{"type":"error","name":"CirclesIdMustBeDerivedFromAddress","inputs":[{"name":"providedId","type":"uint256","internalType":"uint256"},{"name":"code","type":"uint8","internalType":"uint8"}]},{"type":"error","name":"CirclesInvalidCirclesId","inputs":[{"name":"id","type":"uint256","internalType":"uint256"},{"name":"code","type":"uint8","internalType":"uint8"}]},{"type":"error","name":"CirclesInvalidFunctionCaller","inputs":[{"name":"caller","type":"address","internalType":"address"},{"name":"expectedCaller","type":"address","internalType":"address"},{"name":"code","type":"uint8","internalType":"uint8"}]},{"type":"error","name":"CirclesInvalidParameter","inputs":[{"name":"parameter","type":"uint256","internalType":"uint256"},{"name":"code","type":"uint8","internalType":"uint8"}]},{"type":"error","name":"CirclesInvalidString","inputs":[{"name":"str","type":"string","internalType":"string"},{"name":"code","type":"uint8","internalType":"uint8"}]},{"type":"error","name":"CirclesLogicAssertion","inputs":[{"name":"code","type":"uint8","internalType":"uint8"}]},{"type":"error","name":"CirclesProxyAlreadyInitialized","inputs":[]},{"type":"error","name":"CirclesReentrancyGuard","inputs":[{"name":"code","type":"uint8","internalType":"uint8"}]},{"type":"error","name":"ECDSAInvalidSignature","inputs":[]},{"type":"error","name":"ECDSAInvalidSignatureLength","inputs":[{"name":"length","type":"uint256","internalType":"uint256"}]},{"type":"error","name":"ECDSAInvalidSignatureS","inputs":[{"name":"s","type":"bytes32","internalType":"bytes32"}]},{"type":"error","name":"ERC20InsufficientAllowance","inputs":[{"name":"spender","type":"address","internalType":"address"},{"name":"allowance","type":"uint256","internalType":"uint256"},{"name":"needed","type":"uint256","internalType":"uint256"}]},{"type":"error","name":"ERC20InsufficientBalance","inputs":[{"name":"sender","type":"address","internalType":"address"},{"name":"balance","type":"uint256","internalType":"uint256"},{"name":"needed","type":"uint256","internalType":"uint256"}]},{"type":"error","name":"ERC20InvalidApprover","inputs":[{"name":"approver","type":"address","internalType":"address"}]},{"type":"error","name":"ERC20InvalidReceiver","inputs":[{"name":"receiver","type":"address","internalType":"address"}]},{"type":"error","name":"ERC20InvalidSender","inputs":[{"name":"sender","type":"address","internalType":"address"}]},{"type":"error","name":"ERC20InvalidSpender","inputs":[{"name":"spender","type":"address","internalType":"address"}]},{"type":"error","name":"ERC2612ExpiredSignature","inputs":[{"name":"deadline","type":"uint256","internalType":"uint256"}]},{"type":"error","name":"ERC2612InvalidSigner","inputs":[{"name":"signer","type":"address","internalType":"address"},{"name":"owner","type":"address","internalType":"address"}]},{"type":"error","name":"InvalidAccountNonce","inputs":[{"name":"account","type":"address","internalType":"address"},{"name":"currentNonce","type":"uint256","internalType":"uint256"}]},{"type":"error","name":"InvalidShortString","inputs":[]},{"type":"error","name":"StringTooLong","inputs":[{"name":"str","type":"string","internalType":"string"}]}],"bytecode":{"object":"0x610260604052681800000000000000006080908152682ffec785b3614dbacc60a0526847fc56a0fe9220851660c052685ff8ad61c531c51ed460e0526877f3cbd7ea10a8394961010052688fedb2134f3060fc826101205268a7e66023d5c3bb8c4e6101405268bfddd6195e2ec38ca76101605268d7d41403c806cea59c6101805268efc919f2f2128706a76101a052690107bce7f6ba49f5e9836101c05269011faf7e1efdd68e14726101e052690137a0dc7b9913365c016102005269014f91031c678c54243d610220526901677ff21143ffd5e16361024052620000ea90600d90600f620003da565b50348015620000f7575f80fd5b505f5b600e60ff8216116200017e576200011d67fff2fae779633d1e60ff831662000198565b60158260ff16600f81106200013657620001366200049e565b600291828204019190066010026101000a8154816001600160801b030219169083600f0b6001600160801b0316021790555080806200017590620004b2565b915050620000fa565b50601f80546001600160a01b0319166001179055620004dd565b5f805f84600f0b128015620001b05750826001166001145b90505f8085600f0b12620001c55784620001c9565b845f035b6001600160801b03169050600160801b6801000000000000000082116200026b57603f82901b91505b84156200026257600185161562000209578102607f1c5b908002607f1c90600285161562000220578102607f1c5b908002607f1c90600485161562000237578102607f1c5b908002607f1c9060088516156200024e578102607f1c5b60049490941c93908002607f1c90620001f2565b60401c62000393565b603f6c010000000000000000000000008310156200028f5760209290921b91601f19015b600160701b831015620002a85760109290921b91600f19015b600160781b831015620002c15760089290921b91600719015b6001607c1b831015620002da5760049290921b91600319015b6001607e1b831015620002f35760029290921b91600119015b6001607f1b8310156200030b5760019290921b915f19015b5f5b86156200037c576040821062000321575f80fd5b60018716156200034957918302607f1c918101600160801b8311156200034957600192831c92015b928002607f1c9260019190911b90600160801b84106200036f57600193841c9391909101905b600187901c96506200030d565b6040811062000389575f80fd5b6040039190911c90505b5f83620003a15781620003a5565b815f035b905060016001607f1b03198112801590620003c7575060016001607f1b038113155b620003d0575f80fd5b9695505050505050565b60088301918390821562000476579160200282015f5b838211156200043f57835183826101000a8154816001600160801b030219169083600f0b6001600160801b031602179055509260200192601001602081600f01049283019260010302620003f0565b8015620004745782816101000a8154906001600160801b030219169055601001602081600f010492830192600103026200043f565b505b506200048492915062000488565b5090565b5b8082111562000484575f815560010162000489565b634e487b7160e01b5f52603260045260245ffd5b5f60ff821660ff8103620004d457634e487b7160e01b5f52601160045260245ffd5b60010192915050565b6124a180620004eb5f395ff3fe608060405234801561000f575f80fd5b50600436106101dc575f3560e01c80637cf637cd11610109578063a457c2d71161009e578063dd62ed3e1161006e578063dd62ed3e1461047d578063de0e9a3e146104b5578063f23a6e61146104c8578063f39f6d01146104db575f80fd5b8063a457c2d714610418578063a9059cbb1461042b578063bc197c811461043e578063d505accf1461046a575f80fd5b80639411becd116100d95780639411becd1461038b57806395d89b41146103ec57806396ef1444146103f457806399342aa314610405575f80fd5b80637cf637cd146103185780637ecebe001461033257806384b0196e146103455780638ff12b6d14610360575f80fd5b80633644e5151161017f5780635aef7de61161014f5780635aef7de6146102d457806370a08231146102e757806377b8b1c7146102fa5780637c234d011461030f575f80fd5b80633644e5151461027b578063365a86fc1461028357806339509351146102ae5780634eb7221a146102c1575f80fd5b806318160ddd116101ba57806318160ddd1461023057806323b872dd14610246578063253dd0b514610259578063313ce5671461026c575f80fd5b806301ffc9a7146101e057806306fdde0314610208578063095ea7b31461021d575b5f80fd5b6101f36101ee366004611c12565b610503565b60405190151581526020015b60405180910390f35b610210610539565b6040516101ff9190611c8d565b6101f361022b366004611cb5565b6105d1565b6102386105e6565b6040519081526020016101ff565b6101f3610254366004611cdd565b610672565b610238610267366004611d2c565b610693565b604051601281526020016101ff565b6102386106c5565b601f54610296906001600160a01b031681565b6040516001600160a01b0390911681526020016101ff565b6101f36102bc366004611cb5565b6106ce565b602054610296906001600160a01b031681565b601d54610296906001600160a01b031681565b6102386102f5366004611d56565b610707565b61030d610308366004611d6f565b61071e565b005b610238600c5481565b610238610326366004611d56565b6001600160a01b031690565b610238610340366004611d56565b61086f565b61034d61088c565b6040516101ff9796959493929190611daf565b61037361036e366004611e46565b6108ce565b6040516001600160401b0390911681526020016101ff565b6103c5610399366004611d56565b601e6020525f90815260409020546001600160c01b03811690600160c01b90046001600160401b031682565b604080516001600160c01b0390931683526001600160401b039091166020830152016101ff565b6102106108eb565b601d546001600160a01b0316610238565b610238610413366004611d2c565b610960565b6101f3610426366004611cb5565b61097d565b6101f3610439366004611cb5565b6109c4565b61045161044c366004611f95565b6109d0565b6040516001600160e01b031990911681526020016101ff565b61030d610478366004612037565b610a39565b61023861048b3660046120a4565b6001600160a01b039182165f908152600b6020908152604080832093909416825291909152205490565b61030d6104c3366004611e46565b610b6f565b6104516104d63660046120cc565b610c5b565b6104ee6104e936600461212b565b610d4f565b604080519283526020830191909152016101ff565b5f6001600160e01b03198216630271189760e51b148061053357506301ffc9a760e01b6001600160e01b03198316145b92915050565b602054601d5460405162cc244960e11b81526001600160a01b03918216600482015260609291909116906301984892906024015f60405180830381865afa158015610586573d5f803e3d5ffd5b505050506040513d5f823e601f3d908101601f191682016040526105ad9190810190612153565b6040516020016105bd91906121c4565b604051602081830303815290604052905090565b5f6105dd338484610e28565b50600192915050565b601f54601d545f916001600160a01b039081169162fdd58e913091166040516001600160e01b031960e085901b1681526001600160a01b0390921660048301526024820152604401602060405180830381865afa158015610649573d5f803e3d5ffd5b505050506040513d601f19601f8201168201806040525081019061066d91906121ed565b905090565b5f61067e843384610eda565b610689848484610f54565b5060019392505050565b5f806106b16801000d05c213d3f237846001600160401b0316611038565b90506106bd8185611267565b949350505050565b5f61066d6112cb565b335f818152600b602090815260408083206001600160a01b0387168452909152812054909161068990856107028685612218565b610e28565b5f80610716836104e9426108ce565b509392505050565b601f546001600160a01b03161561074857604051635bbc3edf60e01b815260040160405180910390fd5b6001600160a01b038316610776576040516321efd2b360e01b81525f60048201526024015b60405180910390fd5b6001600160a01b0382166107a0576040516321efd2b360e01b81526001600482015260240161076d565b6001600160a01b0381166107ca576040516321efd2b360e01b81526002600482015260240161076d565b601f80546001600160a01b038086166001600160a01b03199283168117909355601d8054858316908416179055602080549186169190921617815560408051637c234d0160e01b81529051637c234d01926004808401939192918290030181865afa15801561083b573d5f803e3d5ffd5b505050506040513d601f19601f8201168201806040525081019061085f91906121ed565b600c5561086a6112fc565b505050565b6001600160a01b0381165f908152600a6020526040812054610533565b5f6060805f805f606061089d611341565b6108a5611352565b604080515f80825260208201909252600f60f81b9b939a50919850469750309650945092509050565b5f62015180600c54836108e1919061222b565b610533919061223e565b602054601d546040516354371abb60e11b81526001600160a01b039182166004820152606092919091169063a86e3576906024015f60405180830381865afa158015610939573d5f803e3d5ffd5b505050506040513d5f823e601f3d908101601f1916820160405261066d9190810190612153565b5f806106b167fff2fae779633d1e846001600160401b0316611038565b335f908152600b602090815260408083206001600160a01b03861684529091528120548083106109b7576109b233855f610e28565b610689565b6106893385858403610e28565b5f6105dd338484610f54565b601f545f906001906001600160a01b03163314610a1e57601f54604051636844c68b60e11b81523360048201526001600160a01b03909116602482015260ff8216604482015260640161076d565b60405163435c329f60e11b81525f600482015260240161076d565b83421115610a5d5760405163313c898160e11b81526004810185905260240161076d565b5f7f6e71edae12b1b97f4d1f60370fef10105fa2faae0126114a169c64845d6126c9888888610aa88c6001600160a01b03165f908152600a6020526040902080546001810190915590565b6040805160208101969096526001600160a01b0394851690860152929091166060840152608083015260a082015260c0810186905260e0016040516020818303038152906040528051906020012090505f610b0282611363565b90505f610b118287878761138f565b9050896001600160a01b0316816001600160a01b031614610b58576040516325c0072360e11b81526001600160a01b0380831660048301528b16602482015260440161076d565b610b638a8a8a610e28565b50505050505050505050565b610b7933826113bb565b601f54601d5460408051637921219560e11b81523060048201523360248201526001600160a01b0392831660448201526064810185905260a060848201525f60a482018190529151929093169263f242432a9260c4808301939282900301818387803b158015610be7575f80fd5b505af1158015610bf9573d5f803e3d5ffd5b505050505f610c1982610c0b426108ce565b6001600160401b0316611486565b604080518481526020810183905291925033917f977900bc666a7494a55ab2dca1964c91540668d0d2fc28fc400aa24309d65524910160405180910390a25050565b601f545f9081906001600160a01b03163314610ca857601f54604051636844c68b60e11b81523360048201526001600160a01b03909116602482015260ff8216604482015260640161076d565b601d546001600160a01b03168514610cdc576040516363b25d3160e01b8152600481018690525f602482015260440161076d565b610ce6868561149b565b5f610cf485610c0b426108ce565b60408051878152602081018390529192506001600160a01b038916917f83b6033bf67f391ebd3c21882b979c86ac2cc1914e7c82a4dccfc96b0370d871910160405180910390a25063f23a6e6160e01b979650505050505050565b6001600160a01b0382165f908152601e602090815260408083208151808301909252546001600160c01b03811682526001600160401b03600160c01b909104811692820183905283929085161015610dd357601d5485906001600160a01b03166020830151604051630f6b717f60e41b815261076d93929188915f9060040161225d565b602081015181516001600160401b038287031691610e0d916001600160c01b031690610dff9088612297565b6001600160401b03166114df565b9151919350506001600160c01b031682900390509250929050565b6001600160a01b038316610e515760405163e602df0560e01b81525f600482015260240161076d565b6001600160a01b038216610e7a57604051634a1406b160e11b81525f600482015260240161076d565b6001600160a01b038381165f818152600b602090815260408083209487168084529482529182902085905590518481527f8c5be1e5ebec7d5bd14f71427d1e84f3dd0314c0f7b2291e5b200ac8c7c3b925910160405180910390a3505050565b6001600160a01b038084165f908152600b60209081526040808320938616835292905220545f198114610f4e5781811015610f4157604051637dc7a0d960e11b81526001600160a01b0384166004820152602481018290526044810183905260640161076d565b610f4e8484848403610e28565b50505050565b5f610f5e426108ce565b90505f80610f6c8684610d4f565b9150915083821015610faa5760405163391434e360e21b81526001600160a01b0387166004820152602481018390526044810185905260640161076d565b8015610fde576040518181525f906001600160a01b038816905f8051602061244c8339815191529060200160405180910390a35b610feb86858403856114f8565b610ff685858561159f565b846001600160a01b0316866001600160a01b03165f8051602061244c8339815191528660405161102891815260200190565b60405180910390a3505050505050565b5f805f84600f0b12801561104f5750826001166001145b90505f8085600f0b126110625784611066565b845f035b6001600160801b03169050600160801b68010000000000000000821161110057603f82901b91505b84156110f85760018516156110a3578102607f1c5b908002607f1c9060028516156110b9578102607f1c5b908002607f1c9060048516156110cf578102607f1c5b908002607f1c9060088516156110e5578102607f1c5b60049490941c93908002607f1c9061108e565b60401c611212565b603f600160601b83101561111a5760209290921b91601f19015b600160701b8310156111325760109290921b91600f19015b600160781b83101561114a5760089290921b91600719015b6001607c1b8310156111625760049290921b91600319015b6001607e1b83101561117a5760029290921b91600119015b6001607f1b8310156111915760019290921b915f19015b5f5b86156111fc57604082106111a5575f80fd5b60018716156111cb57918302607f1c918101600160801b8311156111cb57600192831c92015b928002607f1c9260019190911b90600160801b84106111f057600193841c9391909101905b600187901c9650611193565b60408110611208575f80fd5b6040039190911c90505b5f8361121e5781611222565b815f035b90506f7fffffffffffffffffffffffffffffff19811280159061125557506f7fffffffffffffffffffffffffffffff8113155b61125d575f80fd5b9695505050505050565b5f815f0361127657505f610533565b5f83600f0b1215611285575f80fd5b600f83900b6001600160801b038316810260401c90608084901c026001600160c01b038111156112b3575f80fd5b60401b81198111156112c3575f80fd5b019392505050565b6003545f906001600160a01b0316301480156112e8575060025446145b156112f4575060015490565b61066d611742565b61133f60405180604001604052806007815260200166436972636c657360c81b815250604051806040016040528060028152602001613b1960f11b8152506117aa565b565b60065460609061066d906008611802565b60075460609061066d906009611802565b5f61053361136f6112cb565b8360405161190160f01b8152600281019290925260228201526042902090565b5f805f8061139f888888886118ab565b9250925092506113af8282611973565b50909695505050505050565b5f6113c5426108ce565b90505f806113d38584610d4f565b91509150838210156114115760405163391434e360e21b81526001600160a01b0386166004820152602481018390526044810185905260640161076d565b8015611445576040518181525f906001600160a01b038716905f8051602061244c8339815191529060200160405180910390a35b61145285858403856114f8565b6040518481525f906001600160a01b038716905f8051602061244c8339815191529060200160405180910390a35050505050565b5f806106b16801000d05c213d3f23784611038565b6114ae82826114a9426108ce565b61159f565b6040518181526001600160a01b038316905f905f8051602061244c8339815191529060200160405180910390a35050565b5f815f036114ee575081610533565b5f6106b183611a2f565b6001600160c01b0382111561154457601d546040516345430d1b60e11b81526001600160a01b0380861660048301529091166024820152604481018390525f606482015260840161076d565b6001600160a01b039092165f818152601e6020818152604080842081518083019092526001600160c01b0396871682526001600160401b0397881682840190815295909452919052519151909316600160c01b029116179055565b6001600160a01b0383165f908152601e60209081526040918290208251808401909352546001600160c01b03811683526001600160401b03600160c01b90910481169183018290528316101561162257601d5484906001600160a01b03166020830151604051630f6b717f60e41b815261076d939291869160019060040161225d565b5f816020015183036001600160401b031690505f61164c835f01516001600160c01b031683611a88565b83519091506001600160c01b0316818103908214611692576040518181525f906001600160a01b038916905f8051602061244c8339815191529060200160405180910390a35b505f61169e8683612218565b90506001600160c01b038111156116ed57601d546040516345430d1b60e11b81526001600160a01b03808a1660048301529091166024820152604481018290526001606482015260840161076d565b6001600160c01b0390811684526001600160401b0394851660208086019182526001600160a01b039098165f908152601e909852604090972093519651909416600160c01b0295909316949094179055505050565b600454600554604080517f8b73c3c69bb8fe3d512ecc4cf759cc79239f7b179b0ffacaa9a75d522b39400f60208201529081019290925260608201524660808201523060a08201525f9060c00160405160208183030381529060405280519060200120905090565b6117b5826008611aa1565b6006556117c3816009611aa1565b6007558151602080840191909120600455815190820120600555466002556117e9611742565b6001555050600380546001600160a01b03191630179055565b606060ff831461181c5761181583611aca565b9050610533565b818054611828906122be565b80601f0160208091040260200160405190810160405280929190818152602001828054611854906122be565b801561189f5780601f106118765761010080835404028352916020019161189f565b820191905f5260205f20905b81548152906001019060200180831161188257829003601f168201915b50505050509050610533565b5f80807f7fffffffffffffffffffffffffffffff5d576e7357a4501ddfe92f46681b20a08411156118e457505f91506003905082611969565b604080515f808252602082018084528a905260ff891692820192909252606081018790526080810186905260019060a0016020604051602081039080840390855afa158015611935573d5f803e3d5ffd5b5050604051601f1901519150506001600160a01b03811661196057505f925060019150829050611969565b92505f91508190505b9450945094915050565b5f826003811115611986576119866122f6565b0361198f575050565b60018260038111156119a3576119a36122f6565b036119c15760405163f645eedf60e01b815260040160405180910390fd5b60028260038111156119d5576119d56122f6565b036119f65760405163fce698f760e01b81526004810182905260240161076d565b6003826003811115611a0a57611a0a6122f6565b03611a2b576040516335e2f38360e21b81526004810182905260240161076d565b5050565b5f600e8211611a76575f601583600f8110611a4c57611a4c61230a565b60028104919091015460019091166010026101000a9004600f0b90508015611a745792915050565b505b61053367fff2fae779633d1e83611038565b5f815f03611a97575081610533565b5f6106b183611b07565b5f602083511015611ab55761181583611bae565b81611ac08482612369565b5060ff9050610533565b60605f611ad683611beb565b6040805160208082528183019092529192505f91906020820181803683375050509182525060208101929092525090565b5f600e8211611a76575f601583600f8110611b2457611b2461230a565b600291828204019190066010029054906101000a9004600f0b905080600f0b5f0361053357611b5b67fff2fae779633d1e84611038565b905080601584600f8110611b7157611b7161230a565b600291828204019190066010026101000a8154816001600160801b030219169083600f0b6001600160801b0316021790555092915050565b919050565b5f80829050601f81511115611bd8578260405163305a27a960e01b815260040161076d9190611c8d565b8051611be382612428565b179392505050565b5f60ff8216601f81111561053357604051632cd44ac360e21b815260040160405180910390fd5b5f60208284031215611c22575f80fd5b81356001600160e01b031981168114611c39575f80fd5b9392505050565b5f5b83811015611c5a578181015183820152602001611c42565b50505f910152565b5f8151808452611c79816020860160208601611c40565b601f01601f19169290920160200192915050565b602081525f611c396020830184611c62565b80356001600160a01b0381168114611ba9575f80fd5b5f8060408385031215611cc6575f80fd5b611ccf83611c9f565b946020939093013593505050565b5f805f60608486031215611cef575f80fd5b611cf884611c9f565b9250611d0660208501611c9f565b9150604084013590509250925092565b80356001600160401b0381168114611ba9575f80fd5b5f8060408385031215611d3d575f80fd5b82359150611d4d60208401611d16565b90509250929050565b5f60208284031215611d66575f80fd5b611c3982611c9f565b5f805f60608486031215611d81575f80fd5b611d8a84611c9f565b9250611d9860208501611c9f565b9150611da660408501611c9f565b90509250925092565b60ff60f81b881681525f602060e06020840152611dcf60e084018a611c62565b8381036040850152611de1818a611c62565b606085018990526001600160a01b038816608086015260a0850187905284810360c0860152855180825260208088019350909101905f5b81811015611e3457835183529284019291840191600101611e18565b50909c9b505050505050505050505050565b5f60208284031215611e56575f80fd5b5035919050565b634e487b7160e01b5f52604160045260245ffd5b604051601f8201601f191681016001600160401b0381118282101715611e9957611e99611e5d565b604052919050565b5f82601f830112611eb0575f80fd5b813560206001600160401b03821115611ecb57611ecb611e5d565b8160051b611eda828201611e71565b9283528481018201928281019087851115611ef3575f80fd5b83870192505b84831015611f1257823582529183019190830190611ef9565b979650505050505050565b5f6001600160401b03821115611f3557611f35611e5d565b50601f01601f191660200190565b5f82601f830112611f52575f80fd5b8135611f65611f6082611f1d565b611e71565b818152846020838601011115611f79575f80fd5b816020850160208301375f918101602001919091529392505050565b5f805f805f60a08688031215611fa9575f80fd5b611fb286611c9f565b9450611fc060208701611c9f565b935060408601356001600160401b0380821115611fdb575f80fd5b611fe789838a01611ea1565b94506060880135915080821115611ffc575f80fd5b61200889838a01611ea1565b9350608088013591508082111561201d575f80fd5b5061202a88828901611f43565b9150509295509295909350565b5f805f805f805f60e0888a03121561204d575f80fd5b61205688611c9f565b965061206460208901611c9f565b95506040880135945060608801359350608088013560ff81168114612087575f80fd5b9699959850939692959460a0840135945060c09093013592915050565b5f80604083850312156120b5575f80fd5b6120be83611c9f565b9150611d4d60208401611c9f565b5f805f805f60a086880312156120e0575f80fd5b6120e986611c9f565b94506120f760208701611c9f565b9350604086013592506060860135915060808601356001600160401b0381111561211f575f80fd5b61202a88828901611f43565b5f806040838503121561213c575f80fd5b61214583611c9f565b9150611d4d60208401611d16565b5f60208284031215612163575f80fd5b81516001600160401b03811115612178575f80fd5b8201601f81018413612188575f80fd5b8051612196611f6082611f1d565b8181528560208385010111156121aa575f80fd5b6121bb826020830160208601611c40565b95945050505050565b5f82516121d5818460208701611c40565b6502d45524332360d41b920191825250600601919050565b5f602082840312156121fd575f80fd5b5051919050565b634e487b7160e01b5f52601160045260245ffd5b8082018082111561053357610533612204565b8181038181111561053357610533612204565b5f8261225857634e487b7160e01b5f52601260045260245ffd5b500490565b6001600160a01b0395909516855260208501939093526001600160401b03918216604085015216606083015260ff16608082015260a00190565b6001600160401b038281168282160390808211156122b7576122b7612204565b5092915050565b600181811c908216806122d257607f821691505b6020821081036122f057634e487b7160e01b5f52602260045260245ffd5b50919050565b634e487b7160e01b5f52602160045260245ffd5b634e487b7160e01b5f52603260045260245ffd5b601f82111561086a57805f5260205f20601f840160051c810160208510156123435750805b601f840160051c820191505b81811015612362575f815560010161234f565b5050505050565b81516001600160401b0381111561238257612382611e5d565b6123968161239084546122be565b8461231e565b602080601f8311600181146123c9575f84156123b25750858301515b5f19600386901b1c1916600185901b178555612420565b5f85815260208120601f198616915b828110156123f7578886015182559484019460019091019084016123d8565b508582101561241457878501515f19600388901b60f8161c191681555b505060018460011b0185555b505050505050565b805160208083015191908110156122f0575f1960209190910360031b1b1691905056feddf252ad1be2c89b69c2b068fc378daa952ba7f163c4a11628f55a4df523b3efa2646970667358221220fda9bc107751fd57b54b153f1a96c71fcb71a6e8d54b66654ee42f82bd09a44964736f6c63430008180033","linkReferences":{}},"methodIdentifiers":{"DOMAIN_SEPARATOR()":"3644e515","allowance(address,address)":"dd62ed3e","approve(address,uint256)":"095ea7b3","avatar()":"5aef7de6","balanceOf(address)":"70a08231","balanceOfOnDay(address,uint64)":"f39f6d01","circlesIdentifier()":"96ef1444","convertDemurrageToInflationaryValue(uint256,uint64)":"253dd0b5","convertInflationaryToDemurrageValue(uint256,uint64)":"99342aa3","day(uint256)":"8ff12b6d","decimals()":"313ce567","decreaseAllowance(address,uint256)":"a457c2d7","discountedBalances(address)":"9411becd","eip712Domain()":"84b0196e","hub()":"365a86fc","increaseAllowance(address,uint256)":"39509351","inflationDayZero()":"7c234d01","name()":"06fdde03","nameRegistry()":"4eb7221a","nonces(address)":"7ecebe00","onERC1155BatchReceived(address,address,uint256[],uint256[],bytes)":"bc197c81","onERC1155Received(address,address,uint256,uint256,bytes)":"f23a6e61","permit(address,address,uint256,uint256,uint8,bytes32,bytes32)":"d505accf","setup(address,address,address)":"77b8b1c7","supportsInterface(bytes4)":"01ffc9a7","symbol()":"95d89b41","toTokenId(address)":"7cf637cd","totalSupply()":"18160ddd","transfer(address,uint256)":"a9059cbb","transferFrom(address,address,uint256)":"23b872dd","unwrap(uint256)":"de0e9a3e"},"id":57}