{"abi":[{"type":"constructor","inputs":[{"name":"_hubV1","type":"address","internalType":"contract IHubV1"},{"name":"_nameRegistry","type":"address","internalType":"contract INameRegistry"},{"name":"_migration","type":"address","internalType":"address"},{"name":"_liftERC20","type":"address","internalType":"contract IERC20Lift"},{"name":"_standardTreasury","type":"address","internalType":"address"},{"name":"_inflationDayZero","type":"uint256","internalType":"uint256"},{"name":"_bootstrapTime","type":"uint256","internalType":"uint256"},{"name":"_gatewayUrl","type":"string","internalType":"string"}],"stateMutability":"nonpayable"},{"type":"function","name":"advancedUsageFlags","inputs":[{"name":"","type":"address","internalType":"address"}],"outputs":[{"name":"","type":"bytes32","internalType":"bytes32"}],"stateMutability":"view"},{"type":"function","name":"avatars","inputs":[{"name":"","type":"address","internalType":"address"}],"outputs":[{"name":"","type":"address","internalType":"address"}],"stateMutability":"view"},{"type":"function","name":"balanceOf","inputs":[{"name":"_account","type":"address","internalType":"address"},{"name":"_id","type":"uint256","internalType":"uint256"}],"outputs":[{"name":"","type":"uint256","internalType":"uint256"}],"stateMutability":"view"},{"type":"function","name":"balanceOfBatch","inputs":[{"name":"_accounts","type":"address[]","internalType":"address[]"},{"name":"_ids","type":"uint256[]","internalType":"uint256[]"}],"outputs":[{"name":"","type":"uint256[]","internalType":"uint256[]"}],"stateMutability":"view"},{"type":"function","name":"balanceOfOnDay","inputs":[{"name":"_account","type":"address","internalType":"address"},{"name":"_id","type":"uint256","internalType":"uint256"},{"name":"_day","type":"uint64","internalType":"uint64"}],"outputs":[{"name":"balanceOnDay_","type":"uint256","internalType":"uint256"},{"name":"discountCost_","type":"uint256","internalType":"uint256"}],"stateMutability":"view"},{"type":"function","name":"burn","inputs":[{"name":"_id","type":"uint256","internalType":"uint256"},{"name":"_amount","type":"uint256","internalType":"uint256"},{"name":"_data","type":"bytes","internalType":"bytes"}],"outputs":[],"stateMutability":"nonpayable"},{"type":"function","name":"calculateIssuance","inputs":[{"name":"_human","type":"address","internalType":"address"}],"outputs":[{"name":"","type":"uint256","internalType":"uint256"},{"name":"","type":"uint256","internalType":"uint256"},{"name":"","type":"uint256","internalType":"uint256"}],"stateMutability":"view"},{"type":"function","name":"calculateIssuanceWithCheck","inputs":[{"name":"_human","type":"address","internalType":"address"}],"outputs":[{"name":"","type":"uint256","internalType":"uint256"},{"name":"","type":"uint256","internalType":"uint256"},{"name":"","type":"uint256","internalType":"uint256"}],"stateMutability":"nonpayable"},{"type":"function","name":"convertDemurrageToInflationaryValue","inputs":[{"name":"_demurrageValue","type":"uint256","internalType":"uint256"},{"name":"_dayUpdated","type":"uint64","internalType":"uint64"}],"outputs":[{"name":"","type":"uint256","internalType":"uint256"}],"stateMutability":"pure"},{"type":"function","name":"convertInflationaryToDemurrageValue","inputs":[{"name":"_inflationaryValue","type":"uint256","internalType":"uint256"},{"name":"_day","type":"uint64","internalType":"uint64"}],"outputs":[{"name":"","type":"uint256","internalType":"uint256"}],"stateMutability":"pure"},{"type":"function","name":"day","inputs":[{"name":"_timestamp","type":"uint256","internalType":"uint256"}],"outputs":[{"name":"","type":"uint64","internalType":"uint64"}],"stateMutability":"view"},{"type":"function","name":"groupMint","inputs":[{"name":"_group","type":"address","internalType":"address"},{"name":"_collateralAvatars","type":"address[]","internalType":"address[]"},{"name":"_amounts","type":"uint256[]","internalType":"uint256[]"},{"name":"_data","type":"bytes","internalType":"bytes"}],"outputs":[],"stateMutability":"nonpayable"},{"type":"function","name":"inflationDayZero","inputs":[],"outputs":[{"name":"","type":"uint256","internalType":"uint256"}],"stateMutability":"view"},{"type":"function","name":"isApprovedForAll","inputs":[{"name":"_account","type":"address","internalType":"address"},{"name":"_operator","type":"address","internalType":"address"}],"outputs":[{"name":"","type":"bool","internalType":"bool"}],"stateMutability":"view"},{"type":"function","name":"isGroup","inputs":[{"name":"_group","type":"address","internalType":"address"}],"outputs":[{"name":"","type":"bool","internalType":"bool"}],"stateMutability":"view"},{"type":"function","name":"isHuman","inputs":[{"name":"_human","type":"address","internalType":"address"}],"outputs":[{"name":"","type":"bool","internalType":"bool"}],"stateMutability":"view"},{"type":"function","name":"isOrganization","inputs":[{"name":"_organization","type":"address","internalType":"address"}],"outputs":[{"name":"","type":"bool","internalType":"bool"}],"stateMutability":"view"},{"type":"function","name":"isPermittedFlow","inputs":[{"name":"_from","type":"address","internalType":"address"},{"name":"_to","type":"address","internalType":"address"},{"name":"_circlesAvatar","type":"address","internalType":"address"}],"outputs":[{"name":"","type":"bool","internalType":"bool"}],"stateMutability":"view"},{"type":"function","name":"isTrusted","inputs":[{"name":"_truster","type":"address","internalType":"address"},{"name":"_trustee","type":"address","internalType":"address"}],"outputs":[{"name":"","type":"bool","internalType":"bool"}],"stateMutability":"view"},{"type":"function","name":"migrate","inputs":[{"name":"_owner","type":"address","internalType":"address"},{"name":"_avatars","type":"address[]","internalType":"address[]"},{"name":"_amounts","type":"uint256[]","internalType":"uint256[]"}],"outputs":[],"stateMutability":"nonpayable"},{"type":"function","name":"mintPolicies","inputs":[{"name":"","type":"address","internalType":"address"}],"outputs":[{"name":"","type":"address","internalType":"address"}],"stateMutability":"view"},{"type":"function","name":"operateFlowMatrix","inputs":[{"name":"_flowVertices","type":"address[]","internalType":"address[]"},{"name":"_flow","type":"tuple[]","internalType":"struct TypeDefinitions.FlowEdge[]","components":[{"name":"streamSinkId","type":"uint16","internalType":"uint16"},{"name":"amount","type":"uint192","internalType":"uint192"}]},{"name":"_streams","type":"tuple[]","internalType":"struct TypeDefinitions.Stream[]","components":[{"name":"sourceCoordinate","type":"uint16","internalType":"uint16"},{"name":"flowEdgeIds","type":"uint16[]","internalType":"uint16[]"},{"name":"data","type":"bytes","internalType":"bytes"}]},{"name":"_packedCoordinates","type":"bytes","internalType":"bytes"}],"outputs":[],"stateMutability":"nonpayable"},{"type":"function","name":"personalMint","inputs":[],"outputs":[],"stateMutability":"nonpayable"},{"type":"function","name":"registerCustomGroup","inputs":[{"name":"_mint","type":"address","internalType":"address"},{"name":"_treasury","type":"address","internalType":"address"},{"name":"_name","type":"string","internalType":"string"},{"name":"_symbol","type":"string","internalType":"string"},{"name":"_metadataDigest","type":"bytes32","internalType":"bytes32"}],"outputs":[],"stateMutability":"nonpayable"},{"type":"function","name":"registerGroup","inputs":[{"name":"_mint","type":"address","internalType":"address"},{"name":"_name","type":"string","internalType":"string"},{"name":"_symbol","type":"string","internalType":"string"},{"name":"_metadataDigest","type":"bytes32","internalType":"bytes32"}],"outputs":[],"stateMutability":"nonpayable"},{"type":"function","name":"registerHuman","inputs":[{"name":"_inviter","type":"address","internalType":"address"},{"name":"_metadataDigest","type":"bytes32","internalType":"bytes32"}],"outputs":[],"stateMutability":"nonpayable"},{"type":"function","name":"registerOrganization","inputs":[{"name":"_name","type":"string","internalType":"string"},{"name":"_metadataDigest","type":"bytes32","internalType":"bytes32"}],"outputs":[],"stateMutability":"nonpayable"},{"type":"function","name":"safeBatchTransferFrom","inputs":[{"name":"_from","type":"address","internalType":"address"},{"name":"_to","type":"address","internalType":"address"},{"name":"_ids","type":"uint256[]","internalType":"uint256[]"},{"name":"_values","type":"uint256[]","internalType":"uint256[]"},{"name":"_data","type":"bytes","internalType":"bytes"}],"outputs":[],"stateMutability":"nonpayable"},{"type":"function","name":"safeTransferFrom","inputs":[{"name":"_from","type":"address","internalType":"address"},{"name":"_to","type":"address","internalType":"address"},{"name":"_id","type":"uint256","internalType":"uint256"},{"name":"_value","type":"uint256","internalType":"uint256"},{"name":"_data","type":"bytes","internalType":"bytes"}],"outputs":[],"stateMutability":"nonpayable"},{"type":"function","name":"setAdvancedUsageFlag","inputs":[{"name":"_flag","type":"bytes32","internalType":"bytes32"}],"outputs":[],"stateMutability":"nonpayable"},{"type":"function","name":"setApprovalForAll","inputs":[{"name":"_operator","type":"address","internalType":"address"},{"name":"_approved","type":"bool","internalType":"bool"}],"outputs":[],"stateMutability":"nonpayable"},{"type":"function","name":"stop","inputs":[],"outputs":[],"stateMutability":"nonpayable"},{"type":"function","name":"stopped","inputs":[{"name":"_human","type":"address","internalType":"address"}],"outputs":[{"name":"","type":"bool","internalType":"bool"}],"stateMutability":"view"},{"type":"function","name":"supportsInterface","inputs":[{"name":"_interfaceId","type":"bytes4","internalType":"bytes4"}],"outputs":[{"name":"","type":"bool","internalType":"bool"}],"stateMutability":"view"},{"type":"function","name":"toTokenId","inputs":[{"name":"_avatar","type":"address","internalType":"address"}],"outputs":[{"name":"","type":"uint256","internalType":"uint256"}],"stateMutability":"pure"},{"type":"function","name":"totalSupply","inputs":[{"name":"_id","type":"uint256","internalType":"uint256"}],"outputs":[{"name":"","type":"uint256","internalType":"uint256"}],"stateMutability":"view"},{"type":"function","name":"treasuries","inputs":[{"name":"","type":"address","internalType":"address"}],"outputs":[{"name":"","type":"address","internalType":"address"}],"stateMutability":"view"},{"type":"function","name":"trust","inputs":[{"name":"_trustReceiver","type":"address","internalType":"address"},{"name":"_expiry","type":"uint96","internalType":"uint96"}],"outputs":[],"stateMutability":"nonpayable"},{"type":"function","name":"trustMarkers","inputs":[{"name":"","type":"address","internalType":"address"},{"name":"","type":"address","internalType":"address"}],"outputs":[{"name":"previous","type":"address","internalType":"address"},{"name":"expiry","type":"uint96","internalType":"uint96"}],"stateMutability":"view"},{"type":"function","name":"uri","inputs":[{"name":"","type":"uint256","internalType":"uint256"}],"outputs":[{"name":"","type":"string","internalType":"string"}],"stateMutability":"view"},{"type":"function","name":"wrap","inputs":[{"name":"_avatar","type":"address","internalType":"address"},{"name":"_amount","type":"uint256","internalType":"uint256"},{"name":"_type","type":"uint8","internalType":"enum CirclesType"}],"outputs":[{"name":"","type":"address","internalType":"address"}],"stateMutability":"nonpayable"},{"type":"event","name":"ApprovalForAll","inputs":[{"name":"account","type":"address","indexed":true,"internalType":"address"},{"name":"operator","type":"address","indexed":true,"internalType":"address"},{"name":"approved","type":"bool","indexed":false,"internalType":"bool"}],"anonymous":false},{"type":"event","name":"DiscountCost","inputs":[{"name":"account","type":"address","indexed":true,"internalType":"address"},{"name":"id","type":"uint256","indexed":true,"internalType":"uint256"},{"name":"discountCost","type":"uint256","indexed":false,"internalType":"uint256"}],"anonymous":false},{"type":"event","name":"FlowEdgesScopeLastEnded","inputs":[],"anonymous":false},{"type":"event","name":"FlowEdgesScopeSingleStarted","inputs":[{"name":"flowEdgeId","type":"uint256","indexed":true,"internalType":"uint256"},{"name":"streamId","type":"uint16","indexed":false,"internalType":"uint16"}],"anonymous":false},{"type":"event","name":"GroupMint","inputs":[{"name":"sender","type":"address","indexed":true,"internalType":"address"},{"name":"receiver","type":"address","indexed":true,"internalType":"address"},{"name":"group","type":"address","indexed":true,"internalType":"address"},{"name":"collateral","type":"uint256[]","indexed":false,"internalType":"uint256[]"},{"name":"amounts","type":"uint256[]","indexed":false,"internalType":"uint256[]"}],"anonymous":false},{"type":"event","name":"PersonalMint","inputs":[{"name":"human","type":"address","indexed":true,"internalType":"address"},{"name":"amount","type":"uint256","indexed":false,"internalType":"uint256"},{"name":"startPeriod","type":"uint256","indexed":false,"internalType":"uint256"},{"name":"endPeriod","type":"uint256","indexed":false,"internalType":"uint256"}],"anonymous":false},{"type":"event","name":"RegisterGroup","inputs":[{"name":"group","type":"address","indexed":true,"internalType":"address"},{"name":"mint","type":"address","indexed":true,"internalType":"address"},{"name":"treasury","type":"address","indexed":true,"internalType":"address"},{"name":"name","type":"string","indexed":false,"internalType":"string"},{"name":"symbol","type":"string","indexed":false,"internalType":"string"}],"anonymous":false},{"type":"event","name":"RegisterHuman","inputs":[{"name":"avatar","type":"address","indexed":true,"internalType":"address"},{"name":"inviter","type":"address","indexed":true,"internalType":"address"}],"anonymous":false},{"type":"event","name":"RegisterOrganization","inputs":[{"name":"organization","type":"address","indexed":true,"internalType":"address"},{"name":"name","type":"string","indexed":false,"internalType":"string"}],"anonymous":false},{"type":"event","name":"SetAdvancedUsageFlag","inputs":[{"name":"avatar","type":"address","indexed":true,"internalType":"address"},{"name":"flag","type":"bytes32","indexed":false,"internalType":"bytes32"}],"anonymous":false},{"type":"event","name":"Stopped","inputs":[{"name":"avatar","type":"address","indexed":true,"internalType":"address"}],"anonymous":false},{"type":"event","name":"StreamCompleted","inputs":[{"name":"operator","type":"address","indexed":true,"internalType":"address"},{"name":"from","type":"address","indexed":true,"internalType":"address"},{"name":"to","type":"address","indexed":true,"internalType":"address"},{"name":"ids","type":"uint256[]","indexed":false,"internalType":"uint256[]"},{"name":"amounts","type":"uint256[]","indexed":false,"internalType":"uint256[]"}],"anonymous":false},{"type":"event","name":"TransferBatch","inputs":[{"name":"operator","type":"address","indexed":true,"internalType":"address"},{"name":"from","type":"address","indexed":true,"internalType":"address"},{"name":"to","type":"address","indexed":true,"internalType":"address"},{"name":"ids","type":"uint256[]","indexed":false,"internalType":"uint256[]"},{"name":"values","type":"uint256[]","indexed":false,"internalType":"uint256[]"}],"anonymous":false},{"type":"event","name":"TransferSingle","inputs":[{"name":"operator","type":"address","indexed":true,"internalType":"address"},{"name":"from","type":"address","indexed":true,"internalType":"address"},{"name":"to","type":"address","indexed":true,"internalType":"address"},{"name":"id","type":"uint256","indexed":false,"internalType":"uint256"},{"name":"value","type":"uint256","indexed":false,"internalType":"uint256"}],"anonymous":false},{"type":"event","name":"Trust","inputs":[{"name":"truster","type":"address","indexed":true,"internalType":"address"},{"name":"trustee","type":"address","indexed":true,"internalType":"address"},{"name":"expiryTime","type":"uint256","indexed":false,"internalType":"uint256"}],"anonymous":false},{"type":"event","name":"URI","inputs":[{"name":"value","type":"string","indexed":false,"internalType":"string"},{"name":"id","type":"uint256","indexed":true,"internalType":"uint256"}],"anonymous":false},{"type":"error","name":"CirclesAmountOverflow","inputs":[{"name":"amount","type":"uint256","internalType":"uint256"},{"name":"code","type":"uint8","internalType":"uint8"}]},{"type":"error","name":"CirclesERC1155CannotReceiveBatch","inputs":[{"name":"code","type":"uint8","internalType":"uint8"}]},{"type":"error","name":"CirclesErrorAddressUintArgs","inputs":[{"name":"","type":"address","internalType":"address"},{"name":"","type":"uint256","internalType":"uint256"},{"name":"","type":"uint8","internalType":"uint8"}]},{"type":"error","name":"CirclesErrorNoArgs","inputs":[{"name":"","type":"uint8","internalType":"uint8"}]},{"type":"error","name":"CirclesErrorOneAddressArg","inputs":[{"name":"","type":"address","internalType":"address"},{"name":"","type":"uint8","internalType":"uint8"}]},{"type":"error","name":"CirclesHubFlowEdgeStreamMismatch","inputs":[{"name":"flowEdgeId","type":"uint16","internalType":"uint16"},{"name":"streamId","type":"uint16","internalType":"uint16"},{"name":"code","type":"uint8","internalType":"uint8"}]},{"type":"error","name":"CirclesHubNettedFlowMismatch","inputs":[{"name":"vertexPosition","type":"uint16","internalType":"uint16"},{"name":"matrixNettedFlow","type":"int256","internalType":"int256"},{"name":"streamNettedFlow","type":"int256","internalType":"int256"}]},{"type":"error","name":"CirclesHubStreamMismatch","inputs":[{"name":"streamId","type":"uint16","internalType":"uint16"}]},{"type":"error","name":"CirclesIdMustBeDerivedFromAddress","inputs":[{"name":"providedId","type":"uint256","internalType":"uint256"},{"name":"code","type":"uint8","internalType":"uint8"}]},{"type":"error","name":"CirclesInvalidCirclesId","inputs":[{"name":"id","type":"uint256","internalType":"uint256"},{"name":"code","type":"uint8","internalType":"uint8"}]},{"type":"error","name":"CirclesInvalidParameter","inputs":[{"name":"parameter","type":"uint256","internalType":"uint256"},{"name":"code","type":"uint8","internalType":"uint8"}]},{"type":"error","name":"CirclesProxyAlreadyInitialized","inputs":[]},{"type":"error","name":"CirclesReentrancyGuard","inputs":[{"name":"code","type":"uint8","internalType":"uint8"}]},{"type":"error","name":"ERC1155InsufficientBalance","inputs":[{"name":"sender","type":"address","internalType":"address"},{"name":"balance","type":"uint256","internalType":"uint256"},{"name":"needed","type":"uint256","internalType":"uint256"},{"name":"tokenId","type":"uint256","internalType":"uint256"}]},{"type":"error","name":"ERC1155InvalidApprover","inputs":[{"name":"approver","type":"address","internalType":"address"}]},{"type":"error","name":"ERC1155InvalidArrayLength","inputs":[{"name":"idsLength","type":"uint256","internalType":"uint256"},{"name":"valuesLength","type":"uint256","internalType":"uint256"}]},{"type":"error","name":"ERC1155InvalidOperator","inputs":[{"name":"operator","type":"address","internalType":"address"}]},{"type":"error","name":"ERC1155InvalidReceiver","inputs":[{"name":"receiver","type":"address","internalType":"address"}]},{"type":"error","name":"ERC1155InvalidSender","inputs":[{"name":"sender","type":"address","internalType":"address"}]},{"type":"error","name":"ERC1155MissingApprovalForAll","inputs":[{"name":"operator","type":"address","internalType":"address"},{"name":"owner","type":"address","internalType":"address"}]}],"bytecode":{"object":"0x6102a06040526818000000000000000060c0908152682ffec785b3614dbacc60e0526847fc56a0fe9220851661010052685ff8ad61c531c51ed4610120526877f3cbd7ea10a8394961014052688fedb2134f3060fc826101605268a7e66023d5c3bb8c4e6101805268bfddd6195e2ec38ca76101a05268d7d41403c806cea59c6101c05268efc919f2f2128706a76101e052690107bce7f6ba49f5e9836102005269011faf7e1efdd68e147261022052690137a0dc7b9913365c016102405269014f91031c678c54243d610260526901677ff21143ffd5e163610280526100ea90600190600f6104ce565b503480156100f6575f80fd5b50604051616810380380616810833981016040819052610115916105b4565b828180825f5b600e60ff8216116101965761013b67fff2fae779633d1e60ff8316610296565b60098260ff16600f8110610151576101516106d2565b600291828204019190066010026101000a8154816001600160801b030219169083600f0b6001600160801b03160217905550808061018e906106fa565b91505061011b565b505f556101a2816104be565b5050506001600160a01b0388166101d35760405163d82c8fc960e01b81525f60048201526024015b60405180910390fd5b6001600160a01b0384166101fd5760405163d82c8fc960e01b8152600160048201526024016101ca565b60015f819052601a6020527ff88cd8d612926ebb404e40725c01084b6e9b3ce0344cde068570342cbd448c6180546001600160a01b031990811690921790556001600160a01b038981166080526016805483168a8316179055601780548316898316179055601880548316888316179055601980549092169086161790556102858242610718565b60a0525061086e9650505050505050565b5f805f84600f0b1280156102ad5750826001166001145b90505f8085600f0b126102c057846102c4565b845f035b6001600160801b03169050600160801b68010000000000000000821161035e57603f82901b91505b8415610356576001851615610301578102607f1c5b908002607f1c906002851615610317578102607f1c5b908002607f1c90600485161561032d578102607f1c5b908002607f1c906008851615610343578102607f1c5b60049490941c93908002607f1c906102ec565b60401c610479565b603f6c010000000000000000000000008310156103815760209290921b91601f19015b600160701b8310156103995760109290921b91600f19015b600160781b8310156103b15760089290921b91600719015b6001607c1b8310156103c95760049290921b91600319015b6001607e1b8310156103e15760029290921b91600119015b6001607f1b8310156103f85760019290921b915f19015b5f5b8615610463576040821061040c575f80fd5b600187161561043257918302607f1c918101600160801b83111561043257600192831c92015b928002607f1c9260019190911b90600160801b841061045757600193841c9391909101905b600187901c96506103fa565b6040811061046f575f80fd5b6040039190911c90505b5f836104855781610489565b815f035b905060016001607f1b031981128015906104aa575060016001607f1b038113155b6104b2575f80fd5b93505050505b92915050565b60146104ca82826107af565b5050565b600883019183908215610565579160200282015f5b8382111561053057835183826101000a8154816001600160801b030219169083600f0b6001600160801b031602179055509260200192601001602081600f010492830192600103026104e3565b80156105635782816101000a8154906001600160801b030219169055601001602081600f01049283019260010302610530565b505b50610571929150610575565b5090565b5b80821115610571575f8155600101610576565b6001600160a01b038116811461059d575f80fd5b50565b634e487b7160e01b5f52604160045260245ffd5b5f805f805f805f80610100898b0312156105cc575f80fd5b88516105d781610589565b60208a01519098506105e881610589565b60408a01519097506105f981610589565b60608a015190965061060a81610589565b60808a015190955061061b81610589565b60a08a015160c08b015160e08c015192965090945092506001600160401b0380821115610646575f80fd5b818b0191508b601f830112610659575f80fd5b81518181111561066b5761066b6105a0565b604051601f8201601f19908116603f01168101908382118183101715610693576106936105a0565b816040528281528e60208487010111156106ab575f80fd5b8260208601602083015e5f6020848301015280955050505050509295985092959890939650565b634e487b7160e01b5f52603260045260245ffd5b634e487b7160e01b5f52601160045260245ffd5b5f60ff821660ff810361070f5761070f6106e6565b60010192915050565b808201808211156104b8576104b86106e6565b600181811c9082168061073f57607f821691505b60208210810361075d57634e487b7160e01b5f52602260045260245ffd5b50919050565b601f8211156107aa57805f5260205f20601f840160051c810160208510156107885750805b601f840160051c820191505b818110156107a7575f8155600101610794565b50505b505050565b81516001600160401b038111156107c8576107c86105a0565b6107dc816107d6845461072b565b84610763565b602080601f83116001811461080f575f84156107f85750858301515b5f19600386901b1c1916600185901b178555610866565b5f85815260208120601f198616915b8281101561083d5788860151825594840194600190910190840161081e565b508582101561085a57878501515f19600388901b60f8161c191681555b505060018460011b0185555b505050505050565b60805160a051615f7361089d5f395f81816116bb015281816117530152611a7b01525f6144a30152615f735ff3fe608060405234801561000f575f80fd5b5060043610610249575f3560e01c80638ff12b6d11610140578063bfde380d116100bf578063edeeb93c11610084578063edeeb93c14610608578063f179c71314610630578063f242432a14610643578063f317707914610656578063f72c436f14610669578063f796a4af1461067c575f80fd5b8063bfde380d1461057f578063da33e06514610592578063e76cec53146105ba578063e985e9c5146105cd578063eb8c2760146105e0575f80fd5b8063a22cb46511610105578063a22cb46514610520578063aabd695414610533578063b1ce8eab14610546578063bd85b03914610559578063bda79c541461056c575f80fd5b80638ff12b6d1461047457806399342aa31461049f5780639bec5726146104b25780639cd02313146104c55780639e0cc3c4146104f3575f80fd5b806347df87ab116101cc57806375dcebc71161019157806375dcebc7146103c05780637c234d01146103d35780637cd0cea6146103db5780637cf637cd1461044757806380a5a37114610461575f80fd5b806347df87ab146103545780634e1273f4146103675780634f338925146103875780636713e2301461039a5780636cb498e5146103ad575f80fd5b80630d22d9b5116102125780630d22d9b5146102f35780630d873a79146103065780630e89341c1461030e578063253dd0b51461032e5780632eb2c2d614610341575f80fd5b8062fdd58e1461024d57806301ffc9a7146102735780630528f5071461029657806307da68f5146102ab5780630849b234146102b3575b5f80fd5b61026061025b366004614e97565b61069b565b6040519081526020015b60405180910390f35b610286610281366004614ed6565b6106b6565b604051901515815260200161026a565b6102a96102a4366004614f2e565b610705565b005b6102a961089e565b6102db6102c1366004614fb2565b601c6020525f90815260409020546001600160a01b031681565b6040516001600160a01b03909116815260200161026a565b6102a961030136600461500d565b61094c565b6102a9610ad7565b61032161031c3660046150f5565b610b15565b60405161026a919061513a565b61026061033c366004615167565b610ba7565b6102a961034f3660046152ce565b610bd9565b610286610362366004614fb2565b610c40565b61037a610375366004615374565b610c92565b60405161026a9190615469565b61028661039536600461547b565b610d62565b6102866103a83660046154c3565b610e37565b6102a96103bb3660046154fa565b610e75565b6102a96103ce36600461559e565b610f93565b6102605f5481565b6104206103e93660046154c3565b601d60209081525f92835260408084209091529082529020546001600160a01b03811690600160a01b90046001600160601b031682565b604080516001600160a01b0390931683526001600160601b0390911660208301520161026a565b610260610455366004614fb2565b6001600160a01b031690565b6102a961046f3660046155d5565b61102a565b6104876104823660046150f5565b611121565b6040516001600160401b03909116815260200161026a565b6102606104ad366004615167565b61113d565b6102a96104c0366004615623565b61115a565b6104d86104d3366004614fb2565b6112ee565b6040805193845260208401929092529082015260600161026a565b610286610501366004614fb2565b6001600160a01b039081165f908152601b602052604090205416151590565b6102a961052e3660046156c6565b611311565b6102db6105413660046156f2565b61131c565b610286610554366004614fb2565b611404565b6102606105673660046150f5565b611478565b6102a961057a3660046150f5565b6114ee565b6102a961058d366004615729565b611575565b6102db6105a0366004614fb2565b601b6020525f90815260409020546001600160a01b031681565b6102a96105c8366004614e97565b611686565b6102866105db3660046154c3565b611841565b6105f36105ee366004615770565b61186e565b6040805192835260208301919091520161026a565b6102db610616366004614fb2565b601a6020525f90815260409020546001600160a01b031681565b6104d861063e366004614fb2565b61194c565b6102a96106513660046157ab565b611969565b6102a961066436600461580e565b6119c8565b610286610677366004614fb2565b611b4d565b61026061068a366004614fb2565b601e6020525f908152604090205481565b5f806106ab84846105ee42611121565b509150505b92915050565b5f6001600160e01b03198216636cdb3d1360e11b14806106e657506001600160e01b031982166303a24d0760e21b145b806106b057506301ffc9a760e01b6001600160e01b03198316146106b0565b60195461072290339088906001600160a01b031688888888611b79565b60165460405163d199889360e01b81526001600160a01b039091169063d199889390610756903390899089906004016158b2565b5f604051808303815f87803b15801561076d575f80fd5b505af115801561077f573d5f803e3d5ffd5b505060165460405163e27871dd60e01b81526001600160a01b03909116925063e27871dd91506107b7903390879087906004016158b2565b5f604051808303815f87803b1580156107ce575f80fd5b505af11580156107e0573d5f803e3d5ffd5b505060165460405163e44b8c3560e01b8152336004820152602481018590526001600160a01b03909116925063e44b8c3591506044015f604051808303815f87803b15801561082d575f80fd5b505af115801561083f573d5f803e3d5ffd5b50506019546040516001600160a01b039182169350908916915033907f851510db3e53b795660f9ffba16469222d46d357be10c67f27f619ffe33b58749061088e908a908a908a908a906158df565b60405180910390a4505050505050565b6108a733611b4d565b6108d15733600260405162c14c0760e81b81526004016108c8929190615910565b60405180910390fd5b335f90815260156020526040902080546bfffffffffffffffffffffffe19600160a01b9091046001600160601b0316016109085750565b80546001600160a01b03166001600160a01b031917815560405133907f55c4adf1f68f084b809304657594a92ba835ada8d3b5340955bf05746723c05b905f90a250565b5f5c15610957575f80fd5b60015f5d5f610967838388611d16565b90505f5b61ffff8116851115610a8b576109e08a8a88888561ffff168181106109925761099261592c565b90506020028101906109a49190615940565b6109b290602081019061595e565b61ffff168181106109c5576109c561592c565b90506020020160208101906109da9190614fb2565b33611841565b610a7957898987878461ffff168181106109fc576109fc61592c565b9050602002810190610a0e9190615940565b610a1c90602081019061595e565b61ffff16818110610a2f57610a2f61592c565b9050602002016020810190610a449190614fb2565b604051632f20c6dd60e11b81526001600160a01b03909116600482015261ffff821660248201525f60448201526064016108c8565b80610a8381615993565b91505061096b565b505f610a9a8a8a8a8a86611f3e565b9050610aab8a8a8a8a8a8a8861240e565b5f610abb8b8b8b8b8b8b89612ab6565b9050610ac781836130e7565b5050505f805d5050505050505050565b610ae033611b4d565b610b015733600160405162c14c0760e81b81526004016108c8929190615910565b610b0a336131e0565b610b133361321b565b565b606060148054610b24906159b3565b80601f0160208091040260200160405190810160405280929190818152602001828054610b50906159b3565b8015610b9b5780601f10610b7257610100808354040283529160200191610b9b565b820191905f5260205f20905b815481529060010190602001808311610b7e57829003601f168201915b50505050509050919050565b5f80610bc56801000d05c213d3f237846001600160401b03166132da565b9050610bd181856134f7565b949350505050565b336001600160a01b0386168114801590610bfa5750610bf88682611841565b155b15610c2b5760405163711bec9160e11b81526001600160a01b038083166004830152871660248201526044016108c8565b610c38868686868661355b565b505050505050565b5f610c4a82611b4d565b610c6b5781600360405162c14c0760e81b81526004016108c8929190615910565b5050335f90815260156020526040902054600160a01b90046001600160601b039081161490565b60608151835114610cc35781518351604051635b05999160e01b8152600481019290925260248201526044016108c8565b5f610ccd42611121565b90505f84516001600160401b03811115610ce957610ce9615191565b604051908082528060200260200182016040528015610d12578160200160208202803683370190505b5090505f5b85518110156106ab57602080820287010151610d3c906020808402880101518561186e565b50828281518110610d4f57610d4f61592c565b6020908102919091010152600101610d17565b6001600160a01b038281165f908152601d6020908152604080832093851683529290529081205442600160a01b9091046001600160601b03161015610da857505f610e30565b6001600160a01b0384165f908152601e6020526040902054600116610dcf57506001610e30565b6001600160a01b038481165f908152601d602090815260408083209387168352929052205442600160a01b9091046001600160601b031610801590610e2d57506001600160a01b0383165f908152601e602052604090205460011615155b90505b9392505050565b6001600160a01b039182165f908152601d6020908152604080832093909416825291909152205442600160a01b9091046001600160601b0316101590565b5f856001600160401b03811115610e8e57610e8e615191565b604051908082528060200260200182016040528015610eb7578160200160208202803683370190505b5090505f5b86811015610f1357610eee888883818110610ed957610ed961592c565b90506020020160208101906104559190614fb2565b828281518110610f0057610f0061592c565b6020908102919091010152600101610ebc565b50610f8933338a848989808060200260200160405190810160405280939291908181526020018383602002808284375f9201919091525050604080516020601f8d018190048102820181019092528b815292508b91508a90819084018382808284375f92019190915250600192506135c0915050565b5050505050505050565b335f908152601a60205260409020546001600160a01b03161580610fbe57506001600160a01b038216155b80610fd257506001600160a01b0382166001145b80610fe557506001600160a01b03821633145b15611007578160a160405162c14c0760e81b81526004016108c8929190615910565b42816001600160601b0316101561101b5750425b611026338383613907565b5050565b5f611035855f613964565b6001600160a01b038082165f908152601b602052604090205491925016801580159061107a57506001600160a01b038281165f908152601c6020526040902054163314155b15611116576040516343101c5f60e11b81526001600160a01b0382169063862038be906110b390339086908a908a908a906004016159eb565b6020604051808303815f875af11580156110cf573d5f803e3d5ffd5b505050506040513d601f19601f820116820180604052508101906110f39190615a1e565b61111657338660408051632f20c6dd60e11b81526004016108c893929190615a39565b610c383387876139a0565b5f620151805f54836111339190615a5d565b6106b09190615a84565b5f80610bc567fff2fae779633d1e846001600160401b03166132da565b61116933888888888888611b79565b60165460405163d199889360e01b81526001600160a01b039091169063d19988939061119d903390899089906004016158b2565b5f604051808303815f87803b1580156111b4575f80fd5b505af11580156111c6573d5f803e3d5ffd5b505060165460405163e27871dd60e01b81526001600160a01b03909116925063e27871dd91506111fe903390879087906004016158b2565b5f604051808303815f87803b158015611215575f80fd5b505af1158015611227573d5f803e3d5ffd5b505060165460405163e44b8c3560e01b8152336004820152602481018590526001600160a01b03909116925063e44b8c3591506044015f604051808303815f87803b158015611274575f80fd5b505af1158015611286573d5f803e3d5ffd5b50505050856001600160a01b0316876001600160a01b0316336001600160a01b03167f851510db3e53b795660f9ffba16469222d46d357be10c67f27f619ffe33b5874888888886040516112dd94939291906158df565b60405180910390a450505050505050565b5f805f6112fa846131e0565b61130384613a73565b9250925092505b9193909250565b611026338383613d6e565b5f61132684611b4d565b15801561134a57506001600160a01b038481165f908152601b602052604090205416155b1561136c5783602260405162c14c0760e81b81526004016108c8929190615910565b6018546040516395b645b160e01b81525f916001600160a01b0316906395b645b19061139e9088908790600401615a97565b6020604051808303815f875af11580156113ba573d5f803e3d5ffd5b505050506040513d601f19601f820116820180604052508101906113de9190615ad0565b9050610e2d33826001600160a01b0388168760405180602001604052805f815250611969565b6001600160a01b038181165f908152601a60205260408120549091161580159061144557506001600160a01b038281165f908152601b602052604090205416155b80156106b05750506001600160a01b03165f90815260156020526040902054600160a01b90046001600160601b03161590565b5f8181526012602090815260408083208151808301909252546001600160c01b0381168252600160c01b90046001600160401b031691810191909152816114be42611121565b9050610bd1825f01516001600160c01b03168360200151836114e09190615aeb565b6001600160401b0316613dfa565b335f908152601a60205260409020546001600160a01b03166115275733602360405162c14c0760e81b81526004016108c8929190615910565b335f818152601e602052604090819020839055517f97595e7ebea71ea0ce8653cbc96a4288b887500876f1e475c26e789506130fc69061156a9084815260200190565b60405180910390a250565b61157e33613e13565b60165460405163d199889360e01b81526001600160a01b039091169063d1998893906115b2903390879087906004016158b2565b5f604051808303815f87803b1580156115c9575f80fd5b505af11580156115db573d5f803e3d5ffd5b505060165460405163e44b8c3560e01b8152336004820152602481018590526001600160a01b03909116925063e44b8c3591506044015f604051808303815f87803b158015611628575f80fd5b505af115801561163a573d5f803e3d5ffd5b50505050336001600160a01b03167fe191edab93dcedd4a646317289fded1d9665862550b031a14bd3c5b0bc0e50078484604051611679929190615b12565b60405180910390a2505050565b6001600160a01b038216611707575f806116a03385613eb1565b90925090506001600160a01b03821660011415806116de57507f00000000000000000000000000000000000000000000000000000000000000008110155b156117005733606060405162c14c0760e81b81526004016108c8929190615910565b50506117e0565b61171082611b4d565b158061172357506117218233610e37565b155b15611745578160a060405162c14c0760e81b81526004016108c8929190615910565b61174f3383613eb1565b50507f00000000000000000000000000000000000000000000000000000000000000004211156117e0576117ae826001600160a01b0381166117936012600a615c05565b61179e906030615c13565b6117a9906002615c13565b6139a0565b6117e033806117bf6012600a615c05565b6117ca906030615c13565b60405180602001604052805f8152506001613f53565b80156110265760165460405163e44b8c3560e01b8152336004820152602481018390526001600160a01b039091169063e44b8c35906044015f604051808303815f87803b15801561182f575f80fd5b505af1158015610c38573d5f803e3d5ffd5b6001600160a01b039182165f90815260136020908152604080832093909416825291909152205460ff1690565b5f8281526011602090815260408083206001600160a01b038716845282528083208151808301909252546001600160c01b03811682526001600160401b03600160c01b909104811692820183905283929085161015611907576020810151604051632f20c6dd60e11b81526001600160a01b03881660048201526001600160401b03909116602482015260a060448201526064016108c8565b5f816020015185036001600160401b03169050611930825f01516001600160c01b031682613dfa565b9151919350506001600160c01b03168290039050935093915050565b5f805f61195884611b4d565b6112fa57505f91508190508061130a565b336001600160a01b038616811480159061198a57506119888682611841565b155b156119bb5760405163711bec9160e11b81526001600160a01b038083166004830152871660248201526044016108c8565b610c388686868686614041565b6017546001600160a01b031633146119f7573360e060405162c14c0760e81b81526004016108c8929190615910565b6001600160a01b038581165f908152601a6020526040902054161580611a1d5750828114155b15611a3f5784602160405162c14c0760e81b81526004016108c8929190615910565b5f611a4b8686866140c4565b611a576012600a615c05565b611a62906030615c13565b611a6d906002615c13565b611a779190615c13565b90507f000000000000000000000000000000000000000000000000000000000000000042118015611aa757505f81115b15611aea57611ab586611b4d565b611ad65785600460405162c14c0760e81b81526004016108c8929190615910565b611aea866001600160a01b038116836139a0565b5f5b84811015611b4457611b3c87611b0d888885818110610ed957610ed961592c565b868685818110611b1f57611b1f61592c565b9050602002013560405180602001604052805f8152506001613f53565b600101611aec565b50505050505050565b6001600160a01b03165f90815260156020526040902054600160a01b90046001600160601b0316151590565b6001600160a01b0386161580611b9657506001600160a01b038516155b15611bb75760405163d82c8fc960e01b8152600260048201526024016108c8565b601654604051631e30397f60e01b81526001600160a01b0390911690631e30397f90611be99087908790600401615b12565b602060405180830381865afa158015611c04573d5f803e3d5ffd5b505050506040513d601f19601f82011682018060405250810190611c289190615a1e565b1580611ca257506016546040516347ea7b8d60e11b81526001600160a01b0390911690638fd4f71a90611c619085908590600401615b12565b602060405180830381865afa158015611c7c573d5f803e3d5ffd5b505050506040513d601f19601f82011682018060405250810190611ca09190615a1e565b155b15611cc35760405163d82c8fc960e01b8152600360048201526024016108c8565b611ccc87613e13565b5050506001600160a01b039384165f908152601b6020908152604080832080549688166001600160a01b0319978816179055601c9091529020805492909416919092161790915550565b6060611d23826006615c13565b8314611d455760405163d82c8fc960e01b815260a660048201526024016108c8565b611d50826003615c13565b6001600160401b03811115611d6757611d67615191565b604051908082528060200260200182016040528015611d90578160200160208202803683370190505b5090505f805b84811015611f35578585611dab836001615c2a565b818110611dba57611dba61592c565b919091013560f81c90506008878784818110611dd857611dd861592c565b919091013560f81c90911b9190911790508383611df481615c3d565b945081518110611e0657611e0661592c565b61ffff909216602092830291909101909101528585611e26836003615c2a565b818110611e3557611e3561592c565b919091013560f81c905060088787611e4e856002615c2a565b818110611e5d57611e5d61592c565b919091013560f81c90911b9190911790508383611e7981615c3d565b945081518110611e8b57611e8b61592c565b61ffff909216602092830291909101909101528585611eab836005615c2a565b818110611eba57611eba61592c565b919091013560f81c905060088787611ed3856004615c2a565b818110611ee257611ee261592c565b919091013560f81c90911b9190911790508383611efe81615c3d565b945081518110611f1057611f1061592c565b61ffff90921660209283029190910190910152611f2e600682615c2a565b9050611d96565b50509392505050565b8051606090611f4e846003615c13565b141580611f5c575061ffff85115b80611f65575084155b80611f6e575082155b15611f8f5760405163d82c8fc960e01b815260a260048201526024016108c8565b5f856001600160401b03811115611fa857611fa8615191565b604051908082528060200260200182016040528015611fd1578160200160208202803683370190505b5090505f5b611fe1600188615a5d565b816001600160401b03161015612141578787611ffe836001615c55565b6001600160401b03168181106120165761201661592c565b905060200201602081019061202b9190614fb2565b6001600160a01b03168888836001600160401b031681811061204f5761204f61592c565b90506020020160208101906120649190614fb2565b6001600160a01b03161061208e5760405163d82c8fc960e01b8152606060048201526024016108c8565b5f601a818a8a6001600160401b0386168181106120ad576120ad61592c565b90506020020160208101906120c29190614fb2565b6001600160a01b03908116825260208201929092526040015f2054160361212f578787826001600160401b03168181106120fe576120fe61592c565b90506020020160208101906121139190614fb2565b602460405162c14c0760e81b81526004016108c8929190615910565b8061213981615c75565b915050611fd6565b505f8787612150600182615a5d565b81811061215f5761215f61592c565b90506020020160208101906121749190614fb2565b6001600160a01b038082165f908152601a6020526040902054919250166121b25780602560405162c14c0760e81b81526004016108c8929190615910565b505f805b6001600160401b038116861115612401575f8989878561ffff16815181106121e0576121e061592c565b602002602001015161ffff168181106121fb576121fb61592c565b90506020020160208101906122109190614fb2565b90505f8a8a88612221876001615c90565b61ffff16815181106122355761223561592c565b602002602001015161ffff168181106122505761225061592c565b90506020020160208101906122659190614fb2565b90505f8b8b89612276886002615c90565b61ffff168151811061228a5761228a61592c565b602002602001015161ffff168181106122a5576122a561592c565b90506020020160208101906122ba9190614fb2565b90505f8a8a866001600160401b03168181106122d8576122d861592c565b90506040020160200160208101906122f09190615cab565b6001600160c01b03169050612306838386610d62565b61233357816001600160a01b0385166021604051632f20c6dd60e11b81526004016108c893929190615a39565b80878a612341896001615c90565b61ffff16815181106123555761235561592c565b602002602001015161ffff16815181106123715761237161592c565b602002602001018181516123859190615cd1565b90525080878a612396896002615c90565b61ffff16815181106123aa576123aa61592c565b602002602001015161ffff16815181106123c6576123c661592c565b602002602001018181516123da9190615cf0565b9052506123e8866003615c90565b95505050505080806123f990615c75565b9150506121b6565b5090979650505050505050565b5f826001600160401b0381111561242757612427615191565b604051908082528060200260200182016040528015612450578160200160208202803683370190505b5090505f836001600160401b0381111561246c5761246c615191565b604051908082528060200260200182016040528015612495578160200160208202803683370190505b5090505f805b61ffff81168811156129a7575f8b8b876124b6866002615c90565b61ffff16815181106124ca576124ca61592c565b602002602001015161ffff168181106124e5576124e561592c565b90506020020160208101906124fa9190614fb2565b90505f806125966125378f8f8b8961ffff168151811061251c5761251c61592c565b602002602001015161ffff16818110610ed957610ed961592c565b8d8d8761ffff1681811061254d5761254d61592c565b90506040020160200160208101906125659190615cab565b6001600160c01b03166040805160018082526020820194909452808201938452606081019290925260808201905291565b915091505f8c8c8661ffff168181106125b1576125b161592c565b6125c7926020604090920201908101915061595e565b61ffff161115612832575f60018d8d8761ffff168181106125ea576125ea61592c565b612600926020604090920201908101915061595e565b61260a9190615d17565b90508461ffff168b8b8361ffff168181106126275761262761592c565b90506020028101906126399190615940565b612647906020810190615d32565b8a8461ffff168151811061265d5761265d61592c565b602002602001015161ffff168181106126785761267861592c565b905060200201602081019061268d919061595e565b61ffff16146126f357848d8d8761ffff168181106126ad576126ad61592c565b6126c3926020604090920201908101915061595e565b6040516001625e92ed60e01b0319815261ffff9283166004820152911660248201525f60448201526064016108c8565b878161ffff16815181106127095761270961592c565b60200260200101805180919061271e90615993565b61ffff1661ffff16815250505f6001600160a01b0316878261ffff168151811061274a5761274a61592c565b60200260200101516001600160a01b03160361279c5783878261ffff16815181106127775761277761592c565b60200260200101906001600160a01b031690816001600160a01b031681525050612830565b836001600160a01b0316878261ffff16815181106127bc576127bc61592c565b60200260200101516001600160a01b03161461283057848d8d8761ffff168181106127e9576127e961592c565b6127ff926020604090920201908101915061595e565b6040516001625e92ed60e01b0319815261ffff928316600482015291166024820152600160448201526064016108c8565b505b61ffff84167fde794eafdd0c49cd90c138ccbba748d374dd07edadf8996ec6c4c17bb207f62f8d8d8381811061286a5761286a61592c565b612880926020604090920201908101915061595e565b60405161ffff909116815260200160405180910390a26001600160a01b038084165f908152601b602052604090205416612916576129118e8e8a6128c5896001615c90565b61ffff16815181106128d9576128d961592c565b602002602001015161ffff168181106128f4576128f461592c565b90506020020160208101906129099190614fb2565b8484846141e2565b612984565b6129848e8e8a612927896001615c90565b61ffff168151811061293b5761293b61592c565b602002602001015161ffff168181106129565761295661592c565b905060200201602081019061296b9190614fb2565b8485858560405180602001604052805f8152505f6135c0565b61298f856003615c90565b9450505050808061299f90615993565b91505061249b565b506040517f4a5d0e1f680ae81712d9c29b0ad1c00a19eb56be491a766959559fc0dd63ffa3905f90a15f5b61ffff8116861115612aa9575f6001600160a01b0316838261ffff16815181106129fe576129fe61592c565b60200260200101516001600160a01b03161480612a73575086868261ffff16818110612a2c57612a2c61592c565b9050602002810190612a3e9190615940565b612a4c906020810190615d32565b9050848261ffff1681518110612a6457612a6461592c565b602002602001015161ffff1614155b15612a975760405163b778626960e01b815261ffff821660048201526024016108c8565b80612aa181615993565b9150506129d2565b5050505050505050505050565b60605f876001600160401b03811115612ad157612ad1615191565b604051908082528060200260200182016040528015612afa578160200160208202803683370190505b5090505f5b61ffff81168511156130da575f86868361ffff16818110612b2257612b2261592c565b9050602002810190612b349190615940565b612b42906020810190615d32565b90506001600160401b03811115612b5b57612b5b615191565b604051908082528060200260200182016040528015612b84578160200160208202803683370190505b5090505f87878461ffff16818110612b9e57612b9e61592c565b9050602002810190612bb09190615940565b612bbe906020810190615d32565b90506001600160401b03811115612bd757612bd7615191565b604051908082528060200260200182016040528015612c00578160200160208202803683370190505b5090505f805b89898661ffff16818110612c1c57612c1c61592c565b9050602002810190612c2e9190615940565b612c3c906020810190615d32565b90508161ffff161015612de357612ccd8e8e8a8d8d8a61ffff16818110612c6557612c6561592c565b9050602002810190612c779190615940565b612c85906020810190615d32565b8661ffff16818110612c9957612c9961592c565b9050602002016020810190612cae919061595e565b612cb9906003615d77565b61ffff168151811061251c5761251c61592c565b848261ffff1681518110612ce357612ce361592c565b6020026020010181815250508b8b8b8b8861ffff16818110612d0757612d0761592c565b9050602002810190612d199190615940565b612d27906020810190615d32565b8461ffff16818110612d3b57612d3b61592c565b9050602002016020810190612d50919061595e565b61ffff16818110612d6357612d6361592c565b9050604002016020016020810190612d7b9190615cab565b6001600160c01b0316838261ffff1681518110612d9a57612d9a61592c565b602002602001018181525050828161ffff1681518110612dbc57612dbc61592c565b602002602001015182612dcf9190615c2a565b915080612ddb81615993565b915050612c06565b505f878a8a8761ffff16818110612dfc57612dfc61592c565b9050602002810190612e0e9190615940565b612e1c906020810190615d32565b5f818110612e2c57612e2c61592c565b9050602002016020810190612e41919061595e565b612e4c906003615d77565b612e57906002615c90565b61ffff1681518110612e6b57612e6b61592c565b602002602001015190505f8e8e8361ffff16818110612e8c57612e8c61592c565b9050602002016020810190612ea19190614fb2565b9050612f788f8f8d8d8a61ffff16818110612ebe57612ebe61592c565b9050602002810190612ed09190615940565b612ede90602081019061595e565b61ffff16818110612ef157612ef161592c565b9050602002016020810190612f069190614fb2565b8287878f8f8c61ffff16818110612f1f57612f1f61592c565b9050602002810190612f319190615940565b612f3f906040810190615d95565b8080601f0160208091040260200160405190810160405280939291908181526020018383808284375f9201919091525061443792505050565b82878c8c8961ffff16818110612f9057612f9061592c565b9050602002810190612fa29190615940565b612fb090602081019061595e565b61ffff1681518110612fc457612fc461592c565b60200260200101818151612fd89190615cd1565b90525086518390889061ffff8516908110612ff557612ff561592c565b602002602001018181516130099190615cf0565b9052506001600160a01b0381168f8f8d8d61ffff8b1681811061302e5761302e61592c565b90506020028101906130409190615940565b61304e90602081019061595e565b61ffff168181106130615761306161592c565b90506020020160208101906130769190614fb2565b6001600160a01b0316336001600160a01b03167fcfe53a731d24ac31b725405f3dca8a4d23512d3e1ade2359fbbe7982bec0fd4288886040516130ba929190615dd7565b60405180910390a4505050505080806130d290615993565b915050612aff565b5098975050505050505050565b805182511461310c5760405163d82c8fc960e01b815260a560048201526024016108c8565b5f5b82518161ffff1610156131db57818161ffff16815181106131315761313161592c565b6020026020010151838261ffff168151811061314f5761314f61592c565b6020026020010151146131c95780828261ffff16815181106131735761317361592c565b6020026020010151848361ffff16815181106131915761319161592c565b6020908102919091010151604051632f38161d60e01b815261ffff9093166004840152602483019190915260448201526064016108c8565b806131d381615993565b91505061310e565b505050565b6001600160a01b038181165f9081526015602052604090205416600114613218575f61320b8261447e565b5090506110268282614607565b50565b5f805f61322784613a73565b925092509250825f0361323a5750505050565b6001600160a01b038481165f8181526015602052604090208054909216600160a01b426001600160601b031602179091556132889085908560405180602001604052805f8152506001613f53565b60408051848152602081018490529081018290526001600160a01b038516907f5679cef078fbc961b2e34e49c1f56efe542401e2e59dff633b68ddea27812cc29060600160405180910390a250505050565b5f805f84600f0b1280156132f15750826001166001145b90505f8085600f0b126133045784613308565b845f035b6001600160801b03169050600160801b6801000000000000000082116133a257603f82901b91505b841561339a576001851615613345578102607f1c5b908002607f1c90600285161561335b578102607f1c5b908002607f1c906004851615613371578102607f1c5b908002607f1c906008851615613387578102607f1c5b60049490941c93908002607f1c90613330565b60401c6134b4565b603f600160601b8310156133bc5760209290921b91601f19015b600160701b8310156133d45760109290921b91600f19015b600160781b8310156133ec5760089290921b91600719015b6001607c1b8310156134045760049290921b91600319015b6001607e1b83101561341c5760029290921b91600119015b6001607f1b8310156134335760019290921b915f19015b5f5b861561349e5760408210613447575f80fd5b600187161561346d57918302607f1c918101600160801b83111561346d57600192831c92015b928002607f1c9260019190911b90600160801b841061349257600193841c9391909101905b600187901c9650613435565b604081106134aa575f80fd5b6040039190911c90505b5f836134c057816134c4565b815f035b905060016001607f1b031981128015906134e5575060016001607f1b038113155b6134ed575f80fd5b9695505050505050565b5f815f0361350657505f6106b0565b5f83600f0b1215613515575f80fd5b600f83900b6001600160801b038316810260401c90608084901c026001600160c01b03811115613543575f80fd5b60401b8119811115613553575f80fd5b019392505050565b6001600160a01b03841661358457604051632bfa23e760e11b81525f60048201526024016108c8565b6001600160a01b0385166135ac57604051626a0d4560e21b81525f60048201526024016108c8565b6135b985858585856146c8565b5050505050565b825184511415806135d057508351155b156135f15760405163d82c8fc960e01b815260a160048201526024016108c8565b6001600160a01b038086165f908152601b60205260409020541661362a576040805162c14c0760e81b81526108c8918791600401615910565b5f805b8451811015613713575f61365b87838151811061364c5761364c61592c565b60200260200101516001613964565b90505f846136735761366e8b8a84610d62565b61367d565b61367d8983610e37565b90508015806136a457508683815181106136995761369961592c565b60200260200101515f145b156136e257888884815181106136bc576136bc61592c565b60200260200101516020604051632f20c6dd60e11b81526004016108c893929190615a39565b8683815181106136f4576136f461592c565b6020026020010151846137079190615c2a565b9350505060010161362d565b506001600160a01b038087165f908152601b60205260409081902054905163b703825960e01b815291169063b70382599061375a908b908a908a908a908a90600401615dfb565b6020604051808303815f875af1158015613776573d5f803e3d5ffd5b505050506040513d601f19601f8201168201806040525081019061379a9190615a1e565b6137c757876001600160a01b0387166060604051632f20c6dd60e11b81526004016108c893929190615a39565b5f6040518060200160405280886001600160a01b03168152506040516020016137fc91516001600160a01b0316815260200190565b60408051601f198184030181526060830182527f3846339d4d39a76fd554559ca1c53716bfb66f542f4b8c5b7517c56812d99c578352602083810182905283830188905291519093505f9261385392909101615e58565b60408051601f198184030181529181526001600160a01b03808b165f908152601c602052919091205491925061388e918c9116898985610bd9565b6138a4896001600160a01b038a16858888613f53565b876001600160a01b0316896001600160a01b03168b6001600160a01b03167f3a5b9c28bd46059b05474dba7c89bea05288c635ea94ef13a7870d081c87a5288a8a6040516138f3929190615dd7565b60405180910390a450505050505050505050565b6139128383836146e1565b6040516001600160601b03821681526001600160a01b0380841691908516907fe60c754dd8ab0b1b5fccba257d6ebcd7d09e360ab7dd7a6e58198ca1f57cdcec906020015b60405180910390a3505050565b5f6001600160a01b038311156139995760405163a127935960e01b81526004810184905260ff831660248201526044016108c8565b5090919050565b6139ab8383836147f2565b5f6139b542611121565b5f8481526012602090815260408083208151808301909252546001600160c01b038116808352600160c01b9091046001600160401b031692820183905293945092613a04916114e09086615aeb565b905083811015613a2a5760405163d82c8fc960e01b8152608460048201526024016108c8565b6001600160c01b03939003831681526001600160401b0391821660208083019182525f95865260129052604090942090519351909116600160c01b029290911691909117905550565b6001600160a01b038181165f908152601560209081526040808320815180830190925254938416808252600160a01b9094046001600160601b03169181019190915290918291829115801590613ad4575080516001600160a01b0316600114155b15613af6578460c060405162c14c0760e81b81526004016108c8929190615910565b5f610e108260200151613b099190615e9a565b6001600160601b031690505f613b21610e1042615a84565b90508082101580613b3f575060208301516001600160601b03908116145b15613b55575f805f95509550955050505061130a565b5f613b79613b666212750042615a5d565b85602001516001600160601b0316614858565b90505f613b8582611121565b6001600160401b031690505f613b9a42611121565b6001600160401b031690505f613bb08383615a5d565b90505f613bed610e105f548662015180613bca9190615c13565b613bd49190615c2a565b613bde9088615a5d565b613be89190615a84565b614867565b90505f425f54856001613c009190615c2a565b613c0d9062015180615c13565b613c179190615c2a565b613c219190615a5d565b90505f613c30610e1083615a84565b90505f613c5e81613c43610e1086615ebf565b11613c4e575f613c51565b60015b613be89060ff1684615c2a565b90505f613c9f613c99600988600f8110613c7a57613c7a61592c565b600291828204019190066010029054906101000a9004600f0b87614883565b836148b8565b9050613cea613cd9600188600f8110613cba57613cba61592c565b600291828204019190066010029054906101000a9004600f0b836148e9565b613ce56012600a615c05565b6134f7565b613cf686610e106134f7565b613d038a62015180615c13565b5f54613d0f9190615c2a565b613d199190615c2a565b613d2584610e106134f7565b613d328a62015180615c13565b5f54613d3e9190615c2a565b613d4b9062015180615c2a565b613d559190615a5d565b9e509e509e505050505050505050505050509193909250565b6001600160a01b038216613d965760405162ced3e160e81b81525f60048201526024016108c8565b6001600160a01b038381165f81815260136020908152604080832094871680845294825291829020805460ff191686151590811790915591519182527f17307eab39ab6107e8899845ad3d59bd9653f200f220920489ca2b5937696c319101613957565b5f815f03613e095750816106b0565b5f610bc58361491a565b6001600160a01b038181165f908152601a60205260409020541615613e4f5780608060405162c14c0760e81b81526004016108c8929190615910565b601a6020527ff88cd8d612926ebb404e40725c01084b6e9b3ce0344cde068570342cbd448c6180546001600160a01b039283165f818152604081208054959093166001600160a01b031995861617909255600190915281549092169091179055565b5f80613ebc84613e13565b613ec58461447e565b6001600160a01b038087165f9081526015602052604090206001600160601b03428116600160a01b02928516929092178155929450909250613f0a9086908190613907565b836001600160a01b0316856001600160a01b03167ffea7c1e1973c8be64c654eb06dc19ffbfc2e924d57544b9da0c0a27d3f893d7760405160405180910390a3505b9250929050565b613f608585858585614973565b5f613f6a42611121565b5f8681526012602090815260408083208151808301909252546001600160c01b038116808352600160c01b9091046001600160401b0316928201839052939450928791613fbc91906114e09087615aeb565b613fc69190615c2a565b90506001600160c01b03811115613ff75787876080604051632f20c6dd60e11b81526004016108c893929190615a39565b6001600160c01b0390811682526001600160401b0392831660208084019182525f988952601290526040909720915196519616600160c01b96909216959095021790935550505050565b6001600160a01b03841661406a57604051632bfa23e760e11b81525f60048201526024016108c8565b6001600160a01b03851661409257604051626a0d4560e21b81525f60048201526024016108c8565b60408051600180825260208201869052818301908152606082018590526080820190925290611b4487878484876146c8565b5f80805b838110156141d9575f601a818787858181106140e6576140e661592c565b90506020020160208101906140fb9190614fb2565b6001600160a01b03908116825260208201929092526040015f20541603614160578161412681615c3d565b92505061415985858381811061413e5761413e61592c565b90506020020160208101906141539190614fb2565b87613eb1565b50506141d1565b61418a8585838181106141755761417561592c565b90506020020160208101906106779190614fb2565b6141d1578484828181106141a0576141a061592c565b90506020020160208101906141b59190614fb2565b600560405162c14c0760e81b81526004016108c8929190615910565b6001016140c8565b50949350505050565b80518251146142115781518151604051635b05999160e01b8152600481019290925260248201526044016108c8565b335f61421c42611121565b90505f5b8451811015614368576020818102868101820151908601909101516001600160a01b03891615614343575f806142578b858861186e565b915091508282101561429c576040516303dee4c560e01b81526001600160a01b038c1660048201526024810183905260448101849052606481018590526084016108c8565b80156143325760408051858152602081018390525f916001600160a01b038e811692908b16917fc3d58168c5ae7397731d063d5bbf3d657854427343f4c083240f7aacaa2d0f62910160405180910390a4838b6001600160a01b03167f0133941907a52d9dac02e146444ded662cbf8cabf0cbb1f1aead9814cda91d618360405161432991815260200190565b60405180910390a35b6143408b85858503896149e5565b50505b6001600160a01b0388161561435e5761435e88838387614a7a565b5050600101614220565b5083516001036143e85760208401515f906020850151909150866001600160a01b0316886001600160a01b0316856001600160a01b03167fc3d58168c5ae7397731d063d5bbf3d657854427343f4c083240f7aacaa2d0f6285856040516143d9929190918252602082015260400190565b60405180910390a45050610c38565b846001600160a01b0316866001600160a01b0316836001600160a01b03167f4a39dc06d4c0dbc64b70af90fd698a233a518aa5d07e595d983b8c0526c8f7fb878760405161088e929190615dd7565b6001600160a01b038416156135b957825133906001036144705760208481015190840151614469838989858589614c7b565b5050610c38565b610c38818787878787614d9c565b60405163146924ff60e11b81526001600160a01b0382811660048301525f91829182917f0000000000000000000000000000000000000000000000000000000000000000909116906328d249fe90602401602060405180830381865afa1580156144ea573d5f803e3d5ffd5b505050506040513d601f19601f8201168201806040525081019061450e9190615ad0565b90506001600160a01b03811661452957505f93849350915050565b5f816001600160a01b0316638b4eed816040518163ffffffff1660e01b8152600401602060405180830381865afa158015614566573d5f803e3d5ffd5b505050506040513d601f19601f8201168201806040525081019061458a9190615ed2565b9050816001600160a01b03166375f12b216040518163ffffffff1660e01b8152600401602060405180830381865afa1580156145c8573d5f803e3d5ffd5b505050506040513d601f19601f820116820180604052508101906145ec9190615a1e565b156145fd5760019590945092505050565b9094909350915050565b6001600160a01b0382165f90815260156020526040812080549091600160a01b9091046001600160601b031690036146555760405163d82c8fc960e01b8152608060048201526024016108c8565b80546001600160a01b038381169116146131db5780546001600160a01b0319166001600160a01b038316178082556146a190600160a01b90046001600160601b03908116904216614858565b81546001600160601b0391909116600160a01b026001600160a01b03909116178155505050565b6146d4858585856141e2565b6135b98585858585614437565b6001600160a01b03831615806146fe57506001600160a01b038216155b8061471257506001600160a01b0382166001145b156147335760405163d82c8fc960e01b8152608160048201526024016108c8565b6001600160a01b038084165f908152601d6020908152604080832060018452909152902080549091166147725780546001600160a01b03191660011781555b6001600160a01b038085165f908152601d602090815260408083208785168452909152902080549091166147c857815481546001600160a01b039182166001600160a01b03199182161783558354169085161782555b80546001600160601b03909316600160a01b026001600160a01b0390931692909217909155505050565b6001600160a01b03831661481a57604051626a0d4560e21b81525f60048201526024016108c8565b604080516001808252602082018590528183019081526060820184905260a082019092525f608082018181529192916135b9918791859085906146c8565b5f818310156139995750919050565b5f677fffffffffffffff82111561487c575f80fd5b5060401b90565b5f600f83810b9083900b0260401d60016001607f1b031981128015906148b0575060016001607f1b038113155b610e30575f80fd5b5f600f83810b9083900b0160016001607f1b031981128015906148b0575060016001607f1b03811315610e30575f80fd5b5f600f82810b9084900b0360016001607f1b031981128015906148b0575060016001607f1b03811315610e30575f80fd5b5f600e8211614961575f600983600f81106149375761493761592c565b60028104919091015460019091166010026101000a9004600f0b9050801561495f5792915050565b505b6106b067fff2fae779633d1e836132da565b6001600160a01b03851661499c57604051632bfa23e760e11b81525f60048201526024016108c8565b6040805160018082526020820187905281830190815260608201869052608082019092529082156149d9576149d45f888484886146c8565b611b44565b611b445f8884846141e2565b6001600160c01b03821115614a145783836081604051632f20c6dd60e11b81526004016108c893929190615a39565b5f9283526011602090815260408085206001600160a01b0390961680865286835281862082518084019093526001600160c01b0395861683526001600160401b03948516838501908152919096529590915251935116600160c01b029216919091179055565b5f8381526011602090815260408083206001600160a01b03881684528252918290208251808401909352546001600160c01b03811683526001600160401b03600160c01b909104811691830182905283161015614b11576020810151604051632f20c6dd60e11b81526001600160a01b03871660048201526001600160401b03909116602482015260a160448201526064016108c8565b5f816020015183036001600160401b031690505f614b3b835f01516001600160c01b031683613dfa565b83519091506001600160c01b0316818103908214614be05760408051888152602081018390525f916001600160a01b038b169133917fc3d58168c5ae7397731d063d5bbf3d657854427343f4c083240f7aacaa2d0f62910160405180910390a486886001600160a01b03167f0133941907a52d9dac02e146444ded662cbf8cabf0cbb1f1aead9814cda91d6183604051614bd791815260200190565b60405180910390a35b505f614bec8683615c2a565b90506001600160c01b03811115614c1d5787876082604051632f20c6dd60e11b81526004016108c893929190615a39565b6001600160c01b0390811684526001600160401b0394851660208086019182525f988952601181526040808a206001600160a01b03909b168a529990529790962092519651909316600160c01b029590941694909417909355505050565b6001600160a01b0384163b15610c385760405163f23a6e6160e01b81526001600160a01b0385169063f23a6e6190614cbf9089908990889088908890600401615ee9565b6020604051808303815f875af1925050508015614cf9575060408051601f3d908101601f19168201909252614cf691810190615f22565b60015b614d60573d808015614d26576040519150601f19603f3d011682016040523d82523d5f602084013e614d2b565b606091505b5080515f03614d5857604051632bfa23e760e11b81526001600160a01b03861660048201526024016108c8565b805181602001fd5b6001600160e01b0319811663f23a6e6160e01b14611b4457604051632bfa23e760e11b81526001600160a01b03861660048201526024016108c8565b6001600160a01b0384163b15610c385760405163bc197c8160e01b81526001600160a01b0385169063bc197c8190614de09089908990889088908890600401615dfb565b6020604051808303815f875af1925050508015614e1a575060408051601f3d908101601f19168201909252614e1791810190615f22565b60015b614e47573d808015614d26576040519150601f19603f3d011682016040523d82523d5f602084013e614d2b565b6001600160e01b0319811663bc197c8160e01b14611b4457604051632bfa23e760e11b81526001600160a01b03861660048201526024016108c8565b6001600160a01b0381168114613218575f80fd5b5f8060408385031215614ea8575f80fd5b8235614eb381614e83565b946020939093013593505050565b6001600160e01b031981168114613218575f80fd5b5f60208284031215614ee6575f80fd5b8135610e3081614ec1565b5f8083601f840112614f01575f80fd5b5081356001600160401b03811115614f17575f80fd5b602083019150836020828501011115613f4c575f80fd5b5f805f805f8060808789031215614f43575f80fd5b8635614f4e81614e83565b955060208701356001600160401b0380821115614f69575f80fd5b614f758a838b01614ef1565b90975095506040890135915080821115614f8d575f80fd5b50614f9a89828a01614ef1565b979a9699509497949695606090950135949350505050565b5f60208284031215614fc2575f80fd5b8135610e3081614e83565b5f8083601f840112614fdd575f80fd5b5081356001600160401b03811115614ff3575f80fd5b6020830191508360208260051b8501011115613f4c575f80fd5b5f805f805f805f806080898b031215615024575f80fd5b88356001600160401b038082111561503a575f80fd5b6150468c838d01614fcd565b909a50985060208b013591508082111561505e575f80fd5b818b0191508b601f830112615071575f80fd5b81358181111561507f575f80fd5b8c60208260061b8501011115615093575f80fd5b6020830198508097505060408b01359150808211156150b0575f80fd5b6150bc8c838d01614fcd565b909650945060608b01359150808211156150d4575f80fd5b506150e18b828c01614ef1565b999c989b5096995094979396929594505050565b5f60208284031215615105575f80fd5b5035919050565b5f81518084528060208401602086015e5f602082860101526020601f19601f83011685010191505092915050565b602081525f610e30602083018461510c565b80356001600160401b0381168114615162575f80fd5b919050565b5f8060408385031215615178575f80fd5b823591506151886020840161514c565b90509250929050565b634e487b7160e01b5f52604160045260245ffd5b604051601f8201601f191681016001600160401b03811182821017156151cd576151cd615191565b604052919050565b5f6001600160401b038211156151ed576151ed615191565b5060051b60200190565b5f82601f830112615206575f80fd5b8135602061521b615216836151d5565b6151a5565b8083825260208201915060208460051b87010193508684111561523c575f80fd5b602086015b848110156152585780358352918301918301615241565b509695505050505050565b5f82601f830112615272575f80fd5b81356001600160401b0381111561528b5761528b615191565b61529e601f8201601f19166020016151a5565b8181528460208386010111156152b2575f80fd5b816020850160208301375f918101602001919091529392505050565b5f805f805f60a086880312156152e2575f80fd5b85356152ed81614e83565b945060208601356152fd81614e83565b935060408601356001600160401b0380821115615318575f80fd5b61532489838a016151f7565b94506060880135915080821115615339575f80fd5b61534589838a016151f7565b9350608088013591508082111561535a575f80fd5b5061536788828901615263565b9150509295509295909350565b5f8060408385031215615385575f80fd5b82356001600160401b038082111561539b575f80fd5b818501915085601f8301126153ae575f80fd5b813560206153be615216836151d5565b82815260059290921b840181019181810190898411156153dc575f80fd5b948201945b838610156154035785356153f481614e83565b825294820194908201906153e1565b96505086013592505080821115615418575f80fd5b50615425858286016151f7565b9150509250929050565b5f815180845260208085019450602084015f5b8381101561545e57815187529582019590820190600101615442565b509495945050505050565b602081525f610e30602083018461542f565b5f805f6060848603121561548d575f80fd5b833561549881614e83565b925060208401356154a881614e83565b915060408401356154b881614e83565b809150509250925092565b5f80604083850312156154d4575f80fd5b82356154df81614e83565b915060208301356154ef81614e83565b809150509250929050565b5f805f805f805f6080888a031215615510575f80fd5b873561551b81614e83565b965060208801356001600160401b0380821115615536575f80fd5b6155428b838c01614fcd565b909850965060408a013591508082111561555a575f80fd5b6155668b838c01614fcd565b909650945060608a013591508082111561557e575f80fd5b5061558b8a828b01614ef1565b989b979a50959850939692959293505050565b5f80604083850312156155af575f80fd5b82356155ba81614e83565b915060208301356001600160601b03811681146154ef575f80fd5b5f805f80606085870312156155e8575f80fd5b843593506020850135925060408501356001600160401b0381111561560b575f80fd5b61561787828801614ef1565b95989497509550505050565b5f805f805f805f60a0888a031215615639575f80fd5b873561564481614e83565b9650602088013561565481614e83565b955060408801356001600160401b038082111561566f575f80fd5b61567b8b838c01614ef1565b909750955060608a0135915080821115615693575f80fd5b506156a08a828b01614ef1565b989b979a50959894979596608090950135949350505050565b8015158114613218575f80fd5b5f80604083850312156156d7575f80fd5b82356156e281614e83565b915060208301356154ef816156b9565b5f805f60608486031215615704575f80fd5b833561570f81614e83565b9250602084013591506040840135600281106154b8575f80fd5b5f805f6040848603121561573b575f80fd5b83356001600160401b03811115615750575f80fd5b61575c86828701614ef1565b909790965060209590950135949350505050565b5f805f60608486031215615782575f80fd5b833561578d81614e83565b9250602084013591506157a26040850161514c565b90509250925092565b5f805f805f60a086880312156157bf575f80fd5b85356157ca81614e83565b945060208601356157da81614e83565b9350604086013592506060860135915060808601356001600160401b03811115615802575f80fd5b61536788828901615263565b5f805f805f60608688031215615822575f80fd5b853561582d81614e83565b945060208601356001600160401b0380821115615848575f80fd5b61585489838a01614fcd565b9096509450604088013591508082111561586c575f80fd5b5061587988828901614fcd565b969995985093965092949392505050565b81835281816020850137505f828201602090810191909152601f909101601f19169091010190565b6001600160a01b03841681526040602082018190525f906158d6908301848661588a565b95945050505050565b604081525f6158f260408301868861588a565b828103602084015261590581858761588a565b979650505050505050565b6001600160a01b0392909216825260ff16602082015260400190565b634e487b7160e01b5f52603260045260245ffd5b5f8235605e19833603018112615954575f80fd5b9190910192915050565b5f6020828403121561596e575f80fd5b813561ffff81168114610e30575f80fd5b634e487b7160e01b5f52601160045260245ffd5b5f61ffff8083168181036159a9576159a961597f565b6001019392505050565b600181811c908216806159c757607f821691505b6020821081036159e557634e487b7160e01b5f52602260045260245ffd5b50919050565b6001600160a01b03868116825285166020820152604081018490526080606082018190525f90615905908301848661588a565b5f60208284031215615a2e575f80fd5b8151610e30816156b9565b6001600160a01b03939093168352602083019190915260ff16604082015260600190565b818103818111156106b0576106b061597f565b634e487b7160e01b5f52601260045260245ffd5b5f82615a9257615a92615a70565b500490565b6001600160a01b03831681526040810160028310615ac357634e487b7160e01b5f52602160045260245ffd5b8260208301529392505050565b5f60208284031215615ae0575f80fd5b8151610e3081614e83565b6001600160401b03828116828216039080821115615b0b57615b0b61597f565b5092915050565b602081525f610e2d60208301848661588a565b600181815b80851115615b5f57815f1904821115615b4557615b4561597f565b80851615615b5257918102915b93841c9390800290615b2a565b509250929050565b5f82615b75575060016106b0565b81615b8157505f6106b0565b8160018114615b975760028114615ba157615bbd565b60019150506106b0565b60ff841115615bb257615bb261597f565b50506001821b6106b0565b5060208310610133831016604e8410600b8410161715615be0575081810a6106b0565b615bea8383615b25565b805f1904821115615bfd57615bfd61597f565b029392505050565b5f610e3060ff841683615b67565b80820281158282048414176106b0576106b061597f565b808201808211156106b0576106b061597f565b5f60018201615c4e57615c4e61597f565b5060010190565b6001600160401b03818116838216019080821115615b0b57615b0b61597f565b5f6001600160401b038083168181036159a9576159a961597f565b61ffff818116838216019080821115615b0b57615b0b61597f565b5f60208284031215615cbb575f80fd5b81356001600160c01b0381168114610e30575f80fd5b8181035f831280158383131683831282161715615b0b57615b0b61597f565b8082018281125f831280158216821582161715615d0f57615d0f61597f565b505092915050565b61ffff828116828216039080821115615b0b57615b0b61597f565b5f808335601e19843603018112615d47575f80fd5b8301803591506001600160401b03821115615d60575f80fd5b6020019150600581901b3603821315613f4c575f80fd5b61ffff818116838216028082169190828114615d0f57615d0f61597f565b5f808335601e19843603018112615daa575f80fd5b8301803591506001600160401b03821115615dc3575f80fd5b602001915036819003821315613f4c575f80fd5b604081525f615de9604083018561542f565b82810360208401526158d6818561542f565b6001600160a01b0386811682528516602082015260a0604082018190525f90615e269083018661542f565b8281036060840152615e38818661542f565b90508281036080840152615e4c818561510c565b98975050505050505050565b60208152815160208201525f602083015160606040840152615e7d608084018261510c565b90506040840151601f198483030160608501526158d6828261510c565b5f6001600160601b0380841680615eb357615eb3615a70565b92169190910492915050565b5f82615ecd57615ecd615a70565b500690565b5f60208284031215615ee2575f80fd5b5051919050565b6001600160a01b03868116825285166020820152604081018490526060810183905260a0608082018190525f906159059083018461510c565b5f60208284031215615f32575f80fd5b8151610e3081614ec156fea2646970667358221220827f5944b9e706541df8b28d4c4bb08c15784067d2f7ac60972a4e6ab61fa13864736f6c63430008190033","linkReferences":{}},"methodIdentifiers":{"advancedUsageFlags(address)":"f796a4af","avatars(address)":"edeeb93c","balanceOf(address,uint256)":"00fdd58e","balanceOfBatch(address[],uint256[])":"4e1273f4","balanceOfOnDay(address,uint256,uint64)":"eb8c2760","burn(uint256,uint256,bytes)":"80a5a371","calculateIssuance(address)":"f179c713","calculateIssuanceWithCheck(address)":"9cd02313","convertDemurrageToInflationaryValue(uint256,uint64)":"253dd0b5","convertInflationaryToDemurrageValue(uint256,uint64)":"99342aa3","day(uint256)":"8ff12b6d","groupMint(address,address[],uint256[],bytes)":"6cb498e5","inflationDayZero()":"7c234d01","isApprovedForAll(address,address)":"e985e9c5","isGroup(address)":"9e0cc3c4","isHuman(address)":"f72c436f","isOrganization(address)":"b1ce8eab","isPermittedFlow(address,address,address)":"4f338925","isTrusted(address,address)":"6713e230","migrate(address,address[],uint256[])":"f3177079","mintPolicies(address)":"da33e065","operateFlowMatrix(address[],(uint16,uint192)[],(uint16,uint16[],bytes)[],bytes)":"0d22d9b5","personalMint()":"0d873a79","registerCustomGroup(address,address,string,string,bytes32)":"9bec5726","registerGroup(address,string,string,bytes32)":"0528f507","registerHuman(address,bytes32)":"e76cec53","registerOrganization(string,bytes32)":"bfde380d","safeBatchTransferFrom(address,address,uint256[],uint256[],bytes)":"2eb2c2d6","safeTransferFrom(address,address,uint256,uint256,bytes)":"f242432a","setAdvancedUsageFlag(bytes32)":"bda79c54","setApprovalForAll(address,bool)":"a22cb465","stop()":"07da68f5","stopped(address)":"47df87ab","supportsInterface(bytes4)":"01ffc9a7","toTokenId(address)":"7cf637cd","totalSupply(uint256)":"bd85b039","treasuries(address)":"0849b234","trust(address,uint96)":"75dcebc7","trustMarkers(address,address)":"7cd0cea6","uri(uint256)":"0e89341c","wrap(address,uint256,uint8)":"aabd6954"},"id":50}