{"abi":[{"type":"constructor","inputs":[{"name":"_hubV1","type":"address","internalType":"contract IHubV1"},{"name":"_nameRegistry","type":"address","internalType":"contract INameRegistry"},{"name":"_migration","type":"address","internalType":"address"},{"name":"_liftERC20","type":"address","internalType":"contract IERC20Lift"},{"name":"_standardTreasury","type":"address","internalType":"address"},{"name":"_inflationDayZero","type":"uint256","internalType":"uint256"},{"name":"_bootstrapTime","type":"uint256","internalType":"uint256"},{"name":"_gatewayUrl","type":"string","internalType":"string"}],"stateMutability":"nonpayable"},{"type":"function","name":"advancedUsageFlags","inputs":[{"name":"","type":"address","internalType":"address"}],"outputs":[{"name":"","type":"bytes32","internalType":"bytes32"}],"stateMutability":"view"},{"type":"function","name":"avatars","inputs":[{"name":"","type":"address","internalType":"address"}],"outputs":[{"name":"","type":"address","internalType":"address"}],"stateMutability":"view"},{"type":"function","name":"balanceOf","inputs":[{"name":"_account","type":"address","internalType":"address"},{"name":"_id","type":"uint256","internalType":"uint256"}],"outputs":[{"name":"","type":"uint256","internalType":"uint256"}],"stateMutability":"view"},{"type":"function","name":"balanceOfBatch","inputs":[{"name":"_accounts","type":"address[]","internalType":"address[]"},{"name":"_ids","type":"uint256[]","internalType":"uint256[]"}],"outputs":[{"name":"","type":"uint256[]","internalType":"uint256[]"}],"stateMutability":"view"},{"type":"function","name":"balanceOfOnDay","inputs":[{"name":"_account","type":"address","internalType":"address"},{"name":"_id","type":"uint256","internalType":"uint256"},{"name":"_day","type":"uint64","internalType":"uint64"}],"outputs":[{"name":"balanceOnDay_","type":"uint256","internalType":"uint256"},{"name":"discountCost_","type":"uint256","internalType":"uint256"}],"stateMutability":"view"},{"type":"function","name":"burn","inputs":[{"name":"_id","type":"uint256","internalType":"uint256"},{"name":"_amount","type":"uint256","internalType":"uint256"},{"name":"_data","type":"bytes","internalType":"bytes"}],"outputs":[],"stateMutability":"nonpayable"},{"type":"function","name":"calculateIssuance","inputs":[{"name":"_human","type":"address","internalType":"address"}],"outputs":[{"name":"","type":"uint256","internalType":"uint256"},{"name":"","type":"uint256","internalType":"uint256"},{"name":"","type":"uint256","internalType":"uint256"}],"stateMutability":"view"},{"type":"function","name":"calculateIssuanceWithCheck","inputs":[{"name":"_human","type":"address","internalType":"address"}],"outputs":[{"name":"","type":"uint256","internalType":"uint256"},{"name":"","type":"uint256","internalType":"uint256"},{"name":"","type":"uint256","internalType":"uint256"}],"stateMutability":"nonpayable"},{"type":"function","name":"convertBatchInflationaryToDemurrageValues","inputs":[{"name":"_inflationaryValues","type":"uint256[]","internalType":"uint256[]"},{"name":"_day","type":"uint64","internalType":"uint64"}],"outputs":[{"name":"","type":"uint256[]","internalType":"uint256[]"}],"stateMutability":"pure"},{"type":"function","name":"convertInflationaryToDemurrageValue","inputs":[{"name":"_inflationaryValue","type":"uint256","internalType":"uint256"},{"name":"_day","type":"uint64","internalType":"uint64"}],"outputs":[{"name":"","type":"uint256","internalType":"uint256"}],"stateMutability":"pure"},{"type":"function","name":"day","inputs":[{"name":"_timestamp","type":"uint256","internalType":"uint256"}],"outputs":[{"name":"","type":"uint64","internalType":"uint64"}],"stateMutability":"view"},{"type":"function","name":"groupMint","inputs":[{"name":"_group","type":"address","internalType":"address"},{"name":"_collateralAvatars","type":"address[]","internalType":"address[]"},{"name":"_amounts","type":"uint256[]","internalType":"uint256[]"},{"name":"_data","type":"bytes","internalType":"bytes"}],"outputs":[],"stateMutability":"nonpayable"},{"type":"function","name":"inflationDayZero","inputs":[],"outputs":[{"name":"","type":"uint256","internalType":"uint256"}],"stateMutability":"view"},{"type":"function","name":"inflationaryBalanceOf","inputs":[{"name":"_account","type":"address","internalType":"address"},{"name":"_id","type":"uint256","internalType":"uint256"}],"outputs":[{"name":"","type":"uint256","internalType":"uint256"}],"stateMutability":"view"},{"type":"function","name":"inviteHuman","inputs":[{"name":"_human","type":"address","internalType":"address"}],"outputs":[],"stateMutability":"nonpayable"},{"type":"function","name":"isApprovedForAll","inputs":[{"name":"_account","type":"address","internalType":"address"},{"name":"_operator","type":"address","internalType":"address"}],"outputs":[{"name":"","type":"bool","internalType":"bool"}],"stateMutability":"view"},{"type":"function","name":"isGroup","inputs":[{"name":"_group","type":"address","internalType":"address"}],"outputs":[{"name":"","type":"bool","internalType":"bool"}],"stateMutability":"view"},{"type":"function","name":"isHuman","inputs":[{"name":"_human","type":"address","internalType":"address"}],"outputs":[{"name":"","type":"bool","internalType":"bool"}],"stateMutability":"view"},{"type":"function","name":"isOrganization","inputs":[{"name":"_organization","type":"address","internalType":"address"}],"outputs":[{"name":"","type":"bool","internalType":"bool"}],"stateMutability":"view"},{"type":"function","name":"isPermittedFlow","inputs":[{"name":"_to","type":"address","internalType":"address"},{"name":"_circlesAvatar","type":"address","internalType":"address"}],"outputs":[{"name":"","type":"bool","internalType":"bool"}],"stateMutability":"view"},{"type":"function","name":"isTrusted","inputs":[{"name":"_truster","type":"address","internalType":"address"},{"name":"_trustee","type":"address","internalType":"address"}],"outputs":[{"name":"","type":"bool","internalType":"bool"}],"stateMutability":"view"},{"type":"function","name":"migrate","inputs":[{"name":"_owner","type":"address","internalType":"address"},{"name":"_avatars","type":"address[]","internalType":"address[]"},{"name":"_amounts","type":"uint256[]","internalType":"uint256[]"}],"outputs":[],"stateMutability":"nonpayable"},{"type":"function","name":"mintPolicies","inputs":[{"name":"","type":"address","internalType":"address"}],"outputs":[{"name":"","type":"address","internalType":"address"}],"stateMutability":"view"},{"type":"function","name":"operateFlowMatrix","inputs":[{"name":"_flowVertices","type":"address[]","internalType":"address[]"},{"name":"_flow","type":"tuple[]","internalType":"struct TypeDefinitions.FlowEdge[]","components":[{"name":"streamSinkId","type":"uint16","internalType":"uint16"},{"name":"amount","type":"uint192","internalType":"uint192"}]},{"name":"_streams","type":"tuple[]","internalType":"struct TypeDefinitions.Stream[]","components":[{"name":"sourceCoordinate","type":"uint16","internalType":"uint16"},{"name":"flowEdgeIds","type":"uint16[]","internalType":"uint16[]"},{"name":"data","type":"bytes","internalType":"bytes"}]},{"name":"_packedCoordinates","type":"bytes","internalType":"bytes"}],"outputs":[],"stateMutability":"nonpayable"},{"type":"function","name":"personalMint","inputs":[],"outputs":[],"stateMutability":"nonpayable"},{"type":"function","name":"registerCustomGroup","inputs":[{"name":"_mint","type":"address","internalType":"address"},{"name":"_treasury","type":"address","internalType":"address"},{"name":"_name","type":"string","internalType":"string"},{"name":"_symbol","type":"string","internalType":"string"},{"name":"_metatdataDigest","type":"bytes32","internalType":"bytes32"}],"outputs":[],"stateMutability":"nonpayable"},{"type":"function","name":"registerGroup","inputs":[{"name":"_mint","type":"address","internalType":"address"},{"name":"_name","type":"string","internalType":"string"},{"name":"_symbol","type":"string","internalType":"string"},{"name":"_metatdataDigest","type":"bytes32","internalType":"bytes32"}],"outputs":[],"stateMutability":"nonpayable"},{"type":"function","name":"registerHuman","inputs":[{"name":"_metatdataDigest","type":"bytes32","internalType":"bytes32"}],"outputs":[],"stateMutability":"nonpayable"},{"type":"function","name":"registerOrganization","inputs":[{"name":"_name","type":"string","internalType":"string"},{"name":"_metatdataDigest","type":"bytes32","internalType":"bytes32"}],"outputs":[],"stateMutability":"nonpayable"},{"type":"function","name":"safeBatchTransferFrom","inputs":[{"name":"_from","type":"address","internalType":"address"},{"name":"_to","type":"address","internalType":"address"},{"name":"_ids","type":"uint256[]","internalType":"uint256[]"},{"name":"_values","type":"uint256[]","internalType":"uint256[]"},{"name":"_data","type":"bytes","internalType":"bytes"}],"outputs":[],"stateMutability":"nonpayable"},{"type":"function","name":"safeInflationaryBatchTransferFrom","inputs":[{"name":"_from","type":"address","internalType":"address"},{"name":"_to","type":"address","internalType":"address"},{"name":"_ids","type":"uint256[]","internalType":"uint256[]"},{"name":"_inflationaryValues","type":"uint256[]","internalType":"uint256[]"},{"name":"_data","type":"bytes","internalType":"bytes"}],"outputs":[],"stateMutability":"nonpayable"},{"type":"function","name":"safeInflationaryTransferFrom","inputs":[{"name":"_from","type":"address","internalType":"address"},{"name":"_to","type":"address","internalType":"address"},{"name":"_id","type":"uint256","internalType":"uint256"},{"name":"_inflationaryValue","type":"uint256","internalType":"uint256"},{"name":"_data","type":"bytes","internalType":"bytes"}],"outputs":[],"stateMutability":"nonpayable"},{"type":"function","name":"safeTransferFrom","inputs":[{"name":"_from","type":"address","internalType":"address"},{"name":"_to","type":"address","internalType":"address"},{"name":"_id","type":"uint256","internalType":"uint256"},{"name":"_value","type":"uint256","internalType":"uint256"},{"name":"_data","type":"bytes","internalType":"bytes"}],"outputs":[],"stateMutability":"nonpayable"},{"type":"function","name":"setAdvancedUsageFlag","inputs":[{"name":"_flag","type":"bytes32","internalType":"bytes32"}],"outputs":[],"stateMutability":"nonpayable"},{"type":"function","name":"setApprovalForAll","inputs":[{"name":"_operator","type":"address","internalType":"address"},{"name":"_approved","type":"bool","internalType":"bool"}],"outputs":[],"stateMutability":"nonpayable"},{"type":"function","name":"stop","inputs":[],"outputs":[],"stateMutability":"nonpayable"},{"type":"function","name":"stopped","inputs":[{"name":"_human","type":"address","internalType":"address"}],"outputs":[{"name":"","type":"bool","internalType":"bool"}],"stateMutability":"view"},{"type":"function","name":"supportsInterface","inputs":[{"name":"_interfaceId","type":"bytes4","internalType":"bytes4"}],"outputs":[{"name":"","type":"bool","internalType":"bool"}],"stateMutability":"view"},{"type":"function","name":"toTokenId","inputs":[{"name":"_avatar","type":"address","internalType":"address"}],"outputs":[{"name":"","type":"uint256","internalType":"uint256"}],"stateMutability":"pure"},{"type":"function","name":"totalSupply","inputs":[{"name":"_id","type":"uint256","internalType":"uint256"}],"outputs":[{"name":"","type":"uint256","internalType":"uint256"}],"stateMutability":"view"},{"type":"function","name":"treasuries","inputs":[{"name":"","type":"address","internalType":"address"}],"outputs":[{"name":"","type":"address","internalType":"address"}],"stateMutability":"view"},{"type":"function","name":"trust","inputs":[{"name":"_trustReceiver","type":"address","internalType":"address"},{"name":"_expiry","type":"uint96","internalType":"uint96"}],"outputs":[],"stateMutability":"nonpayable"},{"type":"function","name":"trustMarkers","inputs":[{"name":"","type":"address","internalType":"address"},{"name":"","type":"address","internalType":"address"}],"outputs":[{"name":"previous","type":"address","internalType":"address"},{"name":"expiry","type":"uint96","internalType":"uint96"}],"stateMutability":"view"},{"type":"function","name":"uri","inputs":[{"name":"","type":"uint256","internalType":"uint256"}],"outputs":[{"name":"","type":"string","internalType":"string"}],"stateMutability":"view"},{"type":"function","name":"wrap","inputs":[{"name":"_avatar","type":"address","internalType":"address"},{"name":"_amount","type":"uint256","internalType":"uint256"},{"name":"_type","type":"uint8","internalType":"enum CirclesType"}],"outputs":[{"name":"","type":"address","internalType":"address"}],"stateMutability":"nonpayable"},{"type":"event","name":"ApprovalForAll","inputs":[{"name":"account","type":"address","indexed":true,"internalType":"address"},{"name":"operator","type":"address","indexed":true,"internalType":"address"},{"name":"approved","type":"bool","indexed":false,"internalType":"bool"}],"anonymous":false},{"type":"event","name":"DiscountCost","inputs":[{"name":"account","type":"address","indexed":true,"internalType":"address"},{"name":"id","type":"uint256","indexed":true,"internalType":"uint256"},{"name":"discountCost","type":"uint256","indexed":false,"internalType":"uint256"}],"anonymous":false},{"type":"event","name":"InviteHuman","inputs":[{"name":"inviter","type":"address","indexed":true,"internalType":"address"},{"name":"invited","type":"address","indexed":true,"internalType":"address"}],"anonymous":false},{"type":"event","name":"PersonalMint","inputs":[{"name":"human","type":"address","indexed":true,"internalType":"address"},{"name":"amount","type":"uint256","indexed":false,"internalType":"uint256"},{"name":"startPeriod","type":"uint256","indexed":false,"internalType":"uint256"},{"name":"endPeriod","type":"uint256","indexed":false,"internalType":"uint256"}],"anonymous":false},{"type":"event","name":"RegisterGroup","inputs":[{"name":"group","type":"address","indexed":true,"internalType":"address"},{"name":"mint","type":"address","indexed":true,"internalType":"address"},{"name":"treasury","type":"address","indexed":true,"internalType":"address"},{"name":"name","type":"string","indexed":false,"internalType":"string"},{"name":"symbol","type":"string","indexed":false,"internalType":"string"}],"anonymous":false},{"type":"event","name":"RegisterHuman","inputs":[{"name":"avatar","type":"address","indexed":true,"internalType":"address"}],"anonymous":false},{"type":"event","name":"RegisterOrganization","inputs":[{"name":"organization","type":"address","indexed":true,"internalType":"address"},{"name":"name","type":"string","indexed":false,"internalType":"string"}],"anonymous":false},{"type":"event","name":"Stopped","inputs":[{"name":"avatar","type":"address","indexed":true,"internalType":"address"}],"anonymous":false},{"type":"event","name":"TransferBatch","inputs":[{"name":"operator","type":"address","indexed":true,"internalType":"address"},{"name":"from","type":"address","indexed":true,"internalType":"address"},{"name":"to","type":"address","indexed":true,"internalType":"address"},{"name":"ids","type":"uint256[]","indexed":false,"internalType":"uint256[]"},{"name":"values","type":"uint256[]","indexed":false,"internalType":"uint256[]"}],"anonymous":false},{"type":"event","name":"TransferSingle","inputs":[{"name":"operator","type":"address","indexed":true,"internalType":"address"},{"name":"from","type":"address","indexed":true,"internalType":"address"},{"name":"to","type":"address","indexed":true,"internalType":"address"},{"name":"id","type":"uint256","indexed":false,"internalType":"uint256"},{"name":"value","type":"uint256","indexed":false,"internalType":"uint256"}],"anonymous":false},{"type":"event","name":"Trust","inputs":[{"name":"truster","type":"address","indexed":true,"internalType":"address"},{"name":"trustee","type":"address","indexed":true,"internalType":"address"},{"name":"expiryTime","type":"uint256","indexed":false,"internalType":"uint256"}],"anonymous":false},{"type":"event","name":"URI","inputs":[{"name":"value","type":"string","indexed":false,"internalType":"string"},{"name":"id","type":"uint256","indexed":true,"internalType":"uint256"}],"anonymous":false},{"type":"error","name":"CirclesAddressCannotBeZero","inputs":[{"name":"code","type":"uint8","internalType":"uint8"}]},{"type":"error","name":"CirclesAmountMustNotBeZero","inputs":[{"name":"code","type":"uint8","internalType":"uint8"}]},{"type":"error","name":"CirclesAmountOverflow","inputs":[{"name":"amount","type":"uint256","internalType":"uint256"},{"name":"code","type":"uint8","internalType":"uint8"}]},{"type":"error","name":"CirclesArrayMustNotBeEmpty","inputs":[{"name":"code","type":"uint8","internalType":"uint8"}]},{"type":"error","name":"CirclesArraysLengthMismatch","inputs":[{"name":"lengthArray1","type":"uint256","internalType":"uint256"},{"name":"lengthArray2","type":"uint256","internalType":"uint256"},{"name":"code","type":"uint8","internalType":"uint8"}]},{"type":"error","name":"CirclesAvatarMustBeRegistered","inputs":[{"name":"avatar","type":"address","internalType":"address"},{"name":"code","type":"uint8","internalType":"uint8"}]},{"type":"error","name":"CirclesDemurrageAmountExceedsMaxUint190","inputs":[{"name":"account","type":"address","internalType":"address"},{"name":"circlesId","type":"uint256","internalType":"uint256"},{"name":"amount","type":"uint256","internalType":"uint256"},{"name":"code","type":"uint8","internalType":"uint8"}]},{"type":"error","name":"CirclesDemurrageDayBeforeLastUpdatedDay","inputs":[{"name":"account","type":"address","internalType":"address"},{"name":"circlesId","type":"uint256","internalType":"uint256"},{"name":"day","type":"uint64","internalType":"uint64"},{"name":"lastUpdatedDay","type":"uint64","internalType":"uint64"},{"name":"code","type":"uint8","internalType":"uint8"}]},{"type":"error","name":"CirclesERC1155CannotReceiveBatch","inputs":[{"name":"code","type":"uint8","internalType":"uint8"}]},{"type":"error","name":"CirclesERC1155MintBlocked","inputs":[{"name":"human","type":"address","internalType":"address"},{"name":"mintV1Status","type":"address","internalType":"address"}]},{"type":"error","name":"CirclesHubAvatarAlreadyRegistered","inputs":[{"name":"avatar","type":"address","internalType":"address"},{"name":"code","type":"uint8","internalType":"uint8"}]},{"type":"error","name":"CirclesHubFlowEdgeIsNotPermitted","inputs":[{"name":"receiver","type":"address","internalType":"address"},{"name":"circlesId","type":"uint256","internalType":"uint256"},{"name":"code","type":"uint8","internalType":"uint8"}]},{"type":"error","name":"CirclesHubFlowEdgeStreamMismatch","inputs":[{"name":"flowEdgeId","type":"uint16","internalType":"uint16"},{"name":"streamId","type":"uint16","internalType":"uint16"},{"name":"code","type":"uint8","internalType":"uint8"}]},{"type":"error","name":"CirclesHubFlowVerticesMustBeSorted","inputs":[]},{"type":"error","name":"CirclesHubGroupIsNotRegistered","inputs":[{"name":"group","type":"address","internalType":"address"},{"name":"code","type":"uint8","internalType":"uint8"}]},{"type":"error","name":"CirclesHubGroupMintPolicyRejectedBurn","inputs":[{"name":"burner","type":"address","internalType":"address"},{"name":"group","type":"address","internalType":"address"},{"name":"amount","type":"uint256","internalType":"uint256"},{"name":"data","type":"bytes","internalType":"bytes"},{"name":"code","type":"uint8","internalType":"uint8"}]},{"type":"error","name":"CirclesHubGroupMintPolicyRejectedMint","inputs":[{"name":"minter","type":"address","internalType":"address"},{"name":"group","type":"address","internalType":"address"},{"name":"collateral","type":"uint256[]","internalType":"uint256[]"},{"name":"amounts","type":"uint256[]","internalType":"uint256[]"},{"name":"data","type":"bytes","internalType":"bytes"},{"name":"code","type":"uint8","internalType":"uint8"}]},{"type":"error","name":"CirclesHubInvalidTrustReceiver","inputs":[{"name":"trustReceiver","type":"address","internalType":"address"},{"name":"code","type":"uint8","internalType":"uint8"}]},{"type":"error","name":"CirclesHubMustBeHuman","inputs":[{"name":"avatar","type":"address","internalType":"address"},{"name":"code","type":"uint8","internalType":"uint8"}]},{"type":"error","name":"CirclesHubNettedFlowMismatch","inputs":[{"name":"vertexPosition","type":"uint16","internalType":"uint16"},{"name":"matrixNettedFlow","type":"int256","internalType":"int256"},{"name":"streamNettedFlow","type":"int256","internalType":"int256"}]},{"type":"error","name":"CirclesHubOnClosedPathOnlyPersonalCirclesCanReturnToAvatar","inputs":[{"name":"failedReceiver","type":"address","internalType":"address"},{"name":"circlesId","type":"uint256","internalType":"uint256"}]},{"type":"error","name":"CirclesHubOnlyDuringBootstrap","inputs":[{"name":"code","type":"uint8","internalType":"uint8"}]},{"type":"error","name":"CirclesHubOperatorNotApprovedForSource","inputs":[{"name":"operator","type":"address","internalType":"address"},{"name":"source","type":"address","internalType":"address"},{"name":"streamId","type":"uint16","internalType":"uint16"},{"name":"code","type":"uint8","internalType":"uint8"}]},{"type":"error","name":"CirclesHubRegisterAvatarV1MustBeStopped","inputs":[{"name":"avatar","type":"address","internalType":"address"},{"name":"code","type":"uint8","internalType":"uint8"}]},{"type":"error","name":"CirclesHubStreamMismatch","inputs":[{"name":"streamId","type":"uint16","internalType":"uint16"},{"name":"code","type":"uint8","internalType":"uint8"}]},{"type":"error","name":"CirclesIdMustBeDerivedFromAddress","inputs":[{"name":"providedId","type":"uint256","internalType":"uint256"},{"name":"code","type":"uint8","internalType":"uint8"}]},{"type":"error","name":"CirclesInvalidCirclesId","inputs":[{"name":"id","type":"uint256","internalType":"uint256"},{"name":"code","type":"uint8","internalType":"uint8"}]},{"type":"error","name":"CirclesInvalidFunctionCaller","inputs":[{"name":"caller","type":"address","internalType":"address"},{"name":"expectedCaller","type":"address","internalType":"address"},{"name":"code","type":"uint8","internalType":"uint8"}]},{"type":"error","name":"CirclesInvalidParameter","inputs":[{"name":"parameter","type":"uint256","internalType":"uint256"},{"name":"code","type":"uint8","internalType":"uint8"}]},{"type":"error","name":"CirclesInvalidString","inputs":[{"name":"str","type":"string","internalType":"string"},{"name":"code","type":"uint8","internalType":"uint8"}]},{"type":"error","name":"CirclesLogicAssertion","inputs":[{"name":"code","type":"uint8","internalType":"uint8"}]},{"type":"error","name":"CirclesProxyAlreadyInitialized","inputs":[]},{"type":"error","name":"CirclesReentrancyGuard","inputs":[{"name":"code","type":"uint8","internalType":"uint8"}]},{"type":"error","name":"ERC1155InsufficientBalance","inputs":[{"name":"sender","type":"address","internalType":"address"},{"name":"balance","type":"uint256","internalType":"uint256"},{"name":"needed","type":"uint256","internalType":"uint256"},{"name":"tokenId","type":"uint256","internalType":"uint256"}]},{"type":"error","name":"ERC1155InvalidApprover","inputs":[{"name":"approver","type":"address","internalType":"address"}]},{"type":"error","name":"ERC1155InvalidArrayLength","inputs":[{"name":"idsLength","type":"uint256","internalType":"uint256"},{"name":"valuesLength","type":"uint256","internalType":"uint256"}]},{"type":"error","name":"ERC1155InvalidOperator","inputs":[{"name":"operator","type":"address","internalType":"address"}]},{"type":"error","name":"ERC1155InvalidReceiver","inputs":[{"name":"receiver","type":"address","internalType":"address"}]},{"type":"error","name":"ERC1155InvalidSender","inputs":[{"name":"sender","type":"address","internalType":"address"}]},{"type":"error","name":"ERC1155MissingApprovalForAll","inputs":[{"name":"operator","type":"address","internalType":"address"},{"name":"owner","type":"address","internalType":"address"}]}],"bytecode":{"object":"0x6102a06040526818000000000000000060c0908152682ffec785b3614dbacc60e0526847fc56a0fe9220851661010052685ff8ad61c531c51ed4610120526877f3cbd7ea10a8394961014052688fedb2134f3060fc826101605268a7e66023d5c3bb8c4e6101805268bfddd6195e2ec38ca76101a05268d7d41403c806cea59c6101c05268efc919f2f2128706a76101e052690107bce7f6ba49f5e9836102005269011faf7e1efdd68e147261022052690137a0dc7b9913365c016102405269014f91031c678c54243d610260526901677ff21143ffd5e16361028052620000ec90600190600f62000504565b50348015620000f9575f80fd5b50604051620068f6380380620068f68339810160408190526200011c91620005f4565b828180825f5b600e60ff821611620001a6576200014567fff2fae779633d1e60ff8316620002ae565b60098260ff16600f81106200015e576200015e62000740565b600291828204019190066010026101000a8154816001600160801b030219169083600f0b6001600160801b0316021790555080806200019d9062000768565b91505062000122565b505f55620001b481620004f2565b5050506001600160a01b038816620001e6576040516321efd2b360e01b81525f60048201526024015b60405180910390fd5b6001600160a01b03841662000212576040516321efd2b360e01b815260016004820152602401620001dd565b60015f819052601a6020527ff88cd8d612926ebb404e40725c01084b6e9b3ce0344cde068570342cbd448c6180546001600160a01b031990811690921790556001600160a01b038981166080526016805483168a8316179055601780548316898316179055601880548316888316179055601980549092169086161790556200029c824262000789565b60a05250620008f59650505050505050565b5f805f84600f0b128015620002c65750826001166001145b90505f8085600f0b12620002db5784620002df565b845f035b6001600160801b03169050600160801b6801000000000000000082116200038157603f82901b91505b8415620003785760018516156200031f578102607f1c5b908002607f1c90600285161562000336578102607f1c5b908002607f1c9060048516156200034d578102607f1c5b908002607f1c90600885161562000364578102607f1c5b60049490941c93908002607f1c9062000308565b60401c620004a9565b603f6c01000000000000000000000000831015620003a55760209290921b91601f19015b600160701b831015620003be5760109290921b91600f19015b600160781b831015620003d75760089290921b91600719015b6001607c1b831015620003f05760049290921b91600319015b6001607e1b831015620004095760029290921b91600119015b6001607f1b831015620004215760019290921b915f19015b5f5b861562000492576040821062000437575f80fd5b60018716156200045f57918302607f1c918101600160801b8311156200045f57600192831c92015b928002607f1c9260019190911b90600160801b84106200048557600193841c9391909101905b600187901c965062000423565b604081106200049f575f80fd5b6040039190911c90505b5f83620004b75781620004bb565b815f035b905060016001607f1b03198112801590620004dd575060016001607f1b038113155b620004e6575f80fd5b93505050505b92915050565b601462000500828262000829565b5050565b600883019183908215620005a0579160200282015f5b838211156200056957835183826101000a8154816001600160801b030219169083600f0b6001600160801b031602179055509260200192601001602081600f010492830192600103026200051a565b80156200059e5782816101000a8154906001600160801b030219169055601001602081600f0104928301926001030262000569565b505b50620005ae929150620005b2565b5090565b5b80821115620005ae575f8155600101620005b3565b6001600160a01b0381168114620005dd575f80fd5b50565b634e487b7160e01b5f52604160045260245ffd5b5f805f805f805f80610100898b0312156200060d575f80fd5b88516200061a81620005c8565b809850506020808a01516200062f81620005c8565b60408b01519098506200064281620005c8565b60608b01519097506200065581620005c8565b60808b01519096506200066881620005c8565b60a08b015160c08c015160e08d015192975090955093506001600160401b038082111562000694575f80fd5b818c0191508c601f830112620006a8575f80fd5b815181811115620006bd57620006bd620005e0565b604051601f8201601f19908116603f01168101908382118183101715620006e857620006e8620005e0565b816040528281528f8684870101111562000700575f80fd5b5f93505b8284101562000723578484018601518185018701529285019262000704565b5f8684830101528096505050505050509295985092959890939650565b634e487b7160e01b5f52603260045260245ffd5b634e487b7160e01b5f52601160045260245ffd5b5f60ff821660ff810362000780576200078062000754565b60010192915050565b80820180821115620004ec57620004ec62000754565b600181811c90821680620007b457607f821691505b602082108103620007d357634e487b7160e01b5f52602260045260245ffd5b50919050565b601f8211156200082457805f5260205f20601f840160051c81016020851015620008005750805b601f840160051c820191505b8181101562000821575f81556001016200080c565b50505b505050565b81516001600160401b03811115620008455762000845620005e0565b6200085d816200085684546200079f565b84620007d9565b602080601f83116001811462000893575f84156200087b5750858301515b5f19600386901b1c1916600185901b178555620008ed565b5f85815260208120601f198616915b82811015620008c357888601518255948401946001909101908401620008a2565b5085821015620008e157878501515f19600388901b60f8161c191681555b505060018460011b0185555b505050505050565b60805160a051615fd1620009255f395f8181610e0e015281816116ad0152611f6701525f6145fd0152615fd15ff3fe608060405234801561000f575f80fd5b5060043610610275575f3560e01c806399342aa311610156578063bfde380d116100ca578063edeeb93c11610084578063edeeb93c1461069f578063f179c713146106c7578063f242432a146106da578063f3177079146106ed578063f72c436f14610700578063f796a4af14610713575f80fd5b8063bfde380d14610603578063c9f1864814610616578063da33e06514610629578063e55abe9e14610651578063e985e9c514610664578063eb8c276014610677575f80fd5b8063a3d99b6c1161011b578063a3d99b6c14610591578063aabd6954146105a4578063aeefe51b146105b7578063b1ce8eab146105ca578063bd85b039146105dd578063bda79c54146105f0575f80fd5b806399342aa3146105175780639bec57261461052a5780639cd023131461053d5780639e0cc3c41461056b578063a22cb4651461057e575f80fd5b80636247899b116101ed57806375dcebc7116101b257806375dcebc7146104385780637c234d011461044b5780637cd0cea6146104535780637cf637cd146104bf57806380a5a371146104d95780638ff12b6d146104ec575f80fd5b80636247899b146103a057806362a810c0146103b35780636713e230146103c65780636cb498e5146104125780637421c1d714610425575f80fd5b80630d22d9b51161023e5780630d22d9b51461031f5780630d873a79146103325780630e89341c1461033a5780632eb2c2d61461035a57806347df87ab1461036d5780634e1273f414610380575f80fd5b8062fdd58e1461027957806301ffc9a71461029f5780630528f507146102c257806307da68f5146102d75780630849b234146102df575b5f80fd5b61028c610287366004614e21565b610732565b6040519081526020015b60405180910390f35b6102b26102ad366004614e60565b61074d565b6040519015158152602001610296565b6102d56102d0366004614ebf565b61079c565b005b6102d5610935565b6103076102ed366004614f43565b601c6020525f90815260409020546001600160a01b031681565b6040516001600160a01b039091168152602001610296565b6102d561032d366004614f9e565b6109e4565b6102d5610b7d565b61034d610348366004615086565b610bbc565b60405161029691906150e0565b6102d561036836600461522f565b610c4e565b6102b261037b366004614f43565b610cb5565b61039361038e3660046152d5565b610d08565b60405161029691906153ca565b6102d56103ae366004614f43565b610dd8565b6102d56103c136600461522f565b610ee3565b6102b26103d43660046153dc565b6001600160a01b039182165f908152601e6020908152604080832093909416825291909152205442600160a01b9091046001600160601b0316101590565b6102d5610420366004615413565b610f65565b6103936104333660046154cd565b611075565b6102d5610446366004615517565b61112e565b61028c5f5481565b6104986104613660046153dc565b601e60209081525f92835260408084209091529082529020546001600160a01b03811690600160a01b90046001600160601b031682565b604080516001600160a01b0390931683526001600160601b03909116602083015201610296565b61028c6104cd366004614f43565b6001600160a01b031690565b6102d56104e736600461554e565b6111f9565b6104ff6104fa366004615086565b6112f6565b6040516001600160401b039091168152602001610296565b61028c61052536600461559c565b611312565b6102d56105383660046155bd565b611343565b61055061054b366004614f43565b6114d7565b60408051938452602084019290925290820152606001610296565b6102b2610579366004614f43565b6114fa565b6102d561058c366004615660565b611519565b6102b261059f3660046153dc565b611524565b6103076105b236600461568c565b6115d2565b6102d56105c5366004615086565b6116aa565b6102b26105d8366004614f43565b6117c0565b61028c6105eb366004615086565b611834565b6102d56105fe366004615086565b6118aa565b6102d56106113660046156ce565b6118f5565b6102d5610624366004615715565b611a06565b610307610637366004614f43565b601b6020525f90815260409020546001600160a01b031681565b61028c61065f366004614e21565b611a7e565b6102b26106723660046153dc565b611a90565b61068a610685366004615778565b611abd565b60408051928352602083019190915201610296565b6103076106ad366004614f43565b601a6020525f90815260409020546001600160a01b031681565b6105506106d5366004614f43565b611b81565b6102d56106e8366004615715565b611e1b565b6102d56106fb3660046157b3565b611e7a565b6102b261070e366004614f43565b61202f565b61028c610721366004614f43565b601d6020525f908152604090205481565b5f806107428484610685426112f6565b509150505b92915050565b5f6001600160e01b03198216636cdb3d1360e11b148061077d57506001600160e01b031982166303a24d0760e21b145b8061074757506301ffc9a760e01b6001600160e01b0319831614610747565b6019546107b990339088906001600160a01b03168888888861205b565b60165460405163d199889360e01b81526001600160a01b039091169063d1998893906107ed90339089908990600401615857565b5f604051808303815f87803b158015610804575f80fd5b505af1158015610816573d5f803e3d5ffd5b505060165460405163e27871dd60e01b81526001600160a01b03909116925063e27871dd915061084e90339087908790600401615857565b5f604051808303815f87803b158015610865575f80fd5b505af1158015610877573d5f803e3d5ffd5b505060165460405163e44b8c3560e01b8152336004820152602481018590526001600160a01b03909116925063e44b8c3591506044015f604051808303815f87803b1580156108c4575f80fd5b505af11580156108d6573d5f803e3d5ffd5b50506019546040516001600160a01b039182169350908916915033907f851510db3e53b795660f9ffba16469222d46d357be10c67f27f619ffe33b587490610925908a908a908a908a90615884565b60405180910390a4505050505050565b61093e3361202f565b6109695733600260405163a1c62ce960e01b81526004016109609291906158b5565b60405180910390fd5b335f90815260156020526040902080546bfffffffffffffffffffffffe19600160a01b9091046001600160601b0316016109a05750565b80546001600160a01b03166001600160a01b031917815560405133907f55c4adf1f68f084b809304657594a92ba835ada8d3b5340955bf05746723c05b905f90a250565b5f805c156109f0575f80fd5b60015f5d5f610a0084848961222b565b90505f5b61ffff8116861115610b2c57610a798b8b89898561ffff16818110610a2b57610a2b6158d1565b9050602002810190610a3d91906158e5565b610a4b906020810190615903565b61ffff16818110610a5e57610a5e6158d1565b9050602002016020810190610a739190614f43565b33611a90565b610b1a57338b8b89898561ffff16818110610a9657610a966158d1565b9050602002810190610aa891906158e5565b610ab6906020810190615903565b61ffff16818110610ac957610ac96158d1565b9050602002016020810190610ade9190614f43565b604051631cddf82160e11b81526001600160a01b0392831660048201529116602482015261ffff821660448201525f6064820152608401610960565b80610b2481615938565b915050610a04565b5084155f610b3e8c8c8c8c8787612461565b9050610b4f8c8c8c8c8c8c896129af565b5f610b5f8d8d8d8d8d8d8a612fdf565b9050610b6b818361355d565b505050505f805d505050505050505050565b610b863361202f565b610ba85733600160405163a1c62ce960e01b81526004016109609291906158b5565b610bb133613667565b610bba336136a1565b565b606060148054610bcb90615958565b80601f0160208091040260200160405190810160405280929190818152602001828054610bf790615958565b8015610c425780601f10610c1957610100808354040283529160200191610c42565b820191905f5260205f20905b815481529060010190602001808311610c2557829003601f168201915b50505050509050919050565b336001600160a01b0386168114801590610c6f5750610c6d8682611a90565b155b15610ca05760405163711bec9160e11b81526001600160a01b03808316600483015287166024820152604401610960565b610cad868686868661375c565b505050505050565b5f610cbf8261202f565b610ce15781600360405163a1c62ce960e01b81526004016109609291906158b5565b5050335f90815260156020526040902054600160a01b90046001600160601b039081161490565b60608151835114610d395781518351604051635b05999160e01b815260048101929092526024820152604401610960565b5f610d43426112f6565b90505f84516001600160401b03811115610d5f57610d5f6150f2565b604051908082528060200260200182016040528015610d88578160200160208202803683370190505b5090505f5b855181101561074257602080820287010151610db29060208084028801015185611abd565b50828281518110610dc557610dc56158d1565b6020908102919091010152600101610d8d565b610de13361202f565b610e0257335f60405163a1c62ce960e01b81526004016109609291906158b5565b610e0b816137c1565b507f0000000000000000000000000000000000000000000000000000000000000000421115610e9957610e603380610e456012600a615a6a565b610e50906032615a78565b610e5b906002615a78565b61381c565b610e99816001600160a01b038116610e7a6012600a615a6a565b610e85906032615a78565b60405180602001604052805f8152506138ba565b610eab33826001600160601b03613973565b6040516001600160a01b0382169033907f1579ece735f991d530c87b3750a61840fcbc5658330779dc66902edd092cd4c8905f90a350565b336001600160a01b0386168114801590610f045750610f028682611a90565b155b15610f355760405163711bec9160e11b81526001600160a01b03808316600483015287166024820152604401610960565b5f610f3f426112f6565b90505f610f4c8583611075565b9050610f5b888888848861375c565b5050505050505050565b5f856001600160401b03811115610f7e57610f7e6150f2565b604051908082528060200260200182016040528015610fa7578160200160208202803683370190505b5090505f5b8681101561100357610fde888883818110610fc957610fc96158d1565b90506020020160208101906104cd9190614f43565b828281518110610ff057610ff06158d1565b6020908102919091010152600101610fac565b50610f5b3389838888808060200260200160405190810160405280939291908181526020018383602002808284375f9201919091525050604080516020601f8c018190048102820181019092528a815292508a91508990819084018382808284375f920191909152506139d092505050565b60605f61109367fff2fae779633d1e846001600160401b0316613cce565b90505f84516001600160401b038111156110af576110af6150f2565b6040519080825280602002602001820160405280156110d8578160200160208202803683370190505b5090505f5b855181101561074257611109838783815181106110fc576110fc6158d1565b6020026020010151613eeb565b82828151811061111b5761111b6158d1565b60209081029190910101526001016110dd565b335f908152601a60205260409020546001600160a01b031661116757335f60405163aa8ed7bd60e01b81526004016109609291906158b5565b6001600160a01b038216158061118657506001600160a01b0382166001145b156111a857815f6040516375ff19a960e11b81526004016109609291906158b5565b336001600160a01b038316036111d6578160016040516375ff19a960e11b81526004016109609291906158b5565b42816001600160601b031610156111ea5750425b6111f5338383613973565b5050565b5f611204855f613f4f565b6001600160a01b038082165f908152601b602052604090205491925016801580159061124957506001600160a01b038281165f908152601c6020526040902054163314155b156112eb576040516343101c5f60e11b81526001600160a01b0382169063862038be9061128290339086908a908a908a90600401615a8f565b6020604051808303815f875af115801561129e573d5f803e3d5ffd5b505050506040513d601f19601f820116820180604052508101906112c29190615ac2565b6112eb5733828686865f6040516304f93f6560e11b815260040161096096959493929190615add565b610cad33878761381c565b5f620151805f54836113089190615b26565b6107479190615b39565b5f8061132f67fff2fae779633d1e846001600160401b0316613cce565b905061133b8185613eeb565b949350505050565b6113523388888888888861205b565b60165460405163d199889360e01b81526001600160a01b039091169063d19988939061138690339089908990600401615857565b5f604051808303815f87803b15801561139d575f80fd5b505af11580156113af573d5f803e3d5ffd5b505060165460405163e27871dd60e01b81526001600160a01b03909116925063e27871dd91506113e790339087908790600401615857565b5f604051808303815f87803b1580156113fe575f80fd5b505af1158015611410573d5f803e3d5ffd5b505060165460405163e44b8c3560e01b8152336004820152602481018590526001600160a01b03909116925063e44b8c3591506044015f604051808303815f87803b15801561145d575f80fd5b505af115801561146f573d5f803e3d5ffd5b50505050856001600160a01b0316876001600160a01b0316336001600160a01b03167f851510db3e53b795660f9ffba16469222d46d357be10c67f27f619ffe33b5874888888886040516114c69493929190615884565b60405180910390a450505050505050565b5f805f6114e384613667565b6114ec84611b81565b9250925092505b9193909250565b6001600160a01b039081165f908152601b602052604090205416151590565b6111f5338383613f8b565b6001600160a01b038281165f908152601e6020908152604080832093851683529290529081205442600160a01b9091046001600160601b0316101561156a57505f610747565b6001600160a01b0382165f908152601d60205260409020546001161561159257506001610747565b506001600160a01b039081165f908152601e602090815260408083209490931682529290925290205442600160a01b9091046001600160601b0316101590565b5f6115dc8461202f565b1580156115ef57506115ed846114fa565b155b156116125783600260405163aa8ed7bd60e01b81526004016109609291906158b5565b6018546040516395b645b160e01b81525f916001600160a01b0316906395b645b1906116449088908790600401615b58565b6020604051808303815f875af1158015611660573d5f803e3d5ffd5b505050506040513d601f19601f820116820180604052508101906116849190615b91565b905061133b33826001600160a01b0388168760405180602001604052805f815250611e1b565b5f7f00000000000000000000000000000000000000000000000000000000000000004211156116f157604051633f2350bf60e21b815260ff82166004820152602401610960565b5f6116fb336137c1565b90506001600160a01b03811660011461172b57335f6040516360b9e95b60e01b81526004016109609291906158b5565b82156117915760165460405163e44b8c3560e01b8152336004820152602481018590526001600160a01b039091169063e44b8c35906044015f604051808303815f87803b15801561177a575f80fd5b505af115801561178c573d5f803e3d5ffd5b505050505b60405133907f6553967279fea0a1443d6ecf8edbde1f011f1f9cfb34b680b5102ca292d5c846905f90a2505050565b6001600160a01b038181165f908152601a60205260408120549091161580159061180157506001600160a01b038281165f908152601b602052604090205416155b80156107475750506001600160a01b03165f90815260156020526040902054600160a01b90046001600160601b03161590565b5f8181526012602090815260408083208151808301909252546001600160c01b0381168252600160c01b90046001600160401b0316918101919091528161187a426112f6565b905061133b825f01516001600160c01b031683602001518361189c9190615bac565b6001600160401b0316614017565b335f908152601a60205260409020546001600160a01b03166118e45733600360405163aa8ed7bd60e01b81526004016109609291906158b5565b335f908152601d6020526040902055565b6118fe33614030565b60165460405163d199889360e01b81526001600160a01b039091169063d19988939061193290339087908790600401615857565b5f604051808303815f87803b158015611949575f80fd5b505af115801561195b573d5f803e3d5ffd5b505060165460405163e44b8c3560e01b8152336004820152602481018590526001600160a01b03909116925063e44b8c3591506044015f604051808303815f87803b1580156119a8575f80fd5b505af11580156119ba573d5f803e3d5ffd5b50505050336001600160a01b03167fe191edab93dcedd4a646317289fded1d9665862550b031a14bd3c5b0bc0e500784846040516119f9929190615bd3565b60405180910390a2505050565b336001600160a01b0386168114801590611a275750611a258682611a90565b155b15611a585760405163711bec9160e11b81526001600160a01b03808316600483015287166024820152604401610960565b5f611a6684610525426112f6565b9050611a7587878784876140ce565b50505050505050565b5f611a898383614151565b9392505050565b6001600160a01b039182165f90815260136020908152604080832093909416825291909152205460ff1690565b5f8281526011602090815260408083206001600160a01b038716845282528083208151808301909252546001600160c01b03811682526001600160401b03600160c01b909104811692820183905283929085161015611b3c576020810151604051630f6b717f60e41b8152610960918891889188915f90600401615be6565b5f816020015185036001600160401b03169050611b65825f01516001600160c01b031682614017565b9151919350506001600160c01b03168290039050935093915050565b6001600160a01b038082165f9081526015602052604081208054919283928392911615801590611bbc575080546001600160a01b0316600114155b15611bef57805460405162e266bb60e31b81526001600160a01b0380881660048301529091166024820152604401610960565b80544290611c0f90600160a01b90046001600160601b0316610e10615c20565b1115611c24575f805f935093509350506114f3565b5f611c4c611c356212750042615b26565b8354600160a01b90046001600160601b03166141ab565b90505f611c58826112f6565b6001600160401b031690505f611c6d426112f6565b6001600160401b031690505f611c838383615b26565b90505f611cc0610e105f548662015180611c9d9190615a78565b611ca79190615c20565b611cb19088615b26565b611cbb9190615b39565b6141ba565b90505f611d0f610e10425f54876001611cd99190615c20565b611ce69062015180615a78565b611cf09190615c20565b611cfa9190615b26565b611d049190615b39565b611cbb906001615c20565b90505f611d50611d4a600986600f8110611d2b57611d2b6158d1565b600291828204019190066010029054906101000a9004600f0b856141d6565b8361420b565b9050611d9b611d8a600186600f8110611d6b57611d6b6158d1565b600291828204019190066010029054906101000a9004600f0b8361423c565b611d966012600a615a6a565b613eeb565b611da784610e10613eeb565b611db48862015180615a78565b5f54611dc09190615c20565b611dca9190615c20565b611dd684610e10613eeb565b611de38862015180615a78565b5f54611def9190615c20565b611dfc9062015180615c20565b611e069190615b26565b9a509a509a5050505050505050509193909250565b336001600160a01b0386168114801590611e3c5750611e3a8682611a90565b155b15611e6d5760405163711bec9160e11b81526001600160a01b03808316600483015287166024820152604401610960565b610cad86868686866140ce565b6017546001600160a01b03163314611ec057601754604051636844c68b60e11b81523360048201526001600160a01b0390911660248201525f6044820152606401610960565b6001600160a01b038581165f908152601a602052604090205416611efc5784600160405163aa8ed7bd60e01b81526004016109609291906158b5565b828114611f2c57604051638b5ccddf60e01b815260048101849052602481018290525f6044820152606401610960565b5f611f37858561426d565b611f436012600a615a6a565b611f4e906032615a78565b611f59906002615a78565b611f639190615a78565b90507f000000000000000000000000000000000000000000000000000000000000000042118015611f9357505f81115b15611fd757611fa18661202f565b611fc35785600460405163a1c62ce960e01b81526004016109609291906158b5565b611fd7866001600160a01b0381168361381c565b5f5b84811015611a755761202787611ffa888885818110610fc957610fc96158d1565b86868581811061200c5761200c6158d1565b9050602002013560405180602001604052805f8152506138ba565b600101611fd9565b6001600160a01b03165f90815260156020526040902054600160a01b90046001600160601b0316151590565b6001600160a01b038616612085576040516321efd2b360e01b815260026004820152602401610960565b6001600160a01b0385166120af576040516321efd2b360e01b815260036004820152602401610960565b601654604051631e30397f60e01b81526001600160a01b0390911690631e30397f906120e19087908790600401615bd3565b602060405180830381865afa1580156120fc573d5f803e3d5ffd5b505050506040513d601f19601f820116820180604052508101906121209190615ac2565b6121435783835f604051633fd67da760e01b815260040161096093929190615c33565b6016546040516347ea7b8d60e11b81526001600160a01b0390911690638fd4f71a906121759085908590600401615bd3565b602060405180830381865afa158015612190573d5f803e3d5ffd5b505050506040513d601f19601f820116820180604052508101906121b49190615ac2565b6121d85781816001604051633fd67da760e01b815260040161096093929190615c33565b6121e187614030565b5050506001600160a01b039384165f908152601b6020908152604080832080549688166001600160a01b0319978816179055601c9091529020805492909416919092161790915550565b6060612238826006615a78565b831461226857604051638b5ccddf60e01b8152600481018490526024810183905260066044820152606401610960565b612273826003615a78565b6001600160401b0381111561228a5761228a6150f2565b6040519080825280602002602001820160405280156122b3578160200160208202803683370190505b5090505f805b848110156124585785856122ce836001615c20565b8181106122dd576122dd6158d1565b919091013560f81c905060088787848181106122fb576122fb6158d1565b919091013560f81c90911b919091179050838361231781615c59565b945081518110612329576123296158d1565b61ffff909216602092830291909101909101528585612349836003615c20565b818110612358576123586158d1565b919091013560f81c905060088787612371856002615c20565b818110612380576123806158d1565b919091013560f81c90911b919091179050838361239c81615c59565b9450815181106123ae576123ae6158d1565b61ffff9092166020928302919091019091015285856123ce836005615c20565b8181106123dd576123dd6158d1565b919091013560f81c9050600887876123f6856004615c20565b818110612405576124056158d1565b919091013560f81c90911b919091179050838361242181615c59565b945081518110612433576124336158d1565b61ffff90921660209283029190910190910152612451600682615c20565b90506122b9565b50509392505050565b8151606090612471856003615a78565b146124a3578251604051638b5ccddf60e01b815260048101869052602481019190915260026044820152606401610960565b61ffff8611156124d857604051638b5ccddf60e01b81526004810187905261ffff602482015260036044820152606401610960565b8515806124e3575083155b1561251157604051638b5ccddf60e01b81526004808201889052602482018690526044820152606401610960565b5f866001600160401b0381111561252a5761252a6150f2565b604051908082528060200260200182016040528015612553578160200160208202803683370190505b5090505f5b612563600189615b26565b816001600160401b031610156126c1578888612580836001615c71565b6001600160401b0316818110612598576125986158d1565b90506020020160208101906125ad9190614f43565b6001600160a01b03168989836001600160401b03168181106125d1576125d16158d1565b90506020020160208101906125e69190614f43565b6001600160a01b03161061260d57604051639d5523e360e01b815260040160405180910390fd5b5f601a818b8b6001600160401b03861681811061262c5761262c6158d1565b90506020020160208101906126419190614f43565b6001600160a01b03908116825260208201929092526040015f205416036126af578888826001600160401b031681811061267d5761267d6158d1565b90506020020160208101906126929190614f43565b600460405163aa8ed7bd60e01b81526004016109609291906158b5565b806126b981615c91565b915050612558565b505f88886126d0600182615b26565b8181106126df576126df6158d1565b90506020020160208101906126f49190614f43565b6001600160a01b038082165f908152601a6020526040902054919250166127335780600560405163aa8ed7bd60e01b81526004016109609291906158b5565b505f805b6001600160401b0381168711156129a1575f8a8a888561ffff1681518110612761576127616158d1565b602002602001015161ffff1681811061277c5761277c6158d1565b90506020020160208101906127919190614f43565b90505f8b8b896127a2876002615cac565b61ffff16815181106127b6576127b66158d1565b602002602001015161ffff168181106127d1576127d16158d1565b90506020020160208101906127e69190614f43565b90505f8a8a856001600160401b0316818110612804576128046158d1565b905060400201602001602081019061281c9190615cc7565b6001600160c01b031690506128318284611524565b6128685760405163de84eec960e01b81526001600160a01b0380841660048301528416602482015260016044820152606401610960565b8780156128955750826001600160a01b0316826001600160a01b03161415806128955750612895836114fa565b156128c657604051631c186c0f60e01b81526001600160a01b03808416600483015284166024820152604401610960565b6128cf826114fa565b61297e5780868a6128e1886001615cac565b61ffff16815181106128f5576128f56158d1565b602002602001015161ffff1681518110612911576129116158d1565b602002602001018181516129259190615ced565b90525080868a612936886002615cac565b61ffff168151811061294a5761294a6158d1565b602002602001015161ffff1681518110612966576129666158d1565b6020026020010181815161297a9190615d0c565b9052505b612989856003615cac565b9450505050808061299990615c91565b915050612737565b509098975050505050505050565b5f826001600160401b038111156129c8576129c86150f2565b6040519080825280602002602001820160405280156129f1578160200160208202803683370190505b5090505f836001600160401b03811115612a0d57612a0d6150f2565b604051908082528060200260200182016040528015612a36578160200160208202803683370190505b5090505f805b61ffff8116881115612ed1575f8b8b87612a57866002615cac565b61ffff1681518110612a6b57612a6b6158d1565b602002602001015161ffff16818110612a8657612a866158d1565b9050602002016020810190612a9b9190614f43565b90505f80612b37612ad88f8f8b8961ffff1681518110612abd57612abd6158d1565b602002602001015161ffff16818110610fc957610fc96158d1565b8d8d8761ffff16818110612aee57612aee6158d1565b9050604002016020016020810190612b069190615cc7565b6001600160c01b03166040805160018082526020820194909452808201938452606081019290925260808201905291565b915091505f8c8c8661ffff16818110612b5257612b526158d1565b612b689260206040909202019081019150615903565b61ffff161115612dd3575f60018d8d8761ffff16818110612b8b57612b8b6158d1565b612ba19260206040909202019081019150615903565b612bab9190615d33565b90508461ffff168b8b8361ffff16818110612bc857612bc86158d1565b9050602002810190612bda91906158e5565b612be8906020810190615d4e565b8a8461ffff1681518110612bfe57612bfe6158d1565b602002602001015161ffff16818110612c1957612c196158d1565b9050602002016020810190612c2e9190615903565b61ffff1614612c9457848d8d8761ffff16818110612c4e57612c4e6158d1565b612c649260206040909202019081019150615903565b6040516001625e92ed60e01b0319815261ffff9283166004820152911660248201525f6044820152606401610960565b878161ffff1681518110612caa57612caa6158d1565b602002602001018051809190612cbf90615938565b61ffff1661ffff16815250505f6001600160a01b0316878261ffff1681518110612ceb57612ceb6158d1565b60200260200101516001600160a01b031603612d3d5783878261ffff1681518110612d1857612d186158d1565b60200260200101906001600160a01b031690816001600160a01b031681525050612dd1565b836001600160a01b0316878261ffff1681518110612d5d57612d5d6158d1565b60200260200101516001600160a01b031614612dd157848d8d8761ffff16818110612d8a57612d8a6158d1565b612da09260206040909202019081019150615903565b6040516001625e92ed60e01b0319815261ffff92831660048201529116602482015260016044820152606401610960565b505b612ddc836114fa565b612e4257612e3d8e8e8a612df1896001615cac565b61ffff1681518110612e0557612e056158d1565b602002602001015161ffff16818110612e2057612e206158d1565b9050602002016020810190612e359190614f43565b848484614389565b612eae565b612eae8e8e8a612e53896001615cac565b61ffff1681518110612e6757612e676158d1565b602002602001015161ffff16818110612e8257612e826158d1565b9050602002016020810190612e979190614f43565b84848460405180602001604052805f8152506139d0565b612eb9856003615cac565b94505050508080612ec990615938565b915050612a3c565b505f5b61ffff8116861115612fd2575f6001600160a01b0316838261ffff1681518110612f0057612f006158d1565b60200260200101516001600160a01b031603612f3b5760405163eed7a7eb60e01b815261ffff821660048201525f6024820152604401610960565b86868261ffff16818110612f5157612f516158d1565b9050602002810190612f6391906158e5565b612f71906020810190615d4e565b9050848261ffff1681518110612f8957612f896158d1565b602002602001015161ffff1614612fc05760405163eed7a7eb60e01b815261ffff8216600482015260016024820152604401610960565b80612fca81615938565b915050612ed4565b5050505050505050505050565b60605f876001600160401b03811115612ffa57612ffa6150f2565b604051908082528060200260200182016040528015613023578160200160208202803683370190505b5090505f5b61ffff8116851115613550575f86868361ffff1681811061304b5761304b6158d1565b905060200281019061305d91906158e5565b61306b906020810190615d4e565b90506001600160401b03811115613084576130846150f2565b6040519080825280602002602001820160405280156130ad578160200160208202803683370190505b5090505f87878461ffff168181106130c7576130c76158d1565b90506020028101906130d991906158e5565b6130e7906020810190615d4e565b90506001600160401b03811115613100576131006150f2565b604051908082528060200260200182016040528015613129578160200160208202803683370190505b5090505f805b89898661ffff16818110613145576131456158d1565b905060200281019061315791906158e5565b613165906020810190615d4e565b90508161ffff16101561330c576131f68e8e8a8d8d8a61ffff1681811061318e5761318e6158d1565b90506020028101906131a091906158e5565b6131ae906020810190615d4e565b8661ffff168181106131c2576131c26158d1565b90506020020160208101906131d79190615903565b6131e2906003615d93565b61ffff1681518110612abd57612abd6158d1565b848261ffff168151811061320c5761320c6158d1565b6020026020010181815250508b8b8b8b8861ffff16818110613230576132306158d1565b905060200281019061324291906158e5565b613250906020810190615d4e565b8461ffff16818110613264576132646158d1565b90506020020160208101906132799190615903565b61ffff1681811061328c5761328c6158d1565b90506040020160200160208101906132a49190615cc7565b6001600160c01b0316838261ffff16815181106132c3576132c36158d1565b602002602001018181525050828161ffff16815181106132e5576132e56158d1565b6020026020010151826132f89190615c20565b91508061330481615938565b91505061312f565b505f878a8a8761ffff16818110613325576133256158d1565b905060200281019061333791906158e5565b613345906020810190615d4e565b5f818110613355576133556158d1565b905060200201602081019061336a9190615903565b613375906003615d93565b613380906002615cac565b61ffff1681518110613394576133946158d1565b602002602001015190505f8e8e8361ffff168181106133b5576133b56158d1565b90506020020160208101906133ca9190614f43565b90506134a18f8f8d8d8a61ffff168181106133e7576133e76158d1565b90506020028101906133f991906158e5565b613407906020810190615903565b61ffff1681811061341a5761341a6158d1565b905060200201602081019061342f9190614f43565b8287878f8f8c61ffff16818110613448576134486158d1565b905060200281019061345a91906158e5565b613468906040810190615db1565b8080601f0160208091040260200160405190810160405280939291908181526020018383808284375f9201919091525061459392505050565b82878c8c8961ffff168181106134b9576134b96158d1565b90506020028101906134cb91906158e5565b6134d9906020810190615903565b61ffff16815181106134ed576134ed6158d1565b602002602001018181516135019190615ced565b90525086518390889061ffff851690811061351e5761351e6158d1565b602002602001018181516135329190615d0c565b9052508594506135489350849250615938915050565b915050613028565b5098975050505050505050565b80518251146135935781518151604051638b5ccddf60e01b81526004810192909252602482015260056044820152606401610960565b5f5b82518161ffff16101561366257818161ffff16815181106135b8576135b86158d1565b6020026020010151838261ffff16815181106135d6576135d66158d1565b6020026020010151146136505780838261ffff16815181106135fa576135fa6158d1565b6020026020010151838361ffff1681518110613618576136186158d1565b6020908102919091010151604051632f38161d60e01b815261ffff909316600484015260248301919091526044820152606401610960565b8061365a81615938565b915050613595565b505050565b6001600160a01b038181165f908152601560205260409020541660011461369e575f613692826145da565b90506111f582826146ec565b50565b5f805f6136ad84611b81565b925092509250825f036136c05750505050565b6136e3846001600160a01b0381168560405180602001604052805f8152506138ba565b6001600160a01b038481165f818152601560209081526040918290208054909416600160a01b426001600160601b0316021790935580518681529283018590528201839052907f5679cef078fbc961b2e34e49c1f56efe542401e2e59dff633b68ddea27812cc29060600160405180910390a250505050565b6001600160a01b03841661378557604051632bfa23e760e11b81525f6004820152602401610960565b6001600160a01b0385166137ad57604051626a0d4560e21b81525f6004820152602401610960565b6137ba858585858561476f565b5050505050565b5f6137cb82614030565b6137d4826145da565b6001600160a01b038084165f9081526015602052604090206001600160601b03428116600160a01b029284169290921781559192506138169084908190613973565b50919050565b613827838383614788565b5f613831426112f6565b5f84815260126020526040812080549293509161386d906001600160c01b0381169061189c90600160c01b90046001600160401b031686615bac565b9050838110156138925760405163141f8e8f60e21b8152600481810152602401610960565b6001600160401b03909216600160c01b026001600160c01b0393909203929092161790555050565b6138c6848484846147ee565b5f6138d0426112f6565b5f858152601260205260408120805492935091859061390e906001600160c01b0381169061189c90600160c01b90046001600160401b031687615bac565b6139189190615c20565b90506001600160c01b0381111561394b5786868260026040516345430d1b60e11b81526004016109609493929190615df3565b6001600160401b03909216600160c01b026001600160c01b0390921691909117905550505050565b61397e838383614849565b6040516001600160601b03821681526001600160a01b0380841691908516907fe60c754dd8ab0b1b5fccba257d6ebcd7d09e360ab7dd7a6e58198ca1f57cdcec906020015b60405180910390a3505050565b8151835114613a065782518251604051638b5ccddf60e01b81526004810192909252602482015260016044820152606401610960565b82515f03613a295760405163fbab2f7560e01b81525f6004820152602401610960565b613a32846114fa565b613a5257835f6040516279607960e21b81526004016109609291906158b5565b5f805b8351811015613b4257613a868661059f878481518110613a7757613a776158d1565b60200260200101516002613f4f565b613ad85785858281518110613a9d57613a9d6158d1565b602090810291909101015160405163de84eec960e01b81526001600160a01b03909216600483015260248201525f6044820152606401610960565b838181518110613aea57613aea6158d1565b60200260200101515f03613b1357604051630ac862a960e01b81525f6004820152602401610960565b838181518110613b2557613b256158d1565b602002602001015182613b389190615c20565b9150600101613a55565b506001600160a01b038086165f908152601b60205260409081902054905163b703825960e01b815291169063b703825990613b899089908990899089908990600401615e1c565b6020604051808303815f875af1158015613ba5573d5f803e3d5ffd5b505050506040513d601f19601f82011682018060405250810190613bc99190615ac2565b613bf25785858585855f604051637dc7d10160e11b815260040161096096959493929190615e79565b5f6040518060200160405280876001600160a01b0316815250604051602001613c2791516001600160a01b0316815260200190565b60408051601f198184030181526060830182527f3846339d4d39a76fd554559ca1c53716bfb66f542f4b8c5b7517c56812d99c578352602083810182905283830187905291519093505f92613c7e92909101615ee1565b60408051601f198184030181529181526001600160a01b03808a165f908152601c6020529190912054919250613cb9918a9116888885610c4e565b610f5b886001600160a01b03891685876138ba565b5f805f84600f0b128015613ce55750826001166001145b90505f8085600f0b12613cf85784613cfc565b845f035b6001600160801b03169050600160801b680100000000000000008211613d9657603f82901b91505b8415613d8e576001851615613d39578102607f1c5b908002607f1c906002851615613d4f578102607f1c5b908002607f1c906004851615613d65578102607f1c5b908002607f1c906008851615613d7b578102607f1c5b60049490941c93908002607f1c90613d24565b60401c613ea8565b603f600160601b831015613db05760209290921b91601f19015b600160701b831015613dc85760109290921b91600f19015b600160781b831015613de05760089290921b91600719015b6001607c1b831015613df85760049290921b91600319015b6001607e1b831015613e105760029290921b91600119015b6001607f1b831015613e275760019290921b915f19015b5f5b8615613e925760408210613e3b575f80fd5b6001871615613e6157918302607f1c918101600160801b831115613e6157600192831c92015b928002607f1c9260019190911b90600160801b8410613e8657600193841c9391909101905b600187901c9650613e29565b60408110613e9e575f80fd5b6040039190911c90505b5f83613eb45781613eb8565b815f035b905060016001607f1b03198112801590613ed9575060016001607f1b038113155b613ee1575f80fd5b9695505050505050565b5f815f03613efa57505f610747565b5f83600f0b1215613f09575f80fd5b600f83900b6001600160801b038316810260401c90608084901c026001600160c01b03811115613f37575f80fd5b60401b8119811115613f47575f80fd5b019392505050565b5f6001600160a01b03831115613f845760405163a127935960e01b81526004810184905260ff83166024820152604401610960565b5090919050565b6001600160a01b038216613fb35760405162ced3e160e81b81525f6004820152602401610960565b6001600160a01b038381165f81815260136020908152604080832094871680845294825291829020805460ff191686151590811790915591519182527f17307eab39ab6107e8899845ad3d59bd9653f200f220920489ca2b5937696c3191016139c3565b5f815f03614026575081610747565b5f61132f83614989565b6001600160a01b038181165f908152601a6020526040902054161561406c57805f604051636b76a94560e11b81526004016109609291906158b5565b601a6020527ff88cd8d612926ebb404e40725c01084b6e9b3ce0344cde068570342cbd448c6180546001600160a01b039283165f818152604081208054959093166001600160a01b031995861617909255600190915281549092169091179055565b6001600160a01b0384166140f757604051632bfa23e760e11b81525f6004820152602401610960565b6001600160a01b03851661411f57604051626a0d4560e21b81525f6004820152602401610960565b60408051600180825260208201869052818301908152606082018590526080820190925290611a75878784848761476f565b5f8181526011602090815260408083206001600160a01b038616845282528083208151808301909252546001600160c01b038116808352600160c01b9091046001600160401b0316928201839052909161133b9190614a15565b5f81831015613f845781611a89565b5f677fffffffffffffff8211156141cf575f80fd5b5060401b90565b5f600f83810b9083900b0260401d60016001607f1b03198112801590614203575060016001607f1b038113155b611a89575f80fd5b5f600f83810b9083900b0160016001607f1b03198112801590614203575060016001607f1b03811315611a89575f80fd5b5f600f82810b9084900b0360016001607f1b03198112801590614203575060016001607f1b03811315611a89575f80fd5b5f80805b83811015614381575f601a8187878581811061428f5761428f6158d1565b90506020020160208101906142a49190614f43565b6001600160a01b03908116825260208201929092526040015f2054160361430757816142cf81615c59565b9250506143018585838181106142e7576142e76158d1565b90506020020160208101906142fc9190614f43565b6137c1565b50614379565b61433185858381811061431c5761431c6158d1565b905060200201602081019061070e9190614f43565b61437957848482818110614347576143476158d1565b905060200201602081019061435c9190614f43565b600560405163a1c62ce960e01b81526004016109609291906158b5565b600101614271565b509392505050565b80518251146143b85781518151604051635b05999160e01b815260048101929092526024820152604401610960565b335f6143c3426112f6565b90505f5b84518110156144c4576020818102868101820151908601909101516001600160a01b0389161561449f575f806143fe8b8588611abd565b9150915082821015614443576040516303dee4c560e01b81526001600160a01b038c166004820152602481018390526044810184905260648101859052608401610960565b801561448e57838b6001600160a01b03167f0133941907a52d9dac02e146444ded662cbf8cabf0cbb1f1aead9814cda91d618360405161448591815260200190565b60405180910390a35b61449c8b8585850389614a2a565b50505b6001600160a01b038816156144ba576144ba88838387614a9f565b50506001016143c7565b5083516001036145445760208401515f906020850151909150866001600160a01b0316886001600160a01b0316856001600160a01b03167fc3d58168c5ae7397731d063d5bbf3d657854427343f4c083240f7aacaa2d0f628585604051614535929190918252602082015260400190565b60405180910390a45050610cad565b846001600160a01b0316866001600160a01b0316836001600160a01b03167f4a39dc06d4c0dbc64b70af90fd698a233a518aa5d07e595d983b8c0526c8f7fb8787604051610925929190615f23565b6001600160a01b038416156137ba57825133906001036145cc57602084810151908401516145c5838989858589614c05565b5050610cad565b610cad818787878787614d26565b60405163146924ff60e11b81526001600160a01b0382811660048301525f9182917f000000000000000000000000000000000000000000000000000000000000000016906328d249fe90602401602060405180830381865afa158015614642573d5f803e3d5ffd5b505050506040513d601f19601f820116820180604052508101906146669190615b91565b90506001600160a01b03811661467e57505f92915050565b806001600160a01b03166375f12b216040518163ffffffff1660e01b8152600401602060405180830381865afa1580156146ba573d5f803e3d5ffd5b505050506040513d601f19601f820116820180604052508101906146de9190615ac2565b156107475750600192915050565b6001600160a01b0382165f90815260156020526040812080549091600160a01b9091046001600160601b031690036147395760405163141f8e8f60e21b81525f6004820152602401610960565b80546001600160a01b03838116911614613662576001600160601b034216600160a01b026001600160a01b038316178155505050565b61477b85858585614389565b6137ba8585858585614593565b6001600160a01b0383166147b057604051626a0d4560e21b81525f6004820152602401610960565b604080516001808252602082018590528183019081526060820184905260a082019092525f608082018181529192916137ba9187918590859061476f565b6001600160a01b03841661481757604051632bfa23e760e11b81525f6004820152602401610960565b60408051600180825260208201869052818301908152606082018590526080820190925290610cad5f8784848761476f565b6001600160a01b0383166148735760405163141f8e8f60e21b815260016004820152602401610960565b6001600160a01b03821661489d5760405163141f8e8f60e21b815260026004820152602401610960565b5f196001600160a01b038316016148ca5760405163141f8e8f60e21b815260036004820152602401610960565b6001600160a01b038084165f908152601e6020908152604080832060018452909152902080549091166149095780546001600160a01b03191660011781555b6001600160a01b038085165f908152601e6020908152604080832087851684529091529020805490911661495f57815481546001600160a01b039182166001600160a01b03199182161783558354169085161782555b80546001600160601b03909316600160a01b026001600160a01b0390931692909217909155505050565b5f600e82118015906149c65750600982600f81106149a9576149a96158d1565b60028104919091015460019091166010026101000a9004600f0b15155b156149fe57600982600f81106149de576149de6158d1565b600291828204019190066010029054906101000a9004600f0b9050919050565b61074767fff2fae779633d1e83613cce565b919050565b5f8061132f6801000d05c213d3f23784613cce565b6001600160c01b03821115614a5a578383835f6040516345430d1b60e11b81526004016109609493929190615df3565b5f9283526011602090815260408085206001600160a01b039096168552949052929091206001600160401b03909216600160c01b026001600160c01b03909116179055565b5f8381526011602090815260408083206001600160a01b0388168452909152902080546001600160401b03600160c01b90910481169083161015614b13578054604051630f6b717f60e41b815261096091879187918691600160c01b9091046001600160401b031690600190600401615be6565b80546001600160401b03600160c01b82048116840316905f90614b3f906001600160c01b031683614017565b83549091506001600160c01b0316818103908214614b9c5786886001600160a01b03167f0133941907a52d9dac02e146444ded662cbf8cabf0cbb1f1aead9814cda91d6183604051614b9391815260200190565b60405180910390a35b505f614ba88683615c20565b90506001600160c01b03811115614bdb5787878260016040516345430d1b60e11b81526004016109609493929190615df3565b6001600160401b03909416600160c01b026001600160c01b03909416939093179091555050505050565b6001600160a01b0384163b15610cad5760405163f23a6e6160e01b81526001600160a01b0385169063f23a6e6190614c499089908990889088908890600401615f47565b6020604051808303815f875af1925050508015614c83575060408051601f3d908101601f19168201909252614c8091810190615f80565b60015b614cea573d808015614cb0576040519150601f19603f3d011682016040523d82523d5f602084013e614cb5565b606091505b5080515f03614ce257604051632bfa23e760e11b81526001600160a01b0386166004820152602401610960565b805181602001fd5b6001600160e01b0319811663f23a6e6160e01b14611a7557604051632bfa23e760e11b81526001600160a01b0386166004820152602401610960565b6001600160a01b0384163b15610cad5760405163bc197c8160e01b81526001600160a01b0385169063bc197c8190614d6a9089908990889088908890600401615e1c565b6020604051808303815f875af1925050508015614da4575060408051601f3d908101601f19168201909252614da191810190615f80565b60015b614dd1573d808015614cb0576040519150601f19603f3d011682016040523d82523d5f602084013e614cb5565b6001600160e01b0319811663bc197c8160e01b14611a7557604051632bfa23e760e11b81526001600160a01b0386166004820152602401610960565b6001600160a01b038116811461369e575f80fd5b5f8060408385031215614e32575f80fd5b8235614e3d81614e0d565b946020939093013593505050565b6001600160e01b03198116811461369e575f80fd5b5f60208284031215614e70575f80fd5b8135611a8981614e4b565b5f8083601f840112614e8b575f80fd5b5081356001600160401b03811115614ea1575f80fd5b602083019150836020828501011115614eb8575f80fd5b9250929050565b5f805f805f8060808789031215614ed4575f80fd5b8635614edf81614e0d565b955060208701356001600160401b0380821115614efa575f80fd5b614f068a838b01614e7b565b90975095506040890135915080821115614f1e575f80fd5b50614f2b89828a01614e7b565b979a9699509497949695606090950135949350505050565b5f60208284031215614f53575f80fd5b8135611a8981614e0d565b5f8083601f840112614f6e575f80fd5b5081356001600160401b03811115614f84575f80fd5b6020830191508360208260051b8501011115614eb8575f80fd5b5f805f805f805f806080898b031215614fb5575f80fd5b88356001600160401b0380821115614fcb575f80fd5b614fd78c838d01614f5e565b909a50985060208b0135915080821115614fef575f80fd5b818b0191508b601f830112615002575f80fd5b813581811115615010575f80fd5b8c60208260061b8501011115615024575f80fd5b6020830198508097505060408b0135915080821115615041575f80fd5b61504d8c838d01614f5e565b909650945060608b0135915080821115615065575f80fd5b506150728b828c01614e7b565b999c989b5096995094979396929594505050565b5f60208284031215615096575f80fd5b5035919050565b5f81518084525f5b818110156150c1576020818501810151868301820152016150a5565b505f602082860101526020601f19601f83011685010191505092915050565b602081525f611a89602083018461509d565b634e487b7160e01b5f52604160045260245ffd5b604051601f8201601f191681016001600160401b038111828210171561512e5761512e6150f2565b604052919050565b5f6001600160401b0382111561514e5761514e6150f2565b5060051b60200190565b5f82601f830112615167575f80fd5b8135602061517c61517783615136565b615106565b8083825260208201915060208460051b87010193508684111561519d575f80fd5b602086015b848110156151b957803583529183019183016151a2565b509695505050505050565b5f82601f8301126151d3575f80fd5b81356001600160401b038111156151ec576151ec6150f2565b6151ff601f8201601f1916602001615106565b818152846020838601011115615213575f80fd5b816020850160208301375f918101602001919091529392505050565b5f805f805f60a08688031215615243575f80fd5b853561524e81614e0d565b9450602086013561525e81614e0d565b935060408601356001600160401b0380821115615279575f80fd5b61528589838a01615158565b9450606088013591508082111561529a575f80fd5b6152a689838a01615158565b935060808801359150808211156152bb575f80fd5b506152c8888289016151c4565b9150509295509295909350565b5f80604083850312156152e6575f80fd5b82356001600160401b03808211156152fc575f80fd5b818501915085601f83011261530f575f80fd5b8135602061531f61517783615136565b82815260059290921b8401810191818101908984111561533d575f80fd5b948201945b8386101561536457853561535581614e0d565b82529482019490820190615342565b96505086013592505080821115615379575f80fd5b5061538685828601615158565b9150509250929050565b5f815180845260208085019450602084015f5b838110156153bf578151875295820195908201906001016153a3565b509495945050505050565b602081525f611a896020830184615390565b5f80604083850312156153ed575f80fd5b82356153f881614e0d565b9150602083013561540881614e0d565b809150509250929050565b5f805f805f805f6080888a031215615429575f80fd5b873561543481614e0d565b965060208801356001600160401b038082111561544f575f80fd5b61545b8b838c01614f5e565b909850965060408a0135915080821115615473575f80fd5b61547f8b838c01614f5e565b909650945060608a0135915080821115615497575f80fd5b506154a48a828b01614e7b565b989b979a50959850939692959293505050565b80356001600160401b0381168114614a10575f80fd5b5f80604083850312156154de575f80fd5b82356001600160401b038111156154f3575f80fd5b6154ff85828601615158565b92505061550e602084016154b7565b90509250929050565b5f8060408385031215615528575f80fd5b823561553381614e0d565b915060208301356001600160601b0381168114615408575f80fd5b5f805f8060608587031215615561575f80fd5b843593506020850135925060408501356001600160401b03811115615584575f80fd5b61559087828801614e7b565b95989497509550505050565b5f80604083850312156155ad575f80fd5b8235915061550e602084016154b7565b5f805f805f805f60a0888a0312156155d3575f80fd5b87356155de81614e0d565b965060208801356155ee81614e0d565b955060408801356001600160401b0380821115615609575f80fd5b6156158b838c01614e7b565b909750955060608a013591508082111561562d575f80fd5b5061563a8a828b01614e7b565b989b979a50959894979596608090950135949350505050565b801515811461369e575f80fd5b5f8060408385031215615671575f80fd5b823561567c81614e0d565b9150602083013561540881615653565b5f805f6060848603121561569e575f80fd5b83356156a981614e0d565b9250602084013591506040840135600281106156c3575f80fd5b809150509250925092565b5f805f604084860312156156e0575f80fd5b83356001600160401b038111156156f5575f80fd5b61570186828701614e7b565b909790965060209590950135949350505050565b5f805f805f60a08688031215615729575f80fd5b853561573481614e0d565b9450602086013561574481614e0d565b9350604086013592506060860135915060808601356001600160401b0381111561576c575f80fd5b6152c8888289016151c4565b5f805f6060848603121561578a575f80fd5b833561579581614e0d565b9250602084013591506157aa604085016154b7565b90509250925092565b5f805f805f606086880312156157c7575f80fd5b85356157d281614e0d565b945060208601356001600160401b03808211156157ed575f80fd5b6157f989838a01614f5e565b90965094506040880135915080821115615811575f80fd5b5061581e88828901614f5e565b969995985093965092949392505050565b81835281816020850137505f828201602090810191909152601f909101601f19169091010190565b6001600160a01b03841681526040602082018190525f9061587b908301848661582f565b95945050505050565b604081525f61589760408301868861582f565b82810360208401526158aa81858761582f565b979650505050505050565b6001600160a01b0392909216825260ff16602082015260400190565b634e487b7160e01b5f52603260045260245ffd5b5f8235605e198336030181126158f9575f80fd5b9190910192915050565b5f60208284031215615913575f80fd5b813561ffff81168114611a89575f80fd5b634e487b7160e01b5f52601160045260245ffd5b5f61ffff80831681810361594e5761594e615924565b6001019392505050565b600181811c9082168061596c57607f821691505b60208210810361381657634e487b7160e01b5f52602260045260245ffd5b600181815b808511156159c457815f19048211156159aa576159aa615924565b808516156159b757918102915b93841c939080029061598f565b509250929050565b5f826159da57506001610747565b816159e657505f610747565b81600181146159fc5760028114615a0657615a22565b6001915050610747565b60ff841115615a1757615a17615924565b50506001821b610747565b5060208310610133831016604e8410600b8410161715615a45575081810a610747565b615a4f838361598a565b805f1904821115615a6257615a62615924565b029392505050565b5f611a8960ff8416836159cc565b808202811582820484141761074757610747615924565b6001600160a01b03868116825285166020820152604081018490526080606082018190525f906158aa908301848661582f565b5f60208284031215615ad2575f80fd5b8151611a8981615653565b6001600160a01b038781168252861660208201526040810185905260a0606082018190525f90615b10908301858761582f565b905060ff83166080830152979650505050505050565b8181038181111561074757610747615924565b5f82615b5357634e487b7160e01b5f52601260045260245ffd5b500490565b6001600160a01b03831681526040810160028310615b8457634e487b7160e01b5f52602160045260245ffd5b8260208301529392505050565b5f60208284031215615ba1575f80fd5b8151611a8981614e0d565b6001600160401b03828116828216039080821115615bcc57615bcc615924565b5092915050565b602081525f61133b60208301848661582f565b6001600160a01b0395909516855260208501939093526001600160401b03918216604085015216606083015260ff16608082015260a00190565b8082018082111561074757610747615924565b604081525f615c4660408301858761582f565b905060ff83166020830152949350505050565b5f60018201615c6a57615c6a615924565b5060010190565b6001600160401b03818116838216019080821115615bcc57615bcc615924565b5f6001600160401b0380831681810361594e5761594e615924565b61ffff818116838216019080821115615bcc57615bcc615924565b5f60208284031215615cd7575f80fd5b81356001600160c01b0381168114611a89575f80fd5b8181035f831280158383131683831282161715615bcc57615bcc615924565b8082018281125f831280158216821582161715615d2b57615d2b615924565b505092915050565b61ffff828116828216039080821115615bcc57615bcc615924565b5f808335601e19843603018112615d63575f80fd5b8301803591506001600160401b03821115615d7c575f80fd5b6020019150600581901b3603821315614eb8575f80fd5b61ffff818116838216028082169190828114615d2b57615d2b615924565b5f808335601e19843603018112615dc6575f80fd5b8301803591506001600160401b03821115615ddf575f80fd5b602001915036819003821315614eb8575f80fd5b6001600160a01b039490941684526020840192909252604083015260ff16606082015260800190565b6001600160a01b0386811682528516602082015260a0604082018190525f90615e4790830186615390565b8281036060840152615e598186615390565b90508281036080840152615e6d818561509d565b98975050505050505050565b6001600160a01b0387811682528616602082015260c0604082018190525f90615ea490830187615390565b8281036060840152615eb68187615390565b90508281036080840152615eca818661509d565b91505060ff831660a0830152979650505050505050565b60208152815160208201525f602083015160606040840152615f06608084018261509d565b90506040840151601f1984830301606085015261587b828261509d565b604081525f615f356040830185615390565b828103602084015261587b8185615390565b6001600160a01b03868116825285166020820152604081018490526060810183905260a0608082018190525f906158aa9083018461509d565b5f60208284031215615f90575f80fd5b8151611a8981614e4b56fea26469706673582212201f1624f94fe42204df9d6f439e0e86f27dc7357b877c344bbed3a39f04de3f1364736f6c63430008180033","linkReferences":{}},"methodIdentifiers":{"advancedUsageFlags(address)":"f796a4af","avatars(address)":"edeeb93c","balanceOf(address,uint256)":"00fdd58e","balanceOfBatch(address[],uint256[])":"4e1273f4","balanceOfOnDay(address,uint256,uint64)":"eb8c2760","burn(uint256,uint256,bytes)":"80a5a371","calculateIssuance(address)":"f179c713","calculateIssuanceWithCheck(address)":"9cd02313","convertBatchInflationaryToDemurrageValues(uint256[],uint64)":"7421c1d7","convertInflationaryToDemurrageValue(uint256,uint64)":"99342aa3","day(uint256)":"8ff12b6d","groupMint(address,address[],uint256[],bytes)":"6cb498e5","inflationDayZero()":"7c234d01","inflationaryBalanceOf(address,uint256)":"e55abe9e","inviteHuman(address)":"6247899b","isApprovedForAll(address,address)":"e985e9c5","isGroup(address)":"9e0cc3c4","isHuman(address)":"f72c436f","isOrganization(address)":"b1ce8eab","isPermittedFlow(address,address)":"a3d99b6c","isTrusted(address,address)":"6713e230","migrate(address,address[],uint256[])":"f3177079","mintPolicies(address)":"da33e065","operateFlowMatrix(address[],(uint16,uint192)[],(uint16,uint16[],bytes)[],bytes)":"0d22d9b5","personalMint()":"0d873a79","registerCustomGroup(address,address,string,string,bytes32)":"9bec5726","registerGroup(address,string,string,bytes32)":"0528f507","registerHuman(bytes32)":"aeefe51b","registerOrganization(string,bytes32)":"bfde380d","safeBatchTransferFrom(address,address,uint256[],uint256[],bytes)":"2eb2c2d6","safeInflationaryBatchTransferFrom(address,address,uint256[],uint256[],bytes)":"62a810c0","safeInflationaryTransferFrom(address,address,uint256,uint256,bytes)":"c9f18648","safeTransferFrom(address,address,uint256,uint256,bytes)":"f242432a","setAdvancedUsageFlag(bytes32)":"bda79c54","setApprovalForAll(address,bool)":"a22cb465","stop()":"07da68f5","stopped(address)":"47df87ab","supportsInterface(bytes4)":"01ffc9a7","toTokenId(address)":"7cf637cd","totalSupply(uint256)":"bd85b039","treasuries(address)":"0849b234","trust(address,uint96)":"75dcebc7","trustMarkers(address,address)":"7cd0cea6","uri(uint256)":"0e89341c","wrap(address,uint256,uint8)":"aabd6954"},"id":51}