{"abi":[{"type":"constructor","inputs":[{"name":"_hubV1","type":"address","internalType":"contract IHubV1"},{"name":"_nameRegistry","type":"address","internalType":"contract INameRegistry"},{"name":"_migration","type":"address","internalType":"address"},{"name":"_liftERC20","type":"address","internalType":"contract IERC20Lift"},{"name":"_standardTreasury","type":"address","internalType":"address"},{"name":"_inflationDayZero","type":"uint256","internalType":"uint256"},{"name":"_bootstrapTime","type":"uint256","internalType":"uint256"},{"name":"_gatewayUrl","type":"string","internalType":"string"}],"stateMutability":"nonpayable"},{"type":"function","name":"avatars","inputs":[{"name":"","type":"address","internalType":"address"}],"outputs":[{"name":"","type":"address","internalType":"address"}],"stateMutability":"view"},{"type":"function","name":"balanceOf","inputs":[{"name":"_account","type":"address","internalType":"address"},{"name":"_id","type":"uint256","internalType":"uint256"}],"outputs":[{"name":"","type":"uint256","internalType":"uint256"}],"stateMutability":"view"},{"type":"function","name":"balanceOfBatch","inputs":[{"name":"_accounts","type":"address[]","internalType":"address[]"},{"name":"_ids","type":"uint256[]","internalType":"uint256[]"}],"outputs":[{"name":"","type":"uint256[]","internalType":"uint256[]"}],"stateMutability":"view"},{"type":"function","name":"balanceOfOnDay","inputs":[{"name":"_account","type":"address","internalType":"address"},{"name":"_id","type":"uint256","internalType":"uint256"},{"name":"_day","type":"uint64","internalType":"uint64"}],"outputs":[{"name":"balanceOnDay_","type":"uint256","internalType":"uint256"},{"name":"discountCost_","type":"uint256","internalType":"uint256"}],"stateMutability":"view"},{"type":"function","name":"burn","inputs":[{"name":"_id","type":"uint256","internalType":"uint256"},{"name":"_amount","type":"uint256","internalType":"uint256"},{"name":"_data","type":"bytes","internalType":"bytes"}],"outputs":[],"stateMutability":"nonpayable"},{"type":"function","name":"calculateIssuance","inputs":[{"name":"_human","type":"address","internalType":"address"}],"outputs":[{"name":"","type":"uint256","internalType":"uint256"},{"name":"","type":"uint256","internalType":"uint256"},{"name":"","type":"uint256","internalType":"uint256"}],"stateMutability":"view"},{"type":"function","name":"calculateIssuanceWithCheck","inputs":[{"name":"_human","type":"address","internalType":"address"}],"outputs":[{"name":"","type":"uint256","internalType":"uint256"},{"name":"","type":"uint256","internalType":"uint256"},{"name":"","type":"uint256","internalType":"uint256"}],"stateMutability":"nonpayable"},{"type":"function","name":"convertBatchInflationaryToDemurrageValues","inputs":[{"name":"_inflationaryValues","type":"uint256[]","internalType":"uint256[]"},{"name":"_day","type":"uint64","internalType":"uint64"}],"outputs":[{"name":"","type":"uint256[]","internalType":"uint256[]"}],"stateMutability":"pure"},{"type":"function","name":"convertInflationaryToDemurrageValue","inputs":[{"name":"_inflationaryValue","type":"uint256","internalType":"uint256"},{"name":"_day","type":"uint64","internalType":"uint64"}],"outputs":[{"name":"","type":"uint256","internalType":"uint256"}],"stateMutability":"pure"},{"type":"function","name":"day","inputs":[{"name":"_timestamp","type":"uint256","internalType":"uint256"}],"outputs":[{"name":"","type":"uint64","internalType":"uint64"}],"stateMutability":"view"},{"type":"function","name":"groupMint","inputs":[{"name":"_group","type":"address","internalType":"address"},{"name":"_collateralAvatars","type":"address[]","internalType":"address[]"},{"name":"_amounts","type":"uint256[]","internalType":"uint256[]"},{"name":"_data","type":"bytes","internalType":"bytes"}],"outputs":[],"stateMutability":"nonpayable"},{"type":"function","name":"inflationDayZero","inputs":[],"outputs":[{"name":"","type":"uint256","internalType":"uint256"}],"stateMutability":"view"},{"type":"function","name":"inflationaryBalanceOf","inputs":[{"name":"_account","type":"address","internalType":"address"},{"name":"_id","type":"uint256","internalType":"uint256"}],"outputs":[{"name":"","type":"uint256","internalType":"uint256"}],"stateMutability":"view"},{"type":"function","name":"inviteHuman","inputs":[{"name":"_human","type":"address","internalType":"address"}],"outputs":[],"stateMutability":"nonpayable"},{"type":"function","name":"isApprovedForAll","inputs":[{"name":"_account","type":"address","internalType":"address"},{"name":"_operator","type":"address","internalType":"address"}],"outputs":[{"name":"","type":"bool","internalType":"bool"}],"stateMutability":"view"},{"type":"function","name":"isGroup","inputs":[{"name":"_group","type":"address","internalType":"address"}],"outputs":[{"name":"","type":"bool","internalType":"bool"}],"stateMutability":"view"},{"type":"function","name":"isHuman","inputs":[{"name":"_human","type":"address","internalType":"address"}],"outputs":[{"name":"","type":"bool","internalType":"bool"}],"stateMutability":"view"},{"type":"function","name":"isOrganization","inputs":[{"name":"_organization","type":"address","internalType":"address"}],"outputs":[{"name":"","type":"bool","internalType":"bool"}],"stateMutability":"view"},{"type":"function","name":"isPermittedFlow","inputs":[{"name":"_to","type":"address","internalType":"address"},{"name":"_circlesAvatar","type":"address","internalType":"address"}],"outputs":[{"name":"","type":"bool","internalType":"bool"}],"stateMutability":"view"},{"type":"function","name":"isTrusted","inputs":[{"name":"_truster","type":"address","internalType":"address"},{"name":"_trustee","type":"address","internalType":"address"}],"outputs":[{"name":"","type":"bool","internalType":"bool"}],"stateMutability":"view"},{"type":"function","name":"migrate","inputs":[{"name":"_owner","type":"address","internalType":"address"},{"name":"_avatars","type":"address[]","internalType":"address[]"},{"name":"_amounts","type":"uint256[]","internalType":"uint256[]"}],"outputs":[],"stateMutability":"nonpayable"},{"type":"function","name":"mintPolicies","inputs":[{"name":"","type":"address","internalType":"address"}],"outputs":[{"name":"","type":"address","internalType":"address"}],"stateMutability":"view"},{"type":"function","name":"operateFlowMatrix","inputs":[{"name":"_flowVertices","type":"address[]","internalType":"address[]"},{"name":"_flow","type":"tuple[]","internalType":"struct TypeDefinitions.FlowEdge[]","components":[{"name":"streamSinkId","type":"uint16","internalType":"uint16"},{"name":"amount","type":"uint192","internalType":"uint192"}]},{"name":"_streams","type":"tuple[]","internalType":"struct TypeDefinitions.Stream[]","components":[{"name":"sourceCoordinate","type":"uint16","internalType":"uint16"},{"name":"flowEdgeIds","type":"uint16[]","internalType":"uint16[]"},{"name":"data","type":"bytes","internalType":"bytes"}]},{"name":"_packedCoordinates","type":"bytes","internalType":"bytes"}],"outputs":[],"stateMutability":"nonpayable"},{"type":"function","name":"personalMint","inputs":[],"outputs":[],"stateMutability":"nonpayable"},{"type":"function","name":"registerCustomGroup","inputs":[{"name":"_mint","type":"address","internalType":"address"},{"name":"_treasury","type":"address","internalType":"address"},{"name":"_name","type":"string","internalType":"string"},{"name":"_symbol","type":"string","internalType":"string"},{"name":"_metadataDigest","type":"bytes32","internalType":"bytes32"}],"outputs":[],"stateMutability":"nonpayable"},{"type":"function","name":"registerGroup","inputs":[{"name":"_mint","type":"address","internalType":"address"},{"name":"_name","type":"string","internalType":"string"},{"name":"_symbol","type":"string","internalType":"string"},{"name":"_metadataDigest","type":"bytes32","internalType":"bytes32"}],"outputs":[],"stateMutability":"nonpayable"},{"type":"function","name":"registerHuman","inputs":[{"name":"_metadataDigest","type":"bytes32","internalType":"bytes32"}],"outputs":[],"stateMutability":"nonpayable"},{"type":"function","name":"registerOrganization","inputs":[{"name":"_name","type":"string","internalType":"string"},{"name":"_metadataDigest","type":"bytes32","internalType":"bytes32"}],"outputs":[],"stateMutability":"nonpayable"},{"type":"function","name":"safeBatchTransferFrom","inputs":[{"name":"_from","type":"address","internalType":"address"},{"name":"_to","type":"address","internalType":"address"},{"name":"_ids","type":"uint256[]","internalType":"uint256[]"},{"name":"_values","type":"uint256[]","internalType":"uint256[]"},{"name":"_data","type":"bytes","internalType":"bytes"}],"outputs":[],"stateMutability":"nonpayable"},{"type":"function","name":"safeInflationaryBatchTransferFrom","inputs":[{"name":"_from","type":"address","internalType":"address"},{"name":"_to","type":"address","internalType":"address"},{"name":"_ids","type":"uint256[]","internalType":"uint256[]"},{"name":"_inflationaryValues","type":"uint256[]","internalType":"uint256[]"},{"name":"_data","type":"bytes","internalType":"bytes"}],"outputs":[],"stateMutability":"nonpayable"},{"type":"function","name":"safeInflationaryTransferFrom","inputs":[{"name":"_from","type":"address","internalType":"address"},{"name":"_to","type":"address","internalType":"address"},{"name":"_id","type":"uint256","internalType":"uint256"},{"name":"_inflationaryValue","type":"uint256","internalType":"uint256"},{"name":"_data","type":"bytes","internalType":"bytes"}],"outputs":[],"stateMutability":"nonpayable"},{"type":"function","name":"safeTransferFrom","inputs":[{"name":"_from","type":"address","internalType":"address"},{"name":"_to","type":"address","internalType":"address"},{"name":"_id","type":"uint256","internalType":"uint256"},{"name":"_value","type":"uint256","internalType":"uint256"},{"name":"_data","type":"bytes","internalType":"bytes"}],"outputs":[],"stateMutability":"nonpayable"},{"type":"function","name":"setApprovalForAll","inputs":[{"name":"_operator","type":"address","internalType":"address"},{"name":"_approved","type":"bool","internalType":"bool"}],"outputs":[],"stateMutability":"nonpayable"},{"type":"function","name":"stop","inputs":[],"outputs":[],"stateMutability":"nonpayable"},{"type":"function","name":"stopped","inputs":[{"name":"_human","type":"address","internalType":"address"}],"outputs":[{"name":"","type":"bool","internalType":"bool"}],"stateMutability":"view"},{"type":"function","name":"supportsInterface","inputs":[{"name":"_interfaceId","type":"bytes4","internalType":"bytes4"}],"outputs":[{"name":"","type":"bool","internalType":"bool"}],"stateMutability":"view"},{"type":"function","name":"toTokenId","inputs":[{"name":"_avatar","type":"address","internalType":"address"}],"outputs":[{"name":"","type":"uint256","internalType":"uint256"}],"stateMutability":"pure"},{"type":"function","name":"totalSupply","inputs":[{"name":"_id","type":"uint256","internalType":"uint256"}],"outputs":[{"name":"","type":"uint256","internalType":"uint256"}],"stateMutability":"view"},{"type":"function","name":"treasuries","inputs":[{"name":"","type":"address","internalType":"address"}],"outputs":[{"name":"","type":"address","internalType":"address"}],"stateMutability":"view"},{"type":"function","name":"trust","inputs":[{"name":"_trustReceiver","type":"address","internalType":"address"},{"name":"_expiry","type":"uint96","internalType":"uint96"}],"outputs":[],"stateMutability":"nonpayable"},{"type":"function","name":"trustMarkers","inputs":[{"name":"","type":"address","internalType":"address"},{"name":"","type":"address","internalType":"address"}],"outputs":[{"name":"previous","type":"address","internalType":"address"},{"name":"expiry","type":"uint96","internalType":"uint96"}],"stateMutability":"view"},{"type":"function","name":"uri","inputs":[{"name":"","type":"uint256","internalType":"uint256"}],"outputs":[{"name":"","type":"string","internalType":"string"}],"stateMutability":"view"},{"type":"function","name":"wrap","inputs":[{"name":"_avatar","type":"address","internalType":"address"},{"name":"_amount","type":"uint256","internalType":"uint256"},{"name":"_type","type":"uint8","internalType":"enum CirclesType"}],"outputs":[{"name":"","type":"address","internalType":"address"}],"stateMutability":"nonpayable"},{"type":"event","name":"ApprovalForAll","inputs":[{"name":"account","type":"address","indexed":true,"internalType":"address"},{"name":"operator","type":"address","indexed":true,"internalType":"address"},{"name":"approved","type":"bool","indexed":false,"internalType":"bool"}],"anonymous":false},{"type":"event","name":"InviteHuman","inputs":[{"name":"inviter","type":"address","indexed":true,"internalType":"address"},{"name":"invited","type":"address","indexed":true,"internalType":"address"}],"anonymous":false},{"type":"event","name":"PersonalMint","inputs":[{"name":"human","type":"address","indexed":true,"internalType":"address"},{"name":"amount","type":"uint256","indexed":false,"internalType":"uint256"},{"name":"startPeriod","type":"uint256","indexed":false,"internalType":"uint256"},{"name":"endPeriod","type":"uint256","indexed":false,"internalType":"uint256"}],"anonymous":false},{"type":"event","name":"RegisterGroup","inputs":[{"name":"group","type":"address","indexed":true,"internalType":"address"},{"name":"mint","type":"address","indexed":true,"internalType":"address"},{"name":"treasury","type":"address","indexed":true,"internalType":"address"},{"name":"name","type":"string","indexed":false,"internalType":"string"},{"name":"symbol","type":"string","indexed":false,"internalType":"string"}],"anonymous":false},{"type":"event","name":"RegisterHuman","inputs":[{"name":"avatar","type":"address","indexed":true,"internalType":"address"}],"anonymous":false},{"type":"event","name":"RegisterOrganization","inputs":[{"name":"organization","type":"address","indexed":true,"internalType":"address"},{"name":"name","type":"string","indexed":false,"internalType":"string"}],"anonymous":false},{"type":"event","name":"Stopped","inputs":[{"name":"avatar","type":"address","indexed":true,"internalType":"address"}],"anonymous":false},{"type":"event","name":"StreamCompleted","inputs":[{"name":"operator","type":"address","indexed":true,"internalType":"address"},{"name":"from","type":"address","indexed":true,"internalType":"address"},{"name":"to","type":"address","indexed":true,"internalType":"address"},{"name":"ids","type":"uint256[]","indexed":false,"internalType":"uint256[]"},{"name":"amounts","type":"uint256[]","indexed":false,"internalType":"uint256[]"}],"anonymous":false},{"type":"event","name":"TransferBatch","inputs":[{"name":"operator","type":"address","indexed":true,"internalType":"address"},{"name":"from","type":"address","indexed":true,"internalType":"address"},{"name":"to","type":"address","indexed":true,"internalType":"address"},{"name":"ids","type":"uint256[]","indexed":false,"internalType":"uint256[]"},{"name":"values","type":"uint256[]","indexed":false,"internalType":"uint256[]"}],"anonymous":false},{"type":"event","name":"TransferSingle","inputs":[{"name":"operator","type":"address","indexed":true,"internalType":"address"},{"name":"from","type":"address","indexed":true,"internalType":"address"},{"name":"to","type":"address","indexed":true,"internalType":"address"},{"name":"id","type":"uint256","indexed":false,"internalType":"uint256"},{"name":"value","type":"uint256","indexed":false,"internalType":"uint256"}],"anonymous":false},{"type":"event","name":"Trust","inputs":[{"name":"truster","type":"address","indexed":true,"internalType":"address"},{"name":"trustee","type":"address","indexed":true,"internalType":"address"},{"name":"expiryTime","type":"uint256","indexed":false,"internalType":"uint256"}],"anonymous":false},{"type":"event","name":"URI","inputs":[{"name":"value","type":"string","indexed":false,"internalType":"string"},{"name":"id","type":"uint256","indexed":true,"internalType":"uint256"}],"anonymous":false},{"type":"error","name":"CirclesAddressCannotBeZero","inputs":[{"name":"code","type":"uint8","internalType":"uint8"}]},{"type":"error","name":"CirclesAmountMustNotBeZero","inputs":[{"name":"code","type":"uint8","internalType":"uint8"}]},{"type":"error","name":"CirclesAmountOverflow","inputs":[{"name":"amount","type":"uint256","internalType":"uint256"},{"name":"code","type":"uint8","internalType":"uint8"}]},{"type":"error","name":"CirclesArrayMustNotBeEmpty","inputs":[{"name":"code","type":"uint8","internalType":"uint8"}]},{"type":"error","name":"CirclesArraysLengthMismatch","inputs":[{"name":"lengthArray1","type":"uint256","internalType":"uint256"},{"name":"lengthArray2","type":"uint256","internalType":"uint256"},{"name":"code","type":"uint8","internalType":"uint8"}]},{"type":"error","name":"CirclesAvatarMustBeRegistered","inputs":[{"name":"avatar","type":"address","internalType":"address"},{"name":"code","type":"uint8","internalType":"uint8"}]},{"type":"error","name":"CirclesDemurrageAmountExceedsMaxUint190","inputs":[{"name":"account","type":"address","internalType":"address"},{"name":"circlesId","type":"uint256","internalType":"uint256"},{"name":"amount","type":"uint256","internalType":"uint256"},{"name":"code","type":"uint8","internalType":"uint8"}]},{"type":"error","name":"CirclesDemurrageDayBeforeLastUpdatedDay","inputs":[{"name":"account","type":"address","internalType":"address"},{"name":"circlesId","type":"uint256","internalType":"uint256"},{"name":"day","type":"uint64","internalType":"uint64"},{"name":"lastUpdatedDay","type":"uint64","internalType":"uint64"},{"name":"code","type":"uint8","internalType":"uint8"}]},{"type":"error","name":"CirclesERC1155CannotReceiveBatch","inputs":[{"name":"code","type":"uint8","internalType":"uint8"}]},{"type":"error","name":"CirclesERC1155MintBlocked","inputs":[{"name":"human","type":"address","internalType":"address"},{"name":"mintV1Status","type":"address","internalType":"address"}]},{"type":"error","name":"CirclesHubAvatarAlreadyRegistered","inputs":[{"name":"avatar","type":"address","internalType":"address"},{"name":"code","type":"uint8","internalType":"uint8"}]},{"type":"error","name":"CirclesHubFlowEdgeIsNotPermitted","inputs":[{"name":"receiver","type":"address","internalType":"address"},{"name":"circlesId","type":"uint256","internalType":"uint256"},{"name":"code","type":"uint8","internalType":"uint8"}]},{"type":"error","name":"CirclesHubFlowEdgeStreamMismatch","inputs":[{"name":"flowEdgeId","type":"uint16","internalType":"uint16"},{"name":"streamId","type":"uint16","internalType":"uint16"},{"name":"code","type":"uint8","internalType":"uint8"}]},{"type":"error","name":"CirclesHubFlowVerticesMustBeSorted","inputs":[]},{"type":"error","name":"CirclesHubGroupIsNotRegistered","inputs":[{"name":"group","type":"address","internalType":"address"},{"name":"code","type":"uint8","internalType":"uint8"}]},{"type":"error","name":"CirclesHubGroupMintPolicyRejectedBurn","inputs":[{"name":"burner","type":"address","internalType":"address"},{"name":"group","type":"address","internalType":"address"},{"name":"amount","type":"uint256","internalType":"uint256"},{"name":"data","type":"bytes","internalType":"bytes"},{"name":"code","type":"uint8","internalType":"uint8"}]},{"type":"error","name":"CirclesHubGroupMintPolicyRejectedMint","inputs":[{"name":"minter","type":"address","internalType":"address"},{"name":"group","type":"address","internalType":"address"},{"name":"collateral","type":"uint256[]","internalType":"uint256[]"},{"name":"amounts","type":"uint256[]","internalType":"uint256[]"},{"name":"data","type":"bytes","internalType":"bytes"},{"name":"code","type":"uint8","internalType":"uint8"}]},{"type":"error","name":"CirclesHubInvalidTrustReceiver","inputs":[{"name":"trustReceiver","type":"address","internalType":"address"},{"name":"code","type":"uint8","internalType":"uint8"}]},{"type":"error","name":"CirclesHubMustBeHuman","inputs":[{"name":"avatar","type":"address","internalType":"address"},{"name":"code","type":"uint8","internalType":"uint8"}]},{"type":"error","name":"CirclesHubNettedFlowMismatch","inputs":[{"name":"vertexPosition","type":"uint16","internalType":"uint16"},{"name":"matrixNettedFlow","type":"int256","internalType":"int256"},{"name":"streamNettedFlow","type":"int256","internalType":"int256"}]},{"type":"error","name":"CirclesHubOnlyDuringBootstrap","inputs":[{"name":"code","type":"uint8","internalType":"uint8"}]},{"type":"error","name":"CirclesHubOperatorNotApprovedForSource","inputs":[{"name":"operator","type":"address","internalType":"address"},{"name":"source","type":"address","internalType":"address"},{"name":"streamId","type":"uint16","internalType":"uint16"},{"name":"code","type":"uint8","internalType":"uint8"}]},{"type":"error","name":"CirclesHubRegisterAvatarV1MustBeStopped","inputs":[{"name":"avatar","type":"address","internalType":"address"},{"name":"code","type":"uint8","internalType":"uint8"}]},{"type":"error","name":"CirclesHubStreamMismatch","inputs":[{"name":"streamId","type":"uint16","internalType":"uint16"},{"name":"code","type":"uint8","internalType":"uint8"}]},{"type":"error","name":"CirclesIdMustBeDerivedFromAddress","inputs":[{"name":"providedId","type":"uint256","internalType":"uint256"},{"name":"code","type":"uint8","internalType":"uint8"}]},{"type":"error","name":"CirclesInvalidCirclesId","inputs":[{"name":"id","type":"uint256","internalType":"uint256"},{"name":"code","type":"uint8","internalType":"uint8"}]},{"type":"error","name":"CirclesInvalidFunctionCaller","inputs":[{"name":"caller","type":"address","internalType":"address"},{"name":"expectedCaller","type":"address","internalType":"address"},{"name":"code","type":"uint8","internalType":"uint8"}]},{"type":"error","name":"CirclesInvalidParameter","inputs":[{"name":"parameter","type":"uint256","internalType":"uint256"},{"name":"code","type":"uint8","internalType":"uint8"}]},{"type":"error","name":"CirclesInvalidString","inputs":[{"name":"str","type":"string","internalType":"string"},{"name":"code","type":"uint8","internalType":"uint8"}]},{"type":"error","name":"CirclesLogicAssertion","inputs":[{"name":"code","type":"uint8","internalType":"uint8"}]},{"type":"error","name":"CirclesProxyAlreadyInitialized","inputs":[]},{"type":"error","name":"CirclesReentrancyGuard","inputs":[{"name":"code","type":"uint8","internalType":"uint8"}]},{"type":"error","name":"ERC1155InsufficientBalance","inputs":[{"name":"sender","type":"address","internalType":"address"},{"name":"balance","type":"uint256","internalType":"uint256"},{"name":"needed","type":"uint256","internalType":"uint256"},{"name":"tokenId","type":"uint256","internalType":"uint256"}]},{"type":"error","name":"ERC1155InvalidApprover","inputs":[{"name":"approver","type":"address","internalType":"address"}]},{"type":"error","name":"ERC1155InvalidArrayLength","inputs":[{"name":"idsLength","type":"uint256","internalType":"uint256"},{"name":"valuesLength","type":"uint256","internalType":"uint256"}]},{"type":"error","name":"ERC1155InvalidOperator","inputs":[{"name":"operator","type":"address","internalType":"address"}]},{"type":"error","name":"ERC1155InvalidReceiver","inputs":[{"name":"receiver","type":"address","internalType":"address"}]},{"type":"error","name":"ERC1155InvalidSender","inputs":[{"name":"sender","type":"address","internalType":"address"}]},{"type":"error","name":"ERC1155MissingApprovalForAll","inputs":[{"name":"operator","type":"address","internalType":"address"},{"name":"owner","type":"address","internalType":"address"}]}],"bytecode":{"object":"0x6102a06040526818000000000000000060c0908152682ffec785b3614dbacc60e0526847fc56a0fe9220851661010052685ff8ad61c531c51ed4610120526877f3cbd7ea10a8394961014052688fedb2134f3060fc826101605268a7e66023d5c3bb8c4e6101805268bfddd6195e2ec38ca76101a05268d7d41403c806cea59c6101c05268efc919f2f2128706a76101e052690107bce7f6ba49f5e9836102005269011faf7e1efdd68e147261022052690137a0dc7b9913365c016102405269014f91031c678c54243d610260526901677ff21143ffd5e163610280526100ea90600190600f6104ce565b503480156100f6575f80fd5b50604051616978380380616978833981016040819052610115916105b4565b828180825f5b600e60ff8216116101965761013b67fff2fae779633d1e60ff8316610296565b60098260ff16600f8110610151576101516106d2565b600291828204019190066010026101000a8154816001600160801b030219169083600f0b6001600160801b03160217905550808061018e906106fa565b91505061011b565b505f556101a2816104be565b5050506001600160a01b0388166101d3576040516321efd2b360e01b81525f60048201526024015b60405180910390fd5b6001600160a01b0384166101fd576040516321efd2b360e01b8152600160048201526024016101ca565b60015f819052601a6020527ff88cd8d612926ebb404e40725c01084b6e9b3ce0344cde068570342cbd448c6180546001600160a01b031990811690921790556001600160a01b038981166080526016805483168a8316179055601780548316898316179055601880548316888316179055601980549092169086161790556102858242610718565b60a0525061086e9650505050505050565b5f805f84600f0b1280156102ad5750826001166001145b90505f8085600f0b126102c057846102c4565b845f035b6001600160801b03169050600160801b68010000000000000000821161035e57603f82901b91505b8415610356576001851615610301578102607f1c5b908002607f1c906002851615610317578102607f1c5b908002607f1c90600485161561032d578102607f1c5b908002607f1c906008851615610343578102607f1c5b60049490941c93908002607f1c906102ec565b60401c610479565b603f6c010000000000000000000000008310156103815760209290921b91601f19015b600160701b8310156103995760109290921b91600f19015b600160781b8310156103b15760089290921b91600719015b6001607c1b8310156103c95760049290921b91600319015b6001607e1b8310156103e15760029290921b91600119015b6001607f1b8310156103f85760019290921b915f19015b5f5b8615610463576040821061040c575f80fd5b600187161561043257918302607f1c918101600160801b83111561043257600192831c92015b928002607f1c9260019190911b90600160801b841061045757600193841c9391909101905b600187901c96506103fa565b6040811061046f575f80fd5b6040039190911c90505b5f836104855781610489565b815f035b905060016001607f1b031981128015906104aa575060016001607f1b038113155b6104b2575f80fd5b93505050505b92915050565b60146104ca82826107af565b5050565b600883019183908215610565579160200282015f5b8382111561053057835183826101000a8154816001600160801b030219169083600f0b6001600160801b031602179055509260200192601001602081600f010492830192600103026104e3565b80156105635782816101000a8154906001600160801b030219169055601001602081600f01049283019260010302610530565b505b50610571929150610575565b5090565b5b80821115610571575f8155600101610576565b6001600160a01b038116811461059d575f80fd5b50565b634e487b7160e01b5f52604160045260245ffd5b5f805f805f805f80610100898b0312156105cc575f80fd5b88516105d781610589565b60208a01519098506105e881610589565b60408a01519097506105f981610589565b60608a015190965061060a81610589565b60808a015190955061061b81610589565b60a08a015160c08b015160e08c015192965090945092506001600160401b0380821115610646575f80fd5b818b0191508b601f830112610659575f80fd5b81518181111561066b5761066b6105a0565b604051601f8201601f19908116603f01168101908382118183101715610693576106936105a0565b816040528281528e60208487010111156106ab575f80fd5b8260208601602083015e5f6020848301015280955050505050509295985092959890939650565b634e487b7160e01b5f52603260045260245ffd5b634e487b7160e01b5f52601160045260245ffd5b5f60ff821660ff810361070f5761070f6106e6565b60010192915050565b808201808211156104b8576104b86106e6565b600181811c9082168061073f57607f821691505b60208210810361075d57634e487b7160e01b5f52602260045260245ffd5b50919050565b601f8211156107aa57805f5260205f20601f840160051c810160208510156107885750805b601f840160051c820191505b818110156107a7575f8155600101610794565b50505b505050565b81516001600160401b038111156107c8576107c86105a0565b6107dc816107d6845461072b565b84610763565b602080601f83116001811461080f575f84156107f85750858301515b5f19600386901b1c1916600185901b178555610866565b5f85815260208120601f198616915b8281101561083d5788860151825594840194600190910190840161081e565b508582101561085a57878501515f19600388901b60f8161c191681555b505060018460011b0185555b505050505050565b60805160a0516160db61089d5f395f8181610def015281816116590152611c4b01525f6145e301526160db5ff3fe608060405234801561000f575f80fd5b506004361061025f575f3560e01c80638ff12b6d1161014b578063bfde380d116100bf578063eb8c276011610084578063eb8c276014610668578063edeeb93c14610690578063f179c713146106b8578063f242432a146106cb578063f3177079146106de578063f72c436f146106f1575f80fd5b8063bfde380d146105f4578063c9f1864814610607578063da33e0651461061a578063e55abe9e14610642578063e985e9c514610655575f80fd5b8063a22cb46511610110578063a22cb46514610582578063a3d99b6c14610595578063aabd6954146105a8578063aeefe51b146105bb578063b1ce8eab146105ce578063bd85b039146105e1575f80fd5b80638ff12b6d146104d657806399342aa3146105015780639bec5726146105145780639cd02313146105275780639e0cc3c414610555575f80fd5b80634e1273f4116101e25780637421c1d7116101a75780637421c1d71461040f57806375dcebc7146104225780637c234d01146104355780637cd0cea61461043d5780637cf637cd146104a957806380a5a371146104c3575f80fd5b80634e1273f41461036a5780636247899b1461038a57806362a810c01461039d5780636713e230146103b05780636cb498e5146103fc575f80fd5b80630d22d9b5116102285780630d22d9b5146103095780630d873a791461031c5780630e89341c146103245780632eb2c2d61461034457806347df87ab14610357575f80fd5b8062fdd58e1461026357806301ffc9a7146102895780630528f507146102ac57806307da68f5146102c15780630849b234146102c9575b5f80fd5b610276610271366004614f3b565b610704565b6040519081526020015b60405180910390f35b61029c610297366004614f7a565b61071f565b6040519015158152602001610280565b6102bf6102ba366004614fd9565b61076e565b005b6102bf610907565b6102f16102d736600461505d565b601c6020525f90815260409020546001600160a01b031681565b6040516001600160a01b039091168152602001610280565b6102bf6103173660046150b8565b6109c9565b6102bf610b5e565b6103376103323660046151a0565b610b9d565b60405161028091906151e5565b6102bf610352366004615334565b610c2f565b61029c61036536600461505d565b610c96565b61037d6103783660046153da565b610ce9565b60405161028091906154cf565b6102bf61039836600461505d565b610db9565b6102bf6103ab366004615334565b610ec4565b61029c6103be3660046154e1565b6001600160a01b039182165f908152601d6020908152604080832093909416825291909152205442600160a01b9091046001600160601b0316101590565b6102bf61040a366004615518565b610f46565b61037d61041d3660046155d7565b611057565b6102bf610430366004615621565b611110565b6102765f5481565b61048261044b3660046154e1565b601d60209081525f92835260408084209091529082529020546001600160a01b03811690600160a01b90046001600160601b031682565b604080516001600160a01b0390931683526001600160601b03909116602083015201610280565b6102766104b736600461505d565b6001600160a01b031690565b6102bf6104d1366004615658565b6111db565b6104e96104e43660046151a0565b6112d8565b6040516001600160401b039091168152602001610280565b61027661050f3660046156a6565b6112f4565b6102bf6105223660046156c7565b611325565b61053a61053536600461505d565b6114b9565b60408051938452602084019290925290820152606001610280565b61029c61056336600461505d565b6001600160a01b039081165f908152601b602052604090205416151590565b6102bf61059036600461576a565b6114dc565b61029c6105a33660046154e1565b6114e7565b6102f16105b6366004615796565b61156d565b6102bf6105c93660046151a0565b611656565b61029c6105dc36600461505d565b61176c565b6102766105ef3660046151a0565b6117e0565b6102bf6106023660046157d8565b611856565b6102bf61061536600461581f565b611967565b6102f161062836600461505d565b601b6020525f90815260409020546001600160a01b031681565b610276610650366004614f3b565b6119df565b61029c6106633660046154e1565b6119f1565b61067b610676366004615882565b611a1e565b60408051928352602083019190915201610280565b6102f161069e36600461505d565b601a6020525f90815260409020546001600160a01b031681565b61053a6106c636600461505d565b611ae2565b6102bf6106d936600461581f565b611aff565b6102bf6106ec3660046158bd565b611b5e565b61029c6106ff36600461505d565b611d13565b5f806107148484610676426112d8565b509150505b92915050565b5f6001600160e01b03198216636cdb3d1360e11b148061074f57506001600160e01b031982166303a24d0760e21b145b8061071957506301ffc9a760e01b6001600160e01b0319831614610719565b60195461078b90339088906001600160a01b031688888888611d3f565b60165460405163d199889360e01b81526001600160a01b039091169063d1998893906107bf90339089908990600401615961565b5f604051808303815f87803b1580156107d6575f80fd5b505af11580156107e8573d5f803e3d5ffd5b505060165460405163e27871dd60e01b81526001600160a01b03909116925063e27871dd915061082090339087908790600401615961565b5f604051808303815f87803b158015610837575f80fd5b505af1158015610849573d5f803e3d5ffd5b505060165460405163e44b8c3560e01b8152336004820152602481018590526001600160a01b03909116925063e44b8c3591506044015f604051808303815f87803b158015610896575f80fd5b505af11580156108a8573d5f803e3d5ffd5b50506019546040516001600160a01b039182169350908916915033907f851510db3e53b795660f9ffba16469222d46d357be10c67f27f619ffe33b5874906108f7908a908a908a908a9061598e565b60405180910390a4505050505050565b61091033611d13565b61093b5733600260405163a1c62ce960e01b81526004016109329291906159bf565b60405180910390fd5b335f90815260156020526040902054600160a01b90046001600160601b03166bfffffffffffffffffffffffe1981016109715750565b50335f8181526015602052604080822080546001600160a01b03166001600160a01b0319179055516001600160601b0392917f55c4adf1f68f084b809304657594a92ba835ada8d3b5340955bf05746723c05b91a250565b5f805c156109d5575f80fd5b60015f5d5f6109e5848489611f0f565b90505f5b61ffff8116861115610b1157610a5e8b8b89898561ffff16818110610a1057610a106159db565b9050602002810190610a2291906159ef565b610a30906020810190615a0d565b61ffff16818110610a4357610a436159db565b9050602002016020810190610a58919061505d565b336119f1565b610aff57338b8b89898561ffff16818110610a7b57610a7b6159db565b9050602002810190610a8d91906159ef565b610a9b906020810190615a0d565b61ffff16818110610aae57610aae6159db565b9050602002016020810190610ac3919061505d565b604051631cddf82160e11b81526001600160a01b0392831660048201529116602482015261ffff821660448201525f6064820152608401610932565b80610b0981615a42565b9150506109e9565b505f610b208b8b8b8b86612145565b9050610b318b8b8b8b8b8b88612626565b5f610b418c8c8c8c8c8c89612c68565b9050610b4d8183613299565b5050505f805d505050505050505050565b610b6733611d13565b610b895733600160405163a1c62ce960e01b81526004016109329291906159bf565b610b92336133a3565b610b9b336133dd565b565b606060148054610bac90615a62565b80601f0160208091040260200160405190810160405280929190818152602001828054610bd890615a62565b8015610c235780601f10610bfa57610100808354040283529160200191610c23565b820191905f5260205f20905b815481529060010190602001808311610c0657829003601f168201915b50505050509050919050565b336001600160a01b0386168114801590610c505750610c4e86826119f1565b155b15610c815760405163711bec9160e11b81526001600160a01b03808316600483015287166024820152604401610932565b610c8e8686868686613498565b505050505050565b5f610ca082611d13565b610cc25781600360405163a1c62ce960e01b81526004016109329291906159bf565b5050335f908152601560205260409020546001600160601b03600160a01b90910481161490565b60608151835114610d1a5781518351604051635b05999160e01b815260048101929092526024820152604401610932565b5f610d24426112d8565b90505f84516001600160401b03811115610d4057610d406151f7565b604051908082528060200260200182016040528015610d69578160200160208202803683370190505b5090505f5b855181101561071457602080820287010151610d939060208084028801015185611a1e565b50828281518110610da657610da66159db565b6020908102919091010152600101610d6e565b610dc233611d13565b610de357335f60405163a1c62ce960e01b81526004016109329291906159bf565b610dec816134fd565b507f0000000000000000000000000000000000000000000000000000000000000000421115610e7a57610e413380610e266012600a615b74565b610e31906032615b82565b610e3c906002615b82565b613580565b610e7a816001600160a01b038116610e5b6012600a615b74565b610e66906032615b82565b60405180602001604052805f815250613652565b610e8c33826001600160601b03613740565b6040516001600160a01b0382169033907f1579ece735f991d530c87b3750a61840fcbc5658330779dc66902edd092cd4c8905f90a350565b336001600160a01b0386168114801590610ee55750610ee386826119f1565b155b15610f165760405163711bec9160e11b81526001600160a01b03808316600483015287166024820152604401610932565b5f610f20426112d8565b90505f610f2d8583611057565b9050610f3c8888888488613498565b5050505050505050565b5f856001600160401b03811115610f5f57610f5f6151f7565b604051908082528060200260200182016040528015610f88578160200160208202803683370190505b5090505f5b86811015610fe457610fbf888883818110610faa57610faa6159db565b90506020020160208101906104b7919061505d565b828281518110610fd157610fd16159db565b6020908102919091010152600101610f8d565b50610f3c33338a848989808060200260200160405190810160405280939291908181526020018383602002808284375f9201919091525050604080516020601f8d018190048102820181019092528b815292508b91508a90819084018382808284375f9201919091525061379d92505050565b60605f61107567fff2fae779633d1e846001600160401b0316613ab7565b90505f84516001600160401b03811115611091576110916151f7565b6040519080825280602002602001820160405280156110ba578160200160208202803683370190505b5090505f5b8551811015610714576110eb838783815181106110de576110de6159db565b6020026020010151613cd4565b8282815181106110fd576110fd6159db565b60209081029190910101526001016110bf565b335f908152601a60205260409020546001600160a01b031661114957335f60405163aa8ed7bd60e01b81526004016109329291906159bf565b6001600160a01b038216158061116857506001600160a01b0382166001145b1561118a57815f6040516375ff19a960e11b81526004016109329291906159bf565b336001600160a01b038316036111b8578160016040516375ff19a960e11b81526004016109329291906159bf565b42816001600160601b031610156111cc5750425b6111d7338383613740565b5050565b5f6111e6855f613d38565b6001600160a01b038082165f908152601b602052604090205491925016801580159061122b57506001600160a01b038281165f908152601c6020526040902054163314155b156112cd576040516343101c5f60e11b81526001600160a01b0382169063862038be9061126490339086908a908a908a90600401615b99565b6020604051808303815f875af1158015611280573d5f803e3d5ffd5b505050506040513d601f19601f820116820180604052508101906112a49190615bcc565b6112cd5733828686865f6040516304f93f6560e11b815260040161093296959493929190615be7565b610c8e338787613580565b5f620151805f54836112ea9190615c30565b6107199190615c43565b5f8061131167fff2fae779633d1e846001600160401b0316613ab7565b905061131d8185613cd4565b949350505050565b61133433888888888888611d3f565b60165460405163d199889360e01b81526001600160a01b039091169063d19988939061136890339089908990600401615961565b5f604051808303815f87803b15801561137f575f80fd5b505af1158015611391573d5f803e3d5ffd5b505060165460405163e27871dd60e01b81526001600160a01b03909116925063e27871dd91506113c990339087908790600401615961565b5f604051808303815f87803b1580156113e0575f80fd5b505af11580156113f2573d5f803e3d5ffd5b505060165460405163e44b8c3560e01b8152336004820152602481018590526001600160a01b03909116925063e44b8c3591506044015f604051808303815f87803b15801561143f575f80fd5b505af1158015611451573d5f803e3d5ffd5b50505050856001600160a01b0316876001600160a01b0316336001600160a01b03167f851510db3e53b795660f9ffba16469222d46d357be10c67f27f619ffe33b5874888888886040516114a8949392919061598e565b60405180910390a450505050505050565b5f805f6114c5846133a3565b6114ce84613d74565b9250925092505b9193909250565b6111d733838361402c565b6001600160a01b038281165f908152601d6020908152604080832093851683529290529081205442600160a01b9091046001600160601b0316101561152d57505f610719565b506001600160a01b039081165f908152601d602090815260408083209490931682529290925290205442600160a01b9091046001600160601b0316101590565b5f61157784611d13565b15801561159b57506001600160a01b038481165f908152601b602052604090205416155b156115be5783600260405163aa8ed7bd60e01b81526004016109329291906159bf565b6018546040516395b645b160e01b81525f916001600160a01b0316906395b645b1906115f09088908790600401615c62565b6020604051808303815f875af115801561160c573d5f803e3d5ffd5b505050506040513d601f19601f820116820180604052508101906116309190615c9b565b905061131d33826001600160a01b0388168760405180602001604052805f815250611aff565b5f7f000000000000000000000000000000000000000000000000000000000000000042111561169d57604051633f2350bf60e21b815260ff82166004820152602401610932565b5f6116a7336134fd565b90506001600160a01b0381166001146116d757335f6040516360b9e95b60e01b81526004016109329291906159bf565b821561173d5760165460405163e44b8c3560e01b8152336004820152602481018590526001600160a01b039091169063e44b8c35906044015f604051808303815f87803b158015611726575f80fd5b505af1158015611738573d5f803e3d5ffd5b505050505b60405133907f6553967279fea0a1443d6ecf8edbde1f011f1f9cfb34b680b5102ca292d5c846905f90a2505050565b6001600160a01b038181165f908152601a6020526040812054909116158015906117ad57506001600160a01b038281165f908152601b602052604090205416155b80156107195750506001600160a01b03165f90815260156020526040902054600160a01b90046001600160601b03161590565b5f8181526012602090815260408083208151808301909252546001600160c01b0381168252600160c01b90046001600160401b03169181019190915281611826426112d8565b905061131d825f01516001600160c01b03168360200151836118489190615cb6565b6001600160401b03166140b8565b61185f336140d1565b60165460405163d199889360e01b81526001600160a01b039091169063d19988939061189390339087908790600401615961565b5f604051808303815f87803b1580156118aa575f80fd5b505af11580156118bc573d5f803e3d5ffd5b505060165460405163e44b8c3560e01b8152336004820152602481018590526001600160a01b03909116925063e44b8c3591506044015f604051808303815f87803b158015611909575f80fd5b505af115801561191b573d5f803e3d5ffd5b50505050336001600160a01b03167fe191edab93dcedd4a646317289fded1d9665862550b031a14bd3c5b0bc0e5007848460405161195a929190615cdd565b60405180910390a2505050565b336001600160a01b0386168114801590611988575061198686826119f1565b155b156119b95760405163711bec9160e11b81526001600160a01b03808316600483015287166024820152604401610932565b5f6119c78461050f426112d8565b90506119d6878787848761416f565b50505050505050565b5f6119ea83836141f2565b9392505050565b6001600160a01b039182165f90815260136020908152604080832093909416825291909152205460ff1690565b5f8281526011602090815260408083206001600160a01b038716845282528083208151808301909252546001600160c01b03811682526001600160401b03600160c01b909104811692820183905283929085161015611a9d576020810151604051630f6b717f60e41b8152610932918891889188915f90600401615cf0565b5f816020015185036001600160401b03169050611ac6825f01516001600160c01b0316826140b8565b9151919350506001600160c01b03168290039050935093915050565b5f805f611aee84611d13565b6114c557505f9150819050806114d5565b336001600160a01b0386168114801590611b205750611b1e86826119f1565b155b15611b515760405163711bec9160e11b81526001600160a01b03808316600483015287166024820152604401610932565b610c8e868686868661416f565b6017546001600160a01b03163314611ba457601754604051636844c68b60e11b81523360048201526001600160a01b0390911660248201525f6044820152606401610932565b6001600160a01b038581165f908152601a602052604090205416611be05784600160405163aa8ed7bd60e01b81526004016109329291906159bf565b828114611c1057604051638b5ccddf60e01b815260048101849052602481018290525f6044820152606401610932565b5f611c1b858561424c565b611c276012600a615b74565b611c32906032615b82565b611c3d906002615b82565b611c479190615b82565b90507f000000000000000000000000000000000000000000000000000000000000000042118015611c7757505f81115b15611cbb57611c8586611d13565b611ca75785600460405163a1c62ce960e01b81526004016109329291906159bf565b611cbb866001600160a01b03811683613580565b5f5b848110156119d657611d0b87611cde888885818110610faa57610faa6159db565b868685818110611cf057611cf06159db565b9050602002013560405180602001604052805f815250613652565b600101611cbd565b6001600160a01b03165f90815260156020526040902054600160a01b90046001600160601b0316151590565b6001600160a01b038616611d69576040516321efd2b360e01b815260026004820152602401610932565b6001600160a01b038516611d93576040516321efd2b360e01b815260036004820152602401610932565b601654604051631e30397f60e01b81526001600160a01b0390911690631e30397f90611dc59087908790600401615cdd565b602060405180830381865afa158015611de0573d5f803e3d5ffd5b505050506040513d601f19601f82011682018060405250810190611e049190615bcc565b611e275783835f604051633fd67da760e01b815260040161093293929190615d2a565b6016546040516347ea7b8d60e11b81526001600160a01b0390911690638fd4f71a90611e599085908590600401615cdd565b602060405180830381865afa158015611e74573d5f803e3d5ffd5b505050506040513d601f19601f82011682018060405250810190611e989190615bcc565b611ebc5781816001604051633fd67da760e01b815260040161093293929190615d2a565b611ec5876140d1565b5050506001600160a01b039384165f908152601b6020908152604080832080549688166001600160a01b0319978816179055601c9091529020805492909416919092161790915550565b6060611f1c826006615b82565b8314611f4c57604051638b5ccddf60e01b8152600481018490526024810183905260066044820152606401610932565b611f57826003615b82565b6001600160401b03811115611f6e57611f6e6151f7565b604051908082528060200260200182016040528015611f97578160200160208202803683370190505b5090505f805b8481101561213c578585611fb2836001615d50565b818110611fc157611fc16159db565b919091013560f81c90506008878784818110611fdf57611fdf6159db565b919091013560f81c90911b9190911790508383611ffb81615d63565b94508151811061200d5761200d6159db565b61ffff90921660209283029190910190910152858561202d836003615d50565b81811061203c5761203c6159db565b919091013560f81c905060088787612055856002615d50565b818110612064576120646159db565b919091013560f81c90911b919091179050838361208081615d63565b945081518110612092576120926159db565b61ffff9092166020928302919091019091015285856120b2836005615d50565b8181106120c1576120c16159db565b919091013560f81c9050600887876120da856004615d50565b8181106120e9576120e96159db565b919091013560f81c90911b919091179050838361210581615d63565b945081518110612117576121176159db565b61ffff90921660209283029190910190910152612135600682615d50565b9050611f9d565b50509392505050565b8051606090612155846003615b82565b14612187578151604051638b5ccddf60e01b815260048101859052602481019190915260026044820152606401610932565b61ffff8511156121bc57604051638b5ccddf60e01b81526004810186905261ffff602482015260036044820152606401610932565b8415806121c7575082155b156121f557604051638b5ccddf60e01b81526004808201879052602482018590526044820152606401610932565b5f856001600160401b0381111561220e5761220e6151f7565b604051908082528060200260200182016040528015612237578160200160208202803683370190505b5090505f5b612247600188615c30565b816001600160401b031610156123a5578787612264836001615d7b565b6001600160401b031681811061227c5761227c6159db565b9050602002016020810190612291919061505d565b6001600160a01b03168888836001600160401b03168181106122b5576122b56159db565b90506020020160208101906122ca919061505d565b6001600160a01b0316106122f157604051639d5523e360e01b815260040160405180910390fd5b5f601a818a8a6001600160401b038616818110612310576123106159db565b9050602002016020810190612325919061505d565b6001600160a01b03908116825260208201929092526040015f20541603612393578787826001600160401b0316818110612361576123616159db565b9050602002016020810190612376919061505d565b600460405163aa8ed7bd60e01b81526004016109329291906159bf565b8061239d81615d9b565b91505061223c565b505f87876123b4600182615c30565b8181106123c3576123c36159db565b90506020020160208101906123d8919061505d565b6001600160a01b038082165f908152601a6020526040902054919250166124175780600560405163aa8ed7bd60e01b81526004016109329291906159bf565b505f805b6001600160401b038116861115612619575f8989878561ffff1681518110612445576124456159db565b602002602001015161ffff16818110612460576124606159db565b9050602002016020810190612475919061505d565b90505f8a8a88612486876002615db6565b61ffff168151811061249a5761249a6159db565b602002602001015161ffff168181106124b5576124b56159db565b90506020020160208101906124ca919061505d565b90505f8989856001600160401b03168181106124e8576124e86159db565b90506040020160200160208101906125009190615dd1565b6001600160c01b0316905061251582846114e7565b61254c5760405163de84eec960e01b81526001600160a01b0380841660048301528416602482015260016044820152606401610932565b80868961255a886001615db6565b61ffff168151811061256e5761256e6159db565b602002602001015161ffff168151811061258a5761258a6159db565b6020026020010181815161259e9190615df7565b9052508086896125af886002615db6565b61ffff16815181106125c3576125c36159db565b602002602001015161ffff16815181106125df576125df6159db565b602002602001018181516125f39190615e16565b905250612601856003615db6565b9450505050808061261190615d9b565b91505061241b565b5090979650505050505050565b5f826001600160401b0381111561263f5761263f6151f7565b604051908082528060200260200182016040528015612668578160200160208202803683370190505b5090505f836001600160401b03811115612684576126846151f7565b6040519080825280602002602001820160405280156126ad578160200160208202803683370190505b5090505f805b61ffff8116881115612b5a575f8b8b876126ce866002615db6565b61ffff16815181106126e2576126e26159db565b602002602001015161ffff168181106126fd576126fd6159db565b9050602002016020810190612712919061505d565b90505f806127ae61274f8f8f8b8961ffff1681518110612734576127346159db565b602002602001015161ffff16818110610faa57610faa6159db565b8d8d8761ffff16818110612765576127656159db565b905060400201602001602081019061277d9190615dd1565b6001600160c01b03166040805160018082526020820194909452808201938452606081019290925260808201905291565b915091505f8c8c8661ffff168181106127c9576127c96159db565b6127df9260206040909202019081019150615a0d565b61ffff161115612a4a575f60018d8d8761ffff16818110612802576128026159db565b6128189260206040909202019081019150615a0d565b6128229190615e3d565b90508461ffff168b8b8361ffff1681811061283f5761283f6159db565b905060200281019061285191906159ef565b61285f906020810190615e58565b8a8461ffff1681518110612875576128756159db565b602002602001015161ffff16818110612890576128906159db565b90506020020160208101906128a59190615a0d565b61ffff161461290b57848d8d8761ffff168181106128c5576128c56159db565b6128db9260206040909202019081019150615a0d565b6040516001625e92ed60e01b0319815261ffff9283166004820152911660248201525f6044820152606401610932565b878161ffff1681518110612921576129216159db565b60200260200101805180919061293690615a42565b61ffff1661ffff16815250505f6001600160a01b0316878261ffff1681518110612962576129626159db565b60200260200101516001600160a01b0316036129b45783878261ffff168151811061298f5761298f6159db565b60200260200101906001600160a01b031690816001600160a01b031681525050612a48565b836001600160a01b0316878261ffff16815181106129d4576129d46159db565b60200260200101516001600160a01b031614612a4857848d8d8761ffff16818110612a0157612a016159db565b612a179260206040909202019081019150615a0d565b6040516001625e92ed60e01b0319815261ffff92831660048201529116602482015260016044820152606401610932565b505b6001600160a01b038084165f908152601b602052604090205416612aca57612ac58e8e8a612a79896001615db6565b61ffff1681518110612a8d57612a8d6159db565b602002602001015161ffff16818110612aa857612aa86159db565b9050602002016020810190612abd919061505d565b848484614368565b612b37565b612b378e8e8a612adb896001615db6565b61ffff1681518110612aef57612aef6159db565b602002602001015161ffff16818110612b0a57612b0a6159db565b9050602002016020810190612b1f919061505d565b8485858560405180602001604052805f81525061379d565b612b42856003615db6565b94505050508080612b5290615a42565b9150506126b3565b505f5b61ffff8116861115612c5b575f6001600160a01b0316838261ffff1681518110612b8957612b896159db565b60200260200101516001600160a01b031603612bc45760405163eed7a7eb60e01b815261ffff821660048201525f6024820152604401610932565b86868261ffff16818110612bda57612bda6159db565b9050602002810190612bec91906159ef565b612bfa906020810190615e58565b9050848261ffff1681518110612c1257612c126159db565b602002602001015161ffff1614612c495760405163eed7a7eb60e01b815261ffff8216600482015260016024820152604401610932565b80612c5381615a42565b915050612b5d565b5050505050505050505050565b60605f876001600160401b03811115612c8357612c836151f7565b604051908082528060200260200182016040528015612cac578160200160208202803683370190505b5090505f5b61ffff811685111561328c575f86868361ffff16818110612cd457612cd46159db565b9050602002810190612ce691906159ef565b612cf4906020810190615e58565b90506001600160401b03811115612d0d57612d0d6151f7565b604051908082528060200260200182016040528015612d36578160200160208202803683370190505b5090505f87878461ffff16818110612d5057612d506159db565b9050602002810190612d6291906159ef565b612d70906020810190615e58565b90506001600160401b03811115612d8957612d896151f7565b604051908082528060200260200182016040528015612db2578160200160208202803683370190505b5090505f805b89898661ffff16818110612dce57612dce6159db565b9050602002810190612de091906159ef565b612dee906020810190615e58565b90508161ffff161015612f9557612e7f8e8e8a8d8d8a61ffff16818110612e1757612e176159db565b9050602002810190612e2991906159ef565b612e37906020810190615e58565b8661ffff16818110612e4b57612e4b6159db565b9050602002016020810190612e609190615a0d565b612e6b906003615e9d565b61ffff1681518110612734576127346159db565b848261ffff1681518110612e9557612e956159db565b6020026020010181815250508b8b8b8b8861ffff16818110612eb957612eb96159db565b9050602002810190612ecb91906159ef565b612ed9906020810190615e58565b8461ffff16818110612eed57612eed6159db565b9050602002016020810190612f029190615a0d565b61ffff16818110612f1557612f156159db565b9050604002016020016020810190612f2d9190615dd1565b6001600160c01b0316838261ffff1681518110612f4c57612f4c6159db565b602002602001018181525050828161ffff1681518110612f6e57612f6e6159db565b602002602001015182612f819190615d50565b915080612f8d81615a42565b915050612db8565b505f878a8a8761ffff16818110612fae57612fae6159db565b9050602002810190612fc091906159ef565b612fce906020810190615e58565b5f818110612fde57612fde6159db565b9050602002016020810190612ff39190615a0d565b612ffe906003615e9d565b613009906002615db6565b61ffff168151811061301d5761301d6159db565b602002602001015190505f8e8e8361ffff1681811061303e5761303e6159db565b9050602002016020810190613053919061505d565b905061312a8f8f8d8d8a61ffff16818110613070576130706159db565b905060200281019061308291906159ef565b613090906020810190615a0d565b61ffff168181106130a3576130a36159db565b90506020020160208101906130b8919061505d565b8287878f8f8c61ffff168181106130d1576130d16159db565b90506020028101906130e391906159ef565b6130f1906040810190615ebb565b8080601f0160208091040260200160405190810160405280939291908181526020018383808284375f9201919091525061457992505050565b82878c8c8961ffff16818110613142576131426159db565b905060200281019061315491906159ef565b613162906020810190615a0d565b61ffff1681518110613176576131766159db565b6020026020010181815161318a9190615df7565b90525086518390889061ffff85169081106131a7576131a76159db565b602002602001018181516131bb9190615e16565b9052506001600160a01b0381168f8f8d8d61ffff8b168181106131e0576131e06159db565b90506020028101906131f291906159ef565b613200906020810190615a0d565b61ffff16818110613213576132136159db565b9050602002016020810190613228919061505d565b6001600160a01b0316336001600160a01b03167fcfe53a731d24ac31b725405f3dca8a4d23512d3e1ade2359fbbe7982bec0fd42888860405161326c929190615efd565b60405180910390a45050505050808061328490615a42565b915050612cb1565b5098975050505050505050565b80518251146132cf5781518151604051638b5ccddf60e01b81526004810192909252602482015260056044820152606401610932565b5f5b82518161ffff16101561339e57818161ffff16815181106132f4576132f46159db565b6020026020010151838261ffff1681518110613312576133126159db565b60200260200101511461338c5780838261ffff1681518110613336576133366159db565b6020026020010151838361ffff1681518110613354576133546159db565b6020908102919091010151604051632f38161d60e01b815261ffff909316600484015260248301919091526044820152606401610932565b8061339681615a42565b9150506132d1565b505050565b6001600160a01b038181165f90815260156020526040902054166001146133da575f6133ce826145c0565b90506111d782826146d2565b50565b5f805f6133e984613d74565b925092509250825f036133fc5750505050565b61341f846001600160a01b0381168560405180602001604052805f815250613652565b6001600160a01b038481165f818152601560209081526040918290208054909416600160a01b426001600160601b0316021790935580518681529283018590528201839052907f5679cef078fbc961b2e34e49c1f56efe542401e2e59dff633b68ddea27812cc29060600160405180910390a250505050565b6001600160a01b0384166134c157604051632bfa23e760e11b81525f6004820152602401610932565b6001600160a01b0385166134e957604051626a0d4560e21b81525f6004820152602401610932565b6134f68585858585614799565b5050505050565b5f613507826140d1565b613510826145c0565b6001600160a01b038084165f81815260156020818152604080842081518083019092528688168252426001600160601b039081168385019081529690955292909152805193518316600160a01b0293909416929092179091559192509061357a9084908190613740565b50919050565b61358b8383836147b2565b5f613595426112d8565b5f8481526012602090815260408083208151808301909252546001600160c01b038116808352600160c01b9091046001600160401b0316928201839052939450926135e4916118489086615cb6565b9050838110156136095760405163141f8e8f60e21b8152600481810152602401610932565b6001600160c01b03939003831681526001600160401b0391821660208083019182525f95865260129052604090942090519351909116600160c01b029290911691909117905550565b61365e84848484614818565b5f613668426112d8565b5f8581526012602090815260408083208151808301909252546001600160c01b038116808352600160c01b9091046001600160401b03169282018390529394509286916136ba91906118489087615cb6565b6136c49190615d50565b90506001600160c01b038111156136f75786868260026040516345430d1b60e11b81526004016109329493929190615f21565b6001600160c01b0390811682526001600160401b0392831660208084019182525f978852601290526040909620915195519516600160c01b959092169490940217909255505050565b61374b838383614873565b6040516001600160601b03821681526001600160a01b0380841691908516907fe60c754dd8ab0b1b5fccba257d6ebcd7d09e360ab7dd7a6e58198ca1f57cdcec906020015b60405180910390a3505050565b81518351146137d35782518251604051638b5ccddf60e01b81526004810192909252602482015260016044820152606401610932565b82515f036137f65760405163fbab2f7560e01b81525f6004820152602401610932565b6001600160a01b038085165f908152601b60205260409020541661383057835f6040516279607960e21b81526004016109329291906159bf565b5f805b835181101561392057613864866105a3878481518110613855576138556159db565b60200260200101516002613d38565b6138b6578585828151811061387b5761387b6159db565b602090810291909101015160405163de84eec960e01b81526001600160a01b03909216600483015260248201525f6044820152606401610932565b8381815181106138c8576138c86159db565b60200260200101515f036138f157604051630ac862a960e01b81525f6004820152602401610932565b838181518110613903576139036159db565b6020026020010151826139169190615d50565b9150600101613833565b506001600160a01b038086165f908152601b60205260409081902054905163b703825960e01b815291169063b703825990613967908a908990899089908990600401615f4a565b6020604051808303815f875af1158015613983573d5f803e3d5ffd5b505050506040513d601f19601f820116820180604052508101906139a79190615bcc565b6139d05786858585855f604051637dc7d10160e11b815260040161093296959493929190615fa7565b5f6040518060200160405280876001600160a01b0316815250604051602001613a0591516001600160a01b0316815260200190565b60408051601f198184030181526060830182527f3846339d4d39a76fd554559ca1c53716bfb66f542f4b8c5b7517c56812d99c578352602083810182905283830187905291519093505f92613a5c9290910161600f565b60408051601f198184030181529181526001600160a01b03808a165f908152601c6020529190912054919250613a97918b9116888885610c2f565b613aac886001600160a01b0389168587613652565b505050505050505050565b5f805f84600f0b128015613ace5750826001166001145b90505f8085600f0b12613ae15784613ae5565b845f035b6001600160801b03169050600160801b680100000000000000008211613b7f57603f82901b91505b8415613b77576001851615613b22578102607f1c5b908002607f1c906002851615613b38578102607f1c5b908002607f1c906004851615613b4e578102607f1c5b908002607f1c906008851615613b64578102607f1c5b60049490941c93908002607f1c90613b0d565b60401c613c91565b603f600160601b831015613b995760209290921b91601f19015b600160701b831015613bb15760109290921b91600f19015b600160781b831015613bc95760089290921b91600719015b6001607c1b831015613be15760049290921b91600319015b6001607e1b831015613bf95760029290921b91600119015b6001607f1b831015613c105760019290921b915f19015b5f5b8615613c7b5760408210613c24575f80fd5b6001871615613c4a57918302607f1c918101600160801b831115613c4a57600192831c92015b928002607f1c9260019190911b90600160801b8410613c6f57600193841c9391909101905b600187901c9650613c12565b60408110613c87575f80fd5b6040039190911c90505b5f83613c9d5781613ca1565b815f035b905060016001607f1b03198112801590613cc2575060016001607f1b038113155b613cca575f80fd5b9695505050505050565b5f815f03613ce357505f610719565b5f83600f0b1215613cf2575f80fd5b600f83900b6001600160801b038316810260401c90608084901c026001600160c01b03811115613d20575f80fd5b60401b8119811115613d30575f80fd5b019392505050565b5f6001600160a01b03831115613d6d5760405163a127935960e01b81526004810184905260ff83166024820152604401610932565b5090919050565b6001600160a01b038181165f908152601560209081526040808320815180830190925254938416808252600160a01b9094046001600160601b03169181019190915290918291829115801590613dd5575080516001600160a01b0316600114155b15613e0857805160405162e266bb60e31b81526001600160a01b0380881660048301529091166024820152604401610932565b4281602001516001600160601b0316610e10613e249190615d50565b1115613e39575f805f935093509350506114d5565b5f613e5d613e4a6212750042615c30565b83602001516001600160601b03166149b3565b90505f613e69826112d8565b6001600160401b031690505f613e7e426112d8565b6001600160401b031690505f613e948383615c30565b90505f613ed1610e105f548662015180613eae9190615b82565b613eb89190615d50565b613ec29088615c30565b613ecc9190615c43565b6149c2565b90505f613f20610e10425f54876001613eea9190615d50565b613ef79062015180615b82565b613f019190615d50565b613f0b9190615c30565b613f159190615c43565b613ecc906001615d50565b90505f613f61613f5b600986600f8110613f3c57613f3c6159db565b600291828204019190066010029054906101000a9004600f0b856149de565b83614a13565b9050613fac613f9b600186600f8110613f7c57613f7c6159db565b600291828204019190066010029054906101000a9004600f0b83614a44565b613fa76012600a615b74565b613cd4565b613fb884610e10613cd4565b613fc58862015180615b82565b5f54613fd19190615d50565b613fdb9190615d50565b613fe784610e10613cd4565b613ff48862015180615b82565b5f546140009190615d50565b61400d9062015180615d50565b6140179190615c30565b9a509a509a5050505050505050509193909250565b6001600160a01b0382166140545760405162ced3e160e81b81525f6004820152602401610932565b6001600160a01b038381165f81815260136020908152604080832094871680845294825291829020805460ff191686151590811790915591519182527f17307eab39ab6107e8899845ad3d59bd9653f200f220920489ca2b5937696c319101613790565b5f815f036140c7575081610719565b5f61131183614a75565b6001600160a01b038181165f908152601a6020526040902054161561410d57805f604051636b76a94560e11b81526004016109329291906159bf565b601a6020527ff88cd8d612926ebb404e40725c01084b6e9b3ce0344cde068570342cbd448c6180546001600160a01b039283165f818152604081208054959093166001600160a01b031995861617909255600190915281549092169091179055565b6001600160a01b03841661419857604051632bfa23e760e11b81525f6004820152602401610932565b6001600160a01b0385166141c057604051626a0d4560e21b81525f6004820152602401610932565b604080516001808252602082018690528183019081526060820185905260808201909252906119d68787848487614799565b5f8181526011602090815260408083206001600160a01b038616845282528083208151808301909252546001600160c01b038116808352600160c01b9091046001600160401b0316928201839052909161131d9190614ace565b5f80805b83811015614360575f601a8187878581811061426e5761426e6159db565b9050602002016020810190614283919061505d565b6001600160a01b03908116825260208201929092526040015f205416036142e657816142ae81615d63565b9250506142e08585838181106142c6576142c66159db565b90506020020160208101906142db919061505d565b6134fd565b50614358565b6143108585838181106142fb576142fb6159db565b90506020020160208101906106ff919061505d565b61435857848482818110614326576143266159db565b905060200201602081019061433b919061505d565b600560405163a1c62ce960e01b81526004016109329291906159bf565b600101614250565b509392505050565b80518251146143975781518151604051635b05999160e01b815260048101929092526024820152604401610932565b335f6143a2426112d8565b90505f5b84518110156144aa576020818102868101820151908601909101516001600160a01b03891615614485575f806143dd8b8588611a1e565b9150915082821015614422576040516303dee4c560e01b81526001600160a01b038c166004820152602481018390526044810184905260648101859052608401610932565b80156144745760408051858152602081018390525f916001600160a01b038e811692908b16917fc3d58168c5ae7397731d063d5bbf3d657854427343f4c083240f7aacaa2d0f62910160405180910390a45b6144828b8585850389614ae3565b50505b6001600160a01b038816156144a0576144a088838387614b79565b50506001016143a6565b50835160010361452a5760208401515f906020850151909150866001600160a01b0316886001600160a01b0316856001600160a01b03167fc3d58168c5ae7397731d063d5bbf3d657854427343f4c083240f7aacaa2d0f62858560405161451b929190918252602082015260400190565b60405180910390a45050610c8e565b846001600160a01b0316866001600160a01b0316836001600160a01b03167f4a39dc06d4c0dbc64b70af90fd698a233a518aa5d07e595d983b8c0526c8f7fb87876040516108f7929190615efd565b6001600160a01b038416156134f657825133906001036145b257602084810151908401516145ab838989858589614d1f565b5050610c8e565b610c8e818787878787614e40565b60405163146924ff60e11b81526001600160a01b0382811660048301525f9182917f000000000000000000000000000000000000000000000000000000000000000016906328d249fe90602401602060405180830381865afa158015614628573d5f803e3d5ffd5b505050506040513d601f19601f8201168201806040525081019061464c9190615c9b565b90506001600160a01b03811661466457505f92915050565b806001600160a01b03166375f12b216040518163ffffffff1660e01b8152600401602060405180830381865afa1580156146a0573d5f803e3d5ffd5b505050506040513d601f19601f820116820180604052508101906146c49190615bcc565b156107195750600192915050565b6001600160a01b038281165f9081526015602090815260408083208151808301909252549384168152600160a01b9093046001600160601b031690830181905290036147335760405163141f8e8f60e21b81525f6004820152602401610932565b816001600160a01b0316815f01516001600160a01b03161461339e576001600160a01b0380831682526001600160601b0342811660208085019182528684165f90815260159091526040902084519151909216600160a01b029216919091179055505050565b6147a585858585614368565b6134f68585858585614579565b6001600160a01b0383166147da57604051626a0d4560e21b81525f6004820152602401610932565b604080516001808252602082018590528183019081526060820184905260a082019092525f608082018181529192916134f691879185908590614799565b6001600160a01b03841661484157604051632bfa23e760e11b81525f6004820152602401610932565b60408051600180825260208201869052818301908152606082018590526080820190925290610c8e5f87848487614799565b6001600160a01b03831661489d5760405163141f8e8f60e21b815260016004820152602401610932565b6001600160a01b0382166148c75760405163141f8e8f60e21b815260026004820152602401610932565b5f196001600160a01b038316016148f45760405163141f8e8f60e21b815260036004820152602401610932565b6001600160a01b038084165f908152601d6020908152604080832060018452909152902080549091166149335780546001600160a01b03191660011781555b6001600160a01b038085165f908152601d6020908152604080832087851684529091529020805490911661498957815481546001600160a01b039182166001600160a01b03199182161783558354169085161782555b80546001600160601b03909316600160a01b026001600160a01b0390931692909217909155505050565b5f81831015613d6d57816119ea565b5f677fffffffffffffff8211156149d7575f80fd5b5060401b90565b5f600f83810b9083900b0260401d60016001607f1b03198112801590614a0b575060016001607f1b038113155b6119ea575f80fd5b5f600f83810b9083900b0160016001607f1b03198112801590614a0b575060016001607f1b038113156119ea575f80fd5b5f600f82810b9084900b0360016001607f1b03198112801590614a0b575060016001607f1b038113156119ea575f80fd5b5f600e8211614abc575f600983600f8110614a9257614a926159db565b60028104919091015460019091166010026101000a9004600f0b90508015614aba5792915050565b505b61071967fff2fae779633d1e83613ab7565b5f806113116801000d05c213d3f23784613ab7565b6001600160c01b03821115614b13578383835f6040516345430d1b60e11b81526004016109329493929190615f21565b5f9283526011602090815260408085206001600160a01b0390961680865286835281862082518084019093526001600160c01b0395861683526001600160401b03948516838501908152919096529590915251935116600160c01b029216919091179055565b5f8381526011602090815260408083206001600160a01b03881684528252918290208251808401909352546001600160c01b03811683526001600160401b03600160c01b909104811691830182905283161015614bf7576020810151604051630f6b717f60e41b815261093291879187918691600190600401615cf0565b5f816020015183036001600160401b031690505f614c21835f01516001600160c01b0316836140b8565b83519091506001600160c01b0316818103908214614c825760408051888152602081018390525f916001600160a01b038b169133917fc3d58168c5ae7397731d063d5bbf3d657854427343f4c083240f7aacaa2d0f62910160405180910390a45b505f614c8e8683615d50565b90506001600160c01b03811115614cc15787878260016040516345430d1b60e11b81526004016109329493929190615f21565b6001600160c01b0390811684526001600160401b0394851660208086019182525f988952601181526040808a206001600160a01b03909b168a529990529790962092519651909316600160c01b029590941694909417909355505050565b6001600160a01b0384163b15610c8e5760405163f23a6e6160e01b81526001600160a01b0385169063f23a6e6190614d639089908990889088908890600401616051565b6020604051808303815f875af1925050508015614d9d575060408051601f3d908101601f19168201909252614d9a9181019061608a565b60015b614e04573d808015614dca576040519150601f19603f3d011682016040523d82523d5f602084013e614dcf565b606091505b5080515f03614dfc57604051632bfa23e760e11b81526001600160a01b0386166004820152602401610932565b805181602001fd5b6001600160e01b0319811663f23a6e6160e01b146119d657604051632bfa23e760e11b81526001600160a01b0386166004820152602401610932565b6001600160a01b0384163b15610c8e5760405163bc197c8160e01b81526001600160a01b0385169063bc197c8190614e849089908990889088908890600401615f4a565b6020604051808303815f875af1925050508015614ebe575060408051601f3d908101601f19168201909252614ebb9181019061608a565b60015b614eeb573d808015614dca576040519150601f19603f3d011682016040523d82523d5f602084013e614dcf565b6001600160e01b0319811663bc197c8160e01b146119d657604051632bfa23e760e11b81526001600160a01b0386166004820152602401610932565b6001600160a01b03811681146133da575f80fd5b5f8060408385031215614f4c575f80fd5b8235614f5781614f27565b946020939093013593505050565b6001600160e01b0319811681146133da575f80fd5b5f60208284031215614f8a575f80fd5b81356119ea81614f65565b5f8083601f840112614fa5575f80fd5b5081356001600160401b03811115614fbb575f80fd5b602083019150836020828501011115614fd2575f80fd5b9250929050565b5f805f805f8060808789031215614fee575f80fd5b8635614ff981614f27565b955060208701356001600160401b0380821115615014575f80fd5b6150208a838b01614f95565b90975095506040890135915080821115615038575f80fd5b5061504589828a01614f95565b979a9699509497949695606090950135949350505050565b5f6020828403121561506d575f80fd5b81356119ea81614f27565b5f8083601f840112615088575f80fd5b5081356001600160401b0381111561509e575f80fd5b6020830191508360208260051b8501011115614fd2575f80fd5b5f805f805f805f806080898b0312156150cf575f80fd5b88356001600160401b03808211156150e5575f80fd5b6150f18c838d01615078565b909a50985060208b0135915080821115615109575f80fd5b818b0191508b601f83011261511c575f80fd5b81358181111561512a575f80fd5b8c60208260061b850101111561513e575f80fd5b6020830198508097505060408b013591508082111561515b575f80fd5b6151678c838d01615078565b909650945060608b013591508082111561517f575f80fd5b5061518c8b828c01614f95565b999c989b5096995094979396929594505050565b5f602082840312156151b0575f80fd5b5035919050565b5f81518084528060208401602086015e5f602082860101526020601f19601f83011685010191505092915050565b602081525f6119ea60208301846151b7565b634e487b7160e01b5f52604160045260245ffd5b604051601f8201601f191681016001600160401b0381118282101715615233576152336151f7565b604052919050565b5f6001600160401b03821115615253576152536151f7565b5060051b60200190565b5f82601f83011261526c575f80fd5b8135602061528161527c8361523b565b61520b565b8083825260208201915060208460051b8701019350868411156152a2575f80fd5b602086015b848110156152be57803583529183019183016152a7565b509695505050505050565b5f82601f8301126152d8575f80fd5b81356001600160401b038111156152f1576152f16151f7565b615304601f8201601f191660200161520b565b818152846020838601011115615318575f80fd5b816020850160208301375f918101602001919091529392505050565b5f805f805f60a08688031215615348575f80fd5b853561535381614f27565b9450602086013561536381614f27565b935060408601356001600160401b038082111561537e575f80fd5b61538a89838a0161525d565b9450606088013591508082111561539f575f80fd5b6153ab89838a0161525d565b935060808801359150808211156153c0575f80fd5b506153cd888289016152c9565b9150509295509295909350565b5f80604083850312156153eb575f80fd5b82356001600160401b0380821115615401575f80fd5b818501915085601f830112615414575f80fd5b8135602061542461527c8361523b565b82815260059290921b84018101918181019089841115615442575f80fd5b948201945b8386101561546957853561545a81614f27565b82529482019490820190615447565b9650508601359250508082111561547e575f80fd5b5061548b8582860161525d565b9150509250929050565b5f815180845260208085019450602084015f5b838110156154c4578151875295820195908201906001016154a8565b509495945050505050565b602081525f6119ea6020830184615495565b5f80604083850312156154f2575f80fd5b82356154fd81614f27565b9150602083013561550d81614f27565b809150509250929050565b5f805f805f805f6080888a03121561552e575f80fd5b873561553981614f27565b965060208801356001600160401b0380821115615554575f80fd5b6155608b838c01615078565b909850965060408a0135915080821115615578575f80fd5b6155848b838c01615078565b909650945060608a013591508082111561559c575f80fd5b506155a98a828b01614f95565b989b979a50959850939692959293505050565b80356001600160401b03811681146155d2575f80fd5b919050565b5f80604083850312156155e8575f80fd5b82356001600160401b038111156155fd575f80fd5b6156098582860161525d565b925050615618602084016155bc565b90509250929050565b5f8060408385031215615632575f80fd5b823561563d81614f27565b915060208301356001600160601b038116811461550d575f80fd5b5f805f806060858703121561566b575f80fd5b843593506020850135925060408501356001600160401b0381111561568e575f80fd5b61569a87828801614f95565b95989497509550505050565b5f80604083850312156156b7575f80fd5b82359150615618602084016155bc565b5f805f805f805f60a0888a0312156156dd575f80fd5b87356156e881614f27565b965060208801356156f881614f27565b955060408801356001600160401b0380821115615713575f80fd5b61571f8b838c01614f95565b909750955060608a0135915080821115615737575f80fd5b506157448a828b01614f95565b989b979a50959894979596608090950135949350505050565b80151581146133da575f80fd5b5f806040838503121561577b575f80fd5b823561578681614f27565b9150602083013561550d8161575d565b5f805f606084860312156157a8575f80fd5b83356157b381614f27565b9250602084013591506040840135600281106157cd575f80fd5b809150509250925092565b5f805f604084860312156157ea575f80fd5b83356001600160401b038111156157ff575f80fd5b61580b86828701614f95565b909790965060209590950135949350505050565b5f805f805f60a08688031215615833575f80fd5b853561583e81614f27565b9450602086013561584e81614f27565b9350604086013592506060860135915060808601356001600160401b03811115615876575f80fd5b6153cd888289016152c9565b5f805f60608486031215615894575f80fd5b833561589f81614f27565b9250602084013591506158b4604085016155bc565b90509250925092565b5f805f805f606086880312156158d1575f80fd5b85356158dc81614f27565b945060208601356001600160401b03808211156158f7575f80fd5b61590389838a01615078565b9096509450604088013591508082111561591b575f80fd5b5061592888828901615078565b969995985093965092949392505050565b81835281816020850137505f828201602090810191909152601f909101601f19169091010190565b6001600160a01b03841681526040602082018190525f906159859083018486615939565b95945050505050565b604081525f6159a1604083018688615939565b82810360208401526159b4818587615939565b979650505050505050565b6001600160a01b0392909216825260ff16602082015260400190565b634e487b7160e01b5f52603260045260245ffd5b5f8235605e19833603018112615a03575f80fd5b9190910192915050565b5f60208284031215615a1d575f80fd5b813561ffff811681146119ea575f80fd5b634e487b7160e01b5f52601160045260245ffd5b5f61ffff808316818103615a5857615a58615a2e565b6001019392505050565b600181811c90821680615a7657607f821691505b60208210810361357a57634e487b7160e01b5f52602260045260245ffd5b600181815b80851115615ace57815f1904821115615ab457615ab4615a2e565b80851615615ac157918102915b93841c9390800290615a99565b509250929050565b5f82615ae457506001610719565b81615af057505f610719565b8160018114615b065760028114615b1057615b2c565b6001915050610719565b60ff841115615b2157615b21615a2e565b50506001821b610719565b5060208310610133831016604e8410600b8410161715615b4f575081810a610719565b615b598383615a94565b805f1904821115615b6c57615b6c615a2e565b029392505050565b5f6119ea60ff841683615ad6565b808202811582820484141761071957610719615a2e565b6001600160a01b03868116825285166020820152604081018490526080606082018190525f906159b49083018486615939565b5f60208284031215615bdc575f80fd5b81516119ea8161575d565b6001600160a01b038781168252861660208201526040810185905260a0606082018190525f90615c1a9083018587615939565b905060ff83166080830152979650505050505050565b8181038181111561071957610719615a2e565b5f82615c5d57634e487b7160e01b5f52601260045260245ffd5b500490565b6001600160a01b03831681526040810160028310615c8e57634e487b7160e01b5f52602160045260245ffd5b8260208301529392505050565b5f60208284031215615cab575f80fd5b81516119ea81614f27565b6001600160401b03828116828216039080821115615cd657615cd6615a2e565b5092915050565b602081525f61131d602083018486615939565b6001600160a01b0395909516855260208501939093526001600160401b03918216604085015216606083015260ff16608082015260a00190565b604081525f615d3d604083018587615939565b905060ff83166020830152949350505050565b8082018082111561071957610719615a2e565b5f60018201615d7457615d74615a2e565b5060010190565b6001600160401b03818116838216019080821115615cd657615cd6615a2e565b5f6001600160401b03808316818103615a5857615a58615a2e565b61ffff818116838216019080821115615cd657615cd6615a2e565b5f60208284031215615de1575f80fd5b81356001600160c01b03811681146119ea575f80fd5b8181035f831280158383131683831282161715615cd657615cd6615a2e565b8082018281125f831280158216821582161715615e3557615e35615a2e565b505092915050565b61ffff828116828216039080821115615cd657615cd6615a2e565b5f808335601e19843603018112615e6d575f80fd5b8301803591506001600160401b03821115615e86575f80fd5b6020019150600581901b3603821315614fd2575f80fd5b61ffff818116838216028082169190828114615e3557615e35615a2e565b5f808335601e19843603018112615ed0575f80fd5b8301803591506001600160401b03821115615ee9575f80fd5b602001915036819003821315614fd2575f80fd5b604081525f615f0f6040830185615495565b82810360208401526159858185615495565b6001600160a01b039490941684526020840192909252604083015260ff16606082015260800190565b6001600160a01b0386811682528516602082015260a0604082018190525f90615f7590830186615495565b8281036060840152615f878186615495565b90508281036080840152615f9b81856151b7565b98975050505050505050565b6001600160a01b0387811682528616602082015260c0604082018190525f90615fd290830187615495565b8281036060840152615fe48187615495565b90508281036080840152615ff881866151b7565b91505060ff831660a0830152979650505050505050565b60208152815160208201525f60208301516060604084015261603460808401826151b7565b90506040840151601f1984830301606085015261598582826151b7565b6001600160a01b03868116825285166020820152604081018490526060810183905260a0608082018190525f906159b4908301846151b7565b5f6020828403121561609a575f80fd5b81516119ea81614f6556fea2646970667358221220360a5efc04c4a648689dd1d1f147868854aaf69a6f99073da3769b0f475162e564736f6c63430008190033","linkReferences":{}},"methodIdentifiers":{"avatars(address)":"edeeb93c","balanceOf(address,uint256)":"00fdd58e","balanceOfBatch(address[],uint256[])":"4e1273f4","balanceOfOnDay(address,uint256,uint64)":"eb8c2760","burn(uint256,uint256,bytes)":"80a5a371","calculateIssuance(address)":"f179c713","calculateIssuanceWithCheck(address)":"9cd02313","convertBatchInflationaryToDemurrageValues(uint256[],uint64)":"7421c1d7","convertInflationaryToDemurrageValue(uint256,uint64)":"99342aa3","day(uint256)":"8ff12b6d","groupMint(address,address[],uint256[],bytes)":"6cb498e5","inflationDayZero()":"7c234d01","inflationaryBalanceOf(address,uint256)":"e55abe9e","inviteHuman(address)":"6247899b","isApprovedForAll(address,address)":"e985e9c5","isGroup(address)":"9e0cc3c4","isHuman(address)":"f72c436f","isOrganization(address)":"b1ce8eab","isPermittedFlow(address,address)":"a3d99b6c","isTrusted(address,address)":"6713e230","migrate(address,address[],uint256[])":"f3177079","mintPolicies(address)":"da33e065","operateFlowMatrix(address[],(uint16,uint192)[],(uint16,uint16[],bytes)[],bytes)":"0d22d9b5","personalMint()":"0d873a79","registerCustomGroup(address,address,string,string,bytes32)":"9bec5726","registerGroup(address,string,string,bytes32)":"0528f507","registerHuman(bytes32)":"aeefe51b","registerOrganization(string,bytes32)":"bfde380d","safeBatchTransferFrom(address,address,uint256[],uint256[],bytes)":"2eb2c2d6","safeInflationaryBatchTransferFrom(address,address,uint256[],uint256[],bytes)":"62a810c0","safeInflationaryTransferFrom(address,address,uint256,uint256,bytes)":"c9f18648","safeTransferFrom(address,address,uint256,uint256,bytes)":"f242432a","setApprovalForAll(address,bool)":"a22cb465","stop()":"07da68f5","stopped(address)":"47df87ab","supportsInterface(bytes4)":"01ffc9a7","toTokenId(address)":"7cf637cd","totalSupply(uint256)":"bd85b039","treasuries(address)":"0849b234","trust(address,uint96)":"75dcebc7","trustMarkers(address,address)":"7cd0cea6","uri(uint256)":"0e89341c","wrap(address,uint256,uint8)":"aabd6954"},"id":48}