{"abi":[{"type":"constructor","inputs":[{"name":"_hubV1","type":"address","internalType":"contract IHubV1"},{"name":"_nameRegistry","type":"address","internalType":"contract INameRegistry"},{"name":"_migration","type":"address","internalType":"address"},{"name":"_liftERC20","type":"address","internalType":"contract IERC20Lift"},{"name":"_standardTreasury","type":"address","internalType":"address"},{"name":"_inflationDayZero","type":"uint256","internalType":"uint256"},{"name":"_bootstrapTime","type":"uint256","internalType":"uint256"},{"name":"_gatewayUrl","type":"string","internalType":"string"}],"stateMutability":"nonpayable"},{"type":"function","name":"avatars","inputs":[{"name":"","type":"address","internalType":"address"}],"outputs":[{"name":"","type":"address","internalType":"address"}],"stateMutability":"view"},{"type":"function","name":"balanceOf","inputs":[{"name":"_account","type":"address","internalType":"address"},{"name":"_id","type":"uint256","internalType":"uint256"}],"outputs":[{"name":"","type":"uint256","internalType":"uint256"}],"stateMutability":"view"},{"type":"function","name":"balanceOfBatch","inputs":[{"name":"_accounts","type":"address[]","internalType":"address[]"},{"name":"_ids","type":"uint256[]","internalType":"uint256[]"}],"outputs":[{"name":"","type":"uint256[]","internalType":"uint256[]"}],"stateMutability":"view"},{"type":"function","name":"balanceOfOnDay","inputs":[{"name":"_account","type":"address","internalType":"address"},{"name":"_id","type":"uint256","internalType":"uint256"},{"name":"_day","type":"uint64","internalType":"uint64"}],"outputs":[{"name":"balanceOnDay_","type":"uint256","internalType":"uint256"},{"name":"discountCost_","type":"uint256","internalType":"uint256"}],"stateMutability":"view"},{"type":"function","name":"burn","inputs":[{"name":"_id","type":"uint256","internalType":"uint256"},{"name":"_amount","type":"uint256","internalType":"uint256"},{"name":"_data","type":"bytes","internalType":"bytes"}],"outputs":[],"stateMutability":"nonpayable"},{"type":"function","name":"calculateIssuance","inputs":[{"name":"_human","type":"address","internalType":"address"}],"outputs":[{"name":"","type":"uint256","internalType":"uint256"},{"name":"","type":"uint256","internalType":"uint256"},{"name":"","type":"uint256","internalType":"uint256"}],"stateMutability":"view"},{"type":"function","name":"calculateIssuanceWithCheck","inputs":[{"name":"_human","type":"address","internalType":"address"}],"outputs":[{"name":"","type":"uint256","internalType":"uint256"},{"name":"","type":"uint256","internalType":"uint256"},{"name":"","type":"uint256","internalType":"uint256"}],"stateMutability":"nonpayable"},{"type":"function","name":"convertBatchInflationaryToDemurrageValues","inputs":[{"name":"_inflationaryValues","type":"uint256[]","internalType":"uint256[]"},{"name":"_day","type":"uint64","internalType":"uint64"}],"outputs":[{"name":"","type":"uint256[]","internalType":"uint256[]"}],"stateMutability":"pure"},{"type":"function","name":"convertInflationaryToDemurrageValue","inputs":[{"name":"_inflationaryValue","type":"uint256","internalType":"uint256"},{"name":"_day","type":"uint64","internalType":"uint64"}],"outputs":[{"name":"","type":"uint256","internalType":"uint256"}],"stateMutability":"pure"},{"type":"function","name":"day","inputs":[{"name":"_timestamp","type":"uint256","internalType":"uint256"}],"outputs":[{"name":"","type":"uint64","internalType":"uint64"}],"stateMutability":"view"},{"type":"function","name":"groupMint","inputs":[{"name":"_group","type":"address","internalType":"address"},{"name":"_collateralAvatars","type":"address[]","internalType":"address[]"},{"name":"_amounts","type":"uint256[]","internalType":"uint256[]"},{"name":"_data","type":"bytes","internalType":"bytes"}],"outputs":[],"stateMutability":"nonpayable"},{"type":"function","name":"inflationDayZero","inputs":[],"outputs":[{"name":"","type":"uint256","internalType":"uint256"}],"stateMutability":"view"},{"type":"function","name":"inviteHuman","inputs":[{"name":"_human","type":"address","internalType":"address"}],"outputs":[],"stateMutability":"nonpayable"},{"type":"function","name":"isApprovedForAll","inputs":[{"name":"_account","type":"address","internalType":"address"},{"name":"_operator","type":"address","internalType":"address"}],"outputs":[{"name":"","type":"bool","internalType":"bool"}],"stateMutability":"view"},{"type":"function","name":"isGroup","inputs":[{"name":"_group","type":"address","internalType":"address"}],"outputs":[{"name":"","type":"bool","internalType":"bool"}],"stateMutability":"view"},{"type":"function","name":"isHuman","inputs":[{"name":"_human","type":"address","internalType":"address"}],"outputs":[{"name":"","type":"bool","internalType":"bool"}],"stateMutability":"view"},{"type":"function","name":"isOrganization","inputs":[{"name":"_organization","type":"address","internalType":"address"}],"outputs":[{"name":"","type":"bool","internalType":"bool"}],"stateMutability":"view"},{"type":"function","name":"isPermittedFlow","inputs":[{"name":"_to","type":"address","internalType":"address"},{"name":"_circlesAvatar","type":"address","internalType":"address"}],"outputs":[{"name":"","type":"bool","internalType":"bool"}],"stateMutability":"view"},{"type":"function","name":"isTrusted","inputs":[{"name":"_truster","type":"address","internalType":"address"},{"name":"_trustee","type":"address","internalType":"address"}],"outputs":[{"name":"","type":"bool","internalType":"bool"}],"stateMutability":"view"},{"type":"function","name":"migrate","inputs":[{"name":"_owner","type":"address","internalType":"address"},{"name":"_avatars","type":"address[]","internalType":"address[]"},{"name":"_amounts","type":"uint256[]","internalType":"uint256[]"}],"outputs":[],"stateMutability":"nonpayable"},{"type":"function","name":"mintPolicies","inputs":[{"name":"","type":"address","internalType":"address"}],"outputs":[{"name":"","type":"address","internalType":"address"}],"stateMutability":"view"},{"type":"function","name":"name","inputs":[],"outputs":[{"name":"","type":"string","internalType":"string"}],"stateMutability":"view"},{"type":"function","name":"operateFlowMatrix","inputs":[{"name":"_flowVertices","type":"address[]","internalType":"address[]"},{"name":"_flow","type":"tuple[]","internalType":"struct TypeDefinitions.FlowEdge[]","components":[{"name":"streamSinkId","type":"uint16","internalType":"uint16"},{"name":"amount","type":"uint192","internalType":"uint192"}]},{"name":"_streams","type":"tuple[]","internalType":"struct TypeDefinitions.Stream[]","components":[{"name":"sourceCoordinate","type":"uint16","internalType":"uint16"},{"name":"flowEdgeIds","type":"uint16[]","internalType":"uint16[]"},{"name":"data","type":"bytes","internalType":"bytes"}]},{"name":"_packedCoordinates","type":"bytes","internalType":"bytes"}],"outputs":[],"stateMutability":"nonpayable"},{"type":"function","name":"personalMint","inputs":[],"outputs":[],"stateMutability":"nonpayable"},{"type":"function","name":"registerCustomGroup","inputs":[{"name":"_mint","type":"address","internalType":"address"},{"name":"_treasury","type":"address","internalType":"address"},{"name":"_name","type":"string","internalType":"string"},{"name":"_symbol","type":"string","internalType":"string"},{"name":"_metadataDigest","type":"bytes32","internalType":"bytes32"}],"outputs":[],"stateMutability":"nonpayable"},{"type":"function","name":"registerGroup","inputs":[{"name":"_mint","type":"address","internalType":"address"},{"name":"_name","type":"string","internalType":"string"},{"name":"_symbol","type":"string","internalType":"string"},{"name":"_metadataDigest","type":"bytes32","internalType":"bytes32"}],"outputs":[],"stateMutability":"nonpayable"},{"type":"function","name":"registerHuman","inputs":[{"name":"_metadataDigest","type":"bytes32","internalType":"bytes32"}],"outputs":[],"stateMutability":"nonpayable"},{"type":"function","name":"registerOrganization","inputs":[{"name":"_name","type":"string","internalType":"string"},{"name":"_metadataDigest","type":"bytes32","internalType":"bytes32"}],"outputs":[],"stateMutability":"nonpayable"},{"type":"function","name":"safeBatchTransferFrom","inputs":[{"name":"_from","type":"address","internalType":"address"},{"name":"_to","type":"address","internalType":"address"},{"name":"_ids","type":"uint256[]","internalType":"uint256[]"},{"name":"_values","type":"uint256[]","internalType":"uint256[]"},{"name":"_data","type":"bytes","internalType":"bytes"}],"outputs":[],"stateMutability":"nonpayable"},{"type":"function","name":"safeTransferFrom","inputs":[{"name":"_from","type":"address","internalType":"address"},{"name":"_to","type":"address","internalType":"address"},{"name":"_id","type":"uint256","internalType":"uint256"},{"name":"_value","type":"uint256","internalType":"uint256"},{"name":"_data","type":"bytes","internalType":"bytes"}],"outputs":[],"stateMutability":"nonpayable"},{"type":"function","name":"setApprovalForAll","inputs":[{"name":"_operator","type":"address","internalType":"address"},{"name":"_approved","type":"bool","internalType":"bool"}],"outputs":[],"stateMutability":"nonpayable"},{"type":"function","name":"stop","inputs":[],"outputs":[],"stateMutability":"nonpayable"},{"type":"function","name":"stopped","inputs":[{"name":"_human","type":"address","internalType":"address"}],"outputs":[{"name":"","type":"bool","internalType":"bool"}],"stateMutability":"view"},{"type":"function","name":"supportsInterface","inputs":[{"name":"_interfaceId","type":"bytes4","internalType":"bytes4"}],"outputs":[{"name":"","type":"bool","internalType":"bool"}],"stateMutability":"view"},{"type":"function","name":"symbol","inputs":[],"outputs":[{"name":"","type":"string","internalType":"string"}],"stateMutability":"view"},{"type":"function","name":"toTokenId","inputs":[{"name":"_avatar","type":"address","internalType":"address"}],"outputs":[{"name":"","type":"uint256","internalType":"uint256"}],"stateMutability":"pure"},{"type":"function","name":"totalSupply","inputs":[{"name":"_id","type":"uint256","internalType":"uint256"}],"outputs":[{"name":"","type":"uint256","internalType":"uint256"}],"stateMutability":"view"},{"type":"function","name":"treasuries","inputs":[{"name":"","type":"address","internalType":"address"}],"outputs":[{"name":"","type":"address","internalType":"address"}],"stateMutability":"view"},{"type":"function","name":"trust","inputs":[{"name":"_trustReceiver","type":"address","internalType":"address"},{"name":"_expiry","type":"uint96","internalType":"uint96"}],"outputs":[],"stateMutability":"nonpayable"},{"type":"function","name":"trustMarkers","inputs":[{"name":"","type":"address","internalType":"address"},{"name":"","type":"address","internalType":"address"}],"outputs":[{"name":"previous","type":"address","internalType":"address"},{"name":"expiry","type":"uint96","internalType":"uint96"}],"stateMutability":"view"},{"type":"function","name":"uri","inputs":[{"name":"","type":"uint256","internalType":"uint256"}],"outputs":[{"name":"","type":"string","internalType":"string"}],"stateMutability":"view"},{"type":"function","name":"wrap","inputs":[{"name":"_avatar","type":"address","internalType":"address"},{"name":"_amount","type":"uint256","internalType":"uint256"},{"name":"_type","type":"uint8","internalType":"enum CirclesType"}],"outputs":[{"name":"","type":"address","internalType":"address"}],"stateMutability":"nonpayable"},{"type":"event","name":"ApprovalForAll","inputs":[{"name":"account","type":"address","indexed":true,"internalType":"address"},{"name":"operator","type":"address","indexed":true,"internalType":"address"},{"name":"approved","type":"bool","indexed":false,"internalType":"bool"}],"anonymous":false},{"type":"event","name":"InviteHuman","inputs":[{"name":"inviter","type":"address","indexed":true,"internalType":"address"},{"name":"invited","type":"address","indexed":true,"internalType":"address"}],"anonymous":false},{"type":"event","name":"PersonalMint","inputs":[{"name":"human","type":"address","indexed":true,"internalType":"address"},{"name":"amount","type":"uint256","indexed":false,"internalType":"uint256"},{"name":"startPeriod","type":"uint256","indexed":false,"internalType":"uint256"},{"name":"endPeriod","type":"uint256","indexed":false,"internalType":"uint256"}],"anonymous":false},{"type":"event","name":"RegisterGroup","inputs":[{"name":"group","type":"address","indexed":true,"internalType":"address"},{"name":"mint","type":"address","indexed":true,"internalType":"address"},{"name":"treasury","type":"address","indexed":true,"internalType":"address"},{"name":"name","type":"string","indexed":false,"internalType":"string"},{"name":"symbol","type":"string","indexed":false,"internalType":"string"}],"anonymous":false},{"type":"event","name":"RegisterHuman","inputs":[{"name":"avatar","type":"address","indexed":true,"internalType":"address"}],"anonymous":false},{"type":"event","name":"RegisterOrganization","inputs":[{"name":"organization","type":"address","indexed":true,"internalType":"address"},{"name":"name","type":"string","indexed":false,"internalType":"string"}],"anonymous":false},{"type":"event","name":"Stopped","inputs":[{"name":"avatar","type":"address","indexed":true,"internalType":"address"}],"anonymous":false},{"type":"event","name":"StreamCompleted","inputs":[{"name":"operator","type":"address","indexed":true,"internalType":"address"},{"name":"from","type":"address","indexed":true,"internalType":"address"},{"name":"to","type":"address","indexed":true,"internalType":"address"},{"name":"ids","type":"uint256[]","indexed":false,"internalType":"uint256[]"},{"name":"amounts","type":"uint256[]","indexed":false,"internalType":"uint256[]"}],"anonymous":false},{"type":"event","name":"TransferBatch","inputs":[{"name":"operator","type":"address","indexed":true,"internalType":"address"},{"name":"from","type":"address","indexed":true,"internalType":"address"},{"name":"to","type":"address","indexed":true,"internalType":"address"},{"name":"ids","type":"uint256[]","indexed":false,"internalType":"uint256[]"},{"name":"values","type":"uint256[]","indexed":false,"internalType":"uint256[]"}],"anonymous":false},{"type":"event","name":"TransferSingle","inputs":[{"name":"operator","type":"address","indexed":true,"internalType":"address"},{"name":"from","type":"address","indexed":true,"internalType":"address"},{"name":"to","type":"address","indexed":true,"internalType":"address"},{"name":"id","type":"uint256","indexed":false,"internalType":"uint256"},{"name":"value","type":"uint256","indexed":false,"internalType":"uint256"}],"anonymous":false},{"type":"event","name":"Trust","inputs":[{"name":"truster","type":"address","indexed":true,"internalType":"address"},{"name":"trustee","type":"address","indexed":true,"internalType":"address"},{"name":"expiryTime","type":"uint256","indexed":false,"internalType":"uint256"}],"anonymous":false},{"type":"event","name":"URI","inputs":[{"name":"value","type":"string","indexed":false,"internalType":"string"},{"name":"id","type":"uint256","indexed":true,"internalType":"uint256"}],"anonymous":false},{"type":"error","name":"CirclesAddressCannotBeZero","inputs":[{"name":"code","type":"uint8","internalType":"uint8"}]},{"type":"error","name":"CirclesAmountMustNotBeZero","inputs":[{"name":"code","type":"uint8","internalType":"uint8"}]},{"type":"error","name":"CirclesAmountOverflow","inputs":[{"name":"amount","type":"uint256","internalType":"uint256"},{"name":"code","type":"uint8","internalType":"uint8"}]},{"type":"error","name":"CirclesArrayMustNotBeEmpty","inputs":[{"name":"code","type":"uint8","internalType":"uint8"}]},{"type":"error","name":"CirclesArraysLengthMismatch","inputs":[{"name":"lengthArray1","type":"uint256","internalType":"uint256"},{"name":"lengthArray2","type":"uint256","internalType":"uint256"},{"name":"code","type":"uint8","internalType":"uint8"}]},{"type":"error","name":"CirclesAvatarMustBeRegistered","inputs":[{"name":"avatar","type":"address","internalType":"address"},{"name":"code","type":"uint8","internalType":"uint8"}]},{"type":"error","name":"CirclesDemurrageAmountExceedsMaxUint190","inputs":[{"name":"account","type":"address","internalType":"address"},{"name":"circlesId","type":"uint256","internalType":"uint256"},{"name":"amount","type":"uint256","internalType":"uint256"},{"name":"code","type":"uint8","internalType":"uint8"}]},{"type":"error","name":"CirclesDemurrageDayBeforeLastUpdatedDay","inputs":[{"name":"account","type":"address","internalType":"address"},{"name":"circlesId","type":"uint256","internalType":"uint256"},{"name":"day","type":"uint64","internalType":"uint64"},{"name":"lastUpdatedDay","type":"uint64","internalType":"uint64"},{"name":"code","type":"uint8","internalType":"uint8"}]},{"type":"error","name":"CirclesERC1155CannotReceiveBatch","inputs":[{"name":"code","type":"uint8","internalType":"uint8"}]},{"type":"error","name":"CirclesERC1155MintBlocked","inputs":[{"name":"human","type":"address","internalType":"address"},{"name":"mintV1Status","type":"address","internalType":"address"}]},{"type":"error","name":"CirclesHubAvatarAlreadyRegistered","inputs":[{"name":"avatar","type":"address","internalType":"address"},{"name":"code","type":"uint8","internalType":"uint8"}]},{"type":"error","name":"CirclesHubFlowEdgeIsNotPermitted","inputs":[{"name":"receiver","type":"address","internalType":"address"},{"name":"circlesId","type":"uint256","internalType":"uint256"},{"name":"code","type":"uint8","internalType":"uint8"}]},{"type":"error","name":"CirclesHubFlowEdgeStreamMismatch","inputs":[{"name":"flowEdgeId","type":"uint16","internalType":"uint16"},{"name":"streamId","type":"uint16","internalType":"uint16"},{"name":"code","type":"uint8","internalType":"uint8"}]},{"type":"error","name":"CirclesHubFlowVerticesMustBeSorted","inputs":[]},{"type":"error","name":"CirclesHubGroupIsNotRegistered","inputs":[{"name":"group","type":"address","internalType":"address"},{"name":"code","type":"uint8","internalType":"uint8"}]},{"type":"error","name":"CirclesHubGroupMintPolicyRejectedBurn","inputs":[{"name":"burner","type":"address","internalType":"address"},{"name":"group","type":"address","internalType":"address"},{"name":"amount","type":"uint256","internalType":"uint256"},{"name":"data","type":"bytes","internalType":"bytes"},{"name":"code","type":"uint8","internalType":"uint8"}]},{"type":"error","name":"CirclesHubGroupMintPolicyRejectedMint","inputs":[{"name":"minter","type":"address","internalType":"address"},{"name":"group","type":"address","internalType":"address"},{"name":"collateral","type":"uint256[]","internalType":"uint256[]"},{"name":"amounts","type":"uint256[]","internalType":"uint256[]"},{"name":"data","type":"bytes","internalType":"bytes"},{"name":"code","type":"uint8","internalType":"uint8"}]},{"type":"error","name":"CirclesHubInvalidTrustReceiver","inputs":[{"name":"trustReceiver","type":"address","internalType":"address"},{"name":"code","type":"uint8","internalType":"uint8"}]},{"type":"error","name":"CirclesHubMustBeHuman","inputs":[{"name":"avatar","type":"address","internalType":"address"},{"name":"code","type":"uint8","internalType":"uint8"}]},{"type":"error","name":"CirclesHubNettedFlowMismatch","inputs":[{"name":"vertexPosition","type":"uint16","internalType":"uint16"},{"name":"matrixNettedFlow","type":"int256","internalType":"int256"},{"name":"streamNettedFlow","type":"int256","internalType":"int256"}]},{"type":"error","name":"CirclesHubOnlyDuringBootstrap","inputs":[{"name":"code","type":"uint8","internalType":"uint8"}]},{"type":"error","name":"CirclesHubOperatorNotApprovedForSource","inputs":[{"name":"operator","type":"address","internalType":"address"},{"name":"source","type":"address","internalType":"address"},{"name":"streamId","type":"uint16","internalType":"uint16"},{"name":"code","type":"uint8","internalType":"uint8"}]},{"type":"error","name":"CirclesHubRegisterAvatarV1MustBeStopped","inputs":[{"name":"avatar","type":"address","internalType":"address"},{"name":"code","type":"uint8","internalType":"uint8"}]},{"type":"error","name":"CirclesHubStreamMismatch","inputs":[{"name":"streamId","type":"uint16","internalType":"uint16"},{"name":"code","type":"uint8","internalType":"uint8"}]},{"type":"error","name":"CirclesIdMustBeDerivedFromAddress","inputs":[{"name":"providedId","type":"uint256","internalType":"uint256"},{"name":"code","type":"uint8","internalType":"uint8"}]},{"type":"error","name":"CirclesInvalidCirclesId","inputs":[{"name":"id","type":"uint256","internalType":"uint256"},{"name":"code","type":"uint8","internalType":"uint8"}]},{"type":"error","name":"CirclesInvalidFunctionCaller","inputs":[{"name":"caller","type":"address","internalType":"address"},{"name":"expectedCaller","type":"address","internalType":"address"},{"name":"code","type":"uint8","internalType":"uint8"}]},{"type":"error","name":"CirclesInvalidParameter","inputs":[{"name":"parameter","type":"uint256","internalType":"uint256"},{"name":"code","type":"uint8","internalType":"uint8"}]},{"type":"error","name":"CirclesInvalidString","inputs":[{"name":"str","type":"string","internalType":"string"},{"name":"code","type":"uint8","internalType":"uint8"}]},{"type":"error","name":"CirclesLogicAssertion","inputs":[{"name":"code","type":"uint8","internalType":"uint8"}]},{"type":"error","name":"CirclesProxyAlreadyInitialized","inputs":[]},{"type":"error","name":"CirclesReentrancyGuard","inputs":[{"name":"code","type":"uint8","internalType":"uint8"}]},{"type":"error","name":"ERC1155InsufficientBalance","inputs":[{"name":"sender","type":"address","internalType":"address"},{"name":"balance","type":"uint256","internalType":"uint256"},{"name":"needed","type":"uint256","internalType":"uint256"},{"name":"tokenId","type":"uint256","internalType":"uint256"}]},{"type":"error","name":"ERC1155InvalidApprover","inputs":[{"name":"approver","type":"address","internalType":"address"}]},{"type":"error","name":"ERC1155InvalidArrayLength","inputs":[{"name":"idsLength","type":"uint256","internalType":"uint256"},{"name":"valuesLength","type":"uint256","internalType":"uint256"}]},{"type":"error","name":"ERC1155InvalidOperator","inputs":[{"name":"operator","type":"address","internalType":"address"}]},{"type":"error","name":"ERC1155InvalidReceiver","inputs":[{"name":"receiver","type":"address","internalType":"address"}]},{"type":"error","name":"ERC1155InvalidSender","inputs":[{"name":"sender","type":"address","internalType":"address"}]},{"type":"error","name":"ERC1155MissingApprovalForAll","inputs":[{"name":"operator","type":"address","internalType":"address"},{"name":"owner","type":"address","internalType":"address"}]}],"bytecode":{"object":"0x6102a06040526818000000000000000060c0908152682ffec785b3614dbacc60e0526847fc56a0fe9220851661010052685ff8ad61c531c51ed4610120526877f3cbd7ea10a8394961014052688fedb2134f3060fc826101605268a7e66023d5c3bb8c4e6101805268bfddd6195e2ec38ca76101a05268d7d41403c806cea59c6101c05268efc919f2f2128706a76101e052690107bce7f6ba49f5e9836102005269011faf7e1efdd68e147261022052690137a0dc7b9913365c016102405269014f91031c678c54243d610260526901677ff21143ffd5e16361028052620000ec90600190600f6200055b565b5060408051808201909152600581526452696e677360d81b6020820152601690620001189082620006bd565b5060408051808201909152600481526352494e4760e01b6020820152601790620001439082620006bd565b5034801562000150575f80fd5b50604051620068ed380380620068ed8339810160408190526200017391620007a1565b828180825f5b600e60ff821611620001fd576200019c67fff2fae779633d1e60ff831662000305565b60098260ff16600f8110620001b557620001b5620008ed565b600291828204019190066010026101000a8154816001600160801b030219169083600f0b6001600160801b031602179055508080620001f49062000915565b91505062000179565b505f556200020b8162000549565b5050506001600160a01b0388166200023d576040516321efd2b360e01b81525f60048201526024015b60405180910390fd5b6001600160a01b03841662000269576040516321efd2b360e01b81526001600482015260240162000234565b60015f819052601c6020527f6de76108811faf2f94afbe5ac6c98e8393206cd093932de1fbfd61bbeec43a0280546001600160a01b031990811690921790556001600160a01b038981166080526018805483168a8316179055601980548316898316179055601a80548316888316179055601b8054909216908616179055620002f3824262000936565b60a052506200094c9650505050505050565b5f805f84600f0b1280156200031d5750826001166001145b90505f8085600f0b1262000332578462000336565b845f035b6001600160801b03169050600160801b680100000000000000008211620003d857603f82901b91505b8415620003cf57600185161562000376578102607f1c5b908002607f1c9060028516156200038d578102607f1c5b908002607f1c906004851615620003a4578102607f1c5b908002607f1c906008851615620003bb578102607f1c5b60049490941c93908002607f1c906200035f565b60401c62000500565b603f6c01000000000000000000000000831015620003fc5760209290921b91601f19015b600160701b831015620004155760109290921b91600f19015b600160781b8310156200042e5760089290921b91600719015b6001607c1b831015620004475760049290921b91600319015b6001607e1b831015620004605760029290921b91600119015b6001607f1b831015620004785760019290921b915f19015b5f5b8615620004e957604082106200048e575f80fd5b6001871615620004b657918302607f1c918101600160801b831115620004b657600192831c92015b928002607f1c9260019190911b90600160801b8410620004dc57600193841c9391909101905b600187901c96506200047a565b60408110620004f6575f80fd5b6040039190911c90505b5f836200050e578162000512565b815f035b905060016001607f1b0319811280159062000534575060016001607f1b038113155b6200053d575f80fd5b93505050505b92915050565b6014620005578282620006bd565b5050565b600883019183908215620005f7579160200282015f5b83821115620005c057835183826101000a8154816001600160801b030219169083600f0b6001600160801b031602179055509260200192601001602081600f0104928301926001030262000571565b8015620005f55782816101000a8154906001600160801b030219169055601001602081600f01049283019260010302620005c0565b505b506200060592915062000609565b5090565b5b8082111562000605575f81556001016200060a565b634e487b7160e01b5f52604160045260245ffd5b600181811c908216806200064857607f821691505b6020821081036200066757634e487b7160e01b5f52602260045260245ffd5b50919050565b601f821115620006b857805f5260205f20601f840160051c81016020851015620006945750805b601f840160051c820191505b81811015620006b5575f8155600101620006a0565b50505b505050565b81516001600160401b03811115620006d957620006d96200061f565b620006f181620006ea845462000633565b846200066d565b602080601f83116001811462000727575f84156200070f5750858301515b5f19600386901b1c1916600185901b17855562000781565b5f85815260208120601f198616915b82811015620007575788860151825594840194600190910190840162000736565b50858210156200077557878501515f19600388901b60f8161c191681555b505060018460011b0185555b505050505050565b6001600160a01b03811681146200079e575f80fd5b50565b5f805f805f805f80610100898b031215620007ba575f80fd5b8851620007c78162000789565b809850506020808a0151620007dc8162000789565b60408b0151909850620007ef8162000789565b60608b0151909750620008028162000789565b60808b0151909650620008158162000789565b60a08b015160c08c015160e08d015192975090955093506001600160401b038082111562000841575f80fd5b818c0191508c601f83011262000855575f80fd5b8151818111156200086a576200086a6200061f565b604051601f8201601f19908116603f011681019083821181831017156200089557620008956200061f565b816040528281528f86848701011115620008ad575f80fd5b5f93505b82841015620008d05784840186015181850187015292850192620008b1565b5f8684830101528096505050505050509295985092959890939650565b634e487b7160e01b5f52603260045260245ffd5b634e487b7160e01b5f52601160045260245ffd5b5f60ff821660ff81036200092d576200092d62000901565b60010192915050565b8082018082111562000543576200054362000901565b60805160a051615f716200097c5f395f8181610e34015281816116330152611b9b01525f6144ba0152615f715ff3fe608060405234801561000f575f80fd5b5060043610610254575f3560e01c80638ff12b6d11610140578063b1ce8eab116100bf578063eb8c276011610084578063eb8c276014610634578063edeeb93c1461065c578063f179c71314610684578063f242432a14610697578063f3177079146106aa578063f72c436f146106bd575f80fd5b8063b1ce8eab146105c0578063bd85b039146105d3578063bfde380d146105e6578063da33e065146105f9578063e985e9c514610621575f80fd5b80639e0cc3c4116101055780639e0cc3c414610547578063a22cb46514610574578063a3d99b6c14610587578063aabd69541461059a578063aeefe51b146105ad575f80fd5b80638ff12b6d146104c057806395d89b41146104eb57806399342aa3146104f35780639bec5726146105065780639cd0231314610519575f80fd5b806347df87ab116101d75780637421c1d71161019c5780637421c1d7146103f957806375dcebc71461040c5780637c234d011461041f5780637cd0cea6146104275780637cf637cd1461049357806380a5a371146104ad575f80fd5b806347df87ab146103545780634e1273f4146103675780636247899b146103875780636713e2301461039a5780636cb498e5146103e6575f80fd5b80630849b2341161021d5780630849b234146102d35780630d22d9b5146103135780630d873a79146103265780630e89341c1461032e5780632eb2c2d614610341575f80fd5b8062fdd58e1461025857806301ffc9a71461027e5780630528f507146102a157806306fdde03146102b657806307da68f5146102cb575b5f80fd5b61026b610266366004614dbc565b6106d0565b6040519081526020015b60405180910390f35b61029161028c366004614dfb565b6106eb565b6040519015158152602001610275565b6102b46102af366004614e5a565b61073a565b005b6102be6108d3565b6040516102759190614f21565b6102b461095f565b6102fb6102e1366004614f33565b601e6020525f90815260409020546001600160a01b031681565b6040516001600160a01b039091168152602001610275565b6102b4610321366004614f8e565b610a0e565b6102b4610ba3565b6102be61033c366004615076565b610be2565b6102b461034f3660046151ca565b610c74565b610291610362366004614f33565b610cdb565b61037a610375366004615270565b610d2e565b6040516102759190615365565b6102b4610395366004614f33565b610dfe565b6102916103a8366004615377565b6001600160a01b039182165f908152601f6020908152604080832093909416825291909152205442600160a01b9091046001600160601b0316101590565b6102b46103f43660046153ae565b610f09565b61037a61040736600461546d565b611024565b6102b461041a3660046154b7565b6110dd565b61026b5f5481565b61046c610435366004615377565b601f60209081525f92835260408084209091529082529020546001600160a01b03811690600160a01b90046001600160601b031682565b604080516001600160a01b0390931683526001600160601b03909116602083015201610275565b61026b6104a1366004614f33565b6001600160a01b031690565b6102b46104bb3660046154ee565b6111a8565b6104d36104ce366004615076565b6112a5565b6040516001600160401b039091168152602001610275565b6102be6112c1565b61026b61050136600461553c565b6112ce565b6102b461051436600461555d565b6112ff565b61052c610527366004614f33565b611493565b60408051938452602084019290925290820152606001610275565b610291610555366004614f33565b6001600160a01b039081165f908152601d602052604090205416151590565b6102b4610582366004615600565b6114b6565b610291610595366004615377565b6114c1565b6102fb6105a836600461562c565b611547565b6102b46105bb366004615076565b611630565b6102916105ce366004614f33565b611746565b61026b6105e1366004615076565b6117ba565b6102b46105f436600461566e565b611830565b6102fb610607366004614f33565b601d6020525f90815260409020546001600160a01b031681565b61029161062f366004615377565b611941565b6106476106423660046156b5565b61196e565b60408051928352602083019190915201610275565b6102fb61066a366004614f33565b601c6020525f90815260409020546001600160a01b031681565b61052c610692366004614f33565b611a32565b6102b46106a53660046156f0565b611a4f565b6102b46106b8366004615753565b611aae565b6102916106cb366004614f33565b611c6c565b5f806106e08484610642426112a5565b509150505b92915050565b5f6001600160e01b03198216636cdb3d1360e11b148061071b57506001600160e01b031982166303a24d0760e21b145b806106e557506301ffc9a760e01b6001600160e01b03198316146106e5565b601b5461075790339088906001600160a01b031688888888611c98565b60185460405163d199889360e01b81526001600160a01b039091169063d19988939061078b903390899089906004016157f7565b5f604051808303815f87803b1580156107a2575f80fd5b505af11580156107b4573d5f803e3d5ffd5b505060185460405163e27871dd60e01b81526001600160a01b03909116925063e27871dd91506107ec903390879087906004016157f7565b5f604051808303815f87803b158015610803575f80fd5b505af1158015610815573d5f803e3d5ffd5b505060185460405163e44b8c3560e01b8152336004820152602481018590526001600160a01b03909116925063e44b8c3591506044015f604051808303815f87803b158015610862575f80fd5b505af1158015610874573d5f803e3d5ffd5b5050601b546040516001600160a01b039182169350908916915033907f851510db3e53b795660f9ffba16469222d46d357be10c67f27f619ffe33b5874906108c3908a908a908a908a90615824565b60405180910390a4505050505050565b601680546108e090615855565b80601f016020809104026020016040519081016040528092919081815260200182805461090c90615855565b80156109575780601f1061092e57610100808354040283529160200191610957565b820191905f5260205f20905b81548152906001019060200180831161093a57829003601f168201915b505050505081565b61096833611c6c565b6109935733600260405163a1c62ce960e01b815260040161098a929190615887565b60405180910390fd5b335f90815260156020526040902080546bfffffffffffffffffffffffe19600160a01b9091046001600160601b0316016109ca5750565b80546001600160a01b03166001600160a01b031917815560405133907f55c4adf1f68f084b809304657594a92ba835ada8d3b5340955bf05746723c05b905f90a250565b5f805c15610a1a575f80fd5b60015f5d5f610a2a848489611e68565b90505f5b61ffff8116861115610b5657610aa38b8b89898561ffff16818110610a5557610a556158a3565b9050602002810190610a6791906158b7565b610a759060208101906158d5565b61ffff16818110610a8857610a886158a3565b9050602002016020810190610a9d9190614f33565b33611941565b610b4457338b8b89898561ffff16818110610ac057610ac06158a3565b9050602002810190610ad291906158b7565b610ae09060208101906158d5565b61ffff16818110610af357610af36158a3565b9050602002016020810190610b089190614f33565b604051631cddf82160e11b81526001600160a01b0392831660048201529116602482015261ffff821660448201525f606482015260840161098a565b80610b4e8161590a565b915050610a2e565b505f610b658b8b8b8b8661209e565b9050610b768b8b8b8b8b8b8861257f565b5f610b868c8c8c8c8c8c89612bc1565b9050610b9281836131f2565b5050505f805d505050505050505050565b610bac33611c6c565b610bce5733600160405163a1c62ce960e01b815260040161098a929190615887565b610bd7336132fc565b610be033613336565b565b606060148054610bf190615855565b80601f0160208091040260200160405190810160405280929190818152602001828054610c1d90615855565b8015610c685780601f10610c3f57610100808354040283529160200191610c68565b820191905f5260205f20905b815481529060010190602001808311610c4b57829003601f168201915b50505050509050919050565b336001600160a01b0386168114801590610c955750610c938682611941565b155b15610cc65760405163711bec9160e11b81526001600160a01b0380831660048301528716602482015260440161098a565b610cd386868686866133f1565b505050505050565b5f610ce582611c6c565b610d075781600360405163a1c62ce960e01b815260040161098a929190615887565b5050335f90815260156020526040902054600160a01b90046001600160601b039081161490565b60608151835114610d5f5781518351604051635b05999160e01b81526004810192909252602482015260440161098a565b5f610d69426112a5565b90505f84516001600160401b03811115610d8557610d8561508d565b604051908082528060200260200182016040528015610dae578160200160208202803683370190505b5090505f5b85518110156106e057602080820287010151610dd8906020808402880101518561196e565b50828281518110610deb57610deb6158a3565b6020908102919091010152600101610db3565b610e0733611c6c565b610e2857335f60405163a1c62ce960e01b815260040161098a929190615887565b610e3181613456565b507f0000000000000000000000000000000000000000000000000000000000000000421115610ebf57610e863380610e6b6012600a615a0a565b610e76906032615a18565b610e81906002615a18565b6134b1565b610ebf816001600160a01b038116610ea06012600a615a0a565b610eab906032615a18565b60405180602001604052805f815250613583565b610ed133826001600160601b03613671565b6040516001600160a01b0382169033907f1579ece735f991d530c87b3750a61840fcbc5658330779dc66902edd092cd4c8905f90a350565b5f856001600160401b03811115610f2257610f2261508d565b604051908082528060200260200182016040528015610f4b578160200160208202803683370190505b5090505f5b86811015610fa757610f82888883818110610f6d57610f6d6158a3565b90506020020160208101906104a19190614f33565b828281518110610f9457610f946158a3565b6020908102919091010152600101610f50565b5061101a33338a848989808060200260200160405190810160405280939291908181526020018383602002808284375f9201919091525050604080516020601f8d018190048102820181019092528b815292508b91508a90819084018382808284375f920191909152506136ce92505050565b5050505050505050565b60605f61104267fff2fae779633d1e846001600160401b03166139e8565b90505f84516001600160401b0381111561105e5761105e61508d565b604051908082528060200260200182016040528015611087578160200160208202803683370190505b5090505f5b85518110156106e0576110b8838783815181106110ab576110ab6158a3565b6020026020010151613c05565b8282815181106110ca576110ca6158a3565b602090810291909101015260010161108c565b335f908152601c60205260409020546001600160a01b031661111657335f60405163aa8ed7bd60e01b815260040161098a929190615887565b6001600160a01b038216158061113557506001600160a01b0382166001145b1561115757815f6040516375ff19a960e11b815260040161098a929190615887565b336001600160a01b03831603611185578160016040516375ff19a960e11b815260040161098a929190615887565b42816001600160601b031610156111995750425b6111a4338383613671565b5050565b5f6111b3855f613c69565b6001600160a01b038082165f908152601d60205260409020549192501680158015906111f857506001600160a01b038281165f908152601e6020526040902054163314155b1561129a576040516343101c5f60e11b81526001600160a01b0382169063862038be9061123190339086908a908a908a90600401615a2f565b6020604051808303815f875af115801561124d573d5f803e3d5ffd5b505050506040513d601f19601f820116820180604052508101906112719190615a62565b61129a5733828686865f6040516304f93f6560e11b815260040161098a96959493929190615a7d565b610cd33387876134b1565b5f620151805f54836112b79190615ac6565b6106e59190615ad9565b601780546108e090615855565b5f806112eb67fff2fae779633d1e846001600160401b03166139e8565b90506112f78185613c05565b949350505050565b61130e33888888888888611c98565b60185460405163d199889360e01b81526001600160a01b039091169063d199889390611342903390899089906004016157f7565b5f604051808303815f87803b158015611359575f80fd5b505af115801561136b573d5f803e3d5ffd5b505060185460405163e27871dd60e01b81526001600160a01b03909116925063e27871dd91506113a3903390879087906004016157f7565b5f604051808303815f87803b1580156113ba575f80fd5b505af11580156113cc573d5f803e3d5ffd5b505060185460405163e44b8c3560e01b8152336004820152602481018590526001600160a01b03909116925063e44b8c3591506044015f604051808303815f87803b158015611419575f80fd5b505af115801561142b573d5f803e3d5ffd5b50505050856001600160a01b0316876001600160a01b0316336001600160a01b03167f851510db3e53b795660f9ffba16469222d46d357be10c67f27f619ffe33b5874888888886040516114829493929190615824565b60405180910390a450505050505050565b5f805f61149f846132fc565b6114a884613ca5565b9250925092505b9193909250565b6111a4338383613f5d565b6001600160a01b038281165f908152601f6020908152604080832093851683529290529081205442600160a01b9091046001600160601b0316101561150757505f6106e5565b506001600160a01b039081165f908152601f602090815260408083209490931682529290925290205442600160a01b9091046001600160601b0316101590565b5f61155184611c6c565b15801561157557506001600160a01b038481165f908152601d602052604090205416155b156115985783600260405163aa8ed7bd60e01b815260040161098a929190615887565b601a546040516395b645b160e01b81525f916001600160a01b0316906395b645b1906115ca9088908790600401615af8565b6020604051808303815f875af11580156115e6573d5f803e3d5ffd5b505050506040513d601f19601f8201168201806040525081019061160a9190615b31565b90506112f733826001600160a01b0388168760405180602001604052805f815250611a4f565b5f7f000000000000000000000000000000000000000000000000000000000000000042111561167757604051633f2350bf60e21b815260ff8216600482015260240161098a565b5f61168133613456565b90506001600160a01b0381166001146116b157335f6040516360b9e95b60e01b815260040161098a929190615887565b82156117175760185460405163e44b8c3560e01b8152336004820152602481018590526001600160a01b039091169063e44b8c35906044015f604051808303815f87803b158015611700575f80fd5b505af1158015611712573d5f803e3d5ffd5b505050505b60405133907f6553967279fea0a1443d6ecf8edbde1f011f1f9cfb34b680b5102ca292d5c846905f90a2505050565b6001600160a01b038181165f908152601c60205260408120549091161580159061178757506001600160a01b038281165f908152601d602052604090205416155b80156106e55750506001600160a01b03165f90815260156020526040902054600160a01b90046001600160601b03161590565b5f8181526012602090815260408083208151808301909252546001600160c01b0381168252600160c01b90046001600160401b03169181019190915281611800426112a5565b90506112f7825f01516001600160c01b03168360200151836118229190615b4c565b6001600160401b0316613fe9565b61183933614002565b60185460405163d199889360e01b81526001600160a01b039091169063d19988939061186d903390879087906004016157f7565b5f604051808303815f87803b158015611884575f80fd5b505af1158015611896573d5f803e3d5ffd5b505060185460405163e44b8c3560e01b8152336004820152602481018590526001600160a01b03909116925063e44b8c3591506044015f604051808303815f87803b1580156118e3575f80fd5b505af11580156118f5573d5f803e3d5ffd5b50505050336001600160a01b03167fe191edab93dcedd4a646317289fded1d9665862550b031a14bd3c5b0bc0e50078484604051611934929190615b73565b60405180910390a2505050565b6001600160a01b039182165f90815260136020908152604080832093909416825291909152205460ff1690565b5f8281526011602090815260408083206001600160a01b038716845282528083208151808301909252546001600160c01b03811682526001600160401b03600160c01b9091048116928201839052839290851610156119ed576020810151604051630f6b717f60e41b815261098a918891889188915f90600401615b86565b5f816020015185036001600160401b03169050611a16825f01516001600160c01b031682613fe9565b9151919350506001600160c01b03168290039050935093915050565b5f805f611a3e84611c6c565b61149f57505f9150819050806114af565b336001600160a01b0386168114801590611a705750611a6e8682611941565b155b15611aa15760405163711bec9160e11b81526001600160a01b0380831660048301528716602482015260440161098a565b610cd386868686866140a0565b6019546001600160a01b03163314611af457601954604051636844c68b60e11b81523360048201526001600160a01b0390911660248201525f604482015260640161098a565b6001600160a01b038581165f908152601c602052604090205416611b305784600160405163aa8ed7bd60e01b815260040161098a929190615887565b828114611b6057604051638b5ccddf60e01b815260048101849052602481018290525f604482015260640161098a565b5f611b6b8585614123565b611b776012600a615a0a565b611b82906032615a18565b611b8d906002615a18565b611b979190615a18565b90507f000000000000000000000000000000000000000000000000000000000000000042118015611bc757505f81115b15611c0b57611bd586611c6c565b611bf75785600460405163a1c62ce960e01b815260040161098a929190615887565b611c0b866001600160a01b038116836134b1565b5f5b84811015611c6357611c5b87611c2e888885818110610f6d57610f6d6158a3565b868685818110611c4057611c406158a3565b9050602002013560405180602001604052805f815250613583565b600101611c0d565b50505050505050565b6001600160a01b03165f90815260156020526040902054600160a01b90046001600160601b0316151590565b6001600160a01b038616611cc2576040516321efd2b360e01b81526002600482015260240161098a565b6001600160a01b038516611cec576040516321efd2b360e01b81526003600482015260240161098a565b601854604051631e30397f60e01b81526001600160a01b0390911690631e30397f90611d1e9087908790600401615b73565b602060405180830381865afa158015611d39573d5f803e3d5ffd5b505050506040513d601f19601f82011682018060405250810190611d5d9190615a62565b611d805783835f604051633fd67da760e01b815260040161098a93929190615bc0565b6018546040516347ea7b8d60e11b81526001600160a01b0390911690638fd4f71a90611db29085908590600401615b73565b602060405180830381865afa158015611dcd573d5f803e3d5ffd5b505050506040513d601f19601f82011682018060405250810190611df19190615a62565b611e155781816001604051633fd67da760e01b815260040161098a93929190615bc0565b611e1e87614002565b5050506001600160a01b039384165f908152601d6020908152604080832080549688166001600160a01b0319978816179055601e9091529020805492909416919092161790915550565b6060611e75826006615a18565b8314611ea557604051638b5ccddf60e01b815260048101849052602481018390526006604482015260640161098a565b611eb0826003615a18565b6001600160401b03811115611ec757611ec761508d565b604051908082528060200260200182016040528015611ef0578160200160208202803683370190505b5090505f805b84811015612095578585611f0b836001615be6565b818110611f1a57611f1a6158a3565b919091013560f81c90506008878784818110611f3857611f386158a3565b919091013560f81c90911b9190911790508383611f5481615bf9565b945081518110611f6657611f666158a3565b61ffff909216602092830291909101909101528585611f86836003615be6565b818110611f9557611f956158a3565b919091013560f81c905060088787611fae856002615be6565b818110611fbd57611fbd6158a3565b919091013560f81c90911b9190911790508383611fd981615bf9565b945081518110611feb57611feb6158a3565b61ffff90921660209283029190910190910152858561200b836005615be6565b81811061201a5761201a6158a3565b919091013560f81c905060088787612033856004615be6565b818110612042576120426158a3565b919091013560f81c90911b919091179050838361205e81615bf9565b945081518110612070576120706158a3565b61ffff9092166020928302919091019091015261208e600682615be6565b9050611ef6565b50509392505050565b80516060906120ae846003615a18565b146120e0578151604051638b5ccddf60e01b81526004810185905260248101919091526002604482015260640161098a565b61ffff85111561211557604051638b5ccddf60e01b81526004810186905261ffff60248201526003604482015260640161098a565b841580612120575082155b1561214e57604051638b5ccddf60e01b8152600480820187905260248201859052604482015260640161098a565b5f856001600160401b038111156121675761216761508d565b604051908082528060200260200182016040528015612190578160200160208202803683370190505b5090505f5b6121a0600188615ac6565b816001600160401b031610156122fe5787876121bd836001615c11565b6001600160401b03168181106121d5576121d56158a3565b90506020020160208101906121ea9190614f33565b6001600160a01b03168888836001600160401b031681811061220e5761220e6158a3565b90506020020160208101906122239190614f33565b6001600160a01b03161061224a57604051639d5523e360e01b815260040160405180910390fd5b5f601c818a8a6001600160401b038616818110612269576122696158a3565b905060200201602081019061227e9190614f33565b6001600160a01b03908116825260208201929092526040015f205416036122ec578787826001600160401b03168181106122ba576122ba6158a3565b90506020020160208101906122cf9190614f33565b600460405163aa8ed7bd60e01b815260040161098a929190615887565b806122f681615c31565b915050612195565b505f878761230d600182615ac6565b81811061231c5761231c6158a3565b90506020020160208101906123319190614f33565b6001600160a01b038082165f908152601c6020526040902054919250166123705780600560405163aa8ed7bd60e01b815260040161098a929190615887565b505f805b6001600160401b038116861115612572575f8989878561ffff168151811061239e5761239e6158a3565b602002602001015161ffff168181106123b9576123b96158a3565b90506020020160208101906123ce9190614f33565b90505f8a8a886123df876002615c4c565b61ffff16815181106123f3576123f36158a3565b602002602001015161ffff1681811061240e5761240e6158a3565b90506020020160208101906124239190614f33565b90505f8989856001600160401b0316818110612441576124416158a3565b90506040020160200160208101906124599190615c67565b6001600160c01b0316905061246e82846114c1565b6124a55760405163de84eec960e01b81526001600160a01b038084166004830152841660248201526001604482015260640161098a565b8086896124b3886001615c4c565b61ffff16815181106124c7576124c76158a3565b602002602001015161ffff16815181106124e3576124e36158a3565b602002602001018181516124f79190615c8d565b905250808689612508886002615c4c565b61ffff168151811061251c5761251c6158a3565b602002602001015161ffff1681518110612538576125386158a3565b6020026020010181815161254c9190615cac565b90525061255a856003615c4c565b9450505050808061256a90615c31565b915050612374565b5090979650505050505050565b5f826001600160401b038111156125985761259861508d565b6040519080825280602002602001820160405280156125c1578160200160208202803683370190505b5090505f836001600160401b038111156125dd576125dd61508d565b604051908082528060200260200182016040528015612606578160200160208202803683370190505b5090505f805b61ffff8116881115612ab3575f8b8b87612627866002615c4c565b61ffff168151811061263b5761263b6158a3565b602002602001015161ffff16818110612656576126566158a3565b905060200201602081019061266b9190614f33565b90505f806127076126a88f8f8b8961ffff168151811061268d5761268d6158a3565b602002602001015161ffff16818110610f6d57610f6d6158a3565b8d8d8761ffff168181106126be576126be6158a3565b90506040020160200160208101906126d69190615c67565b6001600160c01b03166040805160018082526020820194909452808201938452606081019290925260808201905291565b915091505f8c8c8661ffff16818110612722576127226158a3565b61273892602060409092020190810191506158d5565b61ffff1611156129a3575f60018d8d8761ffff1681811061275b5761275b6158a3565b61277192602060409092020190810191506158d5565b61277b9190615cd3565b90508461ffff168b8b8361ffff16818110612798576127986158a3565b90506020028101906127aa91906158b7565b6127b8906020810190615cee565b8a8461ffff16815181106127ce576127ce6158a3565b602002602001015161ffff168181106127e9576127e96158a3565b90506020020160208101906127fe91906158d5565b61ffff161461286457848d8d8761ffff1681811061281e5761281e6158a3565b61283492602060409092020190810191506158d5565b6040516001625e92ed60e01b0319815261ffff9283166004820152911660248201525f604482015260640161098a565b878161ffff168151811061287a5761287a6158a3565b60200260200101805180919061288f9061590a565b61ffff1661ffff16815250505f6001600160a01b0316878261ffff16815181106128bb576128bb6158a3565b60200260200101516001600160a01b03160361290d5783878261ffff16815181106128e8576128e86158a3565b60200260200101906001600160a01b031690816001600160a01b0316815250506129a1565b836001600160a01b0316878261ffff168151811061292d5761292d6158a3565b60200260200101516001600160a01b0316146129a157848d8d8761ffff1681811061295a5761295a6158a3565b61297092602060409092020190810191506158d5565b6040516001625e92ed60e01b0319815261ffff9283166004820152911660248201526001604482015260640161098a565b505b6001600160a01b038084165f908152601d602052604090205416612a2357612a1e8e8e8a6129d2896001615c4c565b61ffff16815181106129e6576129e66158a3565b602002602001015161ffff16818110612a0157612a016158a3565b9050602002016020810190612a169190614f33565b84848461423f565b612a90565b612a908e8e8a612a34896001615c4c565b61ffff1681518110612a4857612a486158a3565b602002602001015161ffff16818110612a6357612a636158a3565b9050602002016020810190612a789190614f33565b8485858560405180602001604052805f8152506136ce565b612a9b856003615c4c565b94505050508080612aab9061590a565b91505061260c565b505f5b61ffff8116861115612bb4575f6001600160a01b0316838261ffff1681518110612ae257612ae26158a3565b60200260200101516001600160a01b031603612b1d5760405163eed7a7eb60e01b815261ffff821660048201525f602482015260440161098a565b86868261ffff16818110612b3357612b336158a3565b9050602002810190612b4591906158b7565b612b53906020810190615cee565b9050848261ffff1681518110612b6b57612b6b6158a3565b602002602001015161ffff1614612ba25760405163eed7a7eb60e01b815261ffff821660048201526001602482015260440161098a565b80612bac8161590a565b915050612ab6565b5050505050505050505050565b60605f876001600160401b03811115612bdc57612bdc61508d565b604051908082528060200260200182016040528015612c05578160200160208202803683370190505b5090505f5b61ffff81168511156131e5575f86868361ffff16818110612c2d57612c2d6158a3565b9050602002810190612c3f91906158b7565b612c4d906020810190615cee565b90506001600160401b03811115612c6657612c6661508d565b604051908082528060200260200182016040528015612c8f578160200160208202803683370190505b5090505f87878461ffff16818110612ca957612ca96158a3565b9050602002810190612cbb91906158b7565b612cc9906020810190615cee565b90506001600160401b03811115612ce257612ce261508d565b604051908082528060200260200182016040528015612d0b578160200160208202803683370190505b5090505f805b89898661ffff16818110612d2757612d276158a3565b9050602002810190612d3991906158b7565b612d47906020810190615cee565b90508161ffff161015612eee57612dd88e8e8a8d8d8a61ffff16818110612d7057612d706158a3565b9050602002810190612d8291906158b7565b612d90906020810190615cee565b8661ffff16818110612da457612da46158a3565b9050602002016020810190612db991906158d5565b612dc4906003615d33565b61ffff168151811061268d5761268d6158a3565b848261ffff1681518110612dee57612dee6158a3565b6020026020010181815250508b8b8b8b8861ffff16818110612e1257612e126158a3565b9050602002810190612e2491906158b7565b612e32906020810190615cee565b8461ffff16818110612e4657612e466158a3565b9050602002016020810190612e5b91906158d5565b61ffff16818110612e6e57612e6e6158a3565b9050604002016020016020810190612e869190615c67565b6001600160c01b0316838261ffff1681518110612ea557612ea56158a3565b602002602001018181525050828161ffff1681518110612ec757612ec76158a3565b602002602001015182612eda9190615be6565b915080612ee68161590a565b915050612d11565b505f878a8a8761ffff16818110612f0757612f076158a3565b9050602002810190612f1991906158b7565b612f27906020810190615cee565b5f818110612f3757612f376158a3565b9050602002016020810190612f4c91906158d5565b612f57906003615d33565b612f62906002615c4c565b61ffff1681518110612f7657612f766158a3565b602002602001015190505f8e8e8361ffff16818110612f9757612f976158a3565b9050602002016020810190612fac9190614f33565b90506130838f8f8d8d8a61ffff16818110612fc957612fc96158a3565b9050602002810190612fdb91906158b7565b612fe99060208101906158d5565b61ffff16818110612ffc57612ffc6158a3565b90506020020160208101906130119190614f33565b8287878f8f8c61ffff1681811061302a5761302a6158a3565b905060200281019061303c91906158b7565b61304a906040810190615d51565b8080601f0160208091040260200160405190810160405280939291908181526020018383808284375f9201919091525061445092505050565b82878c8c8961ffff1681811061309b5761309b6158a3565b90506020028101906130ad91906158b7565b6130bb9060208101906158d5565b61ffff16815181106130cf576130cf6158a3565b602002602001018181516130e39190615c8d565b90525086518390889061ffff8516908110613100576131006158a3565b602002602001018181516131149190615cac565b9052506001600160a01b0381168f8f8d8d61ffff8b16818110613139576131396158a3565b905060200281019061314b91906158b7565b6131599060208101906158d5565b61ffff1681811061316c5761316c6158a3565b90506020020160208101906131819190614f33565b6001600160a01b0316336001600160a01b03167fcfe53a731d24ac31b725405f3dca8a4d23512d3e1ade2359fbbe7982bec0fd4288886040516131c5929190615d93565b60405180910390a4505050505080806131dd9061590a565b915050612c0a565b5098975050505050505050565b80518251146132285781518151604051638b5ccddf60e01b8152600481019290925260248201526005604482015260640161098a565b5f5b82518161ffff1610156132f757818161ffff168151811061324d5761324d6158a3565b6020026020010151838261ffff168151811061326b5761326b6158a3565b6020026020010151146132e55780838261ffff168151811061328f5761328f6158a3565b6020026020010151838361ffff16815181106132ad576132ad6158a3565b6020908102919091010151604051632f38161d60e01b815261ffff90931660048401526024830191909152604482015260640161098a565b806132ef8161590a565b91505061322a565b505050565b6001600160a01b038181165f9081526015602052604090205416600114613333575f61332782614497565b90506111a482826145a9565b50565b5f805f61334284613ca5565b925092509250825f036133555750505050565b613378846001600160a01b0381168560405180602001604052805f815250613583565b6001600160a01b038481165f818152601560209081526040918290208054909416600160a01b426001600160601b0316021790935580518681529283018590528201839052907f5679cef078fbc961b2e34e49c1f56efe542401e2e59dff633b68ddea27812cc29060600160405180910390a250505050565b6001600160a01b03841661341a57604051632bfa23e760e11b81525f600482015260240161098a565b6001600160a01b03851661344257604051626a0d4560e21b81525f600482015260240161098a565b61344f858585858561462c565b5050505050565b5f61346082614002565b61346982614497565b6001600160a01b038084165f9081526015602052604090206001600160601b03428116600160a01b029284169290921781559192506134ab9084908190613671565b50919050565b6134bc838383614645565b5f6134c6426112a5565b5f8481526012602090815260408083208151808301909252546001600160c01b038116808352600160c01b9091046001600160401b031692820183905293945092613515916118229086615b4c565b90508381101561353a5760405163141f8e8f60e21b815260048181015260240161098a565b6001600160c01b03939003831681526001600160401b0391821660208083019182525f95865260129052604090942090519351909116600160c01b029290911691909117905550565b61358f848484846146ab565b5f613599426112a5565b5f8581526012602090815260408083208151808301909252546001600160c01b038116808352600160c01b9091046001600160401b03169282018390529394509286916135eb91906118229087615b4c565b6135f59190615be6565b90506001600160c01b038111156136285786868260026040516345430d1b60e11b815260040161098a9493929190615db7565b6001600160c01b0390811682526001600160401b0392831660208084019182525f978852601290526040909620915195519516600160c01b959092169490940217909255505050565b61367c838383614706565b6040516001600160601b03821681526001600160a01b0380841691908516907fe60c754dd8ab0b1b5fccba257d6ebcd7d09e360ab7dd7a6e58198ca1f57cdcec906020015b60405180910390a3505050565b81518351146137045782518251604051638b5ccddf60e01b8152600481019290925260248201526001604482015260640161098a565b82515f036137275760405163fbab2f7560e01b81525f600482015260240161098a565b6001600160a01b038085165f908152601d60205260409020541661376157835f6040516279607960e21b815260040161098a929190615887565b5f805b83518110156138515761379586610595878481518110613786576137866158a3565b60200260200101516002613c69565b6137e757858582815181106137ac576137ac6158a3565b602090810291909101015160405163de84eec960e01b81526001600160a01b03909216600483015260248201525f604482015260640161098a565b8381815181106137f9576137f96158a3565b60200260200101515f0361382257604051630ac862a960e01b81525f600482015260240161098a565b838181518110613834576138346158a3565b6020026020010151826138479190615be6565b9150600101613764565b506001600160a01b038086165f908152601d60205260409081902054905163b703825960e01b815291169063b703825990613898908a908990899089908990600401615de0565b6020604051808303815f875af11580156138b4573d5f803e3d5ffd5b505050506040513d601f19601f820116820180604052508101906138d89190615a62565b6139015786858585855f604051637dc7d10160e11b815260040161098a96959493929190615e3d565b5f6040518060200160405280876001600160a01b031681525060405160200161393691516001600160a01b0316815260200190565b60408051601f198184030181526060830182527f3846339d4d39a76fd554559ca1c53716bfb66f542f4b8c5b7517c56812d99c578352602083810182905283830187905291519093505f9261398d92909101615ea5565b60408051601f198184030181529181526001600160a01b03808a165f908152601e60205291909120549192506139c8918b9116888885610c74565b6139dd886001600160a01b0389168587613583565b505050505050505050565b5f805f84600f0b1280156139ff5750826001166001145b90505f8085600f0b12613a125784613a16565b845f035b6001600160801b03169050600160801b680100000000000000008211613ab057603f82901b91505b8415613aa8576001851615613a53578102607f1c5b908002607f1c906002851615613a69578102607f1c5b908002607f1c906004851615613a7f578102607f1c5b908002607f1c906008851615613a95578102607f1c5b60049490941c93908002607f1c90613a3e565b60401c613bc2565b603f600160601b831015613aca5760209290921b91601f19015b600160701b831015613ae25760109290921b91600f19015b600160781b831015613afa5760089290921b91600719015b6001607c1b831015613b125760049290921b91600319015b6001607e1b831015613b2a5760029290921b91600119015b6001607f1b831015613b415760019290921b915f19015b5f5b8615613bac5760408210613b55575f80fd5b6001871615613b7b57918302607f1c918101600160801b831115613b7b57600192831c92015b928002607f1c9260019190911b90600160801b8410613ba057600193841c9391909101905b600187901c9650613b43565b60408110613bb8575f80fd5b6040039190911c90505b5f83613bce5781613bd2565b815f035b905060016001607f1b03198112801590613bf3575060016001607f1b038113155b613bfb575f80fd5b9695505050505050565b5f815f03613c1457505f6106e5565b5f83600f0b1215613c23575f80fd5b600f83900b6001600160801b038316810260401c90608084901c026001600160c01b03811115613c51575f80fd5b60401b8119811115613c61575f80fd5b019392505050565b5f6001600160a01b03831115613c9e5760405163a127935960e01b81526004810184905260ff8316602482015260440161098a565b5090919050565b6001600160a01b038181165f908152601560209081526040808320815180830190925254938416808252600160a01b9094046001600160601b03169181019190915290918291829115801590613d06575080516001600160a01b0316600114155b15613d3957805160405162e266bb60e31b81526001600160a01b038088166004830152909116602482015260440161098a565b4281602001516001600160601b0316610e10613d559190615be6565b1115613d6a575f805f935093509350506114af565b5f613d8e613d7b6212750042615ac6565b83602001516001600160601b0316614846565b90505f613d9a826112a5565b6001600160401b031690505f613daf426112a5565b6001600160401b031690505f613dc58383615ac6565b90505f613e02610e105f548662015180613ddf9190615a18565b613de99190615be6565b613df39088615ac6565b613dfd9190615ad9565b614858565b90505f613e51610e10425f54876001613e1b9190615be6565b613e289062015180615a18565b613e329190615be6565b613e3c9190615ac6565b613e469190615ad9565b613dfd906001615be6565b90505f613e92613e8c600986600f8110613e6d57613e6d6158a3565b600291828204019190066010029054906101000a9004600f0b85614874565b836148a9565b9050613edd613ecc600186600f8110613ead57613ead6158a3565b600291828204019190066010029054906101000a9004600f0b836148da565b613ed86012600a615a0a565b613c05565b613ee984610e10613c05565b613ef68862015180615a18565b5f54613f029190615be6565b613f0c9190615be6565b613f1884610e10613c05565b613f258862015180615a18565b5f54613f319190615be6565b613f3e9062015180615be6565b613f489190615ac6565b9a509a509a5050505050505050509193909250565b6001600160a01b038216613f855760405162ced3e160e81b81525f600482015260240161098a565b6001600160a01b038381165f81815260136020908152604080832094871680845294825291829020805460ff191686151590811790915591519182527f17307eab39ab6107e8899845ad3d59bd9653f200f220920489ca2b5937696c3191016136c1565b5f815f03613ff85750816106e5565b5f6112eb8361490b565b6001600160a01b038181165f908152601c6020526040902054161561403e57805f604051636b76a94560e11b815260040161098a929190615887565b601c6020527f6de76108811faf2f94afbe5ac6c98e8393206cd093932de1fbfd61bbeec43a0280546001600160a01b039283165f818152604081208054959093166001600160a01b031995861617909255600190915281549092169091179055565b6001600160a01b0384166140c957604051632bfa23e760e11b81525f600482015260240161098a565b6001600160a01b0385166140f157604051626a0d4560e21b81525f600482015260240161098a565b60408051600180825260208201869052818301908152606082018590526080820190925290611c63878784848761462c565b5f80805b83811015614237575f601c81878785818110614145576141456158a3565b905060200201602081019061415a9190614f33565b6001600160a01b03908116825260208201929092526040015f205416036141bd578161418581615bf9565b9250506141b785858381811061419d5761419d6158a3565b90506020020160208101906141b29190614f33565b613456565b5061422f565b6141e78585838181106141d2576141d26158a3565b90506020020160208101906106cb9190614f33565b61422f578484828181106141fd576141fd6158a3565b90506020020160208101906142129190614f33565b600560405163a1c62ce960e01b815260040161098a929190615887565b600101614127565b509392505050565b805182511461426e5781518151604051635b05999160e01b81526004810192909252602482015260440161098a565b335f614279426112a5565b90505f5b8451811015614381576020818102868101820151908601909101516001600160a01b0389161561435c575f806142b48b858861196e565b91509150828210156142f9576040516303dee4c560e01b81526001600160a01b038c16600482015260248101839052604481018490526064810185905260840161098a565b801561434b5760408051858152602081018390525f916001600160a01b038e811692908b16917fc3d58168c5ae7397731d063d5bbf3d657854427343f4c083240f7aacaa2d0f62910160405180910390a45b6143598b8585850389614964565b50505b6001600160a01b0388161561437757614377888383876149fa565b505060010161427d565b5083516001036144015760208401515f906020850151909150866001600160a01b0316886001600160a01b0316856001600160a01b03167fc3d58168c5ae7397731d063d5bbf3d657854427343f4c083240f7aacaa2d0f6285856040516143f2929190918252602082015260400190565b60405180910390a45050610cd3565b846001600160a01b0316866001600160a01b0316836001600160a01b03167f4a39dc06d4c0dbc64b70af90fd698a233a518aa5d07e595d983b8c0526c8f7fb87876040516108c3929190615d93565b6001600160a01b0384161561344f57825133906001036144895760208481015190840151614482838989858589614ba0565b5050610cd3565b610cd3818787878787614cc1565b60405163146924ff60e11b81526001600160a01b0382811660048301525f9182917f000000000000000000000000000000000000000000000000000000000000000016906328d249fe90602401602060405180830381865afa1580156144ff573d5f803e3d5ffd5b505050506040513d601f19601f820116820180604052508101906145239190615b31565b90506001600160a01b03811661453b57505f92915050565b806001600160a01b03166375f12b216040518163ffffffff1660e01b8152600401602060405180830381865afa158015614577573d5f803e3d5ffd5b505050506040513d601f19601f8201168201806040525081019061459b9190615a62565b156106e55750600192915050565b6001600160a01b0382165f90815260156020526040812080549091600160a01b9091046001600160601b031690036145f65760405163141f8e8f60e21b81525f600482015260240161098a565b80546001600160a01b038381169116146132f7576001600160601b034216600160a01b026001600160a01b038316178155505050565b6146388585858561423f565b61344f8585858585614450565b6001600160a01b03831661466d57604051626a0d4560e21b81525f600482015260240161098a565b604080516001808252602082018590528183019081526060820184905260a082019092525f6080820181815291929161344f9187918590859061462c565b6001600160a01b0384166146d457604051632bfa23e760e11b81525f600482015260240161098a565b60408051600180825260208201869052818301908152606082018590526080820190925290610cd35f8784848761462c565b6001600160a01b0383166147305760405163141f8e8f60e21b81526001600482015260240161098a565b6001600160a01b03821661475a5760405163141f8e8f60e21b81526002600482015260240161098a565b5f196001600160a01b038316016147875760405163141f8e8f60e21b81526003600482015260240161098a565b6001600160a01b038084165f908152601f6020908152604080832060018452909152902080549091166147c65780546001600160a01b03191660011781555b6001600160a01b038085165f908152601f6020908152604080832087851684529091529020805490911661481c57815481546001600160a01b039182166001600160a01b03199182161783558354169085161782555b80546001600160601b03909316600160a01b026001600160a01b0390931692909217909155505050565b5f81831015613c9e57815b9392505050565b5f677fffffffffffffff82111561486d575f80fd5b5060401b90565b5f600f83810b9083900b0260401d60016001607f1b031981128015906148a1575060016001607f1b038113155b614851575f80fd5b5f600f83810b9083900b0160016001607f1b031981128015906148a1575060016001607f1b03811315614851575f80fd5b5f600f82810b9084900b0360016001607f1b031981128015906148a1575060016001607f1b03811315614851575f80fd5b5f600e8211614952575f600983600f8110614928576149286158a3565b60028104919091015460019091166010026101000a9004600f0b905080156149505792915050565b505b6106e567fff2fae779633d1e836139e8565b6001600160c01b03821115614994578383835f6040516345430d1b60e11b815260040161098a9493929190615db7565b5f9283526011602090815260408085206001600160a01b0390961680865286835281862082518084019093526001600160c01b0395861683526001600160401b03948516838501908152919096529590915251935116600160c01b029216919091179055565b5f8381526011602090815260408083206001600160a01b03881684528252918290208251808401909352546001600160c01b03811683526001600160401b03600160c01b909104811691830182905283161015614a78576020810151604051630f6b717f60e41b815261098a91879187918691600190600401615b86565b5f816020015183036001600160401b031690505f614aa2835f01516001600160c01b031683613fe9565b83519091506001600160c01b0316818103908214614b035760408051888152602081018390525f916001600160a01b038b169133917fc3d58168c5ae7397731d063d5bbf3d657854427343f4c083240f7aacaa2d0f62910160405180910390a45b505f614b0f8683615be6565b90506001600160c01b03811115614b425787878260016040516345430d1b60e11b815260040161098a9493929190615db7565b6001600160c01b0390811684526001600160401b0394851660208086019182525f988952601181526040808a206001600160a01b03909b168a529990529790962092519651909316600160c01b029590941694909417909355505050565b6001600160a01b0384163b15610cd35760405163f23a6e6160e01b81526001600160a01b0385169063f23a6e6190614be49089908990889088908890600401615ee7565b6020604051808303815f875af1925050508015614c1e575060408051601f3d908101601f19168201909252614c1b91810190615f20565b60015b614c85573d808015614c4b576040519150601f19603f3d011682016040523d82523d5f602084013e614c50565b606091505b5080515f03614c7d57604051632bfa23e760e11b81526001600160a01b038616600482015260240161098a565b805181602001fd5b6001600160e01b0319811663f23a6e6160e01b14611c6357604051632bfa23e760e11b81526001600160a01b038616600482015260240161098a565b6001600160a01b0384163b15610cd35760405163bc197c8160e01b81526001600160a01b0385169063bc197c8190614d059089908990889088908890600401615de0565b6020604051808303815f875af1925050508015614d3f575060408051601f3d908101601f19168201909252614d3c91810190615f20565b60015b614d6c573d808015614c4b576040519150601f19603f3d011682016040523d82523d5f602084013e614c50565b6001600160e01b0319811663bc197c8160e01b14611c6357604051632bfa23e760e11b81526001600160a01b038616600482015260240161098a565b6001600160a01b0381168114613333575f80fd5b5f8060408385031215614dcd575f80fd5b8235614dd881614da8565b946020939093013593505050565b6001600160e01b031981168114613333575f80fd5b5f60208284031215614e0b575f80fd5b813561485181614de6565b5f8083601f840112614e26575f80fd5b5081356001600160401b03811115614e3c575f80fd5b602083019150836020828501011115614e53575f80fd5b9250929050565b5f805f805f8060808789031215614e6f575f80fd5b8635614e7a81614da8565b955060208701356001600160401b0380821115614e95575f80fd5b614ea18a838b01614e16565b90975095506040890135915080821115614eb9575f80fd5b50614ec689828a01614e16565b979a9699509497949695606090950135949350505050565b5f81518084525f5b81811015614f0257602081850181015186830182015201614ee6565b505f602082860101526020601f19601f83011685010191505092915050565b602081525f6148516020830184614ede565b5f60208284031215614f43575f80fd5b813561485181614da8565b5f8083601f840112614f5e575f80fd5b5081356001600160401b03811115614f74575f80fd5b6020830191508360208260051b8501011115614e53575f80fd5b5f805f805f805f806080898b031215614fa5575f80fd5b88356001600160401b0380821115614fbb575f80fd5b614fc78c838d01614f4e565b909a50985060208b0135915080821115614fdf575f80fd5b818b0191508b601f830112614ff2575f80fd5b813581811115615000575f80fd5b8c60208260061b8501011115615014575f80fd5b6020830198508097505060408b0135915080821115615031575f80fd5b61503d8c838d01614f4e565b909650945060608b0135915080821115615055575f80fd5b506150628b828c01614e16565b999c989b5096995094979396929594505050565b5f60208284031215615086575f80fd5b5035919050565b634e487b7160e01b5f52604160045260245ffd5b604051601f8201601f191681016001600160401b03811182821017156150c9576150c961508d565b604052919050565b5f6001600160401b038211156150e9576150e961508d565b5060051b60200190565b5f82601f830112615102575f80fd5b81356020615117615112836150d1565b6150a1565b8083825260208201915060208460051b870101935086841115615138575f80fd5b602086015b84811015615154578035835291830191830161513d565b509695505050505050565b5f82601f83011261516e575f80fd5b81356001600160401b038111156151875761518761508d565b61519a601f8201601f19166020016150a1565b8181528460208386010111156151ae575f80fd5b816020850160208301375f918101602001919091529392505050565b5f805f805f60a086880312156151de575f80fd5b85356151e981614da8565b945060208601356151f981614da8565b935060408601356001600160401b0380821115615214575f80fd5b61522089838a016150f3565b94506060880135915080821115615235575f80fd5b61524189838a016150f3565b93506080880135915080821115615256575f80fd5b506152638882890161515f565b9150509295509295909350565b5f8060408385031215615281575f80fd5b82356001600160401b0380821115615297575f80fd5b818501915085601f8301126152aa575f80fd5b813560206152ba615112836150d1565b82815260059290921b840181019181810190898411156152d8575f80fd5b948201945b838610156152ff5785356152f081614da8565b825294820194908201906152dd565b96505086013592505080821115615314575f80fd5b50615321858286016150f3565b9150509250929050565b5f815180845260208085019450602084015f5b8381101561535a5781518752958201959082019060010161533e565b509495945050505050565b602081525f614851602083018461532b565b5f8060408385031215615388575f80fd5b823561539381614da8565b915060208301356153a381614da8565b809150509250929050565b5f805f805f805f6080888a0312156153c4575f80fd5b87356153cf81614da8565b965060208801356001600160401b03808211156153ea575f80fd5b6153f68b838c01614f4e565b909850965060408a013591508082111561540e575f80fd5b61541a8b838c01614f4e565b909650945060608a0135915080821115615432575f80fd5b5061543f8a828b01614e16565b989b979a50959850939692959293505050565b80356001600160401b0381168114615468575f80fd5b919050565b5f806040838503121561547e575f80fd5b82356001600160401b03811115615493575f80fd5b61549f858286016150f3565b9250506154ae60208401615452565b90509250929050565b5f80604083850312156154c8575f80fd5b82356154d381614da8565b915060208301356001600160601b03811681146153a3575f80fd5b5f805f8060608587031215615501575f80fd5b843593506020850135925060408501356001600160401b03811115615524575f80fd5b61553087828801614e16565b95989497509550505050565b5f806040838503121561554d575f80fd5b823591506154ae60208401615452565b5f805f805f805f60a0888a031215615573575f80fd5b873561557e81614da8565b9650602088013561558e81614da8565b955060408801356001600160401b03808211156155a9575f80fd5b6155b58b838c01614e16565b909750955060608a01359150808211156155cd575f80fd5b506155da8a828b01614e16565b989b979a50959894979596608090950135949350505050565b8015158114613333575f80fd5b5f8060408385031215615611575f80fd5b823561561c81614da8565b915060208301356153a3816155f3565b5f805f6060848603121561563e575f80fd5b833561564981614da8565b925060208401359150604084013560028110615663575f80fd5b809150509250925092565b5f805f60408486031215615680575f80fd5b83356001600160401b03811115615695575f80fd5b6156a186828701614e16565b909790965060209590950135949350505050565b5f805f606084860312156156c7575f80fd5b83356156d281614da8565b9250602084013591506156e760408501615452565b90509250925092565b5f805f805f60a08688031215615704575f80fd5b853561570f81614da8565b9450602086013561571f81614da8565b9350604086013592506060860135915060808601356001600160401b03811115615747575f80fd5b6152638882890161515f565b5f805f805f60608688031215615767575f80fd5b853561577281614da8565b945060208601356001600160401b038082111561578d575f80fd5b61579989838a01614f4e565b909650945060408801359150808211156157b1575f80fd5b506157be88828901614f4e565b969995985093965092949392505050565b81835281816020850137505f828201602090810191909152601f909101601f19169091010190565b6001600160a01b03841681526040602082018190525f9061581b90830184866157cf565b95945050505050565b604081525f6158376040830186886157cf565b828103602084015261584a8185876157cf565b979650505050505050565b600181811c9082168061586957607f821691505b6020821081036134ab57634e487b7160e01b5f52602260045260245ffd5b6001600160a01b0392909216825260ff16602082015260400190565b634e487b7160e01b5f52603260045260245ffd5b5f8235605e198336030181126158cb575f80fd5b9190910192915050565b5f602082840312156158e5575f80fd5b813561ffff81168114614851575f80fd5b634e487b7160e01b5f52601160045260245ffd5b5f61ffff808316818103615920576159206158f6565b6001019392505050565b600181815b8085111561596457815f190482111561594a5761594a6158f6565b8085161561595757918102915b93841c939080029061592f565b509250929050565b5f8261597a575060016106e5565b8161598657505f6106e5565b816001811461599c57600281146159a6576159c2565b60019150506106e5565b60ff8411156159b7576159b76158f6565b50506001821b6106e5565b5060208310610133831016604e8410600b84101617156159e5575081810a6106e5565b6159ef838361592a565b805f1904821115615a0257615a026158f6565b029392505050565b5f61485160ff84168361596c565b80820281158282048414176106e5576106e56158f6565b6001600160a01b03868116825285166020820152604081018490526080606082018190525f9061584a90830184866157cf565b5f60208284031215615a72575f80fd5b8151614851816155f3565b6001600160a01b038781168252861660208201526040810185905260a0606082018190525f90615ab090830185876157cf565b905060ff83166080830152979650505050505050565b818103818111156106e5576106e56158f6565b5f82615af357634e487b7160e01b5f52601260045260245ffd5b500490565b6001600160a01b03831681526040810160028310615b2457634e487b7160e01b5f52602160045260245ffd5b8260208301529392505050565b5f60208284031215615b41575f80fd5b815161485181614da8565b6001600160401b03828116828216039080821115615b6c57615b6c6158f6565b5092915050565b602081525f6112f76020830184866157cf565b6001600160a01b0395909516855260208501939093526001600160401b03918216604085015216606083015260ff16608082015260a00190565b604081525f615bd36040830185876157cf565b905060ff83166020830152949350505050565b808201808211156106e5576106e56158f6565b5f60018201615c0a57615c0a6158f6565b5060010190565b6001600160401b03818116838216019080821115615b6c57615b6c6158f6565b5f6001600160401b03808316818103615920576159206158f6565b61ffff818116838216019080821115615b6c57615b6c6158f6565b5f60208284031215615c77575f80fd5b81356001600160c01b0381168114614851575f80fd5b8181035f831280158383131683831282161715615b6c57615b6c6158f6565b8082018281125f831280158216821582161715615ccb57615ccb6158f6565b505092915050565b61ffff828116828216039080821115615b6c57615b6c6158f6565b5f808335601e19843603018112615d03575f80fd5b8301803591506001600160401b03821115615d1c575f80fd5b6020019150600581901b3603821315614e53575f80fd5b61ffff818116838216028082169190828114615ccb57615ccb6158f6565b5f808335601e19843603018112615d66575f80fd5b8301803591506001600160401b03821115615d7f575f80fd5b602001915036819003821315614e53575f80fd5b604081525f615da5604083018561532b565b828103602084015261581b818561532b565b6001600160a01b039490941684526020840192909252604083015260ff16606082015260800190565b6001600160a01b0386811682528516602082015260a0604082018190525f90615e0b9083018661532b565b8281036060840152615e1d818661532b565b90508281036080840152615e318185614ede565b98975050505050505050565b6001600160a01b0387811682528616602082015260c0604082018190525f90615e689083018761532b565b8281036060840152615e7a818761532b565b90508281036080840152615e8e8186614ede565b91505060ff831660a0830152979650505050505050565b60208152815160208201525f602083015160606040840152615eca6080840182614ede565b90506040840151601f1984830301606085015261581b8282614ede565b6001600160a01b03868116825285166020820152604081018490526060810183905260a0608082018190525f9061584a90830184614ede565b5f60208284031215615f30575f80fd5b815161485181614de656fea2646970667358221220f2f84f722a84252ade024521101ac70969ede5036c24d6a5ff593173bcb49e3b64736f6c63430008180033","linkReferences":{}},"methodIdentifiers":{"avatars(address)":"edeeb93c","balanceOf(address,uint256)":"00fdd58e","balanceOfBatch(address[],uint256[])":"4e1273f4","balanceOfOnDay(address,uint256,uint64)":"eb8c2760","burn(uint256,uint256,bytes)":"80a5a371","calculateIssuance(address)":"f179c713","calculateIssuanceWithCheck(address)":"9cd02313","convertBatchInflationaryToDemurrageValues(uint256[],uint64)":"7421c1d7","convertInflationaryToDemurrageValue(uint256,uint64)":"99342aa3","day(uint256)":"8ff12b6d","groupMint(address,address[],uint256[],bytes)":"6cb498e5","inflationDayZero()":"7c234d01","inviteHuman(address)":"6247899b","isApprovedForAll(address,address)":"e985e9c5","isGroup(address)":"9e0cc3c4","isHuman(address)":"f72c436f","isOrganization(address)":"b1ce8eab","isPermittedFlow(address,address)":"a3d99b6c","isTrusted(address,address)":"6713e230","migrate(address,address[],uint256[])":"f3177079","mintPolicies(address)":"da33e065","name()":"06fdde03","operateFlowMatrix(address[],(uint16,uint192)[],(uint16,uint16[],bytes)[],bytes)":"0d22d9b5","personalMint()":"0d873a79","registerCustomGroup(address,address,string,string,bytes32)":"9bec5726","registerGroup(address,string,string,bytes32)":"0528f507","registerHuman(bytes32)":"aeefe51b","registerOrganization(string,bytes32)":"bfde380d","safeBatchTransferFrom(address,address,uint256[],uint256[],bytes)":"2eb2c2d6","safeTransferFrom(address,address,uint256,uint256,bytes)":"f242432a","setApprovalForAll(address,bool)":"a22cb465","stop()":"07da68f5","stopped(address)":"47df87ab","supportsInterface(bytes4)":"01ffc9a7","symbol()":"95d89b41","toTokenId(address)":"7cf637cd","totalSupply(uint256)":"bd85b039","treasuries(address)":"0849b234","trust(address,uint96)":"75dcebc7","trustMarkers(address,address)":"7cd0cea6","uri(uint256)":"0e89341c","wrap(address,uint256,uint8)":"aabd6954"},"id":53}