{"abi":[{"type":"constructor","inputs":[{"name":"_hubV1","type":"address","internalType":"contract IHubV1"},{"name":"_nameRegistry","type":"address","internalType":"contract INameRegistry"},{"name":"_migration","type":"address","internalType":"address"},{"name":"_liftERC20","type":"address","internalType":"contract IERC20Lift"},{"name":"_standardTreasury","type":"address","internalType":"address"},{"name":"_inflationDayZero","type":"uint256","internalType":"uint256"},{"name":"_bootstrapTime","type":"uint256","internalType":"uint256"},{"name":"_gatewayUrl","type":"string","internalType":"string"}],"stateMutability":"nonpayable"},{"type":"function","name":"advancedUsageFlags","inputs":[{"name":"","type":"address","internalType":"address"}],"outputs":[{"name":"","type":"bytes32","internalType":"bytes32"}],"stateMutability":"view"},{"type":"function","name":"avatars","inputs":[{"name":"","type":"address","internalType":"address"}],"outputs":[{"name":"","type":"address","internalType":"address"}],"stateMutability":"view"},{"type":"function","name":"balanceOf","inputs":[{"name":"_account","type":"address","internalType":"address"},{"name":"_id","type":"uint256","internalType":"uint256"}],"outputs":[{"name":"","type":"uint256","internalType":"uint256"}],"stateMutability":"view"},{"type":"function","name":"balanceOfBatch","inputs":[{"name":"_accounts","type":"address[]","internalType":"address[]"},{"name":"_ids","type":"uint256[]","internalType":"uint256[]"}],"outputs":[{"name":"","type":"uint256[]","internalType":"uint256[]"}],"stateMutability":"view"},{"type":"function","name":"balanceOfOnDay","inputs":[{"name":"_account","type":"address","internalType":"address"},{"name":"_id","type":"uint256","internalType":"uint256"},{"name":"_day","type":"uint64","internalType":"uint64"}],"outputs":[{"name":"balanceOnDay_","type":"uint256","internalType":"uint256"},{"name":"discountCost_","type":"uint256","internalType":"uint256"}],"stateMutability":"view"},{"type":"function","name":"burn","inputs":[{"name":"_id","type":"uint256","internalType":"uint256"},{"name":"_amount","type":"uint256","internalType":"uint256"},{"name":"_data","type":"bytes","internalType":"bytes"}],"outputs":[],"stateMutability":"nonpayable"},{"type":"function","name":"calculateIssuance","inputs":[{"name":"_human","type":"address","internalType":"address"}],"outputs":[{"name":"","type":"uint256","internalType":"uint256"},{"name":"","type":"uint256","internalType":"uint256"},{"name":"","type":"uint256","internalType":"uint256"}],"stateMutability":"view"},{"type":"function","name":"calculateIssuanceWithCheck","inputs":[{"name":"_human","type":"address","internalType":"address"}],"outputs":[{"name":"","type":"uint256","internalType":"uint256"},{"name":"","type":"uint256","internalType":"uint256"},{"name":"","type":"uint256","internalType":"uint256"}],"stateMutability":"nonpayable"},{"type":"function","name":"convertDemurrageToInflationaryValue","inputs":[{"name":"_demurrageValue","type":"uint256","internalType":"uint256"},{"name":"_dayUpdated","type":"uint64","internalType":"uint64"}],"outputs":[{"name":"","type":"uint256","internalType":"uint256"}],"stateMutability":"pure"},{"type":"function","name":"convertInflationaryToDemurrageValue","inputs":[{"name":"_inflationaryValue","type":"uint256","internalType":"uint256"},{"name":"_day","type":"uint64","internalType":"uint64"}],"outputs":[{"name":"","type":"uint256","internalType":"uint256"}],"stateMutability":"pure"},{"type":"function","name":"day","inputs":[{"name":"_timestamp","type":"uint256","internalType":"uint256"}],"outputs":[{"name":"","type":"uint64","internalType":"uint64"}],"stateMutability":"view"},{"type":"function","name":"groupMint","inputs":[{"name":"_group","type":"address","internalType":"address"},{"name":"_collateralAvatars","type":"address[]","internalType":"address[]"},{"name":"_amounts","type":"uint256[]","internalType":"uint256[]"},{"name":"_data","type":"bytes","internalType":"bytes"}],"outputs":[],"stateMutability":"nonpayable"},{"type":"function","name":"inflationDayZero","inputs":[],"outputs":[{"name":"","type":"uint256","internalType":"uint256"}],"stateMutability":"view"},{"type":"function","name":"invitationOnlyTime","inputs":[],"outputs":[{"name":"","type":"uint256","internalType":"uint256"}],"stateMutability":"view"},{"type":"function","name":"isApprovedForAll","inputs":[{"name":"_account","type":"address","internalType":"address"},{"name":"_operator","type":"address","internalType":"address"}],"outputs":[{"name":"","type":"bool","internalType":"bool"}],"stateMutability":"view"},{"type":"function","name":"isGroup","inputs":[{"name":"_group","type":"address","internalType":"address"}],"outputs":[{"name":"","type":"bool","internalType":"bool"}],"stateMutability":"view"},{"type":"function","name":"isHuman","inputs":[{"name":"_human","type":"address","internalType":"address"}],"outputs":[{"name":"","type":"bool","internalType":"bool"}],"stateMutability":"view"},{"type":"function","name":"isOrganization","inputs":[{"name":"_organization","type":"address","internalType":"address"}],"outputs":[{"name":"","type":"bool","internalType":"bool"}],"stateMutability":"view"},{"type":"function","name":"isPermittedFlow","inputs":[{"name":"_from","type":"address","internalType":"address"},{"name":"_to","type":"address","internalType":"address"},{"name":"_circlesAvatar","type":"address","internalType":"address"}],"outputs":[{"name":"","type":"bool","internalType":"bool"}],"stateMutability":"view"},{"type":"function","name":"isTrusted","inputs":[{"name":"_truster","type":"address","internalType":"address"},{"name":"_trustee","type":"address","internalType":"address"}],"outputs":[{"name":"","type":"bool","internalType":"bool"}],"stateMutability":"view"},{"type":"function","name":"migrate","inputs":[{"name":"_owner","type":"address","internalType":"address"},{"name":"_avatars","type":"address[]","internalType":"address[]"},{"name":"_amounts","type":"uint256[]","internalType":"uint256[]"}],"outputs":[],"stateMutability":"nonpayable"},{"type":"function","name":"mintPolicies","inputs":[{"name":"","type":"address","internalType":"address"}],"outputs":[{"name":"","type":"address","internalType":"address"}],"stateMutability":"view"},{"type":"function","name":"operateFlowMatrix","inputs":[{"name":"_flowVertices","type":"address[]","internalType":"address[]"},{"name":"_flow","type":"tuple[]","internalType":"struct TypeDefinitions.FlowEdge[]","components":[{"name":"streamSinkId","type":"uint16","internalType":"uint16"},{"name":"amount","type":"uint192","internalType":"uint192"}]},{"name":"_streams","type":"tuple[]","internalType":"struct TypeDefinitions.Stream[]","components":[{"name":"sourceCoordinate","type":"uint16","internalType":"uint16"},{"name":"flowEdgeIds","type":"uint16[]","internalType":"uint16[]"},{"name":"data","type":"bytes","internalType":"bytes"}]},{"name":"_packedCoordinates","type":"bytes","internalType":"bytes"}],"outputs":[],"stateMutability":"nonpayable"},{"type":"function","name":"personalMint","inputs":[],"outputs":[],"stateMutability":"nonpayable"},{"type":"function","name":"registerCustomGroup","inputs":[{"name":"_mint","type":"address","internalType":"address"},{"name":"_treasury","type":"address","internalType":"address"},{"name":"_name","type":"string","internalType":"string"},{"name":"_symbol","type":"string","internalType":"string"},{"name":"_metadataDigest","type":"bytes32","internalType":"bytes32"}],"outputs":[],"stateMutability":"nonpayable"},{"type":"function","name":"registerGroup","inputs":[{"name":"_mint","type":"address","internalType":"address"},{"name":"_name","type":"string","internalType":"string"},{"name":"_symbol","type":"string","internalType":"string"},{"name":"_metadataDigest","type":"bytes32","internalType":"bytes32"}],"outputs":[],"stateMutability":"nonpayable"},{"type":"function","name":"registerHuman","inputs":[{"name":"_inviter","type":"address","internalType":"address"},{"name":"_metadataDigest","type":"bytes32","internalType":"bytes32"}],"outputs":[],"stateMutability":"nonpayable"},{"type":"function","name":"registerOrganization","inputs":[{"name":"_name","type":"string","internalType":"string"},{"name":"_metadataDigest","type":"bytes32","internalType":"bytes32"}],"outputs":[],"stateMutability":"nonpayable"},{"type":"function","name":"safeBatchTransferFrom","inputs":[{"name":"_from","type":"address","internalType":"address"},{"name":"_to","type":"address","internalType":"address"},{"name":"_ids","type":"uint256[]","internalType":"uint256[]"},{"name":"_values","type":"uint256[]","internalType":"uint256[]"},{"name":"_data","type":"bytes","internalType":"bytes"}],"outputs":[],"stateMutability":"nonpayable"},{"type":"function","name":"safeTransferFrom","inputs":[{"name":"_from","type":"address","internalType":"address"},{"name":"_to","type":"address","internalType":"address"},{"name":"_id","type":"uint256","internalType":"uint256"},{"name":"_value","type":"uint256","internalType":"uint256"},{"name":"_data","type":"bytes","internalType":"bytes"}],"outputs":[],"stateMutability":"nonpayable"},{"type":"function","name":"setAdvancedUsageFlag","inputs":[{"name":"_flag","type":"bytes32","internalType":"bytes32"}],"outputs":[],"stateMutability":"nonpayable"},{"type":"function","name":"setApprovalForAll","inputs":[{"name":"_operator","type":"address","internalType":"address"},{"name":"_approved","type":"bool","internalType":"bool"}],"outputs":[],"stateMutability":"nonpayable"},{"type":"function","name":"stop","inputs":[],"outputs":[],"stateMutability":"nonpayable"},{"type":"function","name":"stopped","inputs":[{"name":"_human","type":"address","internalType":"address"}],"outputs":[{"name":"","type":"bool","internalType":"bool"}],"stateMutability":"view"},{"type":"function","name":"supportsInterface","inputs":[{"name":"_interfaceId","type":"bytes4","internalType":"bytes4"}],"outputs":[{"name":"","type":"bool","internalType":"bool"}],"stateMutability":"view"},{"type":"function","name":"toTokenId","inputs":[{"name":"_avatar","type":"address","internalType":"address"}],"outputs":[{"name":"","type":"uint256","internalType":"uint256"}],"stateMutability":"pure"},{"type":"function","name":"totalSupply","inputs":[{"name":"_id","type":"uint256","internalType":"uint256"}],"outputs":[{"name":"","type":"uint256","internalType":"uint256"}],"stateMutability":"view"},{"type":"function","name":"treasuries","inputs":[{"name":"","type":"address","internalType":"address"}],"outputs":[{"name":"","type":"address","internalType":"address"}],"stateMutability":"view"},{"type":"function","name":"trust","inputs":[{"name":"_trustReceiver","type":"address","internalType":"address"},{"name":"_expiry","type":"uint96","internalType":"uint96"}],"outputs":[],"stateMutability":"nonpayable"},{"type":"function","name":"trustMarkers","inputs":[{"name":"","type":"address","internalType":"address"},{"name":"","type":"address","internalType":"address"}],"outputs":[{"name":"previous","type":"address","internalType":"address"},{"name":"expiry","type":"uint96","internalType":"uint96"}],"stateMutability":"view"},{"type":"function","name":"uri","inputs":[{"name":"","type":"uint256","internalType":"uint256"}],"outputs":[{"name":"","type":"string","internalType":"string"}],"stateMutability":"view"},{"type":"function","name":"wrap","inputs":[{"name":"_avatar","type":"address","internalType":"address"},{"name":"_amount","type":"uint256","internalType":"uint256"},{"name":"_type","type":"uint8","internalType":"enum CirclesType"}],"outputs":[{"name":"","type":"address","internalType":"address"}],"stateMutability":"nonpayable"},{"type":"event","name":"ApprovalForAll","inputs":[{"name":"account","type":"address","indexed":true,"internalType":"address"},{"name":"operator","type":"address","indexed":true,"internalType":"address"},{"name":"approved","type":"bool","indexed":false,"internalType":"bool"}],"anonymous":false},{"type":"event","name":"DiscountCost","inputs":[{"name":"account","type":"address","indexed":true,"internalType":"address"},{"name":"id","type":"uint256","indexed":true,"internalType":"uint256"},{"name":"discountCost","type":"uint256","indexed":false,"internalType":"uint256"}],"anonymous":false},{"type":"event","name":"FlowEdgesScopeLastEnded","inputs":[],"anonymous":false},{"type":"event","name":"FlowEdgesScopeSingleStarted","inputs":[{"name":"flowEdgeId","type":"uint256","indexed":true,"internalType":"uint256"},{"name":"streamId","type":"uint16","indexed":false,"internalType":"uint16"}],"anonymous":false},{"type":"event","name":"GroupMint","inputs":[{"name":"sender","type":"address","indexed":true,"internalType":"address"},{"name":"receiver","type":"address","indexed":true,"internalType":"address"},{"name":"group","type":"address","indexed":true,"internalType":"address"},{"name":"collateral","type":"uint256[]","indexed":false,"internalType":"uint256[]"},{"name":"amounts","type":"uint256[]","indexed":false,"internalType":"uint256[]"}],"anonymous":false},{"type":"event","name":"PersonalMint","inputs":[{"name":"human","type":"address","indexed":true,"internalType":"address"},{"name":"amount","type":"uint256","indexed":false,"internalType":"uint256"},{"name":"startPeriod","type":"uint256","indexed":false,"internalType":"uint256"},{"name":"endPeriod","type":"uint256","indexed":false,"internalType":"uint256"}],"anonymous":false},{"type":"event","name":"RegisterGroup","inputs":[{"name":"group","type":"address","indexed":true,"internalType":"address"},{"name":"mint","type":"address","indexed":true,"internalType":"address"},{"name":"treasury","type":"address","indexed":true,"internalType":"address"},{"name":"name","type":"string","indexed":false,"internalType":"string"},{"name":"symbol","type":"string","indexed":false,"internalType":"string"}],"anonymous":false},{"type":"event","name":"RegisterHuman","inputs":[{"name":"avatar","type":"address","indexed":true,"internalType":"address"},{"name":"inviter","type":"address","indexed":true,"internalType":"address"}],"anonymous":false},{"type":"event","name":"RegisterOrganization","inputs":[{"name":"organization","type":"address","indexed":true,"internalType":"address"},{"name":"name","type":"string","indexed":false,"internalType":"string"}],"anonymous":false},{"type":"event","name":"SetAdvancedUsageFlag","inputs":[{"name":"avatar","type":"address","indexed":true,"internalType":"address"},{"name":"flag","type":"bytes32","indexed":false,"internalType":"bytes32"}],"anonymous":false},{"type":"event","name":"Stopped","inputs":[{"name":"avatar","type":"address","indexed":true,"internalType":"address"}],"anonymous":false},{"type":"event","name":"StreamCompleted","inputs":[{"name":"operator","type":"address","indexed":true,"internalType":"address"},{"name":"from","type":"address","indexed":true,"internalType":"address"},{"name":"to","type":"address","indexed":true,"internalType":"address"},{"name":"ids","type":"uint256[]","indexed":false,"internalType":"uint256[]"},{"name":"amounts","type":"uint256[]","indexed":false,"internalType":"uint256[]"}],"anonymous":false},{"type":"event","name":"TransferBatch","inputs":[{"name":"operator","type":"address","indexed":true,"internalType":"address"},{"name":"from","type":"address","indexed":true,"internalType":"address"},{"name":"to","type":"address","indexed":true,"internalType":"address"},{"name":"ids","type":"uint256[]","indexed":false,"internalType":"uint256[]"},{"name":"values","type":"uint256[]","indexed":false,"internalType":"uint256[]"}],"anonymous":false},{"type":"event","name":"TransferSingle","inputs":[{"name":"operator","type":"address","indexed":true,"internalType":"address"},{"name":"from","type":"address","indexed":true,"internalType":"address"},{"name":"to","type":"address","indexed":true,"internalType":"address"},{"name":"id","type":"uint256","indexed":false,"internalType":"uint256"},{"name":"value","type":"uint256","indexed":false,"internalType":"uint256"}],"anonymous":false},{"type":"event","name":"Trust","inputs":[{"name":"truster","type":"address","indexed":true,"internalType":"address"},{"name":"trustee","type":"address","indexed":true,"internalType":"address"},{"name":"expiryTime","type":"uint256","indexed":false,"internalType":"uint256"}],"anonymous":false},{"type":"event","name":"URI","inputs":[{"name":"value","type":"string","indexed":false,"internalType":"string"},{"name":"id","type":"uint256","indexed":true,"internalType":"uint256"}],"anonymous":false},{"type":"error","name":"CirclesAmountOverflow","inputs":[{"name":"amount","type":"uint256","internalType":"uint256"},{"name":"code","type":"uint8","internalType":"uint8"}]},{"type":"error","name":"CirclesERC1155CannotReceiveBatch","inputs":[{"name":"code","type":"uint8","internalType":"uint8"}]},{"type":"error","name":"CirclesErrorAddressUintArgs","inputs":[{"name":"","type":"address","internalType":"address"},{"name":"","type":"uint256","internalType":"uint256"},{"name":"","type":"uint8","internalType":"uint8"}]},{"type":"error","name":"CirclesErrorNoArgs","inputs":[{"name":"","type":"uint8","internalType":"uint8"}]},{"type":"error","name":"CirclesErrorOneAddressArg","inputs":[{"name":"","type":"address","internalType":"address"},{"name":"","type":"uint8","internalType":"uint8"}]},{"type":"error","name":"CirclesHubFlowEdgeStreamMismatch","inputs":[{"name":"flowEdgeId","type":"uint256","internalType":"uint256"},{"name":"streamId","type":"uint256","internalType":"uint256"},{"name":"code","type":"uint8","internalType":"uint8"}]},{"type":"error","name":"CirclesHubNettedFlowMismatch","inputs":[{"name":"vertexPosition","type":"uint256","internalType":"uint256"},{"name":"matrixNettedFlow","type":"int256","internalType":"int256"},{"name":"streamNettedFlow","type":"int256","internalType":"int256"}]},{"type":"error","name":"CirclesHubStreamMismatch","inputs":[{"name":"streamId","type":"uint256","internalType":"uint256"}]},{"type":"error","name":"CirclesIdMustBeDerivedFromAddress","inputs":[{"name":"providedId","type":"uint256","internalType":"uint256"},{"name":"code","type":"uint8","internalType":"uint8"}]},{"type":"error","name":"CirclesInvalidCirclesId","inputs":[{"name":"id","type":"uint256","internalType":"uint256"},{"name":"code","type":"uint8","internalType":"uint8"}]},{"type":"error","name":"CirclesInvalidParameter","inputs":[{"name":"parameter","type":"uint256","internalType":"uint256"},{"name":"code","type":"uint8","internalType":"uint8"}]},{"type":"error","name":"CirclesProxyAlreadyInitialized","inputs":[]},{"type":"error","name":"CirclesReentrancyGuard","inputs":[{"name":"code","type":"uint8","internalType":"uint8"}]},{"type":"error","name":"ERC1155InsufficientBalance","inputs":[{"name":"sender","type":"address","internalType":"address"},{"name":"balance","type":"uint256","internalType":"uint256"},{"name":"needed","type":"uint256","internalType":"uint256"},{"name":"tokenId","type":"uint256","internalType":"uint256"}]},{"type":"error","name":"ERC1155InvalidApprover","inputs":[{"name":"approver","type":"address","internalType":"address"}]},{"type":"error","name":"ERC1155InvalidArrayLength","inputs":[{"name":"idsLength","type":"uint256","internalType":"uint256"},{"name":"valuesLength","type":"uint256","internalType":"uint256"}]},{"type":"error","name":"ERC1155InvalidOperator","inputs":[{"name":"operator","type":"address","internalType":"address"}]},{"type":"error","name":"ERC1155InvalidReceiver","inputs":[{"name":"receiver","type":"address","internalType":"address"}]},{"type":"error","name":"ERC1155InvalidSender","inputs":[{"name":"sender","type":"address","internalType":"address"}]},{"type":"error","name":"ERC1155MissingApprovalForAll","inputs":[{"name":"operator","type":"address","internalType":"address"},{"name":"owner","type":"address","internalType":"address"}]}],"bytecode":{"object":"0x6102a06040526818000000000000000060c0908152682ffec785b3614dbacc60e0526847fc56a0fe9220851661010052685ff8ad61c531c51ed4610120526877f3cbd7ea10a8394961014052688fedb2134f3060fc826101605268a7e66023d5c3bb8c4e6101805268bfddd6195e2ec38ca76101a05268d7d41403c806cea59c6101c05268efc919f2f2128706a76101e052690107bce7f6ba49f5e9836102005269011faf7e1efdd68e147261022052690137a0dc7b9913365c016102405269014f91031c678c54243d610260526901677ff21143ffd5e163610280526100ea90600190600f6104ce565b503480156100f6575f80fd5b506040516166cf3803806166cf833981016040819052610115916105b4565b828180825f5b600e60ff8216116101965761013b67fff2fae779633d1e60ff8316610296565b60098260ff16600f8110610151576101516106d2565b600291828204019190066010026101000a8154816001600160801b030219169083600f0b6001600160801b03160217905550808061018e906106fa565b91505061011b565b505f556101a2816104be565b5050506001600160a01b0388166101d35760405163d82c8fc960e01b81525f60048201526024015b60405180910390fd5b6001600160a01b0384166101fd5760405163d82c8fc960e01b8152600160048201526024016101ca565b60015f819052601a6020527ff88cd8d612926ebb404e40725c01084b6e9b3ce0344cde068570342cbd448c6180546001600160a01b031990811690921790556001600160a01b038981166080526016805483168a8316179055601780548316898316179055601880548316888316179055601980549092169086161790556102858242610718565b60a0525061086e9650505050505050565b5f805f84600f0b1280156102ad5750826001166001145b90505f8085600f0b126102c057846102c4565b845f035b6001600160801b03169050600160801b68010000000000000000821161035e57603f82901b91505b8415610356576001851615610301578102607f1c5b908002607f1c906002851615610317578102607f1c5b908002607f1c90600485161561032d578102607f1c5b908002607f1c906008851615610343578102607f1c5b60049490941c93908002607f1c906102ec565b60401c610479565b603f6c010000000000000000000000008310156103815760209290921b91601f19015b600160701b8310156103995760109290921b91600f19015b600160781b8310156103b15760089290921b91600719015b6001607c1b8310156103c95760049290921b91600319015b6001607e1b8310156103e15760029290921b91600119015b6001607f1b8310156103f85760019290921b915f19015b5f5b8615610463576040821061040c575f80fd5b600187161561043257918302607f1c918101600160801b83111561043257600192831c92015b928002607f1c9260019190911b90600160801b841061045757600193841c9391909101905b600187901c96506103fa565b6040811061046f575f80fd5b6040039190911c90505b5f836104855781610489565b815f035b905060016001607f1b031981128015906104aa575060016001607f1b038113155b6104b2575f80fd5b93505050505b92915050565b60146104ca82826107af565b5050565b600883019183908215610565579160200282015f5b8382111561053057835183826101000a8154816001600160801b030219169083600f0b6001600160801b031602179055509260200192601001602081600f010492830192600103026104e3565b80156105635782816101000a8154906001600160801b030219169055601001602081600f01049283019260010302610530565b505b50610571929150610575565b5090565b5b80821115610571575f8155600101610576565b6001600160a01b038116811461059d575f80fd5b50565b634e487b7160e01b5f52604160045260245ffd5b5f805f805f805f80610100898b0312156105cc575f80fd5b88516105d781610589565b60208a01519098506105e881610589565b60408a01519097506105f981610589565b60608a015190965061060a81610589565b60808a015190955061061b81610589565b60a08a015160c08b015160e08c015192965090945092506001600160401b0380821115610646575f80fd5b818b0191508b601f830112610659575f80fd5b81518181111561066b5761066b6105a0565b604051601f8201601f19908116603f01168101908382118183101715610693576106936105a0565b816040528281528e60208487010111156106ab575f80fd5b8260208601602083015e5f6020848301015280955050505050509295985092959890939650565b634e487b7160e01b5f52603260045260245ffd5b634e487b7160e01b5f52601160045260245ffd5b5f60ff821660ff810361070f5761070f6106e6565b60010192915050565b808201808211156104b8576104b86106e6565b600181811c9082168061073f57607f821691505b60208210810361075d57634e487b7160e01b5f52602260045260245ffd5b50919050565b601f8211156107aa57805f5260205f20601f840160051c810160208510156107885750805b601f840160051c820191505b818110156107a7575f8155600101610794565b50505b505050565b81516001600160401b038111156107c8576107c86105a0565b6107dc816107d6845461072b565b84610763565b602080601f83116001811461080f575f84156107f85750858301515b5f19600386901b1c1916600185901b178555610866565b5f85815260208120601f198616915b8281101561083d5788860151825594840194600190910190840161081e565b508582101561085a57878501515f19600388901b60f8161c191681555b505060018460011b0185555b505050505050565b60805160a051615e2b6108a45f395f8181610364015281816116c0015281816117580152611a8001525f6143960152615e2b5ff3fe608060405234801561000f575f80fd5b5060043610610254575f3560e01c80638ff12b6d11610140578063bfde380d116100bf578063edeeb93c11610084578063edeeb93c1461063a578063f179c71314610662578063f242432a14610675578063f317707914610688578063f72c436f1461069b578063f796a4af146106ae575f80fd5b8063bfde380d146105b1578063da33e065146105c4578063e76cec53146105ec578063e985e9c5146105ff578063eb8c276014610612575f80fd5b8063a22cb46511610105578063a22cb46514610552578063aabd695414610565578063b1ce8eab14610578578063bd85b0391461058b578063bda79c541461059e575f80fd5b80638ff12b6d146104a657806399342aa3146104d15780639bec5726146104e45780639cd02313146104f75780639e0cc3c414610525575f80fd5b80632f01b98b116101d75780636cb498e51161019c5780636cb498e5146103df57806375dcebc7146103f25780637c234d01146104055780637cd0cea61461040d5780637cf637cd1461047957806380a5a37114610493575f80fd5b80632f01b98b1461035f57806347df87ab146103865780634e1273f4146103995780634f338925146103b95780636713e230146103cc575f80fd5b80630d22d9b51161021d5780630d22d9b5146102fe5780630d873a79146103115780630e89341c14610319578063253dd0b5146103395780632eb2c2d61461034c575f80fd5b8062fdd58e1461025857806301ffc9a71461027e5780630528f507146102a157806307da68f5146102b65780630849b234146102be575b5f80fd5b61026b610266366004614d8a565b6106cd565b6040519081526020015b60405180910390f35b61029161028c366004614dc9565b6106e8565b6040519015158152602001610275565b6102b46102af366004614e21565b610737565b005b6102b46108d0565b6102e66102cc366004614ea5565b601c6020525f90815260409020546001600160a01b031681565b6040516001600160a01b039091168152602001610275565b6102b461030c366004614f00565b61097e565b6102b4610adc565b61032c610327366004614fe8565b610b1a565b604051610275919061502d565b61026b61034736600461505a565b610bac565b6102b461035a3660046151c1565b610bde565b61026b7f000000000000000000000000000000000000000000000000000000000000000081565b610291610394366004614ea5565b610c45565b6103ac6103a7366004615267565b610c97565b604051610275919061535c565b6102916103c736600461536e565b610d67565b6102916103da3660046153b6565b610e3c565b6102b46103ed3660046153ed565b610e7a565b6102b4610400366004615491565b610f98565b61026b5f5481565b61045261041b3660046153b6565b601d60209081525f92835260408084209091529082529020546001600160a01b03811690600160a01b90046001600160601b031682565b604080516001600160a01b0390931683526001600160601b03909116602083015201610275565b61026b610487366004614ea5565b6001600160a01b031690565b6102b46104a13660046154c8565b61102f565b6104b96104b4366004614fe8565b611126565b6040516001600160401b039091168152602001610275565b61026b6104df36600461505a565b611142565b6102b46104f2366004615516565b61115f565b61050a610505366004614ea5565b6112f3565b60408051938452602084019290925290820152606001610275565b610291610533366004614ea5565b6001600160a01b039081165f908152601b602052604090205416151590565b6102b46105603660046155b9565b611316565b6102e66105733660046155e5565b611321565b610291610586366004614ea5565b611409565b61026b610599366004614fe8565b61147d565b6102b46105ac366004614fe8565b6114f3565b6102b46105bf36600461561c565b61157a565b6102e66105d2366004614ea5565b601b6020525f90815260409020546001600160a01b031681565b6102b46105fa366004614d8a565b61168b565b61029161060d3660046153b6565b611846565b610625610620366004615663565b611873565b60408051928352602083019190915201610275565b6102e6610648366004614ea5565b601a6020525f90815260409020546001600160a01b031681565b61050a610670366004614ea5565b611951565b6102b461068336600461569e565b61196e565b6102b4610696366004615701565b6119cd565b6102916106a9366004614ea5565b611b52565b61026b6106bc366004614ea5565b601e6020525f908152604090205481565b5f806106dd848461062042611126565b509150505b92915050565b5f6001600160e01b03198216636cdb3d1360e11b148061071857506001600160e01b031982166303a24d0760e21b145b806106e257506301ffc9a760e01b6001600160e01b03198316146106e2565b60195461075490339088906001600160a01b031688888888611b7e565b60165460405163d199889360e01b81526001600160a01b039091169063d199889390610788903390899089906004016157a5565b5f604051808303815f87803b15801561079f575f80fd5b505af11580156107b1573d5f803e3d5ffd5b505060165460405163e27871dd60e01b81526001600160a01b03909116925063e27871dd91506107e9903390879087906004016157a5565b5f604051808303815f87803b158015610800575f80fd5b505af1158015610812573d5f803e3d5ffd5b505060165460405163e44b8c3560e01b8152336004820152602481018590526001600160a01b03909116925063e44b8c3591506044015f604051808303815f87803b15801561085f575f80fd5b505af1158015610871573d5f803e3d5ffd5b50506019546040516001600160a01b039182169350908916915033907f851510db3e53b795660f9ffba16469222d46d357be10c67f27f619ffe33b5874906108c0908a908a908a908a906157d2565b60405180910390a4505050505050565b6108d933611b52565b6109035733600260405162c14c0760e81b81526004016108fa929190615803565b60405180910390fd5b335f90815260156020526040902080546bfffffffffffffffffffffffe19600160a01b9091046001600160601b03160161093a5750565b80546001600160a01b03166001600160a01b031917815560405133907f55c4adf1f68f084b809304657594a92ba835ada8d3b5340955bf05746723c05b905f90a250565b5f5c15610989575f80fd5b60015f5d5f610999838388611d1b565b90505f5b84811015610a9057610a0a8a8a8888858181106109bc576109bc61581f565b90506020028101906109ce9190615833565b6109dc906020810190615851565b61ffff168181106109ef576109ef61581f565b9050602002016020810190610a049190614ea5565b33611846565b610a88578989878784818110610a2257610a2261581f565b9050602002810190610a349190615833565b610a42906020810190615851565b61ffff16818110610a5557610a5561581f565b9050602002016020810190610a6a9190614ea5565b815f604051632f20c6dd60e11b81526004016108fa93929190615872565b60010161099d565b505f610a9f8a8a8a8a86611f43565b9050610ab08a8a8a8a8a8a886123c3565b5f610ac08b8b8b8b8b8b89612a1f565b9050610acc8183612ffb565b5050505f805d5050505050505050565b610ae533611b52565b610b065733600160405162c14c0760e81b81526004016108fa929190615803565b610b0f336130d3565b610b183361310e565b565b606060148054610b2990615896565b80601f0160208091040260200160405190810160405280929190818152602001828054610b5590615896565b8015610ba05780601f10610b7757610100808354040283529160200191610ba0565b820191905f5260205f20905b815481529060010190602001808311610b8357829003601f168201915b50505050509050919050565b5f80610bca6801000d05c213d3f237846001600160401b03166131cd565b9050610bd681856133ea565b949350505050565b336001600160a01b0386168114801590610bff5750610bfd8682611846565b155b15610c305760405163711bec9160e11b81526001600160a01b038083166004830152871660248201526044016108fa565b610c3d868686868661344e565b505050505050565b5f610c4f82611b52565b610c705781600360405162c14c0760e81b81526004016108fa929190615803565b5050335f90815260156020526040902054600160a01b90046001600160601b039081161490565b60608151835114610cc85781518351604051635b05999160e01b8152600481019290925260248201526044016108fa565b5f610cd242611126565b90505f84516001600160401b03811115610cee57610cee615084565b604051908082528060200260200182016040528015610d17578160200160208202803683370190505b5090505f5b85518110156106dd57602080820287010151610d419060208084028801015185611873565b50828281518110610d5457610d5461581f565b6020908102919091010152600101610d1c565b6001600160a01b038281165f908152601d6020908152604080832093851683529290529081205442600160a01b9091046001600160601b03161015610dad57505f610e35565b6001600160a01b0384165f908152601e6020526040902054600116610dd457506001610e35565b6001600160a01b038481165f908152601d602090815260408083209387168352929052205442600160a01b9091046001600160601b031610801590610e3257506001600160a01b0383165f908152601e602052604090205460011615155b90505b9392505050565b6001600160a01b039182165f908152601d6020908152604080832093909416825291909152205442600160a01b9091046001600160601b0316101590565b5f856001600160401b03811115610e9357610e93615084565b604051908082528060200260200182016040528015610ebc578160200160208202803683370190505b5090505f5b86811015610f1857610ef3888883818110610ede57610ede61581f565b90506020020160208101906104879190614ea5565b828281518110610f0557610f0561581f565b6020908102919091010152600101610ec1565b50610f8e33338a848989808060200260200160405190810160405280939291908181526020018383602002808284375f9201919091525050604080516020601f8d018190048102820181019092528b815292508b91508a90819084018382808284375f92019190915250600192506134b3915050565b5050505050505050565b335f908152601a60205260409020546001600160a01b03161580610fc357506001600160a01b038216155b80610fd757506001600160a01b0382166001145b80610fea57506001600160a01b03821633145b1561100c578160a160405162c14c0760e81b81526004016108fa929190615803565b42816001600160601b031610156110205750425b61102b3383836137fa565b5050565b5f61103a855f613857565b6001600160a01b038082165f908152601b602052604090205491925016801580159061107f57506001600160a01b038281165f908152601c6020526040902054163314155b1561111b576040516343101c5f60e11b81526001600160a01b0382169063862038be906110b890339086908a908a908a906004016158ce565b6020604051808303815f875af11580156110d4573d5f803e3d5ffd5b505050506040513d601f19601f820116820180604052508101906110f89190615901565b61111b57338660408051632f20c6dd60e11b81526004016108fa93929190615872565b610c3d338787613893565b5f620151805f54836111389190615930565b6106e29190615957565b5f80610bca67fff2fae779633d1e846001600160401b03166131cd565b61116e33888888888888611b7e565b60165460405163d199889360e01b81526001600160a01b039091169063d1998893906111a2903390899089906004016157a5565b5f604051808303815f87803b1580156111b9575f80fd5b505af11580156111cb573d5f803e3d5ffd5b505060165460405163e27871dd60e01b81526001600160a01b03909116925063e27871dd9150611203903390879087906004016157a5565b5f604051808303815f87803b15801561121a575f80fd5b505af115801561122c573d5f803e3d5ffd5b505060165460405163e44b8c3560e01b8152336004820152602481018590526001600160a01b03909116925063e44b8c3591506044015f604051808303815f87803b158015611279575f80fd5b505af115801561128b573d5f803e3d5ffd5b50505050856001600160a01b0316876001600160a01b0316336001600160a01b03167f851510db3e53b795660f9ffba16469222d46d357be10c67f27f619ffe33b5874888888886040516112e294939291906157d2565b60405180910390a450505050505050565b5f805f6112ff846130d3565b61130884613966565b9250925092505b9193909250565b61102b338383613c61565b5f61132b84611b52565b15801561134f57506001600160a01b038481165f908152601b602052604090205416155b156113715783602260405162c14c0760e81b81526004016108fa929190615803565b6018546040516395b645b160e01b81525f916001600160a01b0316906395b645b1906113a3908890879060040161596a565b6020604051808303815f875af11580156113bf573d5f803e3d5ffd5b505050506040513d601f19601f820116820180604052508101906113e391906159a3565b9050610e3233826001600160a01b0388168760405180602001604052805f81525061196e565b6001600160a01b038181165f908152601a60205260408120549091161580159061144a57506001600160a01b038281165f908152601b602052604090205416155b80156106e25750506001600160a01b03165f90815260156020526040902054600160a01b90046001600160601b03161590565b5f8181526012602090815260408083208151808301909252546001600160c01b0381168252600160c01b90046001600160401b031691810191909152816114c342611126565b9050610bd6825f01516001600160c01b03168360200151836114e591906159be565b6001600160401b0316613ced565b335f908152601a60205260409020546001600160a01b031661152c5733602360405162c14c0760e81b81526004016108fa929190615803565b335f818152601e602052604090819020839055517f97595e7ebea71ea0ce8653cbc96a4288b887500876f1e475c26e789506130fc69061156f9084815260200190565b60405180910390a250565b61158333613d06565b60165460405163d199889360e01b81526001600160a01b039091169063d1998893906115b7903390879087906004016157a5565b5f604051808303815f87803b1580156115ce575f80fd5b505af11580156115e0573d5f803e3d5ffd5b505060165460405163e44b8c3560e01b8152336004820152602481018590526001600160a01b03909116925063e44b8c3591506044015f604051808303815f87803b15801561162d575f80fd5b505af115801561163f573d5f803e3d5ffd5b50505050336001600160a01b03167fe191edab93dcedd4a646317289fded1d9665862550b031a14bd3c5b0bc0e5007848460405161167e9291906159e5565b60405180910390a2505050565b6001600160a01b03821661170c575f806116a53385613da4565b90925090506001600160a01b03821660011415806116e357507f00000000000000000000000000000000000000000000000000000000000000008110155b156117055733606060405162c14c0760e81b81526004016108fa929190615803565b50506117e5565b61171582611b52565b158061172857506117268233610e3c565b155b1561174a578160a060405162c14c0760e81b81526004016108fa929190615803565b6117543383613da4565b50507f00000000000000000000000000000000000000000000000000000000000000004211156117e5576117b3826001600160a01b0381166117986012600a615ad8565b6117a3906030615ae6565b6117ae906002615ae6565b613893565b6117e533806117c46012600a615ad8565b6117cf906030615ae6565b60405180602001604052805f8152506001613e46565b801561102b5760165460405163e44b8c3560e01b8152336004820152602481018390526001600160a01b039091169063e44b8c35906044015f604051808303815f87803b158015611834575f80fd5b505af1158015610c3d573d5f803e3d5ffd5b6001600160a01b039182165f90815260136020908152604080832093909416825291909152205460ff1690565b5f8281526011602090815260408083206001600160a01b038716845282528083208151808301909252546001600160c01b03811682526001600160401b03600160c01b90910481169282018390528392908516101561190c576020810151604051632f20c6dd60e11b81526001600160a01b03881660048201526001600160401b03909116602482015260a060448201526064016108fa565b5f816020015185036001600160401b03169050611935825f01516001600160c01b031682613ced565b9151919350506001600160c01b03168290039050935093915050565b5f805f61195d84611b52565b6112ff57505f91508190508061130f565b336001600160a01b038616811480159061198f575061198d8682611846565b155b156119c05760405163711bec9160e11b81526001600160a01b038083166004830152871660248201526044016108fa565b610c3d8686868686613f34565b6017546001600160a01b031633146119fc573360e060405162c14c0760e81b81526004016108fa929190615803565b6001600160a01b038581165f908152601a6020526040902054161580611a225750828114155b15611a445784602160405162c14c0760e81b81526004016108fa929190615803565b5f611a50868686613fb7565b611a5c6012600a615ad8565b611a67906030615ae6565b611a72906002615ae6565b611a7c9190615ae6565b90507f000000000000000000000000000000000000000000000000000000000000000042118015611aac57505f81115b15611aef57611aba86611b52565b611adb5785600460405162c14c0760e81b81526004016108fa929190615803565b611aef866001600160a01b03811683613893565b5f5b84811015611b4957611b4187611b12888885818110610ede57610ede61581f565b868685818110611b2457611b2461581f565b9050602002013560405180602001604052805f8152506001613e46565b600101611af1565b50505050505050565b6001600160a01b03165f90815260156020526040902054600160a01b90046001600160601b0316151590565b6001600160a01b0386161580611b9b57506001600160a01b038516155b15611bbc5760405163d82c8fc960e01b8152600260048201526024016108fa565b601654604051631e30397f60e01b81526001600160a01b0390911690631e30397f90611bee90879087906004016159e5565b602060405180830381865afa158015611c09573d5f803e3d5ffd5b505050506040513d601f19601f82011682018060405250810190611c2d9190615901565b1580611ca757506016546040516347ea7b8d60e11b81526001600160a01b0390911690638fd4f71a90611c6690859085906004016159e5565b602060405180830381865afa158015611c81573d5f803e3d5ffd5b505050506040513d601f19601f82011682018060405250810190611ca59190615901565b155b15611cc85760405163d82c8fc960e01b8152600360048201526024016108fa565b611cd187613d06565b5050506001600160a01b039384165f908152601b6020908152604080832080549688166001600160a01b0319978816179055601c9091529020805492909416919092161790915550565b6060611d28826006615ae6565b8314611d4a5760405163d82c8fc960e01b815260a660048201526024016108fa565b611d55826003615ae6565b6001600160401b03811115611d6c57611d6c615084565b604051908082528060200260200182016040528015611d95578160200160208202803683370190505b5090505f805b84811015611f3a578585611db0836001615afd565b818110611dbf57611dbf61581f565b919091013560f81c90506008878784818110611ddd57611ddd61581f565b919091013560f81c90911b9190911790508383611df981615b10565b945081518110611e0b57611e0b61581f565b61ffff909216602092830291909101909101528585611e2b836003615afd565b818110611e3a57611e3a61581f565b919091013560f81c905060088787611e53856002615afd565b818110611e6257611e6261581f565b919091013560f81c90911b9190911790508383611e7e81615b10565b945081518110611e9057611e9061581f565b61ffff909216602092830291909101909101528585611eb0836005615afd565b818110611ebf57611ebf61581f565b919091013560f81c905060088787611ed8856004615afd565b818110611ee757611ee761581f565b919091013560f81c90911b9190911790508383611f0381615b10565b945081518110611f1557611f1561581f565b61ffff90921660209283029190910190910152611f33600682615afd565b9050611d9b565b50509392505050565b8051606090611f53846003615ae6565b141580611f61575061ffff85115b80611f6a575084155b80611f73575082155b15611f945760405163d82c8fc960e01b815260a260048201526024016108fa565b5f856001600160401b03811115611fad57611fad615084565b604051908082528060200260200182016040528015611fd6578160200160208202803683370190505b5090505f5b611fe6600188615930565b81101561210f578787611ffa836001615afd565b8181106120095761200961581f565b905060200201602081019061201e9190614ea5565b6001600160a01b03168888838181106120395761203961581f565b905060200201602081019061204e9190614ea5565b6001600160a01b0316106120785760405163d82c8fc960e01b8152606060048201526024016108fa565b5f601a818a8a8581811061208e5761208e61581f565b90506020020160208101906120a39190614ea5565b6001600160a01b03908116825260208201929092526040015f20541603612107578787828181106120d6576120d661581f565b90506020020160208101906120eb9190614ea5565b602460405162c14c0760e81b81526004016108fa929190615803565b600101611fdb565b505f878761211e600182615930565b81811061212d5761212d61581f565b90506020020160208101906121429190614ea5565b6001600160a01b038082165f908152601a6020526040902054919250166121805780602560405162c14c0760e81b81526004016108fa929190615803565b505f805b858110156123b6575f8989878561ffff16815181106121a5576121a561581f565b602002602001015161ffff168181106121c0576121c061581f565b90506020020160208101906121d59190614ea5565b90505f8a8a886121e6876001615b28565b61ffff16815181106121fa576121fa61581f565b602002602001015161ffff168181106122155761221561581f565b905060200201602081019061222a9190614ea5565b90505f8b8b8961223b886002615b28565b61ffff168151811061224f5761224f61581f565b602002602001015161ffff1681811061226a5761226a61581f565b905060200201602081019061227f9190614ea5565b90505f8a8a868181106122945761229461581f565b90506040020160200160208101906122ac9190615b43565b6001600160c01b031690506122c2838386610d67565b6122ef57816001600160a01b0385166021604051632f20c6dd60e11b81526004016108fa93929190615872565b80878a6122fd896001615b28565b61ffff16815181106123115761231161581f565b602002602001015161ffff168151811061232d5761232d61581f565b602002602001018181516123419190615b69565b90525080878a612352896002615b28565b61ffff16815181106123665761236661581f565b602002602001015161ffff16815181106123825761238261581f565b602002602001018181516123969190615b88565b9052506123a4866003615b28565b95505060019093019250612184915050565b5090979650505050505050565b5f826001600160401b038111156123dc576123dc615084565b604051908082528060200260200182016040528015612405578160200160208202803683370190505b5090505f836001600160401b0381111561242157612421615084565b60405190808252806020026020018201604052801561244a578160200160208202803683370190505b5090505f805b8781101561292d575f8b8b87612467866002615b28565b61ffff168151811061247b5761247b61581f565b602002602001015161ffff168181106124965761249661581f565b90506020020160208101906124ab9190614ea5565b90505f806125436124e88f8f8b8961ffff16815181106124cd576124cd61581f565b602002602001015161ffff16818110610ede57610ede61581f565b8d8d878181106124fa576124fa61581f565b90506040020160200160208101906125129190615b43565b6001600160c01b03166040805160018082526020820194909452808201938452606081019290925260808201905291565b915091505f8c8c8681811061255a5761255a61581f565b6125709260206040909202019081019150615851565b61ffff1611156127c3575f60018d8d8781811061258f5761258f61581f565b6125a59260206040909202019081019150615851565b6125af9190615baf565b9050848b8b8361ffff168181106125c8576125c861581f565b90506020028101906125da9190615833565b6125e8906020810190615bca565b8a8461ffff16815181106125fe576125fe61581f565b602002602001015161ffff168181106126195761261961581f565b905060200201602081019061262e9190615851565b61ffff161461268c57848d8d8781811061264a5761264a61581f565b6126609260206040909202019081019150615851565b60405163761741fd60e11b8152600481019290925261ffff1660248201525f60448201526064016108fa565b878161ffff16815181106126a2576126a261581f565b6020026020010180518091906126b790615c0f565b61ffff1661ffff16815250505f6001600160a01b0316878261ffff16815181106126e3576126e361581f565b60200260200101516001600160a01b0316036127355783878261ffff16815181106127105761271061581f565b60200260200101906001600160a01b031690816001600160a01b0316815250506127c1565b836001600160a01b0316878261ffff16815181106127555761275561581f565b60200260200101516001600160a01b0316146127c157848d8d8781811061277e5761277e61581f565b6127949260206040909202019081019150615851565b60405163761741fd60e11b8152600481019290925261ffff166024820152600160448201526064016108fa565b505b837fde794eafdd0c49cd90c138ccbba748d374dd07edadf8996ec6c4c17bb207f62f8d8d878181106127f7576127f761581f565b61280d9260206040909202019081019150615851565b60405161ffff909116815260200160405180910390a26001600160a01b038084165f908152601b6020526040902054166128a35761289e8e8e8a612852896001615b28565b61ffff16815181106128665761286661581f565b602002602001015161ffff168181106128815761288161581f565b90506020020160208101906128969190614ea5565b8484846140d5565b612911565b6129118e8e8a6128b4896001615b28565b61ffff16815181106128c8576128c861581f565b602002602001015161ffff168181106128e3576128e361581f565b90506020020160208101906128f89190614ea5565b8485858560405180602001604052805f8152505f6134b3565b61291c856003615b28565b945050600190920191506124509050565b506040517f4a5d0e1f680ae81712d9c29b0ad1c00a19eb56be491a766959559fc0dd63ffa3905f90a15f5b85811015612a12575f6001600160a01b031683828151811061297c5761297c61581f565b60200260200101516001600160a01b031614806129e957508686828181106129a6576129a661581f565b90506020028101906129b89190615833565b6129c6906020810190615bca565b90508482815181106129da576129da61581f565b602002602001015161ffff1614155b15612a0a576040516376e7d5d160e11b8152600481018290526024016108fa565b600101612958565b5050505050505050505050565b60605f876001600160401b03811115612a3a57612a3a615084565b604051908082528060200260200182016040528015612a63578160200160208202803683370190505b5090505f5b84811015612fee575f868683818110612a8357612a8361581f565b9050602002810190612a959190615833565b612aa3906020810190615bca565b90506001600160401b03811115612abc57612abc615084565b604051908082528060200260200182016040528015612ae5578160200160208202803683370190505b5090505f878784818110612afb57612afb61581f565b9050602002810190612b0d9190615833565b612b1b906020810190615bca565b90506001600160401b03811115612b3457612b34615084565b604051908082528060200260200182016040528015612b5d578160200160208202803683370190505b5090505f805b898986818110612b7557612b7561581f565b9050602002810190612b879190615833565b612b95906020810190615bca565b9050811015612d1257612c1a8e8e8a8d8d8a818110612bb657612bb661581f565b9050602002810190612bc89190615833565b612bd6906020810190615bca565b86818110612be657612be661581f565b9050602002016020810190612bfb9190615851565b612c06906003615c2f565b61ffff16815181106124cd576124cd61581f565b848281518110612c2c57612c2c61581f565b6020026020010181815250508b8b8b8b88818110612c4c57612c4c61581f565b9050602002810190612c5e9190615833565b612c6c906020810190615bca565b84818110612c7c57612c7c61581f565b9050602002016020810190612c919190615851565b61ffff16818110612ca457612ca461581f565b9050604002016020016020810190612cbc9190615b43565b6001600160c01b0316838281518110612cd757612cd761581f565b602002602001018181525050828181518110612cf557612cf561581f565b602002602001015182612d089190615afd565b9150600101612b63565b505f878a8a87818110612d2757612d2761581f565b9050602002810190612d399190615833565b612d47906020810190615bca565b5f818110612d5757612d5761581f565b9050602002016020810190612d6c9190615851565b612d77906003615c2f565b612d82906002615b28565b61ffff1681518110612d9657612d9661581f565b602002602001015190505f8e8e8361ffff16818110612db757612db761581f565b9050602002016020810190612dcc9190614ea5565b9050612e9b8f8f8d8d8a818110612de557612de561581f565b9050602002810190612df79190615833565b612e05906020810190615851565b61ffff16818110612e1857612e1861581f565b9050602002016020810190612e2d9190614ea5565b8287878f8f8c818110612e4257612e4261581f565b9050602002810190612e549190615833565b612e62906040810190615c4d565b8080601f0160208091040260200160405190810160405280939291908181526020018383808284375f9201919091525061432a92505050565b82878c8c89818110612eaf57612eaf61581f565b9050602002810190612ec19190615833565b612ecf906020810190615851565b61ffff1681518110612ee357612ee361581f565b60200260200101818151612ef79190615b69565b90525086518390889061ffff8516908110612f1457612f1461581f565b60200260200101818151612f289190615b88565b9052506001600160a01b0381168f8f8d8d8a818110612f4957612f4961581f565b9050602002810190612f5b9190615833565b612f69906020810190615851565b61ffff16818110612f7c57612f7c61581f565b9050602002016020810190612f919190614ea5565b6001600160a01b0316336001600160a01b03167fcfe53a731d24ac31b725405f3dca8a4d23512d3e1ade2359fbbe7982bec0fd428888604051612fd5929190615c8f565b60405180910390a4505060019093019250612a68915050565b5098975050505050505050565b80518251146130205760405163d82c8fc960e01b815260a560048201526024016108fa565b5f5b82518110156130ce5781818151811061303d5761303d61581f565b60200260200101518382815181106130575761305761581f565b6020026020010151146130c657808282815181106130775761307761581f565b60200260200101518483815181106130915761309161581f565b6020026020010151604051635c61ac6f60e11b81526004016108fa939291909283526020830191909152604082015260600190565b600101613022565b505050565b6001600160a01b038181165f908152601560205260409020541660011461310b575f6130fe82614371565b50905061102b82826144fa565b50565b5f805f61311a84613966565b925092509250825f0361312d5750505050565b6001600160a01b038481165f8181526015602052604090208054909216600160a01b426001600160601b0316021790915561317b9085908560405180602001604052805f8152506001613e46565b60408051848152602081018490529081018290526001600160a01b038516907f5679cef078fbc961b2e34e49c1f56efe542401e2e59dff633b68ddea27812cc29060600160405180910390a250505050565b5f805f84600f0b1280156131e45750826001166001145b90505f8085600f0b126131f757846131fb565b845f035b6001600160801b03169050600160801b68010000000000000000821161329557603f82901b91505b841561328d576001851615613238578102607f1c5b908002607f1c90600285161561324e578102607f1c5b908002607f1c906004851615613264578102607f1c5b908002607f1c90600885161561327a578102607f1c5b60049490941c93908002607f1c90613223565b60401c6133a7565b603f600160601b8310156132af5760209290921b91601f19015b600160701b8310156132c75760109290921b91600f19015b600160781b8310156132df5760089290921b91600719015b6001607c1b8310156132f75760049290921b91600319015b6001607e1b83101561330f5760029290921b91600119015b6001607f1b8310156133265760019290921b915f19015b5f5b8615613391576040821061333a575f80fd5b600187161561336057918302607f1c918101600160801b83111561336057600192831c92015b928002607f1c9260019190911b90600160801b841061338557600193841c9391909101905b600187901c9650613328565b6040811061339d575f80fd5b6040039190911c90505b5f836133b357816133b7565b815f035b905060016001607f1b031981128015906133d8575060016001607f1b038113155b6133e0575f80fd5b9695505050505050565b5f815f036133f957505f6106e2565b5f83600f0b1215613408575f80fd5b600f83900b6001600160801b038316810260401c90608084901c026001600160c01b03811115613436575f80fd5b60401b8119811115613446575f80fd5b019392505050565b6001600160a01b03841661347757604051632bfa23e760e11b81525f60048201526024016108fa565b6001600160a01b03851661349f57604051626a0d4560e21b81525f60048201526024016108fa565b6134ac85858585856145bb565b5050505050565b825184511415806134c357508351155b156134e45760405163d82c8fc960e01b815260a160048201526024016108fa565b6001600160a01b038086165f908152601b60205260409020541661351d576040805162c14c0760e81b81526108fa918791600401615803565b5f805b8451811015613606575f61354e87838151811061353f5761353f61581f565b60200260200101516001613857565b90505f84613566576135618b8a84610d67565b613570565b6135708983610e3c565b9050801580613597575086838151811061358c5761358c61581f565b60200260200101515f145b156135d557888884815181106135af576135af61581f565b60200260200101516020604051632f20c6dd60e11b81526004016108fa93929190615872565b8683815181106135e7576135e761581f565b6020026020010151846135fa9190615afd565b93505050600101613520565b506001600160a01b038087165f908152601b60205260409081902054905163b703825960e01b815291169063b70382599061364d908b908a908a908a908a90600401615cb3565b6020604051808303815f875af1158015613669573d5f803e3d5ffd5b505050506040513d601f19601f8201168201806040525081019061368d9190615901565b6136ba57876001600160a01b0387166060604051632f20c6dd60e11b81526004016108fa93929190615872565b5f6040518060200160405280886001600160a01b03168152506040516020016136ef91516001600160a01b0316815260200190565b60408051601f198184030181526060830182527f3846339d4d39a76fd554559ca1c53716bfb66f542f4b8c5b7517c56812d99c578352602083810182905283830188905291519093505f9261374692909101615d10565b60408051601f198184030181529181526001600160a01b03808b165f908152601c6020529190912054919250613781918c9116898985610bde565b613797896001600160a01b038a16858888613e46565b876001600160a01b0316896001600160a01b03168b6001600160a01b03167f3a5b9c28bd46059b05474dba7c89bea05288c635ea94ef13a7870d081c87a5288a8a6040516137e6929190615c8f565b60405180910390a450505050505050505050565b6138058383836145d4565b6040516001600160601b03821681526001600160a01b0380841691908516907fe60c754dd8ab0b1b5fccba257d6ebcd7d09e360ab7dd7a6e58198ca1f57cdcec906020015b60405180910390a3505050565b5f6001600160a01b0383111561388c5760405163a127935960e01b81526004810184905260ff831660248201526044016108fa565b5090919050565b61389e8383836146e5565b5f6138a842611126565b5f8481526012602090815260408083208151808301909252546001600160c01b038116808352600160c01b9091046001600160401b0316928201839052939450926138f7916114e590866159be565b90508381101561391d5760405163d82c8fc960e01b8152608460048201526024016108fa565b6001600160c01b03939003831681526001600160401b0391821660208083019182525f95865260129052604090942090519351909116600160c01b029290911691909117905550565b6001600160a01b038181165f908152601560209081526040808320815180830190925254938416808252600160a01b9094046001600160601b031691810191909152909182918291158015906139c7575080516001600160a01b0316600114155b156139e9578460c060405162c14c0760e81b81526004016108fa929190615803565b5f610e1082602001516139fc9190615d52565b6001600160601b031690505f613a14610e1042615957565b90508082101580613a32575060208301516001600160601b03908116145b15613a48575f805f95509550955050505061130f565b5f613a6c613a596212750042615930565b85602001516001600160601b031661474b565b90505f613a7882611126565b6001600160401b031690505f613a8d42611126565b6001600160401b031690505f613aa38383615930565b90505f613ae0610e105f548662015180613abd9190615ae6565b613ac79190615afd565b613ad19088615930565b613adb9190615957565b61475a565b90505f425f54856001613af39190615afd565b613b009062015180615ae6565b613b0a9190615afd565b613b149190615930565b90505f613b23610e1083615957565b90505f613b5181613b36610e1086615d77565b11613b41575f613b44565b60015b613adb9060ff1684615afd565b90505f613b92613b8c600988600f8110613b6d57613b6d61581f565b600291828204019190066010029054906101000a9004600f0b87614776565b836147ab565b9050613bdd613bcc600188600f8110613bad57613bad61581f565b600291828204019190066010029054906101000a9004600f0b836147dc565b613bd86012600a615ad8565b6133ea565b613be986610e106133ea565b613bf68a62015180615ae6565b5f54613c029190615afd565b613c0c9190615afd565b613c1884610e106133ea565b613c258a62015180615ae6565b5f54613c319190615afd565b613c3e9062015180615afd565b613c489190615930565b9e509e509e505050505050505050505050509193909250565b6001600160a01b038216613c895760405162ced3e160e81b81525f60048201526024016108fa565b6001600160a01b038381165f81815260136020908152604080832094871680845294825291829020805460ff191686151590811790915591519182527f17307eab39ab6107e8899845ad3d59bd9653f200f220920489ca2b5937696c31910161384a565b5f815f03613cfc5750816106e2565b5f610bca8361480d565b6001600160a01b038181165f908152601a60205260409020541615613d425780608060405162c14c0760e81b81526004016108fa929190615803565b601a6020527ff88cd8d612926ebb404e40725c01084b6e9b3ce0344cde068570342cbd448c6180546001600160a01b039283165f818152604081208054959093166001600160a01b031995861617909255600190915281549092169091179055565b5f80613daf84613d06565b613db884614371565b6001600160a01b038087165f9081526015602052604090206001600160601b03428116600160a01b02928516929092178155929450909250613dfd90869081906137fa565b836001600160a01b0316856001600160a01b03167ffea7c1e1973c8be64c654eb06dc19ffbfc2e924d57544b9da0c0a27d3f893d7760405160405180910390a3505b9250929050565b613e538585858585614866565b5f613e5d42611126565b5f8681526012602090815260408083208151808301909252546001600160c01b038116808352600160c01b9091046001600160401b0316928201839052939450928791613eaf91906114e590876159be565b613eb99190615afd565b90506001600160c01b03811115613eea5787876080604051632f20c6dd60e11b81526004016108fa93929190615872565b6001600160c01b0390811682526001600160401b0392831660208084019182525f988952601290526040909720915196519616600160c01b96909216959095021790935550505050565b6001600160a01b038416613f5d57604051632bfa23e760e11b81525f60048201526024016108fa565b6001600160a01b038516613f8557604051626a0d4560e21b81525f60048201526024016108fa565b60408051600180825260208201869052818301908152606082018590526080820190925290611b4987878484876145bb565b5f80805b838110156140cc575f601a81878785818110613fd957613fd961581f565b9050602002016020810190613fee9190614ea5565b6001600160a01b03908116825260208201929092526040015f20541603614053578161401981615b10565b92505061404c8585838181106140315761403161581f565b90506020020160208101906140469190614ea5565b87613da4565b50506140c4565b61407d8585838181106140685761406861581f565b90506020020160208101906106a99190614ea5565b6140c4578484828181106140935761409361581f565b90506020020160208101906140a89190614ea5565b600560405162c14c0760e81b81526004016108fa929190615803565b600101613fbb565b50949350505050565b80518251146141045781518151604051635b05999160e01b8152600481019290925260248201526044016108fa565b335f61410f42611126565b90505f5b845181101561425b576020818102868101820151908601909101516001600160a01b03891615614236575f8061414a8b8588611873565b915091508282101561418f576040516303dee4c560e01b81526001600160a01b038c1660048201526024810183905260448101849052606481018590526084016108fa565b80156142255760408051858152602081018390525f916001600160a01b038e811692908b16917fc3d58168c5ae7397731d063d5bbf3d657854427343f4c083240f7aacaa2d0f62910160405180910390a4838b6001600160a01b03167f0133941907a52d9dac02e146444ded662cbf8cabf0cbb1f1aead9814cda91d618360405161421c91815260200190565b60405180910390a35b6142338b85858503896148d8565b50505b6001600160a01b03881615614251576142518883838761496d565b5050600101614113565b5083516001036142db5760208401515f906020850151909150866001600160a01b0316886001600160a01b0316856001600160a01b03167fc3d58168c5ae7397731d063d5bbf3d657854427343f4c083240f7aacaa2d0f6285856040516142cc929190918252602082015260400190565b60405180910390a45050610c3d565b846001600160a01b0316866001600160a01b0316836001600160a01b03167f4a39dc06d4c0dbc64b70af90fd698a233a518aa5d07e595d983b8c0526c8f7fb87876040516108c0929190615c8f565b6001600160a01b038416156134ac5782513390600103614363576020848101519084015161435c838989858589614b6e565b5050610c3d565b610c3d818787878787614c8f565b60405163146924ff60e11b81526001600160a01b0382811660048301525f91829182917f0000000000000000000000000000000000000000000000000000000000000000909116906328d249fe90602401602060405180830381865afa1580156143dd573d5f803e3d5ffd5b505050506040513d601f19601f8201168201806040525081019061440191906159a3565b90506001600160a01b03811661441c57505f93849350915050565b5f816001600160a01b0316638b4eed816040518163ffffffff1660e01b8152600401602060405180830381865afa158015614459573d5f803e3d5ffd5b505050506040513d601f19601f8201168201806040525081019061447d9190615d8a565b9050816001600160a01b03166375f12b216040518163ffffffff1660e01b8152600401602060405180830381865afa1580156144bb573d5f803e3d5ffd5b505050506040513d601f19601f820116820180604052508101906144df9190615901565b156144f05760019590945092505050565b9094909350915050565b6001600160a01b0382165f90815260156020526040812080549091600160a01b9091046001600160601b031690036145485760405163d82c8fc960e01b8152608060048201526024016108fa565b80546001600160a01b038381169116146130ce5780546001600160a01b0319166001600160a01b0383161780825561459490600160a01b90046001600160601b0390811690421661474b565b81546001600160601b0391909116600160a01b026001600160a01b03909116178155505050565b6145c7858585856140d5565b6134ac858585858561432a565b6001600160a01b03831615806145f157506001600160a01b038216155b8061460557506001600160a01b0382166001145b156146265760405163d82c8fc960e01b8152608160048201526024016108fa565b6001600160a01b038084165f908152601d6020908152604080832060018452909152902080549091166146655780546001600160a01b03191660011781555b6001600160a01b038085165f908152601d602090815260408083208785168452909152902080549091166146bb57815481546001600160a01b039182166001600160a01b03199182161783558354169085161782555b80546001600160601b03909316600160a01b026001600160a01b0390931692909217909155505050565b6001600160a01b03831661470d57604051626a0d4560e21b81525f60048201526024016108fa565b604080516001808252602082018590528183019081526060820184905260a082019092525f608082018181529192916134ac918791859085906145bb565b5f8183101561388c5750919050565b5f677fffffffffffffff82111561476f575f80fd5b5060401b90565b5f600f83810b9083900b0260401d60016001607f1b031981128015906147a3575060016001607f1b038113155b610e35575f80fd5b5f600f83810b9083900b0160016001607f1b031981128015906147a3575060016001607f1b03811315610e35575f80fd5b5f600f82810b9084900b0360016001607f1b031981128015906147a3575060016001607f1b03811315610e35575f80fd5b5f600e8211614854575f600983600f811061482a5761482a61581f565b60028104919091015460019091166010026101000a9004600f0b905080156148525792915050565b505b6106e267fff2fae779633d1e836131cd565b6001600160a01b03851661488f57604051632bfa23e760e11b81525f60048201526024016108fa565b6040805160018082526020820187905281830190815260608201869052608082019092529082156148cc576148c75f888484886145bb565b611b49565b611b495f8884846140d5565b6001600160c01b038211156149075783836081604051632f20c6dd60e11b81526004016108fa93929190615872565b5f9283526011602090815260408085206001600160a01b0390961680865286835281862082518084019093526001600160c01b0395861683526001600160401b03948516838501908152919096529590915251935116600160c01b029216919091179055565b5f8381526011602090815260408083206001600160a01b03881684528252918290208251808401909352546001600160c01b03811683526001600160401b03600160c01b909104811691830182905283161015614a04576020810151604051632f20c6dd60e11b81526001600160a01b03871660048201526001600160401b03909116602482015260a160448201526064016108fa565b5f816020015183036001600160401b031690505f614a2e835f01516001600160c01b031683613ced565b83519091506001600160c01b0316818103908214614ad35760408051888152602081018390525f916001600160a01b038b169133917fc3d58168c5ae7397731d063d5bbf3d657854427343f4c083240f7aacaa2d0f62910160405180910390a486886001600160a01b03167f0133941907a52d9dac02e146444ded662cbf8cabf0cbb1f1aead9814cda91d6183604051614aca91815260200190565b60405180910390a35b505f614adf8683615afd565b90506001600160c01b03811115614b105787876082604051632f20c6dd60e11b81526004016108fa93929190615872565b6001600160c01b0390811684526001600160401b0394851660208086019182525f988952601181526040808a206001600160a01b03909b168a529990529790962092519651909316600160c01b029590941694909417909355505050565b6001600160a01b0384163b15610c3d5760405163f23a6e6160e01b81526001600160a01b0385169063f23a6e6190614bb29089908990889088908890600401615da1565b6020604051808303815f875af1925050508015614bec575060408051601f3d908101601f19168201909252614be991810190615dda565b60015b614c53573d808015614c19576040519150601f19603f3d011682016040523d82523d5f602084013e614c1e565b606091505b5080515f03614c4b57604051632bfa23e760e11b81526001600160a01b03861660048201526024016108fa565b805181602001fd5b6001600160e01b0319811663f23a6e6160e01b14611b4957604051632bfa23e760e11b81526001600160a01b03861660048201526024016108fa565b6001600160a01b0384163b15610c3d5760405163bc197c8160e01b81526001600160a01b0385169063bc197c8190614cd39089908990889088908890600401615cb3565b6020604051808303815f875af1925050508015614d0d575060408051601f3d908101601f19168201909252614d0a91810190615dda565b60015b614d3a573d808015614c19576040519150601f19603f3d011682016040523d82523d5f602084013e614c1e565b6001600160e01b0319811663bc197c8160e01b14611b4957604051632bfa23e760e11b81526001600160a01b03861660048201526024016108fa565b6001600160a01b038116811461310b575f80fd5b5f8060408385031215614d9b575f80fd5b8235614da681614d76565b946020939093013593505050565b6001600160e01b03198116811461310b575f80fd5b5f60208284031215614dd9575f80fd5b8135610e3581614db4565b5f8083601f840112614df4575f80fd5b5081356001600160401b03811115614e0a575f80fd5b602083019150836020828501011115613e3f575f80fd5b5f805f805f8060808789031215614e36575f80fd5b8635614e4181614d76565b955060208701356001600160401b0380821115614e5c575f80fd5b614e688a838b01614de4565b90975095506040890135915080821115614e80575f80fd5b50614e8d89828a01614de4565b979a9699509497949695606090950135949350505050565b5f60208284031215614eb5575f80fd5b8135610e3581614d76565b5f8083601f840112614ed0575f80fd5b5081356001600160401b03811115614ee6575f80fd5b6020830191508360208260051b8501011115613e3f575f80fd5b5f805f805f805f806080898b031215614f17575f80fd5b88356001600160401b0380821115614f2d575f80fd5b614f398c838d01614ec0565b909a50985060208b0135915080821115614f51575f80fd5b818b0191508b601f830112614f64575f80fd5b813581811115614f72575f80fd5b8c60208260061b8501011115614f86575f80fd5b6020830198508097505060408b0135915080821115614fa3575f80fd5b614faf8c838d01614ec0565b909650945060608b0135915080821115614fc7575f80fd5b50614fd48b828c01614de4565b999c989b5096995094979396929594505050565b5f60208284031215614ff8575f80fd5b5035919050565b5f81518084528060208401602086015e5f602082860101526020601f19601f83011685010191505092915050565b602081525f610e356020830184614fff565b80356001600160401b0381168114615055575f80fd5b919050565b5f806040838503121561506b575f80fd5b8235915061507b6020840161503f565b90509250929050565b634e487b7160e01b5f52604160045260245ffd5b604051601f8201601f191681016001600160401b03811182821017156150c0576150c0615084565b604052919050565b5f6001600160401b038211156150e0576150e0615084565b5060051b60200190565b5f82601f8301126150f9575f80fd5b8135602061510e615109836150c8565b615098565b8083825260208201915060208460051b87010193508684111561512f575f80fd5b602086015b8481101561514b5780358352918301918301615134565b509695505050505050565b5f82601f830112615165575f80fd5b81356001600160401b0381111561517e5761517e615084565b615191601f8201601f1916602001615098565b8181528460208386010111156151a5575f80fd5b816020850160208301375f918101602001919091529392505050565b5f805f805f60a086880312156151d5575f80fd5b85356151e081614d76565b945060208601356151f081614d76565b935060408601356001600160401b038082111561520b575f80fd5b61521789838a016150ea565b9450606088013591508082111561522c575f80fd5b61523889838a016150ea565b9350608088013591508082111561524d575f80fd5b5061525a88828901615156565b9150509295509295909350565b5f8060408385031215615278575f80fd5b82356001600160401b038082111561528e575f80fd5b818501915085601f8301126152a1575f80fd5b813560206152b1615109836150c8565b82815260059290921b840181019181810190898411156152cf575f80fd5b948201945b838610156152f65785356152e781614d76565b825294820194908201906152d4565b9650508601359250508082111561530b575f80fd5b50615318858286016150ea565b9150509250929050565b5f815180845260208085019450602084015f5b8381101561535157815187529582019590820190600101615335565b509495945050505050565b602081525f610e356020830184615322565b5f805f60608486031215615380575f80fd5b833561538b81614d76565b9250602084013561539b81614d76565b915060408401356153ab81614d76565b809150509250925092565b5f80604083850312156153c7575f80fd5b82356153d281614d76565b915060208301356153e281614d76565b809150509250929050565b5f805f805f805f6080888a031215615403575f80fd5b873561540e81614d76565b965060208801356001600160401b0380821115615429575f80fd5b6154358b838c01614ec0565b909850965060408a013591508082111561544d575f80fd5b6154598b838c01614ec0565b909650945060608a0135915080821115615471575f80fd5b5061547e8a828b01614de4565b989b979a50959850939692959293505050565b5f80604083850312156154a2575f80fd5b82356154ad81614d76565b915060208301356001600160601b03811681146153e2575f80fd5b5f805f80606085870312156154db575f80fd5b843593506020850135925060408501356001600160401b038111156154fe575f80fd5b61550a87828801614de4565b95989497509550505050565b5f805f805f805f60a0888a03121561552c575f80fd5b873561553781614d76565b9650602088013561554781614d76565b955060408801356001600160401b0380821115615562575f80fd5b61556e8b838c01614de4565b909750955060608a0135915080821115615586575f80fd5b506155938a828b01614de4565b989b979a50959894979596608090950135949350505050565b801515811461310b575f80fd5b5f80604083850312156155ca575f80fd5b82356155d581614d76565b915060208301356153e2816155ac565b5f805f606084860312156155f7575f80fd5b833561560281614d76565b9250602084013591506040840135600281106153ab575f80fd5b5f805f6040848603121561562e575f80fd5b83356001600160401b03811115615643575f80fd5b61564f86828701614de4565b909790965060209590950135949350505050565b5f805f60608486031215615675575f80fd5b833561568081614d76565b9250602084013591506156956040850161503f565b90509250925092565b5f805f805f60a086880312156156b2575f80fd5b85356156bd81614d76565b945060208601356156cd81614d76565b9350604086013592506060860135915060808601356001600160401b038111156156f5575f80fd5b61525a88828901615156565b5f805f805f60608688031215615715575f80fd5b853561572081614d76565b945060208601356001600160401b038082111561573b575f80fd5b61574789838a01614ec0565b9096509450604088013591508082111561575f575f80fd5b5061576c88828901614ec0565b969995985093965092949392505050565b81835281816020850137505f828201602090810191909152601f909101601f19169091010190565b6001600160a01b03841681526040602082018190525f906157c9908301848661577d565b95945050505050565b604081525f6157e560408301868861577d565b82810360208401526157f881858761577d565b979650505050505050565b6001600160a01b0392909216825260ff16602082015260400190565b634e487b7160e01b5f52603260045260245ffd5b5f8235605e19833603018112615847575f80fd5b9190910192915050565b5f60208284031215615861575f80fd5b813561ffff81168114610e35575f80fd5b6001600160a01b03939093168352602083019190915260ff16604082015260600190565b600181811c908216806158aa57607f821691505b6020821081036158c857634e487b7160e01b5f52602260045260245ffd5b50919050565b6001600160a01b03868116825285166020820152604081018490526080606082018190525f906157f8908301848661577d565b5f60208284031215615911575f80fd5b8151610e35816155ac565b634e487b7160e01b5f52601160045260245ffd5b818103818111156106e2576106e261591c565b634e487b7160e01b5f52601260045260245ffd5b5f8261596557615965615943565b500490565b6001600160a01b0383168152604081016002831061599657634e487b7160e01b5f52602160045260245ffd5b8260208301529392505050565b5f602082840312156159b3575f80fd5b8151610e3581614d76565b6001600160401b038281168282160390808211156159de576159de61591c565b5092915050565b602081525f610e3260208301848661577d565b600181815b80851115615a3257815f1904821115615a1857615a1861591c565b80851615615a2557918102915b93841c93908002906159fd565b509250929050565b5f82615a48575060016106e2565b81615a5457505f6106e2565b8160018114615a6a5760028114615a7457615a90565b60019150506106e2565b60ff841115615a8557615a8561591c565b50506001821b6106e2565b5060208310610133831016604e8410600b8410161715615ab3575081810a6106e2565b615abd83836159f8565b805f1904821115615ad057615ad061591c565b029392505050565b5f610e3560ff841683615a3a565b80820281158282048414176106e2576106e261591c565b808201808211156106e2576106e261591c565b5f60018201615b2157615b2161591c565b5060010190565b61ffff8181168382160190808211156159de576159de61591c565b5f60208284031215615b53575f80fd5b81356001600160c01b0381168114610e35575f80fd5b8181035f8312801583831316838312821617156159de576159de61591c565b8082018281125f831280158216821582161715615ba757615ba761591c565b505092915050565b61ffff8281168282160390808211156159de576159de61591c565b5f808335601e19843603018112615bdf575f80fd5b8301803591506001600160401b03821115615bf8575f80fd5b6020019150600581901b3603821315613e3f575f80fd5b5f61ffff808316818103615c2557615c2561591c565b6001019392505050565b61ffff818116838216028082169190828114615ba757615ba761591c565b5f808335601e19843603018112615c62575f80fd5b8301803591506001600160401b03821115615c7b575f80fd5b602001915036819003821315613e3f575f80fd5b604081525f615ca16040830185615322565b82810360208401526157c98185615322565b6001600160a01b0386811682528516602082015260a0604082018190525f90615cde90830186615322565b8281036060840152615cf08186615322565b90508281036080840152615d048185614fff565b98975050505050505050565b60208152815160208201525f602083015160606040840152615d356080840182614fff565b90506040840151601f198483030160608501526157c98282614fff565b5f6001600160601b0380841680615d6b57615d6b615943565b92169190910492915050565b5f82615d8557615d85615943565b500690565b5f60208284031215615d9a575f80fd5b5051919050565b6001600160a01b03868116825285166020820152604081018490526060810183905260a0608082018190525f906157f890830184614fff565b5f60208284031215615dea575f80fd5b8151610e3581614db456fea2646970667358221220c34dc047b9ca52f28c17482f6e5bd6ea6383dda9cf69e2311d58751baaf80c0e64736f6c63430008190033","linkReferences":{}},"methodIdentifiers":{"advancedUsageFlags(address)":"f796a4af","avatars(address)":"edeeb93c","balanceOf(address,uint256)":"00fdd58e","balanceOfBatch(address[],uint256[])":"4e1273f4","balanceOfOnDay(address,uint256,uint64)":"eb8c2760","burn(uint256,uint256,bytes)":"80a5a371","calculateIssuance(address)":"f179c713","calculateIssuanceWithCheck(address)":"9cd02313","convertDemurrageToInflationaryValue(uint256,uint64)":"253dd0b5","convertInflationaryToDemurrageValue(uint256,uint64)":"99342aa3","day(uint256)":"8ff12b6d","groupMint(address,address[],uint256[],bytes)":"6cb498e5","inflationDayZero()":"7c234d01","invitationOnlyTime()":"2f01b98b","isApprovedForAll(address,address)":"e985e9c5","isGroup(address)":"9e0cc3c4","isHuman(address)":"f72c436f","isOrganization(address)":"b1ce8eab","isPermittedFlow(address,address,address)":"4f338925","isTrusted(address,address)":"6713e230","migrate(address,address[],uint256[])":"f3177079","mintPolicies(address)":"da33e065","operateFlowMatrix(address[],(uint16,uint192)[],(uint16,uint16[],bytes)[],bytes)":"0d22d9b5","personalMint()":"0d873a79","registerCustomGroup(address,address,string,string,bytes32)":"9bec5726","registerGroup(address,string,string,bytes32)":"0528f507","registerHuman(address,bytes32)":"e76cec53","registerOrganization(string,bytes32)":"bfde380d","safeBatchTransferFrom(address,address,uint256[],uint256[],bytes)":"2eb2c2d6","safeTransferFrom(address,address,uint256,uint256,bytes)":"f242432a","setAdvancedUsageFlag(bytes32)":"bda79c54","setApprovalForAll(address,bool)":"a22cb465","stop()":"07da68f5","stopped(address)":"47df87ab","supportsInterface(bytes4)":"01ffc9a7","toTokenId(address)":"7cf637cd","totalSupply(uint256)":"bd85b039","treasuries(address)":"0849b234","trust(address,uint96)":"75dcebc7","trustMarkers(address,address)":"7cd0cea6","uri(uint256)":"0e89341c","wrap(address,uint256,uint8)":"aabd6954"},"id":50}