{"abi":[{"type":"constructor","inputs":[],"stateMutability":"nonpayable"},{"type":"function","name":"DOMAIN_SEPARATOR","inputs":[],"outputs":[{"name":"","type":"bytes32","internalType":"bytes32"}],"stateMutability":"view"},{"type":"function","name":"allowance","inputs":[{"name":"_owner","type":"address","internalType":"address"},{"name":"_spender","type":"address","internalType":"address"}],"outputs":[{"name":"","type":"uint256","internalType":"uint256"}],"stateMutability":"view"},{"type":"function","name":"approve","inputs":[{"name":"_spender","type":"address","internalType":"address"},{"name":"_amount","type":"uint256","internalType":"uint256"}],"outputs":[{"name":"","type":"bool","internalType":"bool"}],"stateMutability":"nonpayable"},{"type":"function","name":"avatar","inputs":[],"outputs":[{"name":"","type":"address","internalType":"address"}],"stateMutability":"view"},{"type":"function","name":"balanceOf","inputs":[{"name":"_account","type":"address","internalType":"address"}],"outputs":[{"name":"","type":"uint256","internalType":"uint256"}],"stateMutability":"view"},{"type":"function","name":"circlesIdentifier","inputs":[],"outputs":[{"name":"","type":"uint256","internalType":"uint256"}],"stateMutability":"view"},{"type":"function","name":"convertBatchDemurrageToInflationaryValues","inputs":[{"name":"_demurrageValues","type":"uint256[]","internalType":"uint256[]"},{"name":"_dayUpdated","type":"uint64","internalType":"uint64"}],"outputs":[{"name":"","type":"uint256[]","internalType":"uint256[]"}],"stateMutability":"pure"},{"type":"function","name":"convertBatchInflationaryToDemurrageValues","inputs":[{"name":"_inflationaryValues","type":"uint256[]","internalType":"uint256[]"},{"name":"_day","type":"uint64","internalType":"uint64"}],"outputs":[{"name":"","type":"uint256[]","internalType":"uint256[]"}],"stateMutability":"pure"},{"type":"function","name":"convertDemurrageToInflationaryValue","inputs":[{"name":"_demurrageValue","type":"uint256","internalType":"uint256"},{"name":"_dayUpdated","type":"uint64","internalType":"uint64"}],"outputs":[{"name":"","type":"uint256","internalType":"uint256"}],"stateMutability":"pure"},{"type":"function","name":"convertInflationaryToDemurrageValue","inputs":[{"name":"_inflationaryValue","type":"uint256","internalType":"uint256"},{"name":"_day","type":"uint64","internalType":"uint64"}],"outputs":[{"name":"","type":"uint256","internalType":"uint256"}],"stateMutability":"pure"},{"type":"function","name":"day","inputs":[{"name":"_timestamp","type":"uint256","internalType":"uint256"}],"outputs":[{"name":"","type":"uint64","internalType":"uint64"}],"stateMutability":"view"},{"type":"function","name":"decimals","inputs":[],"outputs":[{"name":"","type":"uint8","internalType":"uint8"}],"stateMutability":"pure"},{"type":"function","name":"decreaseAllowance","inputs":[{"name":"_spender","type":"address","internalType":"address"},{"name":"_subtractedValue","type":"uint256","internalType":"uint256"}],"outputs":[{"name":"","type":"bool","internalType":"bool"}],"stateMutability":"nonpayable"},{"type":"function","name":"eip712Domain","inputs":[],"outputs":[{"name":"fields","type":"bytes1","internalType":"bytes1"},{"name":"name","type":"string","internalType":"string"},{"name":"version","type":"string","internalType":"string"},{"name":"chainId","type":"uint256","internalType":"uint256"},{"name":"verifyingContract","type":"address","internalType":"address"},{"name":"salt","type":"bytes32","internalType":"bytes32"},{"name":"extensions","type":"uint256[]","internalType":"uint256[]"}],"stateMutability":"view"},{"type":"function","name":"hub","inputs":[],"outputs":[{"name":"","type":"address","internalType":"contract IHubV2"}],"stateMutability":"view"},{"type":"function","name":"increaseAllowance","inputs":[{"name":"_spender","type":"address","internalType":"address"},{"name":"_addedValue","type":"uint256","internalType":"uint256"}],"outputs":[{"name":"","type":"bool","internalType":"bool"}],"stateMutability":"nonpayable"},{"type":"function","name":"inflationDayZero","inputs":[],"outputs":[{"name":"","type":"uint256","internalType":"uint256"}],"stateMutability":"view"},{"type":"function","name":"name","inputs":[],"outputs":[{"name":"","type":"string","internalType":"string"}],"stateMutability":"view"},{"type":"function","name":"nameRegistry","inputs":[],"outputs":[{"name":"","type":"address","internalType":"contract INameRegistry"}],"stateMutability":"view"},{"type":"function","name":"nonces","inputs":[{"name":"_owner","type":"address","internalType":"address"}],"outputs":[{"name":"","type":"uint256","internalType":"uint256"}],"stateMutability":"view"},{"type":"function","name":"onERC1155BatchReceived","inputs":[{"name":"","type":"address","internalType":"address"},{"name":"","type":"address","internalType":"address"},{"name":"","type":"uint256[]","internalType":"uint256[]"},{"name":"","type":"uint256[]","internalType":"uint256[]"},{"name":"","type":"bytes","internalType":"bytes"}],"outputs":[{"name":"","type":"bytes4","internalType":"bytes4"}],"stateMutability":"view"},{"type":"function","name":"onERC1155Received","inputs":[{"name":"","type":"address","internalType":"address"},{"name":"_from","type":"address","internalType":"address"},{"name":"_id","type":"uint256","internalType":"uint256"},{"name":"_amount","type":"uint256","internalType":"uint256"},{"name":"","type":"bytes","internalType":"bytes"}],"outputs":[{"name":"","type":"bytes4","internalType":"bytes4"}],"stateMutability":"nonpayable"},{"type":"function","name":"permit","inputs":[{"name":"_owner","type":"address","internalType":"address"},{"name":"_spender","type":"address","internalType":"address"},{"name":"_value","type":"uint256","internalType":"uint256"},{"name":"_deadline","type":"uint256","internalType":"uint256"},{"name":"_v","type":"uint8","internalType":"uint8"},{"name":"_r","type":"bytes32","internalType":"bytes32"},{"name":"_s","type":"bytes32","internalType":"bytes32"}],"outputs":[],"stateMutability":"nonpayable"},{"type":"function","name":"setup","inputs":[{"name":"_hub","type":"address","internalType":"address"},{"name":"_nameRegistry","type":"address","internalType":"address"},{"name":"_avatar","type":"address","internalType":"address"}],"outputs":[],"stateMutability":"nonpayable"},{"type":"function","name":"supportsInterface","inputs":[{"name":"interfaceId","type":"bytes4","internalType":"bytes4"}],"outputs":[{"name":"","type":"bool","internalType":"bool"}],"stateMutability":"view"},{"type":"function","name":"symbol","inputs":[],"outputs":[{"name":"","type":"string","internalType":"string"}],"stateMutability":"view"},{"type":"function","name":"toTokenId","inputs":[{"name":"_avatar","type":"address","internalType":"address"}],"outputs":[{"name":"","type":"uint256","internalType":"uint256"}],"stateMutability":"pure"},{"type":"function","name":"totalSupply","inputs":[],"outputs":[{"name":"","type":"uint256","internalType":"uint256"}],"stateMutability":"view"},{"type":"function","name":"transfer","inputs":[{"name":"_to","type":"address","internalType":"address"},{"name":"_amount","type":"uint256","internalType":"uint256"}],"outputs":[{"name":"","type":"bool","internalType":"bool"}],"stateMutability":"nonpayable"},{"type":"function","name":"transferFrom","inputs":[{"name":"_from","type":"address","internalType":"address"},{"name":"_to","type":"address","internalType":"address"},{"name":"_amount","type":"uint256","internalType":"uint256"}],"outputs":[{"name":"","type":"bool","internalType":"bool"}],"stateMutability":"nonpayable"},{"type":"function","name":"unwrap","inputs":[{"name":"_amount","type":"uint256","internalType":"uint256"}],"outputs":[],"stateMutability":"nonpayable"},{"type":"event","name":"Approval","inputs":[{"name":"owner","type":"address","indexed":true,"internalType":"address"},{"name":"spender","type":"address","indexed":true,"internalType":"address"},{"name":"value","type":"uint256","indexed":false,"internalType":"uint256"}],"anonymous":false},{"type":"event","name":"DepositInflationary","inputs":[{"name":"account","type":"address","indexed":true,"internalType":"address"},{"name":"amount","type":"uint256","indexed":false,"internalType":"uint256"},{"name":"demurragedAmount","type":"uint256","indexed":false,"internalType":"uint256"}],"anonymous":false},{"type":"event","name":"EIP712DomainChanged","inputs":[],"anonymous":false},{"type":"event","name":"Transfer","inputs":[{"name":"from","type":"address","indexed":true,"internalType":"address"},{"name":"to","type":"address","indexed":true,"internalType":"address"},{"name":"value","type":"uint256","indexed":false,"internalType":"uint256"}],"anonymous":false},{"type":"event","name":"WithdrawInflationary","inputs":[{"name":"account","type":"address","indexed":true,"internalType":"address"},{"name":"amount","type":"uint256","indexed":false,"internalType":"uint256"},{"name":"demurragedAmount","type":"uint256","indexed":false,"internalType":"uint256"}],"anonymous":false},{"type":"error","name":"CirclesAmountOverflow","inputs":[{"name":"amount","type":"uint256","internalType":"uint256"},{"name":"code","type":"uint8","internalType":"uint8"}]},{"type":"error","name":"CirclesERC1155CannotReceiveBatch","inputs":[{"name":"code","type":"uint8","internalType":"uint8"}]},{"type":"error","name":"CirclesErrorAddressUintArgs","inputs":[{"name":"","type":"address","internalType":"address"},{"name":"","type":"uint256","internalType":"uint256"},{"name":"","type":"uint8","internalType":"uint8"}]},{"type":"error","name":"CirclesErrorNoArgs","inputs":[{"name":"","type":"uint8","internalType":"uint8"}]},{"type":"error","name":"CirclesErrorOneAddressArg","inputs":[{"name":"","type":"address","internalType":"address"},{"name":"","type":"uint8","internalType":"uint8"}]},{"type":"error","name":"CirclesIdMustBeDerivedFromAddress","inputs":[{"name":"providedId","type":"uint256","internalType":"uint256"},{"name":"code","type":"uint8","internalType":"uint8"}]},{"type":"error","name":"CirclesInvalidCirclesId","inputs":[{"name":"id","type":"uint256","internalType":"uint256"},{"name":"code","type":"uint8","internalType":"uint8"}]},{"type":"error","name":"CirclesInvalidParameter","inputs":[{"name":"parameter","type":"uint256","internalType":"uint256"},{"name":"code","type":"uint8","internalType":"uint8"}]},{"type":"error","name":"CirclesProxyAlreadyInitialized","inputs":[]},{"type":"error","name":"CirclesReentrancyGuard","inputs":[{"name":"code","type":"uint8","internalType":"uint8"}]},{"type":"error","name":"ECDSAInvalidSignature","inputs":[]},{"type":"error","name":"ECDSAInvalidSignatureLength","inputs":[{"name":"length","type":"uint256","internalType":"uint256"}]},{"type":"error","name":"ECDSAInvalidSignatureS","inputs":[{"name":"s","type":"bytes32","internalType":"bytes32"}]},{"type":"error","name":"ERC20InsufficientAllowance","inputs":[{"name":"spender","type":"address","internalType":"address"},{"name":"allowance","type":"uint256","internalType":"uint256"},{"name":"needed","type":"uint256","internalType":"uint256"}]},{"type":"error","name":"ERC20InsufficientBalance","inputs":[{"name":"sender","type":"address","internalType":"address"},{"name":"balance","type":"uint256","internalType":"uint256"},{"name":"needed","type":"uint256","internalType":"uint256"}]},{"type":"error","name":"ERC20InvalidApprover","inputs":[{"name":"approver","type":"address","internalType":"address"}]},{"type":"error","name":"ERC20InvalidReceiver","inputs":[{"name":"receiver","type":"address","internalType":"address"}]},{"type":"error","name":"ERC20InvalidSender","inputs":[{"name":"sender","type":"address","internalType":"address"}]},{"type":"error","name":"ERC20InvalidSpender","inputs":[{"name":"spender","type":"address","internalType":"address"}]},{"type":"error","name":"ERC2612ExpiredSignature","inputs":[{"name":"deadline","type":"uint256","internalType":"uint256"}]},{"type":"error","name":"ERC2612InvalidSigner","inputs":[{"name":"signer","type":"address","internalType":"address"},{"name":"owner","type":"address","internalType":"address"}]},{"type":"error","name":"InvalidAccountNonce","inputs":[{"name":"account","type":"address","internalType":"address"},{"name":"currentNonce","type":"uint256","internalType":"uint256"}]},{"type":"error","name":"InvalidShortString","inputs":[]},{"type":"error","name":"StringTooLong","inputs":[{"name":"str","type":"string","internalType":"string"}]}],"bytecode":{"object":"0x610260604052681800000000000000006080908152682ffec785b3614dbacc60a0526847fc56a0fe9220851660c052685ff8ad61c531c51ed460e0526877f3cbd7ea10a8394961010052688fedb2134f3060fc826101205268a7e66023d5c3bb8c4e6101405268bfddd6195e2ec38ca76101605268d7d41403c806cea59c6101805268efc919f2f2128706a76101a052690107bce7f6ba49f5e9836101c05269011faf7e1efdd68e14726101e052690137a0dc7b9913365c016102005269014f91031c678c54243d610220526901677ff21143ffd5e163610240526100e890600d90600f6103b1565b503480156100f4575f80fd5b505f5b600e60ff8216116101725761011767fff2fae779633d1e60ff831661018b565b60158260ff16600f811061012d5761012d61046c565b600291828204019190066010026101000a8154816001600160801b030219169083600f0b6001600160801b03160217905550808061016a90610480565b9150506100f7565b50601f80546001600160a01b03191660011790556104aa565b5f805f84600f0b1280156101a25750826001166001145b90505f8085600f0b126101b557846101b9565b845f035b6001600160801b03169050600160801b68010000000000000000821161025357603f82901b91505b841561024b5760018516156101f6578102607f1c5b908002607f1c90600285161561020c578102607f1c5b908002607f1c906004851615610222578102607f1c5b908002607f1c906008851615610238578102607f1c5b60049490941c93908002607f1c906101e1565b60401c61036e565b603f6c010000000000000000000000008310156102765760209290921b91601f19015b600160701b83101561028e5760109290921b91600f19015b600160781b8310156102a65760089290921b91600719015b6001607c1b8310156102be5760049290921b91600319015b6001607e1b8310156102d65760029290921b91600119015b6001607f1b8310156102ed5760019290921b915f19015b5f5b86156103585760408210610301575f80fd5b600187161561032757918302607f1c918101600160801b83111561032757600192831c92015b928002607f1c9260019190911b90600160801b841061034c57600193841c9391909101905b600187901c96506102ef565b60408110610364575f80fd5b6040039190911c90505b5f8361037a578161037e565b815f035b905060016001607f1b0319811280159061039f575060016001607f1b038113155b6103a7575f80fd5b9695505050505050565b600883019183908215610448579160200282015f5b8382111561041357835183826101000a8154816001600160801b030219169083600f0b6001600160801b031602179055509260200192601001602081600f010492830192600103026103c6565b80156104465782816101000a8154906001600160801b030219169055601001602081600f01049283019260010302610413565b505b50610454929150610458565b5090565b5b80821115610454575f8155600101610459565b634e487b7160e01b5f52603260045260245ffd5b5f60ff821660ff81036104a157634e487b7160e01b5f52601160045260245ffd5b60010192915050565b61211a806104b75f395ff3fe608060405234801561000f575f80fd5b50600436106101dc575f3560e01c80637c234d0111610109578063a457c2d71161009e578063dd62ed3e1161006e578063dd62ed3e14610454578063de0e9a3e1461048c578063e8c6f9091461049f578063f23a6e61146104b2575f80fd5b8063a457c2d7146103ef578063a9059cbb14610402578063bc197c8114610415578063d505accf14610441575f80fd5b80638ff12b6d116100d95780638ff12b6d1461039857806395d89b41146103c357806396ef1444146103cb57806399342aa3146103dc575f80fd5b80637c234d01146103475780637cf637cd146103505780637ecebe001461036a57806384b0196e1461037d575f80fd5b80633644e5151161017f5780635aef7de61161014f5780635aef7de6146102d357806370a08231146102e65780637421c1d71461031257806377b8b1c714610332575f80fd5b80633644e5151461027a578063365a86fc1461028257806339509351146102ad5780634eb7221a146102c0575f80fd5b806318160ddd116101ba57806318160ddd1461023057806323b872dd14610245578063253dd0b514610258578063313ce5671461026b575f80fd5b806301ffc9a7146101e057806306fdde0314610208578063095ea7b31461021d575b5f80fd5b6101f36101ee3660046118c2565b6104c5565b60405190151581526020015b60405180910390f35b6102106104fb565b6040516101ff919061191e565b6101f361022b36600461194b565b610593565b601d5460401c5b6040519081526020016101ff565b6101f3610253366004611973565b6105a8565b6102376102663660046119c2565b6105c9565b604051601281526020016101ff565b6102376105fb565b601f54610295906001600160a01b031681565b6040516001600160a01b0390911681526020016101ff565b6101f36102bb36600461194b565b610609565b602054610295906001600160a01b031681565b602154610295906001600160a01b031681565b6102376102f43660046119ec565b6001600160a01b03165f908152601e60205260409081902054901c90565b610325610320366004611ac5565b610642565b6040516101ff9190611b40565b610345610340366004611b52565b610704565b005b610237600c5481565b61023761035e3660046119ec565b6001600160a01b031690565b6102376103783660046119ec565b610856565b610385610873565b6040516101ff9796959493929190611b92565b6103ab6103a6366004611c01565b6108b5565b6040516001600160401b0390911681526020016101ff565b6102106108d2565b6021546001600160a01b0316610237565b6102376103ea3660046119c2565b610970565b6101f36103fd36600461194b565b61098d565b6101f361041036600461194b565b6109d4565b610428610423366004611c90565b6109e0565b6040516001600160e01b031990911681526020016101ff565b61034561044f366004611d32565b610a35565b610237610462366004611d9f565b6001600160a01b039182165f908152600b6020908152604080832093909416825291909152205490565b61034561049a366004611c01565b610b6b565b6103256104ad366004611ac5565b610c51565b6104286104c0366004611dc7565b610cfe565b5f6001600160e01b03198216630271189760e51b14806104f557506301ffc9a760e01b6001600160e01b03198316145b92915050565b60205460215460405162cc244960e11b81526001600160a01b03918216600482015260609291909116906301984892906024015f60405180830381865afa158015610548573d5f803e3d5ffd5b505050506040513d5f823e601f3d908101601f1916820160405261056f9190810190611e26565b60405160200161057f9190611eb1565b604051602081830303815290604052905090565b5f61059f338484610dd2565b50600192915050565b5f6105b4843384610e84565b6105bf848484610efe565b5060019392505050565b5f806105e76801000d05c213d3f237846001600160401b0316610fce565b90506105f381856111fd565b949350505050565b5f610604611261565b905090565b335f818152600b602090815260408083206001600160a01b038716845290915281205490916105bf908561063d8685611ee7565b610dd2565b60605f61066067fff2fae779633d1e846001600160401b0316610fce565b90505f84516001600160401b0381111561067c5761067c611a05565b6040519080825280602002602001820160405280156106a5578160200160208202803683370190505b5090505f5b85518110156106fb576106d6838783815181106106c9576106c9611efa565b60200260200101516111fd565b8282815181106106e8576106e8611efa565b60209081029190910101526001016106aa565b50949350505050565b601f546001600160a01b03161561072e57604051635bbc3edf60e01b815260040160405180910390fd5b6001600160a01b03831661075d5760405163d82c8fc960e01b8152600b60048201526024015b60405180910390fd5b6001600160a01b0382166107875760405163d82c8fc960e01b8152600c6004820152602401610754565b6001600160a01b0381166107b15760405163d82c8fc960e01b8152600d6004820152602401610754565b601f80546001600160a01b038086166001600160a01b0319928316811790935560218054858316908416179055602080549186169190921617815560408051637c234d0160e01b81529051637c234d01926004808401939192918290030181865afa158015610822573d5f803e3d5ffd5b505050506040513d601f19601f820116820180604052508101906108469190611f0e565b600c55610851611292565b505050565b6001600160a01b0381165f908152600a60205260408120546104f5565b5f6060805f805f60606108846112d7565b61088c6112e8565b604080515f80825260208201909252600f60f81b9b939a50919850469750309650945092509050565b5f62015180600c54836108c89190611f25565b6104f59190611f38565b6040805180820182526002815261732d60f01b6020808301919091525460215492516354371abb60e11b81526001600160a01b0393841660048201526060939091169063a86e3576906024015f60405180830381865afa158015610938573d5f803e3d5ffd5b505050506040513d5f823e601f3d908101601f1916820160405261095f9190810190611e26565b60405160200161057f929190611f57565b5f806105e767fff2fae779633d1e846001600160401b0316610fce565b335f908152600b602090815260408083206001600160a01b03861684529091528120548083106109c7576109c233855f610dd2565b6105bf565b6105bf3385858403610dd2565b5f61059f338484610efe565b601f545f9060e4906001600160a01b03163314610a1a5760405162c14c0760e81b815233600482015260ff82166024820152604401610754565b60405163435c329f60e11b81525f6004820152602401610754565b83421115610a595760405163313c898160e11b815260048101859052602401610754565b5f7f6e71edae12b1b97f4d1f60370fef10105fa2faae0126114a169c64845d6126c9888888610aa48c6001600160a01b03165f908152600a6020526040902080546001810190915590565b6040805160208101969096526001600160a01b0394851690860152929091166060840152608083015260a082015260c0810186905260e0016040516020818303038152906040528051906020012090505f610afe826112f9565b90505f610b0d82878787611325565b9050896001600160a01b0316816001600160a01b031614610b54576040516325c0072360e11b81526001600160a01b0380831660048301528b166024820152604401610754565b610b5f8a8a8a610dd2565b50505050505050505050565b5f610b763383611351565b90505f6040610b88836103ea426108b5565b601f5460215460408051637921219560e11b81523060048201523360248201526001600160a01b0392831660448201529390941c6064840181905260a060848501525f60a48501819052945190955091169263f242432a9260c4808201939182900301818387803b158015610bfb575f80fd5b505af1158015610c0d573d5f803e3d5ffd5b505060408051868152602081018590523393507f0d6f2c98313d3d3c2af8590212f72f4012b7ff15b817e0eff73263e2b61f58a392500160405180910390a2505050565b60605f610c706801000d05c213d3f237846001600160401b0316610fce565b90505f84516001600160401b03811115610c8c57610c8c611a05565b604051908082528060200260200182016040528015610cb5578160200160208202803683370190505b5090505f5b85518110156106fb57610cd9838783815181106106c9576106c9611efa565b828281518110610ceb57610ceb611efa565b6020908102919091010152600101610cba565b601f545f9060e3906001600160a01b03163314610d385760405162c14c0760e81b815233600482015260ff82166024820152604401610754565b6021546001600160a01b03168514610d6c576040516363b25d3160e01b8152600481018690525f6024820152604401610754565b5f610d778786611423565b60408051828152602081018890529192506001600160a01b038916917f7fd0e413cd76b45c220350a9c340fdac96b5420d2aceaf9460eb5e012dd4f4f8910160405180910390a25063f23a6e6160e01b979650505050505050565b6001600160a01b038316610dfb5760405163e602df0560e01b81525f6004820152602401610754565b6001600160a01b038216610e2457604051634a1406b160e11b81525f6004820152602401610754565b6001600160a01b038381165f818152600b602090815260408083209487168084529482529182902085905590518481527f8c5be1e5ebec7d5bd14f71427d1e84f3dd0314c0f7b2291e5b200ac8c7c3b925910160405180910390a3505050565b6001600160a01b038084165f908152600b60209081526040808320938616835292905220545f198114610ef85781811015610eeb57604051637dc7a0d960e11b81526001600160a01b03841660048201526024810182905260448101839052606401610754565b610ef88484848403610dd2565b50505050565b5f610f08826114bd565b6001600160a01b0385165f908152601e602052604090205490915081811015610f60576040805163391434e360e21b81526001600160a01b03871660048201529082901c602482015260448101849052606401610754565b6001600160a01b038086165f818152601e602052604080822086860390559287168082529083902080548601905591517fddf252ad1be2c89b69c2b068fc378daa952ba7f163c4a11628f55a4df523b3ef90610fbf9087815260200190565b60405180910390a35050505050565b5f805f84600f0b128015610fe55750826001166001145b90505f8085600f0b12610ff85784610ffc565b845f035b6001600160801b03169050600160801b68010000000000000000821161109657603f82901b91505b841561108e576001851615611039578102607f1c5b908002607f1c90600285161561104f578102607f1c5b908002607f1c906004851615611065578102607f1c5b908002607f1c90600885161561107b578102607f1c5b60049490941c93908002607f1c90611024565b60401c6111a8565b603f600160601b8310156110b05760209290921b91601f19015b600160701b8310156110c85760109290921b91600f19015b600160781b8310156110e05760089290921b91600719015b6001607c1b8310156110f85760049290921b91600319015b6001607e1b8310156111105760029290921b91600119015b6001607f1b8310156111275760019290921b915f19015b5f5b8615611192576040821061113b575f80fd5b600187161561116157918302607f1c918101600160801b83111561116157600192831c92015b928002607f1c9260019190911b90600160801b841061118657600193841c9391909101905b600187901c9650611129565b6040811061119e575f80fd5b6040039190911c90505b5f836111b457816111b8565b815f035b90506f7fffffffffffffffffffffffffffffff1981128015906111eb57506f7fffffffffffffffffffffffffffffff8113155b6111f3575f80fd5b9695505050505050565b5f815f0361120c57505f6104f5565b5f83600f0b121561121b575f80fd5b600f83900b6001600160801b038316810260401c90608084901c026001600160c01b03811115611249575f80fd5b60401b8119811115611259575f80fd5b019392505050565b6003545f906001600160a01b03163014801561127e575060025446145b1561128a575060015490565b6106046114f6565b6112d560405180604001604052806007815260200166436972636c657360c81b815250604051806040016040528060028152602001613b1960f11b81525061155e565b565b6006546060906106049060086115b6565b6007546060906106049060096115b6565b5f6104f5611305611261565b8360405161190160f01b8152600281019290925260228201526042902090565b5f805f806113358888888861165f565b9250925092506113458282611727565b50909695505050505050565b5f8061135c836114bd565b6001600160a01b0385165f908152601e6020526040902054909150818110156113c1576001600160a01b0385165f818152601e60205260409081902054905163391434e360e21b81526004810192909252602482015260448101859052606401610754565b6001600160a01b0385165f818152601e602090815260408083208686039055601d80548790039055518781529192917fddf252ad1be2c89b69c2b068fc378daa952ba7f163c4a11628f55a4df523b3ef910160405180910390a3509392505050565b5f80611448611431846114bd565b61143a426108b5565b6001600160401b03166117e3565b905080601d5f82825461145b9190611ee7565b90915550506001600160a01b0384165f818152601e6020908152604080832080548601905580519085901c81527fddf252ad1be2c89b69c2b068fc378daa952ba7f163c4a11628f55a4df523b3ef910160405180910390a360401c9392505050565b5f6001600160c01b038211156114ef57604051639a03454360e01b8152600481018390525f6024820152604401610754565b5060401b90565b600454600554604080517f8b73c3c69bb8fe3d512ecc4cf759cc79239f7b179b0ffacaa9a75d522b39400f60208201529081019290925260608201524660808201523060a08201525f9060c00160405160208183030381529060405280519060200120905090565b6115698260086117f8565b6006556115778160096117f8565b60075581516020808401919091206004558151908201206005554660025561159d6114f6565b6001555050600380546001600160a01b03191630179055565b606060ff83146115d0576115c983611821565b90506104f5565b8180546115dc90611f6b565b80601f016020809104026020016040519081016040528092919081815260200182805461160890611f6b565b80156116535780601f1061162a57610100808354040283529160200191611653565b820191905f5260205f20905b81548152906001019060200180831161163657829003601f168201915b505050505090506104f5565b5f80807f7fffffffffffffffffffffffffffffff5d576e7357a4501ddfe92f46681b20a084111561169857505f9150600390508261171d565b604080515f808252602082018084528a905260ff891692820192909252606081018790526080810186905260019060a0016020604051602081039080840390855afa1580156116e9573d5f803e3d5ffd5b5050604051601f1901519150506001600160a01b03811661171457505f92506001915082905061171d565b92505f91508190505b9450945094915050565b5f82600381111561173a5761173a611fa3565b03611743575050565b600182600381111561175757611757611fa3565b036117755760405163f645eedf60e01b815260040160405180910390fd5b600282600381111561178957611789611fa3565b036117aa5760405163fce698f760e01b815260048101829052602401610754565b60038260038111156117be576117be611fa3565b036117df576040516335e2f38360e21b815260048101829052602401610754565b5050565b5f806105e76801000d05c213d3f23784610fce565b5f60208351101561180c576115c98361185e565b816118178482612002565b5060ff90506104f5565b60605f61182d8361189b565b6040805160208082528183019092529192505f91906020820181803683375050509182525060208101929092525090565b5f80829050601f81511115611888578260405163305a27a960e01b8152600401610754919061191e565b8051611893826120c1565b179392505050565b5f60ff8216601f8111156104f557604051632cd44ac360e21b815260040160405180910390fd5b5f602082840312156118d2575f80fd5b81356001600160e01b0319811681146118e9575f80fd5b9392505050565b5f81518084528060208401602086015e5f602082860101526020601f19601f83011685010191505092915050565b602081525f6118e960208301846118f0565b80356001600160a01b0381168114611946575f80fd5b919050565b5f806040838503121561195c575f80fd5b61196583611930565b946020939093013593505050565b5f805f60608486031215611985575f80fd5b61198e84611930565b925061199c60208501611930565b9150604084013590509250925092565b80356001600160401b0381168114611946575f80fd5b5f80604083850312156119d3575f80fd5b823591506119e3602084016119ac565b90509250929050565b5f602082840312156119fc575f80fd5b6118e982611930565b634e487b7160e01b5f52604160045260245ffd5b604051601f8201601f191681016001600160401b0381118282101715611a4157611a41611a05565b604052919050565b5f82601f830112611a58575f80fd5b813560206001600160401b03821115611a7357611a73611a05565b8160051b611a82828201611a19565b9283528481018201928281019087851115611a9b575f80fd5b83870192505b84831015611aba57823582529183019190830190611aa1565b979650505050505050565b5f8060408385031215611ad6575f80fd5b82356001600160401b03811115611aeb575f80fd5b611af785828601611a49565b9250506119e3602084016119ac565b5f815180845260208085019450602084015f5b83811015611b3557815187529582019590820190600101611b19565b509495945050505050565b602081525f6118e96020830184611b06565b5f805f60608486031215611b64575f80fd5b611b6d84611930565b9250611b7b60208501611930565b9150611b8960408501611930565b90509250925092565b60ff60f81b8816815260e060208201525f611bb060e08301896118f0565b8281036040840152611bc281896118f0565b606084018890526001600160a01b038716608085015260a0840186905283810360c08501529050611bf38185611b06565b9a9950505050505050505050565b5f60208284031215611c11575f80fd5b5035919050565b5f6001600160401b03821115611c3057611c30611a05565b50601f01601f191660200190565b5f82601f830112611c4d575f80fd5b8135611c60611c5b82611c18565b611a19565b818152846020838601011115611c74575f80fd5b816020850160208301375f918101602001919091529392505050565b5f805f805f60a08688031215611ca4575f80fd5b611cad86611930565b9450611cbb60208701611930565b935060408601356001600160401b0380821115611cd6575f80fd5b611ce289838a01611a49565b94506060880135915080821115611cf7575f80fd5b611d0389838a01611a49565b93506080880135915080821115611d18575f80fd5b50611d2588828901611c3e565b9150509295509295909350565b5f805f805f805f60e0888a031215611d48575f80fd5b611d5188611930565b9650611d5f60208901611930565b95506040880135945060608801359350608088013560ff81168114611d82575f80fd5b9699959850939692959460a0840135945060c09093013592915050565b5f8060408385031215611db0575f80fd5b611db983611930565b91506119e360208401611930565b5f805f805f60a08688031215611ddb575f80fd5b611de486611930565b9450611df260208701611930565b9350604086013592506060860135915060808601356001600160401b03811115611e1a575f80fd5b611d2588828901611c3e565b5f60208284031215611e36575f80fd5b81516001600160401b03811115611e4b575f80fd5b8201601f81018413611e5b575f80fd5b8051611e69611c5b82611c18565b818152856020838501011115611e7d575f80fd5b8160208401602083015e5f91810160200191909152949350505050565b5f81518060208401855e5f93019283525090919050565b5f611ebc8284611e9a565b662d45524332307360c81b81526007019392505050565b634e487b7160e01b5f52601160045260245ffd5b808201808211156104f5576104f5611ed3565b634e487b7160e01b5f52603260045260245ffd5b5f60208284031215611f1e575f80fd5b5051919050565b818103818111156104f5576104f5611ed3565b5f82611f5257634e487b7160e01b5f52601260045260245ffd5b500490565b5f6105f3611f658386611e9a565b84611e9a565b600181811c90821680611f7f57607f821691505b602082108103611f9d57634e487b7160e01b5f52602260045260245ffd5b50919050565b634e487b7160e01b5f52602160045260245ffd5b601f82111561085157805f5260205f20601f840160051c81016020851015611fdc5750805b601f840160051c820191505b81811015611ffb575f8155600101611fe8565b5050505050565b81516001600160401b0381111561201b5761201b611a05565b61202f816120298454611f6b565b84611fb7565b602080601f831160018114612062575f841561204b5750858301515b5f19600386901b1c1916600185901b1785556120b9565b5f85815260208120601f198616915b8281101561209057888601518255948401946001909101908401612071565b50858210156120ad57878501515f19600388901b60f8161c191681555b505060018460011b0185555b505050505050565b80516020808301519190811015611f9d575f1960209190910360031b1b1691905056fea264697066735822122044289c243450d1c5d200b957319046ea4ac372b7aa190717a74489ca43e96e2264736f6c63430008190033","linkReferences":{}},"methodIdentifiers":{"DOMAIN_SEPARATOR()":"3644e515","allowance(address,address)":"dd62ed3e","approve(address,uint256)":"095ea7b3","avatar()":"5aef7de6","balanceOf(address)":"70a08231","circlesIdentifier()":"96ef1444","convertBatchDemurrageToInflationaryValues(uint256[],uint64)":"e8c6f909","convertBatchInflationaryToDemurrageValues(uint256[],uint64)":"7421c1d7","convertDemurrageToInflationaryValue(uint256,uint64)":"253dd0b5","convertInflationaryToDemurrageValue(uint256,uint64)":"99342aa3","day(uint256)":"8ff12b6d","decimals()":"313ce567","decreaseAllowance(address,uint256)":"a457c2d7","eip712Domain()":"84b0196e","hub()":"365a86fc","increaseAllowance(address,uint256)":"39509351","inflationDayZero()":"7c234d01","name()":"06fdde03","nameRegistry()":"4eb7221a","nonces(address)":"7ecebe00","onERC1155BatchReceived(address,address,uint256[],uint256[],bytes)":"bc197c81","onERC1155Received(address,address,uint256,uint256,bytes)":"f23a6e61","permit(address,address,uint256,uint256,uint8,bytes32,bytes32)":"d505accf","setup(address,address,address)":"77b8b1c7","supportsInterface(bytes4)":"01ffc9a7","symbol()":"95d89b41","toTokenId(address)":"7cf637cd","totalSupply()":"18160ddd","transfer(address,uint256)":"a9059cbb","transferFrom(address,address,uint256)":"23b872dd","unwrap(uint256)":"de0e9a3e"},"id":60}